{
  "_format": "hh-sol-artifact-1",
  "contractName": "XStreamPool",
  "sourceName": "contracts/XStreamPool.sol",
  "abi": [
    {
      "inputs": [],
      "stateMutability": "nonpayable",
      "type": "constructor"
    },
    {
      "anonymous": false,
      "inputs": [
        {
          "indexed": false,
          "internalType": "address",
          "name": "previousAdmin",
          "type": "address"
        },
        {
          "indexed": false,
          "internalType": "address",
          "name": "newAdmin",
          "type": "address"
        }
      ],
      "name": "AdminChanged",
      "type": "event"
    },
    {
      "anonymous": false,
      "inputs": [
        {
          "indexed": true,
          "internalType": "address",
          "name": "beacon",
          "type": "address"
        }
      ],
      "name": "BeaconUpgraded",
      "type": "event"
    },
    {
      "anonymous": false,
      "inputs": [
        {
          "indexed": true,
          "internalType": "address",
          "name": "sender",
          "type": "address"
        },
        {
          "indexed": true,
          "internalType": "address",
          "name": "receiver",
          "type": "address"
        },
        {
          "indexed": false,
          "internalType": "int96",
          "name": "flowRate",
          "type": "int96"
        }
      ],
      "name": "FlowEndMessage",
      "type": "event"
    },
    {
      "anonymous": false,
      "inputs": [
        {
          "indexed": true,
          "internalType": "address",
          "name": "sender",
          "type": "address"
        },
        {
          "indexed": true,
          "internalType": "address",
          "name": "receiver",
          "type": "address"
        },
        {
          "indexed": false,
          "internalType": "int96",
          "name": "flowRate",
          "type": "int96"
        },
        {
          "indexed": false,
          "internalType": "uint256",
          "name": "startTime",
          "type": "uint256"
        }
      ],
      "name": "FlowStartMessage",
      "type": "event"
    },
    {
      "anonymous": false,
      "inputs": [
        {
          "indexed": true,
          "internalType": "address",
          "name": "sender",
          "type": "address"
        },
        {
          "indexed": true,
          "internalType": "address",
          "name": "receiver",
          "type": "address"
        },
        {
          "indexed": false,
          "internalType": "int96",
          "name": "newFlowRate",
          "type": "int96"
        },
        {
          "indexed": false,
          "internalType": "uint256",
          "name": "topupTime",
          "type": "uint256"
        },
        {
          "indexed": false,
          "internalType": "uint256",
          "name": "endTime",
          "type": "uint256"
        }
      ],
      "name": "FlowTopupMessage",
      "type": "event"
    },
    {
      "anonymous": false,
      "inputs": [
        {
          "indexed": false,
          "internalType": "uint8",
          "name": "version",
          "type": "uint8"
        }
      ],
      "name": "Initialized",
      "type": "event"
    },
    {
      "anonymous": false,
      "inputs": [
        {
          "indexed": true,
          "internalType": "address",
          "name": "previousOwner",
          "type": "address"
        },
        {
          "indexed": true,
          "internalType": "address",
          "name": "newOwner",
          "type": "address"
        }
      ],
      "name": "OwnershipTransferred",
      "type": "event"
    },
    {
      "anonymous": false,
      "inputs": [
        {
          "indexed": false,
          "internalType": "uint256",
          "name": "amount",
          "type": "uint256"
        }
      ],
      "name": "RebalanceMessageSent",
      "type": "event"
    },
    {
      "anonymous": false,
      "inputs": [
        {
          "indexed": true,
          "internalType": "address",
          "name": "sender",
          "type": "address"
        },
        {
          "indexed": true,
          "internalType": "address",
          "name": "receiver",
          "type": "address"
        }
      ],
      "name": "StreamDelete",
      "type": "event"
    },
    {
      "anonymous": false,
      "inputs": [
        {
          "indexed": true,
          "internalType": "address",
          "name": "sender",
          "type": "address"
        },
        {
          "indexed": false,
          "internalType": "address",
          "name": "receiver",
          "type": "address"
        },
        {
          "indexed": false,
          "internalType": "int96",
          "name": "flowRate",
          "type": "int96"
        },
        {
          "indexed": false,
          "internalType": "uint256",
          "name": "startTime",
          "type": "uint256"
        }
      ],
      "name": "StreamStart",
      "type": "event"
    },
    {
      "anonymous": false,
      "inputs": [
        {
          "indexed": true,
          "internalType": "address",
          "name": "sender",
          "type": "address"
        },
        {
          "indexed": true,
          "internalType": "address",
          "name": "receiver",
          "type": "address"
        },
        {
          "indexed": false,
          "internalType": "int96",
          "name": "flowRate",
          "type": "int96"
        },
        {
          "indexed": false,
          "internalType": "uint256",
          "name": "startTime",
          "type": "uint256"
        }
      ],
      "name": "StreamUpdate",
      "type": "event"
    },
    {
      "anonymous": false,
      "inputs": [
        {
          "indexed": true,
          "internalType": "address",
          "name": "baseToken",
          "type": "address"
        },
        {
          "indexed": false,
          "internalType": "uint256",
          "name": "amount",
          "type": "uint256"
        }
      ],
      "name": "UpgradeToken",
      "type": "event"
    },
    {
      "anonymous": false,
      "inputs": [
        {
          "indexed": true,
          "internalType": "address",
          "name": "implementation",
          "type": "address"
        }
      ],
      "name": "Upgraded",
      "type": "event"
    },
    {
      "anonymous": false,
      "inputs": [
        {
          "indexed": true,
          "internalType": "address",
          "name": "originSender",
          "type": "address"
        },
        {
          "indexed": false,
          "internalType": "uint32",
          "name": "origin",
          "type": "uint32"
        },
        {
          "indexed": false,
          "internalType": "address",
          "name": "asset",
          "type": "address"
        },
        {
          "indexed": false,
          "internalType": "uint256",
          "name": "amount",
          "type": "uint256"
        },
        {
          "indexed": false,
          "internalType": "bytes32",
          "name": "transferId",
          "type": "bytes32"
        },
        {
          "indexed": false,
          "internalType": "uint256",
          "name": "receiveTimestamp",
          "type": "uint256"
        },
        {
          "indexed": false,
          "internalType": "address",
          "name": "senderAccount",
          "type": "address"
        },
        {
          "indexed": false,
          "internalType": "address",
          "name": "receiverAccount",
          "type": "address"
        },
        {
          "indexed": false,
          "internalType": "int256",
          "name": "flowRate",
          "type": "int256"
        }
      ],
      "name": "XReceiveData",
      "type": "event"
    },
    {
      "anonymous": false,
      "inputs": [
        {
          "indexed": true,
          "internalType": "address",
          "name": "sender",
          "type": "address"
        },
        {
          "indexed": true,
          "internalType": "address",
          "name": "receiver",
          "type": "address"
        },
        {
          "indexed": true,
          "internalType": "address",
          "name": "selectedToken",
          "type": "address"
        },
        {
          "indexed": false,
          "internalType": "int96",
          "name": "flowRate",
          "type": "int96"
        },
        {
          "indexed": false,
          "internalType": "uint256",
          "name": "amount",
          "type": "uint256"
        },
        {
          "indexed": false,
          "internalType": "uint256",
          "name": "streamStatus",
          "type": "uint256"
        },
        {
          "indexed": false,
          "internalType": "uint256",
          "name": "startTime",
          "type": "uint256"
        },
        {
          "indexed": false,
          "internalType": "uint256",
          "name": "bufferFee",
          "type": "uint256"
        },
        {
          "indexed": false,
          "internalType": "uint256",
          "name": "networkFee",
          "type": "uint256"
        },
        {
          "indexed": false,
          "internalType": "uint32",
          "name": "destinationDomain",
          "type": "uint32"
        }
      ],
      "name": "XStreamFlowTrigger",
      "type": "event"
    },
    {
      "stateMutability": "payable",
      "type": "fallback"
    },
    {
      "inputs": [
        {
          "internalType": "address",
          "name": "_automate",
          "type": "address"
        },
        {
          "internalType": "address",
          "name": "_fundsOwner",
          "type": "address"
        }
      ],
      "name": "ATC__initialize",
      "outputs": [],
      "stateMutability": "nonpayable",
      "type": "function"
    },
    {
      "inputs": [
        {
          "internalType": "address",
          "name": "_automate",
          "type": "address"
        },
        {
          "internalType": "address",
          "name": "_taskCreator",
          "type": "address"
        }
      ],
      "name": "__initialize",
      "outputs": [],
      "stateMutability": "nonpayable",
      "type": "function"
    },
    {
      "inputs": [
        {
          "internalType": "uint256",
          "name": "_streamActionType",
          "type": "uint256"
        },
        {
          "internalType": "address",
          "name": "_receiver",
          "type": "address"
        },
        {
          "internalType": "int96",
          "name": "_flowRate",
          "type": "int96"
        },
        {
          "internalType": "uint256",
          "name": "relayerFeeInTransactingAsset",
          "type": "uint256"
        },
        {
          "internalType": "uint256",
          "name": "slippage",
          "type": "uint256"
        },
        {
          "internalType": "uint256",
          "name": "cost",
          "type": "uint256"
        },
        {
          "internalType": "address",
          "name": "bridgingToken",
          "type": "address"
        },
        {
          "internalType": "address",
          "name": "destinationContract",
          "type": "address"
        },
        {
          "internalType": "uint32",
          "name": "destinationDomain",
          "type": "uint32"
        }
      ],
      "name": "_sendFlowMessage",
      "outputs": [],
      "stateMutability": "nonpayable",
      "type": "function"
    },
    {
      "inputs": [
        {
          "internalType": "address[]",
          "name": "receivers",
          "type": "address[]"
        },
        {
          "internalType": "int96[]",
          "name": "flowRates",
          "type": "int96[]"
        },
        {
          "internalType": "uint96[]",
          "name": "costs",
          "type": "uint96[]"
        },
        {
          "internalType": "uint256",
          "name": "_streamActionType",
          "type": "uint256"
        },
        {
          "internalType": "uint256",
          "name": "_relayerFee",
          "type": "uint256"
        },
        {
          "internalType": "uint256",
          "name": "slippage",
          "type": "uint256"
        },
        {
          "internalType": "address",
          "name": "bridgingToken",
          "type": "address"
        },
        {
          "internalType": "address",
          "name": "destinationContract",
          "type": "address"
        },
        {
          "internalType": "uint32",
          "name": "destinationDomain",
          "type": "uint32"
        }
      ],
      "name": "_sendToManyFlowMessage",
      "outputs": [],
      "stateMutability": "nonpayable",
      "type": "function"
    },
    {
      "inputs": [
        {
          "internalType": "contract ISuperToken",
          "name": "",
          "type": "address"
        },
        {
          "internalType": "address",
          "name": "",
          "type": "address"
        },
        {
          "internalType": "bytes32",
          "name": "",
          "type": "bytes32"
        },
        {
          "internalType": "bytes",
          "name": "",
          "type": "bytes"
        },
        {
          "internalType": "bytes",
          "name": "",
          "type": "bytes"
        },
        {
          "internalType": "bytes",
          "name": "",
          "type": "bytes"
        }
      ],
      "name": "afterAgreementCreated",
      "outputs": [
        {
          "internalType": "bytes",
          "name": "",
          "type": "bytes"
        }
      ],
      "stateMutability": "nonpayable",
      "type": "function"
    },
    {
      "inputs": [
        {
          "internalType": "contract ISuperToken",
          "name": "",
          "type": "address"
        },
        {
          "internalType": "address",
          "name": "",
          "type": "address"
        },
        {
          "internalType": "bytes32",
          "name": "",
          "type": "bytes32"
        },
        {
          "internalType": "bytes",
          "name": "",
          "type": "bytes"
        },
        {
          "internalType": "bytes",
          "name": "",
          "type": "bytes"
        },
        {
          "internalType": "bytes",
          "name": "",
          "type": "bytes"
        }
      ],
      "name": "afterAgreementTerminated",
      "outputs": [
        {
          "internalType": "bytes",
          "name": "",
          "type": "bytes"
        }
      ],
      "stateMutability": "nonpayable",
      "type": "function"
    },
    {
      "inputs": [
        {
          "internalType": "contract ISuperToken",
          "name": "",
          "type": "address"
        },
        {
          "internalType": "address",
          "name": "",
          "type": "address"
        },
        {
          "internalType": "bytes32",
          "name": "",
          "type": "bytes32"
        },
        {
          "internalType": "bytes",
          "name": "",
          "type": "bytes"
        },
        {
          "internalType": "bytes",
          "name": "",
          "type": "bytes"
        },
        {
          "internalType": "bytes",
          "name": "",
          "type": "bytes"
        }
      ],
      "name": "afterAgreementUpdated",
      "outputs": [
        {
          "internalType": "bytes",
          "name": "",
          "type": "bytes"
        }
      ],
      "stateMutability": "nonpayable",
      "type": "function"
    },
    {
      "inputs": [
        {
          "internalType": "address",
          "name": "_asset",
          "type": "address"
        },
        {
          "internalType": "uint256",
          "name": "_amount",
          "type": "uint256"
        }
      ],
      "name": "approveSuperToken",
      "outputs": [],
      "stateMutability": "nonpayable",
      "type": "function"
    },
    {
      "inputs": [],
      "name": "automate",
      "outputs": [
        {
          "internalType": "contract IAutomate",
          "name": "",
          "type": "address"
        }
      ],
      "stateMutability": "view",
      "type": "function"
    },
    {
      "inputs": [
        {
          "internalType": "contract ISuperToken",
          "name": "",
          "type": "address"
        },
        {
          "internalType": "address",
          "name": "",
          "type": "address"
        },
        {
          "internalType": "bytes32",
          "name": "",
          "type": "bytes32"
        },
        {
          "internalType": "bytes",
          "name": "",
          "type": "bytes"
        },
        {
          "internalType": "bytes",
          "name": "",
          "type": "bytes"
        }
      ],
      "name": "beforeAgreementCreated",
      "outputs": [
        {
          "internalType": "bytes",
          "name": "",
          "type": "bytes"
        }
      ],
      "stateMutability": "view",
      "type": "function"
    },
    {
      "inputs": [
        {
          "internalType": "contract ISuperToken",
          "name": "",
          "type": "address"
        },
        {
          "internalType": "address",
          "name": "",
          "type": "address"
        },
        {
          "internalType": "bytes32",
          "name": "",
          "type": "bytes32"
        },
        {
          "internalType": "bytes",
          "name": "",
          "type": "bytes"
        },
        {
          "internalType": "bytes",
          "name": "",
          "type": "bytes"
        }
      ],
      "name": "beforeAgreementTerminated",
      "outputs": [
        {
          "internalType": "bytes",
          "name": "",
          "type": "bytes"
        }
      ],
      "stateMutability": "view",
      "type": "function"
    },
    {
      "inputs": [
        {
          "internalType": "contract ISuperToken",
          "name": "",
          "type": "address"
        },
        {
          "internalType": "address",
          "name": "",
          "type": "address"
        },
        {
          "internalType": "bytes32",
          "name": "",
          "type": "bytes32"
        },
        {
          "internalType": "bytes",
          "name": "",
          "type": "bytes"
        },
        {
          "internalType": "bytes",
          "name": "",
          "type": "bytes"
        }
      ],
      "name": "beforeAgreementUpdated",
      "outputs": [
        {
          "internalType": "bytes",
          "name": "",
          "type": "bytes"
        }
      ],
      "stateMutability": "view",
      "type": "function"
    },
    {
      "inputs": [],
      "name": "cfa",
      "outputs": [
        {
          "internalType": "contract IConstantFlowAgreementV1",
          "name": "",
          "type": "address"
        }
      ],
      "stateMutability": "view",
      "type": "function"
    },
    {
      "inputs": [],
      "name": "connext",
      "outputs": [
        {
          "internalType": "contract IConnext",
          "name": "",
          "type": "address"
        }
      ],
      "stateMutability": "view",
      "type": "function"
    },
    {
      "inputs": [],
      "name": "dedicatedMsgSender",
      "outputs": [
        {
          "internalType": "address",
          "name": "",
          "type": "address"
        }
      ],
      "stateMutability": "view",
      "type": "function"
    },
    {
      "inputs": [
        {
          "internalType": "address",
          "name": "account",
          "type": "address"
        }
      ],
      "name": "deleteStream",
      "outputs": [],
      "stateMutability": "nonpayable",
      "type": "function"
    },
    {
      "inputs": [],
      "name": "erc20Token",
      "outputs": [
        {
          "internalType": "contract IERC20",
          "name": "",
          "type": "address"
        }
      ],
      "stateMutability": "view",
      "type": "function"
    },
    {
      "inputs": [],
      "name": "fundsOwner",
      "outputs": [
        {
          "internalType": "address",
          "name": "",
          "type": "address"
        }
      ],
      "stateMutability": "view",
      "type": "function"
    },
    {
      "inputs": [],
      "name": "gelato1Balance",
      "outputs": [
        {
          "internalType": "contract IGelato1Balance",
          "name": "",
          "type": "address"
        }
      ],
      "stateMutability": "view",
      "type": "function"
    },
    {
      "inputs": [],
      "name": "host",
      "outputs": [
        {
          "internalType": "contract ISuperfluid",
          "name": "",
          "type": "address"
        }
      ],
      "stateMutability": "view",
      "type": "function"
    },
    {
      "inputs": [
        {
          "internalType": "address payable",
          "name": "_ops",
          "type": "address"
        },
        {
          "internalType": "address",
          "name": "_host",
          "type": "address"
        },
        {
          "internalType": "address",
          "name": "_cfa",
          "type": "address"
        },
        {
          "internalType": "address",
          "name": "_connext",
          "type": "address"
        },
        {
          "internalType": "address",
          "name": "_superToken",
          "type": "address"
        },
        {
          "internalType": "address",
          "name": "_erc20Token",
          "type": "address"
        }
      ],
      "name": "initialize",
      "outputs": [],
      "stateMutability": "nonpayable",
      "type": "function"
    },
    {
      "inputs": [],
      "name": "owner",
      "outputs": [
        {
          "internalType": "address",
          "name": "",
          "type": "address"
        }
      ],
      "stateMutability": "view",
      "type": "function"
    },
    {
      "inputs": [],
      "name": "proxiableUUID",
      "outputs": [
        {
          "internalType": "bytes32",
          "name": "",
          "type": "bytes32"
        }
      ],
      "stateMutability": "view",
      "type": "function"
    },
    {
      "inputs": [
        {
          "internalType": "uint32",
          "name": "destinationDomain",
          "type": "uint32"
        },
        {
          "internalType": "address",
          "name": "destinationContract",
          "type": "address"
        },
        {
          "internalType": "uint256",
          "name": "relayerFeeInTransactingAsset",
          "type": "uint256"
        }
      ],
      "name": "rebalance",
      "outputs": [],
      "stateMutability": "nonpayable",
      "type": "function"
    },
    {
      "inputs": [],
      "name": "renounceOwnership",
      "outputs": [],
      "stateMutability": "nonpayable",
      "type": "function"
    },
    {
      "inputs": [],
      "name": "superToken",
      "outputs": [
        {
          "internalType": "contract ISuperToken",
          "name": "",
          "type": "address"
        }
      ],
      "stateMutability": "view",
      "type": "function"
    },
    {
      "inputs": [
        {
          "internalType": "address",
          "name": "newOwner",
          "type": "address"
        }
      ],
      "name": "transferOwnership",
      "outputs": [],
      "stateMutability": "nonpayable",
      "type": "function"
    },
    {
      "inputs": [
        {
          "internalType": "address",
          "name": "newImplementation",
          "type": "address"
        }
      ],
      "name": "upgradeTo",
      "outputs": [],
      "stateMutability": "nonpayable",
      "type": "function"
    },
    {
      "inputs": [
        {
          "internalType": "address",
          "name": "newImplementation",
          "type": "address"
        },
        {
          "internalType": "bytes",
          "name": "data",
          "type": "bytes"
        }
      ],
      "name": "upgradeToAndCall",
      "outputs": [],
      "stateMutability": "payable",
      "type": "function"
    },
    {
      "inputs": [
        {
          "internalType": "bytes32",
          "name": "_transferId",
          "type": "bytes32"
        },
        {
          "internalType": "uint256",
          "name": "_amount",
          "type": "uint256"
        },
        {
          "internalType": "address",
          "name": "_asset",
          "type": "address"
        },
        {
          "internalType": "address",
          "name": "_originSender",
          "type": "address"
        },
        {
          "internalType": "uint32",
          "name": "_origin",
          "type": "uint32"
        },
        {
          "internalType": "bytes",
          "name": "_callData",
          "type": "bytes"
        }
      ],
      "name": "xReceive",
      "outputs": [
        {
          "internalType": "bytes",
          "name": "",
          "type": "bytes"
        }
      ],
      "stateMutability": "nonpayable",
      "type": "function"
    },
    {
      "stateMutability": "payable",
      "type": "receive"
    }
  ],
  "bytecode": "0x60a08060405234620000e157306080526000549060ff8260081c166200008f575060ff8082161062000053575b604051613a829081620000e782396080518181816107c301528181610a950152610bab0152f35b60ff90811916176000557f7f26b83ff96e1f2b6a682f133852f6798a09c465da95921460cefb3847402498602060405160ff8152a1386200002c565b62461bcd60e51b815260206004820152602760248201527f496e697469616c697a61626c653a20636f6e747261637420697320696e697469604482015266616c697a696e6760c81b6064820152608490fd5b600080fdfe60806040526004361015610018575b361561001657005b005b60003560e01c8063049aacfe1461027057806305627912146102675780631054df8c1461025e578063230dbd291461025557806328f150eb1461024c5780632b193b49146102435780632b4116f71461023a57806330d9c915146102315780633659cfe61461022857806346ee3c591461021f5780634f1ef2861461021657806352d1902d1461020d57806353c11f991461020457806357fb1d67146101fb5780635f9e7d77146101f2578063715018a6146101e9578063884d1f40146101e05780638a13eea7146101d75780638da5cb5b146101ce578063b8add757146101c5578063caf9e191146101bc578063cc2a9a5b146101b3578063d4655e30146101aa578063d8524c6f146101a1578063d86ed3e514610198578063de4b05481461018f578063e2416b5114610186578063f2fde38b1461017d578063f437bc59146101745763fd614f410361000e5761016f6118ee565b61000e565b5061016f6118c4565b5061016f611832565b5061016f6115f1565b5061016f6115c7565b5061016f611554565b5061016f611393565b5061016f611369565b5061016f611238565b5061016f611016565b5061016f610f59565b5061016f610e7b565b5061016f610e51565b5061016f610ddf565b5061016f610d7d565b5061016f610d07565b5061016f610cd7565b5061016f610c61565b5061016f610b97565b5061016f610a53565b5061016f6108e7565b5061016f61079b565b5061016f610729565b5061016f61069a565b5061016f610635565b5061016f6105c6565b5061016f610553565b5061016f6103ec565b5061016f6102e0565b5061016f610289565b600091031261028457565b600080fd5b50346102845760003660031901126102845760c9546040516001600160a01b039091168152602090f35b6001600160a01b0381160361028457565b60c435906102d1826102b3565b565b60e435906102d1826102b3565b50346102845760203660031901126102845761039b6000600435610303816102b3565b60d05461034a906001600160a01b031661033c61031e611d3d565b604051635a5999e360e11b60208201529485933090602486016123ea565b03601f1981018352826109b4565b60ce54610367906001600160a01b03165b6001600160a01b031690565b60cf546001600160a01b0316918361037d611d3d565b6040516339255d5b60e01b815296879586948593916004850161247a565b03925af180156103df575b6103bc575b6100166103b6613613565b9061343a565b6103d8903d806000833e6103d081836109b4565b81019061241c565b50386103ab565b6103e7611d64565b6103a6565b50346102845760003660031901126102845760cf546040516001600160a01b039091168152602090f35b9181601f84011215610284578235916001600160401b038311610284576020838186019501011161028457565b60c06003198201126102845760043561045b816102b3565b91602435610468816102b3565b91604435916001600160401b03606435818111610284578361048c91600401610416565b9390939260843583811161028457826104a791600401610416565b9390939260a435918211610284576104c191600401610416565b9091565b60005b8381106104d85750506000910152565b81810151838201526020016104c8565b90602091610501815180928185528580860191016104c5565b601f01601f1916010190565b90602091828152606051808483015260005b818110610540575060409293506000838284010152601f8019910116010190565b608081015183820160400152840161051f565b50346102845761056236610443565b505050505050505050608460405162461bcd60e51b815260206004820152602e60248201527f556e737570706f727465642063616c6c6261636b202d2041667465722041677260448201526d19595b595b9d08155c19185d195960921b6064820152fd5b50346102845760003660031901126102845760ca546040516001600160a01b039091168152602090f35b80600b0b0361028457565b610104359063ffffffff8216820361028457565b6004359063ffffffff8216820361028457565b6084359063ffffffff8216820361028457565b50346102845761012036600319011261028457610016602435610657816102b3565b60443590610664826105f0565b60c435610670816102b3565b60e4359161067d836102b3565b6106856105fb565b9360a43591608435916064359160043561253f565b50346102845760003660031901126102845760d0546040516001600160a01b039091168152602090f35b9060a0600319830112610284576004356106dd816102b3565b916024356106ea816102b3565b91604435916001600160401b0391606435838111610284578261070f91600401610416565b93909392608435918211610284576104c191600401610416565b503461028457610738366106c4565b50505050505050608460405162461bcd60e51b815260206004820152602f60248201527f556e737570706f727465642063616c6c6261636b202d204265666f726520416760448201526e1c99595b595b9d0810dc99585d1959608a1b6064820152fd5b5034610284576020366003190112610284576004356107b9816102b3565b6001600160a01b037f0000000000000000000000000000000000000000000000000000000000000000811691906107f230841415611c68565b61080f600080516020613a2d833981519152938285541614611cc9565b610817611bc7565b61081f611d3d565b9061084b7f4910fdfa16fed3260ed0e7147f7cc6da11a60208b5b9406d12a635614ffd91435460ff1690565b1561085c5750506100169150611e1e565b6020600491604094939451928380926352d1902d60e01b825286165afa600091816108b7575b506108a45760405162461bcd60e51b8152806108a060048201611dcf565b0390fd5b610016936108b29114611d71565b611eae565b6108d991925060203d81116108e0575b6108d181836109b4565b810190611d55565b9038610882565b503d6108c7565b50346102845760003660031901126102845760cc546040516001600160a01b039091168152602090f35b50634e487b7160e01b600052604160045260246000fd5b6001600160401b03811161093b57604052565b610943610911565b604052565b604081019081106001600160401b0382111761093b57604052565b602081019081106001600160401b0382111761093b57604052565b606081019081106001600160401b0382111761093b57604052565b608081019081106001600160401b0382111761093b57604052565b90601f801991011681019081106001600160401b0382111761093b57604052565b604051906102d182610948565b6020906001600160401b0381116109ff575b601f01601f19160190565b610a07610911565b6109f4565b81601f8201121561028457803590610a23826109e2565b92610a3160405194856109b4565b8284526020838301011161028457816000926020809301838601378301015290565b50604036600319011261028457600435610a6c816102b3565b6024356001600160401b03811161028457610a8b903690600401610a0c565b6001600160a01b037f00000000000000000000000000000000000000000000000000000000000000008116929190610ac530851415611c68565b610ae2600080516020613a2d833981519152948286541614611cc9565b610aea611bc7565b7f4910fdfa16fed3260ed0e7147f7cc6da11a60208b5b9406d12a635614ffd91435460ff1615610b205750506100169150611e1e565b6020600491604094939451928380926352d1902d60e01b825286165afa60009181610b77575b50610b645760405162461bcd60e51b8152806108a060048201611dcf565b61001693610b729114611d71565b611fc6565b610b9091925060203d81116108e0576108d181836109b4565b9038610b46565b5034610284576000366003190112610284577f00000000000000000000000000000000000000000000000000000000000000006001600160a01b03163003610bf657604051600080516020613a2d8339815191528152602090f35b0390f35b60405162461bcd60e51b815260206004820152603860248201527f555550535570677261646561626c653a206d757374206e6f742062652063616c60448201527f6c6564207468726f7567682064656c656761746563616c6c00000000000000006064820152608490fd5b503461028457610c7036610443565b505050505050505050608460405162461bcd60e51b815260206004820152603160248201527f556e737570706f727465642063616c6c6261636b202d2041667465722041677260448201527019595b595b9d0815195c9b5a5b985d1959607a1b6064820152fd5b5034610284576000366003190112610284576020604051737506c12a824d73d9b08564d5afc22c949434755e8152f35b503461028457610d16366106c4565b50505050505050608460405162461bcd60e51b815260206004820152603360248201527f556e737570706f727465642063616c6c6261636b202d20204265666f7265204160448201527219dc99595b595b9d0815195c9b5a5b985d1959606a1b6064820152fd5b503461028457600080600319360112610ddc57610d98611bc7565b603380546001600160a01b0319811690915581906001600160a01b03167f8be0079c531659141344cd1fd0a4f28419497f9722a3daafe3b4186f6b6457e08280a380f35b80fd5b503461028457610dee366106c4565b50505050505050608460405162461bcd60e51b815260206004820152602f60248201527f556e737570706f727465642063616c6c6261636b202d204265666f726520416760448201526e1c99595b595b9d081d5c19185d1959608a1b6064820152fd5b50346102845760003660031901126102845760d1546040516001600160a01b039091168152602090f35b5034610284576000366003190112610284576033546040516001600160a01b039091168152602090f35b9181601f84011215610284578235916001600160401b038311610284576020808501948460051b01011161028457565b9080601f83011215610284578135906001600160401b038211610f4c575b8160051b60405193602093610f0a858401876109b4565b85528380860192820101928311610284578301905b828210610f2d575050505090565b81356001600160601b0381168103610284578152908301908301610f1f565b610f54610911565b610ef3565b503461028457610120366003190112610284576001600160401b0360043581811161028457610f8c903690600401610ea5565b60243583811161028457610fa4903690600401610ea5565b929060443594851161028457610fc1610016953690600401610ed5565b92610fca6102c4565b92610fd36102d3565b94610fdc6105fb565b9660a435946084359460643594612ab5565b604090600319011261028457600435611006816102b3565b90602435611013816102b3565b90565b50346102845761116a61102836610fee565b60009291839161103e60ff845460081c1661235b565b60c980546001600160a01b0319166001600160a01b0393841690811790915591928392916111379190604095869485519063573ea57560e01b82526110b78360209684888160048298885afa91821561122b575b9161120e575b501660018060a01b03166001600160601b0360a01b60cb54161760cb55565b865163cd3d4fb960e01b815260026004820152908290829060249082905afa908115611201575b8b916111e4575b506004875180948193632e8743fd60e21b8352165afa9283156111d7575b89936111a8575b505083516337b6269f60e21b81526001600160a01b03909116600482015293849283919082906024820190565b0392165afa91821561119b575b849261116d575b505060018060a01b03166001600160601b0360a01b60ca54161760ca55565b80f35b61118c9250803d10611194575b61118481836109b4565b8101906133cb565b50388061114b565b503d61117a565b6111a3611d64565b611144565b6111c8929350803d106111d0575b6111c081836109b4565b8101906120fc565b90388061110a565b503d6111b6565b6111df611d64565b611103565b6111fb9150823d84116111d0576111c081836109b4565b386110e5565b611209611d64565b6110de565b6112259150853d87116111d0576111c081836109b4565b38611098565b611233611d64565b611092565b50346102845760c036600319011261028457600435611256816102b3565b6112d8602435611265816102b3565b604435611271816102b3565b60643561127d816102b3565b6084359161128a836102b3565b60a43593611297856102b3565b600054966112bc60ff8960081c16158099819a61135b575b811561133b575b50612099565b876112cf600160ff196000541617600055565b6113225761216b565b6112de57005b6112ee61ff001960005416600055565b604051600181527f7f26b83ff96e1f2b6a682f133852f6798a09c465da95921460cefb38474024989080602081015b0390a1005b61133661010061ff00196000541617600055565b61216b565b303b1591508161134d575b50386112b6565b6001915060ff161438611346565b600160ff82161091506112af565b50346102845760403660031901126102845761001660043561138a816102b3565b60243590613263565b50346102845761116a6113a536610fee565b6114d4600093926113c560ff865460081c166113c08161235b565b61235b565b60c980546001600160a01b0319166001600160a01b03928316908117909155859082604093849283519063573ea57560e01b82526114358360209784898160048298885afa91821561122b579161120e57501660018060a01b03166001600160601b0360a01b60cb54161760cb55565b845163cd3d4fb960e01b815260026004820152908290829060249082905afa908115611547575b8b9161152a575b506004855180948193632e8743fd60e21b8352165afa93841561151d575b89946114fe575b505081516337b6269f60e21b81523060048201529283916024918391165afa9182156114f1575b869261116d57505060018060a01b03166001600160601b0360a01b60ca54161760ca55565b60018060a01b03166001600160601b0360a01b60cc54161760cc55565b6114f9611d64565b6114af565b611515929450803d106111d0576111c081836109b4565b913880611488565b611525611d64565b611481565b6115419150823d84116111d0576111c081836109b4565b38611463565b61154f611d64565b61145c565b50346102845761156336610443565b505050505050505050608460405162461bcd60e51b815260206004820152602e60248201527f556e737570706f727465642063616c6c6261636b202d2041667465722041677260448201526d19595b595b9d0810dc99585d195960921b6064820152fd5b50346102845760003660031901126102845760cd546040516001600160a01b039091168152602090f35b50346102845760603660031901126102845761160b61060f565b60243590611618826102b3565b60d05461162d906001600160a01b031661035b565b604080516370a0823160e01b815230600482015291936020908184602481895afa938415611825575b600094611806575b50853b15610284578161131d957fc94a1c236da82eb3d410bac47c5b84f000a057132eb42bb2d91a5961d569f53f976000865180926308de640f60e11b82528183816116b28d600483019190602083019252565b03925af180156117f9575b6117e0575b50845163cc2cc87160e01b8382015260048152926116df84610948565b60cd546004906116f7906001600160a01b031661035b565b60d0549092908590611711906001600160a01b031661035b565b8951631dce337960e31b815293849182905afa9182156117d3575b6000926117b1575b506000906117666117476044358c6124df565b978a51988997889687956345560b5d60e11b8752309260048801612b66565b03925af180156117a4575b611786575b5050519081529081906020820190565b8161179c92903d106108e0576108d181836109b4565b503880611776565b6117ac611d64565b611771565b60009192506117cc90863d88116111d0576111c081836109b4565b9190611734565b6117db611d64565b61172c565b806117ed6117f392610928565b80610279565b386116c2565b611801611d64565b6116bd565b61181e919450823d84116108e0576108d181836109b4565b923861165e565b61182d611d64565b611656565b503461028457602036600319011261028457600435611850816102b3565b611858611bc7565b6001600160a01b038116156118705761001690611c1f565b60405162461bcd60e51b815260206004820152602660248201527f4f776e61626c653a206e6577206f776e657220697320746865207a65726f206160448201526564647265737360d01b6064820152608490fd5b50346102845760003660031901126102845760ce546040516001600160a01b039091168152602090f35b50346102845760c03660031901126102845760243560443561190f816102b3565b61191a6064356102b3565b611922610622565b60a4356001600160401b03811161028457611941903690600401610a0c565b9261194a612bb5565b9380518101602001906020019061196091612c05565b939592969198909760208201956040830198606084019b608085019b60a086019889528c52611992908d90600b0b9052565b6001600160a01b039081168a5297881687528252855188518b516040805163ffffffff88168152858c1660208201529081018890526004356060820152426080820152928a1660a084015290891660c0830152600b0b60e082015284906064358916907fc707f25766fe978edbde8841ce7eba6f961de4b3d27c82a92df92f0312628ce29061010090a2611a2591613263565b86516001600160a01b03168951600b0b895185845192611a4494612ebd565b5160018103611acb57505093517f8bdfdcdd061980ef6bb87fd40b974fe99b030d2c9ea65b9caa402913f703dbe8959450611a9493506001600160a01b03169150611a8c9050565b9351600b0b90565b9051604080516001600160a01b03959095168552600b9290920b6020850152908301523391606090a25b60405180610bf28161050d565b95979495600203611b5557505090517fdf3ae09d2d56126f06887868f327b2416a52116139650690cfcea980b78ffabb93929150611b4d90611b2a90611b22906001600160a01b031697516001600160a01b031690565b9251600b0b90565b9451836040519485941697169583602090939291936040810194600b0b81520152565b0390a3611abe565b859650611b9a945091611b7f918493611b77611b8c965160018060a01b031690565b925192612c4e565b516001600160a01b031690565b93516001600160a01b031690565b1691167fba72c8e76cd40569cd71077061de631324f923cbd54035f810ed048fb5715578600080a3611abe565b6033546001600160a01b03163303611bdb57565b606460405162461bcd60e51b815260206004820152602060248201527f4f776e61626c653a2063616c6c6572206973206e6f7420746865206f776e65726044820152fd5b603380546001600160a01b039283166001600160a01b0319821681179092559091167f8be0079c531659141344cd1fd0a4f28419497f9722a3daafe3b4186f6b6457e0600080a3565b15611c6f57565b60405162461bcd60e51b815260206004820152602c60248201527f46756e6374696f6e206d7573742062652063616c6c6564207468726f7567682060448201526b19195b1959d85d1958d85b1b60a21b6064820152608490fd5b15611cd057565b60405162461bcd60e51b815260206004820152602c60248201527f46756e6374696f6e206d7573742062652063616c6c6564207468726f7567682060448201526b6163746976652070726f787960a01b6064820152608490fd5b60405190611d3782610963565b60008252565b604051611d4981610963565b60008152906000368137565b90816020910312610284575190565b506040513d6000823e3d90fd5b15611d7857565b60405162461bcd60e51b815260206004820152602960248201527f45524331393637557067726164653a20756e737570706f727465642070726f786044820152681a58589b195555525160ba1b6064820152608490fd5b60809060208152602e60208201527f45524331393637557067726164653a206e657720696d706c656d656e7461746960408201526d6f6e206973206e6f74205555505360901b60608201520190565b803b15611e5357600080516020613a2d83398151915280546001600160a01b0319166001600160a01b03909216919091179055565b60405162461bcd60e51b815260206004820152602d60248201527f455243313936373a206e657720696d706c656d656e746174696f6e206973206e60448201526c1bdd08184818dbdb9d1c9858dd609a1b6064820152608490fd5b611eb781611e1e565b6040516001600160a01b0382167fbc7cd75a20ee27fd9adebab32041f755214dbc6bffa90cc0225b39da2e5c2d3b600080a2825115801590611fbe575b611efd57505050565b813b15611f6d575060008281926020611f6a95519201905af4611f1e61201c565b60405191611f2b8361097e565b602783527f416464726573733a206c6f772d6c6576656c2064656c65676174652063616c6c6020840152660819985a5b195960ca1b604084015261204c565b50565b62461bcd60e51b815260206004820152602660248201527f416464726573733a2064656c65676174652063616c6c20746f206e6f6e2d636f6044820152651b9d1c9858dd60d21b6064820152608490fd5b506000611ef4565b611fcf81611e1e565b6040516001600160a01b0382167fbc7cd75a20ee27fd9adebab32041f755214dbc6bffa90cc0225b39da2e5c2d3b600080a282511580159061201457611efd57505050565b506001611ef4565b3d15612047573d9061202d826109e2565b9161203b60405193846109b4565b82523d6000602084013e565b606090565b90916060911561205b57505090565b6102d19193925b8051909250156120755750805190602001fd5b60405162461bcd60e51b8152602060048201529081906108a09060248301906104e8565b156120a057565b60405162461bcd60e51b815260206004820152602e60248201527f496e697469616c697a61626c653a20636f6e747261637420697320616c72656160448201526d191e481a5b9a5d1a585b1a5e995960921b6064820152608490fd5b908160209103126102845751611013816102b3565b5190811515820361028457565b908160209103126102845761101390612111565b6040519061213f82610948565b601f82527f4164647265737320706572666f726d696e672074686520617070726f76616c006020830152565b60049591612235946121f961219f6121bd96986121db6122179660018060a01b039b8c9a8b80998197829583339116613699565b1660018060a01b03166001600160601b0360a01b60ce54161760ce55565b1660018060a01b03166001600160601b0360a01b60cf54161760cf55565b1660018060a01b03166001600160601b0360a01b60d054161760d055565b1660018060a01b03166001600160601b0360a01b60cd54161760cd55565b1660018060a01b03166001600160601b0360a01b60d154161760d155565b60d05461224a906001600160a01b031661035b565b6122c26040518092631dce337960e31b825281602096879586935afa90811561234e575b600091612331575b5060cd5461228c906001600160a01b031661035b565b60405163095ea7b360e01b81526001600160a01b0390911660048201526000196024820152938492839160009183906044820190565b0393165af18015612324575b6122f6575b50506122e6336122e1612132565b6139c9565b6122ee6123bb565b6102d16123d9565b8161231592903d1061231d575b61230d81836109b4565b81019061211e565b5038806122d3565b503d612303565b61232c611d64565b6122ce565b6123489150833d85116111d0576111c081836109b4565b38612276565b612356611d64565b61226e565b1561236257565b60405162461bcd60e51b815260206004820152602b60248201527f496e697469616c697a61626c653a20636f6e7472616374206973206e6f74206960448201526a6e697469616c697a696e6760a81b6064820152608490fd5b6123d060ff60005460081c166113c08161235b565b6102d133611c1f565b6102d160ff60005460081c1661235b565b6001600160a01b03918216815291811660208301529091166040820152608060608201819052611013929101906104e8565b602081830312610284578051906001600160401b038211610284570181601f8201121561028457805161244e816109e2565b9261245c60405194856109b4565b818452602082840101116102845761101391602080850191016104c5565b6001600160a01b0390911681526060602082018190526110139391926124a2918401906104e8565b9160408184039101526104e8565b50634e487b7160e01b600052601160045260246000fd5b61383f198101919082116124d757565b6102d16124b0565b919082039182116124d757565b9897969361253a959263ffffffff60e0989593168b5260018060a01b03928380921660208d01521660408b0152166060890152608088015260a08701526101008060c08801528601906104e8565b930152565b93909291969794809661255c61035b60d05460018060a01b031690565b6001600160a01b038281169b909790918b91908981168e036127c757509389959360006020946126e98a7fad892cf909f2b2744bbb16e79f3eff8b846f70734cf9756bdd2c9ed309b1c1039e966126a88e61033c6127429f809e8b8a6125cc61035b60d05460018060a01b031690565b60405163095ea7b360e01b815230600482015260001960248201526020938492612651929084908290604490829089905af180156127ba575b61279d575b5060d054612620906001600160a01b031661035b565b6040516323b872dd60e01b815233600482015230602482015260448101929092529093849283919082906064820190565b03925af18015612790575b612772575b50505b60408051602081019290925233908201526001600160a01b039093166060840152600b9490940b60808301524260a083015260c082019390935291829060e0820190565b60cd546126c99083906126c3906001600160a01b031661035b565b986124df565b996040519a8b998a9889976393f18ac560e01b8952339260048a016124ec565b03925af18015612765575b612747575b50604051948594169733974291869360c09363ffffffff939796929760e0870198600b0b875260208701526001604087015260608601526000608086015260a085015216910152565b0390a4565b61275e9060203d81116108e0576108d181836109b4565b50386126f9565b61276d611d64565b6126f4565b8161278892903d1061231d5761230d81836109b4565b503880612661565b612798611d64565b61265c565b6127b390843d861161231d5761230d81836109b4565b503861260a565b6127c2611d64565b612605565b9291509894929593506127e761035b61035b60d15460018060a01b031690565b8c036129ff578961274296600087936126e98f89907fad892cf909f2b2744bbb16e79f3eff8b846f70734cf9756bdd2c9ed309b1c1039f8f8f90846126a893600461293f60209f8e61033c966040518093631dce337960e31b82526020829097889687935afa9081156129f2575b6000916129d5575b5060405163095ea7b360e01b8082523060048301526000196024830152929091859183916044918391600091165af180156129c8575b6129ab575b5060d1546128ae906001600160a01b031661035b565b6040516323b872dd60e01b815233600482015230602482015260448101849052908490829060649082906000905af1801561299e575b612981575b5060d1546128ff906001600160a01b031661035b565b908f61291561035b60cd5460018060a01b031690565b6040519283526001600160a01b031660048301526024820193909352938492839182906044820190565b03925af18015612974575b612956575b5050612664565b8161296c92903d1061231d5761230d81836109b4565b50388061294f565b61297c611d64565b61294a565b61299790843d861161231d5761230d81836109b4565b50386128e9565b6129a6611d64565b6128e4565b6129c190843d861161231d5761230d81836109b4565b5038612898565b6129d0611d64565b612893565b6129ec9150843d86116111d0576111c081836109b4565b3861285d565b6129fa611d64565b612855565b60405162461bcd60e51b815260206004820181905260248201527f53656e642074686520636f727265637420746f6b656e20746f206272696467656044820152606490fd5b50634e487b7160e01b600052603260045260246000fd5b9190811015612a6c575b60051b0190565b612a74612a44565b612a65565b602090805115612a87570190565b612a8f612a44565b0190565b604090805160011015612a87570190565b606090805160021015612a87570190565b98969391909a999795929a60005b818110612ad95750505050505050505050509050565b80612b3c8b8f8b8f8b8f938b8f936001600160601b038f93612b198f939d8f9260019f82602095612b0992612a5b565b3595612b14876102b3565b612a5b565b3593612b24856105f0565b80518d1015612b59575b8c60051b010151169461253f565b6000198114612b4c575b01612ac3565b612b546124b0565b612b46565b612b61612a44565b612b2e565b63ffffffff90911681526001600160a01b03918216602082015291811660408301529091166060820152608081019190915261012c60a082015260e060c08201819052611013929101906104e8565b6040519060c082018281106001600160401b03821117612bf8575b6040528160a06000918281528260208201528260408201528260608201528260808201520152565b612c00610911565b612bd0565b91908260c0910312610284578151916020810151612c22816102b3565b916040820151612c31816102b3565b916060810151612c40816105f0565b9160a0608083015192015190565b9190612cbf93612d1b83612c6c61035b60d15460018060a01b031690565b60cd54612c81906001600160a01b031661035b565b60405163095ea7b360e01b81526001600160a01b03909116600482015260248101969096526020978896918791839190829060009082906044820190565b03925af18015612e31575b612e14575b5060d054612ce5906001600160a01b031661035b565b6040516370a0823160e01b815230600482015291908690839060249082905afa918215612e07575b600092612de8575b506124df565b60cd54600090612d5590612d37906001600160a01b031661035b565b60d154909490612d4f906001600160a01b031661035b565b936124df565b6040516345560b5d60e11b815263ffffffff9590951660048601526001600160a01b039687166024860152919095166044840152336064840152608483015261012c60a483015260e060c4830152600060e4830152909283916101049183915af18015612ddb575b612dc5575050565b81611f6a92903d106108e0576108d181836109b4565b612de3611d64565b612dbd565b612e00919250863d88116108e0576108d181836109b4565b9038612d15565b612e0f611d64565b612d0d565b612e2a90863d881161231d5761230d81836109b4565b5038612ccf565b612e39611d64565b612cca565b9190826080910312610284578151916020810151612e5b816105f0565b916060604083015192015190565b6001600160a01b03918216815291166020820152600b9190910b6040820152608060608201819052611013929101906104e8565b8115612ea7570490565b634e487b7160e01b600052601260045260246000fd5b60cf54612f239491929190612eda906001600160a01b031661035b565b60d05460408051631cd43d1160e31b81526001600160a01b0392831660048201819052306024830152928716604482015291989197909692608091899190829081906064820190565b03915afa968715613107575b6000976130d3575b506060906001810361306257505082600b0b1561305957612ff396600096600b0b6130265784916001600160601b03612fa79596612f99612fa19461033c612f7d611d3d565b8b8d5195869463317e182f60e11b602087015260248601612e69565b961690612e9d565b90613166565b505b60ce54612fbe906001600160a01b031661035b565b60cf5490919084906001600160a01b0316612fd7611d3d565b94516339255d5b60e01b8152968795869485936004850161247a565b03925af18015613019575b6130055750565b611f6a903d806000833e6103d081836109b4565b613021611d64565b612ffe565b91505061033c61305492613038611d3d565b9086519586946328104d3160e11b602087015260248601612e69565b612fa9565b50505050505050565b612ff3986000985094959493509091506002810361308c57505061033c6130549293613038611d3d565b60039194501461309e575b5050612fa9565b6130cc91925061033c6130af611d3d565b8551635a5999e360e11b60208201529485933090602486016123ea565b3880613097565b6130f591975060803d8111613100575b6130ed81836109b4565b810190612e3e565b505090509538612f37565b503d6130e3565b61310f611d64565b612f2f565b6040519061312182610999565b600382526060366020840137565b6040519061313c82610999565b60038252819060005b60608082101561315f579060209182828701015201613145565b5050909150565b6040516302b13c8960e11b60208201526001600160a01b03919091166024808301919091528152611013929161325c906131a16044846109b4565b6132236132116131af613114565b9561320b6131bb61312f565b946131e06131da6131ca6109d5565b9a808c5260208c01988952612a79565b60019052565b6131f36131ed8a51612a93565b60029052565b6132066132008a51612aa4565b60039052565b6124c7565b90613999565b82519061321d82612a79565b52612a79565b5061324161322f611d2a565b82519061323b82612a93565b52612a93565b5061324a611d2a565b90519061325682612aa4565b52612aa4565b503061383a565b60d0546001600160a01b0391821692916132b7916020918491613286911661035b565b60405163095ea7b360e01b81526001600160a01b039091166004820152602481019190915291829081906044820190565b03816000875af1801561339b575b61337d575b5060d0546132e49061035b9081906001600160a01b031681565b803b15610284577fb851214951a7a588e613f4234bad7b815276a829e616f13d7a7cdc6db0e8dfe19161335891600060405180926345977d0360e01b825281838161333788600483019190602083019252565b03925af18015613370575b61335d575b506040519081529081906020820190565b0390a2565b806117ed61336a92610928565b38613347565b613378611d64565b613342565b6133949060203d811161231d5761230d81836109b4565b50386132ca565b6133a3611d64565b6132c5565b9060058210156133b55752565b634e487b7160e01b600052602160045260246000fd5b919082604091031261028457611013602083516133e7816102b3565b9301612111565b156133f557565b60405162461bcd60e51b815260206004820152601e60248201527f5f7472616e736665723a20455448207472616e73666572206661696c656400006044820152606490fd5b906001600160a01b039081169073eeeeeeeeeeeeeeeeeeeeeeeeeeeeeeeeeeeeeeee820361348e57505060008080806102d19461347e60cb5460018060a01b031690565b5af161348861201c565b506133ee565b60cb5460405163a9059cbb60e01b60208201908152929091166001600160a01b0316602482015260448082019490945292835261352292919060009081906134d76064866109b4565b604051946134e486610948565b602086527f5361666545524332303a206c6f772d6c6576656c2063616c6c206661696c65646020870152519082855af161351c61201c565b916135a1565b80518061352d575050565b81602080613542936102d1950101910161211e565b1561354957565b60405162461bcd60e51b815260206004820152602a60248201527f5361666545524332303a204552433230206f7065726174696f6e20646964206e6044820152691bdd081cdd58d8d9595960b21b6064820152608490fd5b9192606091156136065750508151156135b8575090565b3b156135c15790565b60405162461bcd60e51b815260206004820152601d60248201527f416464726573733a2063616c6c20746f206e6f6e2d636f6e74726163740000006044820152606490fd5b9093926102d19250612062565b60c95460408051635c08631b60e11b815291829060049082906001600160a01b03165afa801561368c575b600091829161364c57509091565b9190506040823d8211613684575b81613667604093836109b4565b81010312610ddc57506020815191015190613681826102b3565b91565b3d915061365a565b613694611d64565b61363e565b906114d46102d1926136b660ff60005460081c166113c08161235b565b60c980546001600160a01b0319166001600160a01b03928316908117909155819081604093849283519063573ea57560e01b825261372860209683888160048297875afa90811561382d575b60009161120e57501660018060a01b03166001600160601b0360a01b60cb54161760cb55565b845163cd3d4fb960e01b815260026004820152908290829060249082905afa908115613820575b600091613803575b506004855180948193632e8743fd60e21b8352165afa9384156137f6575b6000946137d7575b505081516337b6269f60e21b81523060048201529283916024918391165afa9182156137ca575b60009261116d57505060018060a01b03166001600160601b0360a01b60ca54161760ca55565b6137d2611d64565b6137a4565b6137ee929450803d106111d0576111c081836109b4565b91388061377d565b6137fe611d64565b613775565b61381a9150823d84116111d0576111c081836109b4565b38613757565b613828611d64565b61374f565b613835611d64565b613702565b60c954604051633323b46760e01b81526001600160a01b03928316600482015260806024820152911692909182906138769060848301906104e8565b9360031982860301604483015260408501948351936040825284518097526060820190602097888097019060005b81811061396f57505050850151918581830391015281518082528582019186808360051b8301019401926000915b83831061393e57505050505060008380926139036064830173eeeeeeeeeeeeeeeeeeeeeeeeeeeeeeeeeeeeeeee9052565b03925af1918215613931575b60009261391b57505090565b6110139250803d106108e0576108d181836109b4565b613939611d64565b61390f565b929597809194975061395d60019396601f1986820301875289516104e8565b970193019301879593899795926138d2565b929496509296808861398684989a600195516133a8565b01950191019088969492889694926138a4565b604051916fffffffffffffffffffffffffffffffff8092166020840152166040820152604081526110138161097e565b600091908291613a1960405180926139fa602083019563319af33360e01b87526040602485015260648401906104e8565b6001600160a01b0391909116604483015203601f1981018352826109b4565b51906a636f6e736f6c652e6c6f675afa5056fe360894a13ba1a3210667c828492db98dca3e2076cc3735a920a3ca505d382bbca2646970667358221220e138af5a2571e3fa34f155d69e610a7c69119f9630b8805b56cd7884509e196464736f6c63430008110033",
  "linkReferences": {},
  "deployedLinkReferences": {}
}