{
  "_format": "hh-sol-artifact-1",
  "contractName": "XStreamPool",
  "sourceName": "contracts/XStreamPool.sol",
  "abi": [
    {
      "inputs": [],
      "stateMutability": "nonpayable",
      "type": "constructor"
    },
    {
      "inputs": [
        {
          "internalType": "uint256",
          "name": "allowance",
          "type": "uint256"
        },
        {
          "internalType": "uint256",
          "name": "amount",
          "type": "uint256"
        },
        {
          "internalType": "address",
          "name": "token",
          "type": "address"
        }
      ],
      "name": "Allowance",
      "type": "error"
    },
    {
      "inputs": [
        {
          "internalType": "uint256",
          "name": "_amount",
          "type": "uint256"
        },
        {
          "internalType": "uint256",
          "name": "_relayerFeeInTransactingAsset",
          "type": "uint256"
        }
      ],
      "name": "AmountLessThanRelayer",
      "type": "error"
    },
    {
      "anonymous": false,
      "inputs": [
        {
          "indexed": false,
          "internalType": "address",
          "name": "previousAdmin",
          "type": "address"
        },
        {
          "indexed": false,
          "internalType": "address",
          "name": "newAdmin",
          "type": "address"
        }
      ],
      "name": "AdminChanged",
      "type": "event"
    },
    {
      "anonymous": false,
      "inputs": [
        {
          "indexed": true,
          "internalType": "address",
          "name": "beacon",
          "type": "address"
        }
      ],
      "name": "BeaconUpgraded",
      "type": "event"
    },
    {
      "anonymous": false,
      "inputs": [
        {
          "indexed": true,
          "internalType": "bytes32",
          "name": "_xStreamId",
          "type": "bytes32"
        },
        {
          "indexed": true,
          "internalType": "address",
          "name": "sender",
          "type": "address"
        },
        {
          "indexed": true,
          "internalType": "address",
          "name": "receiver",
          "type": "address"
        },
        {
          "indexed": false,
          "internalType": "int96",
          "name": "flowRate",
          "type": "int96"
        }
      ],
      "name": "FlowEndMessage",
      "type": "event"
    },
    {
      "anonymous": false,
      "inputs": [
        {
          "indexed": true,
          "internalType": "bytes32",
          "name": "_xStreamId",
          "type": "bytes32"
        },
        {
          "indexed": true,
          "internalType": "address",
          "name": "sender",
          "type": "address"
        },
        {
          "indexed": true,
          "internalType": "address",
          "name": "receiver",
          "type": "address"
        },
        {
          "indexed": false,
          "internalType": "int96",
          "name": "flowRate",
          "type": "int96"
        },
        {
          "indexed": false,
          "internalType": "uint256",
          "name": "startTime",
          "type": "uint256"
        }
      ],
      "name": "FlowStartMessage",
      "type": "event"
    },
    {
      "anonymous": false,
      "inputs": [
        {
          "indexed": true,
          "internalType": "bytes32",
          "name": "_xStreamId",
          "type": "bytes32"
        },
        {
          "indexed": true,
          "internalType": "address",
          "name": "sender",
          "type": "address"
        },
        {
          "indexed": true,
          "internalType": "address",
          "name": "receiver",
          "type": "address"
        },
        {
          "indexed": false,
          "internalType": "int96",
          "name": "newFlowRate",
          "type": "int96"
        },
        {
          "indexed": false,
          "internalType": "uint256",
          "name": "topupTime",
          "type": "uint256"
        },
        {
          "indexed": false,
          "internalType": "uint256",
          "name": "endTime",
          "type": "uint256"
        }
      ],
      "name": "FlowTopupMessage",
      "type": "event"
    },
    {
      "anonymous": false,
      "inputs": [
        {
          "indexed": false,
          "internalType": "uint8",
          "name": "version",
          "type": "uint8"
        }
      ],
      "name": "Initialized",
      "type": "event"
    },
    {
      "anonymous": false,
      "inputs": [
        {
          "indexed": true,
          "internalType": "address",
          "name": "previousOwner",
          "type": "address"
        },
        {
          "indexed": true,
          "internalType": "address",
          "name": "newOwner",
          "type": "address"
        }
      ],
      "name": "OwnershipTransferred",
      "type": "event"
    },
    {
      "anonymous": false,
      "inputs": [
        {
          "indexed": true,
          "internalType": "bytes32",
          "name": "_xStreamId",
          "type": "bytes32"
        },
        {
          "indexed": true,
          "internalType": "address",
          "name": "sender",
          "type": "address"
        },
        {
          "indexed": true,
          "internalType": "address",
          "name": "receiver",
          "type": "address"
        }
      ],
      "name": "StreamDelete",
      "type": "event"
    },
    {
      "anonymous": false,
      "inputs": [
        {
          "indexed": true,
          "internalType": "bytes32",
          "name": "_xStreamId",
          "type": "bytes32"
        },
        {
          "indexed": true,
          "internalType": "address",
          "name": "sender",
          "type": "address"
        },
        {
          "indexed": false,
          "internalType": "address",
          "name": "receiver",
          "type": "address"
        },
        {
          "indexed": false,
          "internalType": "int96",
          "name": "flowRate",
          "type": "int96"
        },
        {
          "indexed": false,
          "internalType": "uint256",
          "name": "startTime",
          "type": "uint256"
        }
      ],
      "name": "StreamStart",
      "type": "event"
    },
    {
      "anonymous": false,
      "inputs": [
        {
          "indexed": true,
          "internalType": "bytes32",
          "name": "_xStreamId",
          "type": "bytes32"
        },
        {
          "indexed": true,
          "internalType": "address",
          "name": "sender",
          "type": "address"
        },
        {
          "indexed": true,
          "internalType": "address",
          "name": "receiver",
          "type": "address"
        },
        {
          "indexed": false,
          "internalType": "int96",
          "name": "flowRate",
          "type": "int96"
        },
        {
          "indexed": false,
          "internalType": "uint256",
          "name": "startTime",
          "type": "uint256"
        }
      ],
      "name": "StreamUpdate",
      "type": "event"
    },
    {
      "anonymous": false,
      "inputs": [
        {
          "indexed": true,
          "internalType": "address",
          "name": "baseToken",
          "type": "address"
        },
        {
          "indexed": false,
          "internalType": "uint256",
          "name": "amount",
          "type": "uint256"
        }
      ],
      "name": "UpgradeToken",
      "type": "event"
    },
    {
      "anonymous": false,
      "inputs": [
        {
          "indexed": true,
          "internalType": "address",
          "name": "implementation",
          "type": "address"
        }
      ],
      "name": "Upgraded",
      "type": "event"
    },
    {
      "anonymous": false,
      "inputs": [
        {
          "indexed": true,
          "internalType": "bytes32",
          "name": "_xStreamId",
          "type": "bytes32"
        },
        {
          "indexed": true,
          "internalType": "address",
          "name": "originSender",
          "type": "address"
        },
        {
          "indexed": false,
          "internalType": "uint32",
          "name": "origin",
          "type": "uint32"
        },
        {
          "indexed": false,
          "internalType": "address",
          "name": "asset",
          "type": "address"
        },
        {
          "indexed": false,
          "internalType": "uint256",
          "name": "amount",
          "type": "uint256"
        },
        {
          "indexed": false,
          "internalType": "bytes32",
          "name": "transferId",
          "type": "bytes32"
        },
        {
          "indexed": false,
          "internalType": "uint256",
          "name": "receiveTimestamp",
          "type": "uint256"
        },
        {
          "indexed": false,
          "internalType": "address",
          "name": "senderAccount",
          "type": "address"
        },
        {
          "indexed": false,
          "internalType": "address",
          "name": "receiverAccount",
          "type": "address"
        },
        {
          "indexed": false,
          "internalType": "int256",
          "name": "flowRate",
          "type": "int256"
        }
      ],
      "name": "XReceiveData",
      "type": "event"
    },
    {
      "anonymous": false,
      "inputs": [
        {
          "indexed": true,
          "internalType": "bytes32",
          "name": "_xStreamId",
          "type": "bytes32"
        },
        {
          "indexed": true,
          "internalType": "address",
          "name": "sender",
          "type": "address"
        },
        {
          "indexed": true,
          "internalType": "address",
          "name": "receiver",
          "type": "address"
        },
        {
          "indexed": false,
          "internalType": "address",
          "name": "selectedToken",
          "type": "address"
        },
        {
          "indexed": false,
          "internalType": "int96",
          "name": "flowRate",
          "type": "int96"
        },
        {
          "indexed": false,
          "internalType": "uint256",
          "name": "amount",
          "type": "uint256"
        },
        {
          "indexed": false,
          "internalType": "uint256",
          "name": "streamStatus",
          "type": "uint256"
        },
        {
          "indexed": false,
          "internalType": "uint256",
          "name": "startTime",
          "type": "uint256"
        },
        {
          "indexed": false,
          "internalType": "uint256",
          "name": "bufferFee",
          "type": "uint256"
        },
        {
          "indexed": false,
          "internalType": "uint256",
          "name": "networkFee",
          "type": "uint256"
        },
        {
          "indexed": false,
          "internalType": "uint32",
          "name": "destinationDomain",
          "type": "uint32"
        }
      ],
      "name": "XStreamFlowTrigger",
      "type": "event"
    },
    {
      "stateMutability": "payable",
      "type": "fallback"
    },
    {
      "inputs": [
        {
          "internalType": "address",
          "name": "_automate",
          "type": "address"
        },
        {
          "internalType": "address",
          "name": "_fundsOwner",
          "type": "address"
        }
      ],
      "name": "ATC__initialize",
      "outputs": [],
      "stateMutability": "nonpayable",
      "type": "function"
    },
    {
      "inputs": [],
      "name": "WETH",
      "outputs": [
        {
          "internalType": "address",
          "name": "",
          "type": "address"
        }
      ],
      "stateMutability": "view",
      "type": "function"
    },
    {
      "inputs": [
        {
          "internalType": "address",
          "name": "_automate",
          "type": "address"
        },
        {
          "internalType": "address",
          "name": "_taskCreator",
          "type": "address"
        }
      ],
      "name": "__initialize",
      "outputs": [],
      "stateMutability": "nonpayable",
      "type": "function"
    },
    {
      "inputs": [
        {
          "internalType": "address[]",
          "name": "_receivers",
          "type": "address[]"
        },
        {
          "internalType": "int96[]",
          "name": "_flowRates",
          "type": "int96[]"
        },
        {
          "internalType": "uint96[]",
          "name": "_amounts",
          "type": "uint96[]"
        },
        {
          "internalType": "uint256",
          "name": "_streamActionType",
          "type": "uint256"
        },
        {
          "internalType": "uint256",
          "name": "_relayerFee",
          "type": "uint256"
        },
        {
          "internalType": "uint256",
          "name": "_slippage",
          "type": "uint256"
        },
        {
          "internalType": "address",
          "name": "_bridgingToken",
          "type": "address"
        },
        {
          "internalType": "address",
          "name": "_destinationSuperToken",
          "type": "address"
        },
        {
          "internalType": "address",
          "name": "_destinationContract",
          "type": "address"
        },
        {
          "internalType": "uint32",
          "name": "_destinationDomain",
          "type": "uint32"
        }
      ],
      "name": "_createMultipleXStream",
      "outputs": [],
      "stateMutability": "nonpayable",
      "type": "function"
    },
    {
      "inputs": [
        {
          "internalType": "uint256",
          "name": "_streamActionType",
          "type": "uint256"
        },
        {
          "internalType": "address",
          "name": "_receiver",
          "type": "address"
        },
        {
          "internalType": "int96",
          "name": "_flowRate",
          "type": "int96"
        },
        {
          "internalType": "uint256",
          "name": "_relayerFeeInTransactingAsset",
          "type": "uint256"
        },
        {
          "internalType": "uint256",
          "name": "_slippage",
          "type": "uint256"
        },
        {
          "internalType": "uint256",
          "name": "_amount",
          "type": "uint256"
        },
        {
          "internalType": "address",
          "name": "_bridgingToken",
          "type": "address"
        },
        {
          "internalType": "address",
          "name": "_destinationSuperToken",
          "type": "address"
        },
        {
          "internalType": "address",
          "name": "_destinationContract",
          "type": "address"
        },
        {
          "internalType": "uint32",
          "name": "_destinationDomain",
          "type": "uint32"
        }
      ],
      "name": "_createXStream",
      "outputs": [],
      "stateMutability": "nonpayable",
      "type": "function"
    },
    {
      "inputs": [
        {
          "internalType": "bytes32",
          "name": "",
          "type": "bytes32"
        }
      ],
      "name": "_createdXStreams",
      "outputs": [
        {
          "internalType": "address",
          "name": "_user",
          "type": "address"
        },
        {
          "internalType": "int96",
          "name": "_flowRate",
          "type": "int96"
        },
        {
          "internalType": "uint256",
          "name": "_startTime",
          "type": "uint256"
        },
        {
          "internalType": "uint256",
          "name": "_endTime",
          "type": "uint256"
        },
        {
          "internalType": "address",
          "name": "_superToken",
          "type": "address"
        },
        {
          "internalType": "address",
          "name": "_token",
          "type": "address"
        },
        {
          "internalType": "bytes32",
          "name": "_gelatoTaskID",
          "type": "bytes32"
        }
      ],
      "stateMutability": "view",
      "type": "function"
    },
    {
      "inputs": [
        {
          "internalType": "address",
          "name": "_from",
          "type": "address"
        },
        {
          "internalType": "address",
          "name": "_to",
          "type": "address"
        },
        {
          "internalType": "uint256",
          "name": "_amount",
          "type": "uint256"
        },
        {
          "internalType": "address",
          "name": "_fromToken",
          "type": "address"
        },
        {
          "internalType": "address",
          "name": "_toToken",
          "type": "address"
        },
        {
          "internalType": "uint256",
          "name": "_toChain",
          "type": "uint256"
        },
        {
          "internalType": "uint32",
          "name": "_destinationDomain",
          "type": "uint32"
        },
        {
          "internalType": "address",
          "name": "_destinationContract",
          "type": "address"
        },
        {
          "internalType": "uint256",
          "name": "_cycles",
          "type": "uint256"
        },
        {
          "internalType": "uint256",
          "name": "_startTime",
          "type": "uint256"
        },
        {
          "internalType": "uint256",
          "name": "_interval",
          "type": "uint256"
        }
      ],
      "name": "_getWeb3FunctionHash",
      "outputs": [
        {
          "internalType": "bytes",
          "name": "",
          "type": "bytes"
        }
      ],
      "stateMutability": "view",
      "type": "function"
    },
    {
      "inputs": [
        {
          "internalType": "uint256",
          "name": "_streamActionType",
          "type": "uint256"
        },
        {
          "internalType": "address",
          "name": "_sender",
          "type": "address"
        },
        {
          "internalType": "address",
          "name": "_receiver",
          "type": "address"
        },
        {
          "internalType": "int96",
          "name": "_flowRate",
          "type": "int96"
        },
        {
          "internalType": "uint256",
          "name": "_startTime",
          "type": "uint256"
        },
        {
          "internalType": "address",
          "name": "_superToken",
          "type": "address"
        },
        {
          "internalType": "address",
          "name": "_asset",
          "type": "address"
        },
        {
          "internalType": "uint256",
          "name": "_amount",
          "type": "uint256"
        }
      ],
      "name": "_getXStreamJobId",
      "outputs": [
        {
          "internalType": "bytes32",
          "name": "",
          "type": "bytes32"
        }
      ],
      "stateMutability": "pure",
      "type": "function"
    },
    {
      "inputs": [
        {
          "internalType": "address",
          "name": "",
          "type": "address"
        }
      ],
      "name": "_isTokenAllowed",
      "outputs": [
        {
          "internalType": "bool",
          "name": "",
          "type": "bool"
        }
      ],
      "stateMutability": "view",
      "type": "function"
    },
    {
      "inputs": [
        {
          "internalType": "enum XStreamPool.StreamOptions",
          "name": "",
          "type": "uint8"
        }
      ],
      "name": "_web3functionHashes",
      "outputs": [
        {
          "internalType": "string",
          "name": "",
          "type": "string"
        }
      ],
      "stateMutability": "view",
      "type": "function"
    },
    {
      "inputs": [
        {
          "internalType": "contract ISuperToken",
          "name": "",
          "type": "address"
        },
        {
          "internalType": "address",
          "name": "",
          "type": "address"
        },
        {
          "internalType": "bytes32",
          "name": "",
          "type": "bytes32"
        },
        {
          "internalType": "bytes",
          "name": "",
          "type": "bytes"
        },
        {
          "internalType": "bytes",
          "name": "",
          "type": "bytes"
        },
        {
          "internalType": "bytes",
          "name": "",
          "type": "bytes"
        }
      ],
      "name": "afterAgreementCreated",
      "outputs": [
        {
          "internalType": "bytes",
          "name": "",
          "type": "bytes"
        }
      ],
      "stateMutability": "nonpayable",
      "type": "function"
    },
    {
      "inputs": [
        {
          "internalType": "contract ISuperToken",
          "name": "",
          "type": "address"
        },
        {
          "internalType": "address",
          "name": "",
          "type": "address"
        },
        {
          "internalType": "bytes32",
          "name": "",
          "type": "bytes32"
        },
        {
          "internalType": "bytes",
          "name": "",
          "type": "bytes"
        },
        {
          "internalType": "bytes",
          "name": "",
          "type": "bytes"
        },
        {
          "internalType": "bytes",
          "name": "",
          "type": "bytes"
        }
      ],
      "name": "afterAgreementTerminated",
      "outputs": [
        {
          "internalType": "bytes",
          "name": "",
          "type": "bytes"
        }
      ],
      "stateMutability": "nonpayable",
      "type": "function"
    },
    {
      "inputs": [
        {
          "internalType": "contract ISuperToken",
          "name": "",
          "type": "address"
        },
        {
          "internalType": "address",
          "name": "",
          "type": "address"
        },
        {
          "internalType": "bytes32",
          "name": "",
          "type": "bytes32"
        },
        {
          "internalType": "bytes",
          "name": "",
          "type": "bytes"
        },
        {
          "internalType": "bytes",
          "name": "",
          "type": "bytes"
        },
        {
          "internalType": "bytes",
          "name": "",
          "type": "bytes"
        }
      ],
      "name": "afterAgreementUpdated",
      "outputs": [
        {
          "internalType": "bytes",
          "name": "",
          "type": "bytes"
        }
      ],
      "stateMutability": "nonpayable",
      "type": "function"
    },
    {
      "inputs": [
        {
          "internalType": "address",
          "name": "_asset",
          "type": "address"
        },
        {
          "internalType": "uint256",
          "name": "_amount",
          "type": "uint256"
        },
        {
          "internalType": "address",
          "name": "_superToken",
          "type": "address"
        }
      ],
      "name": "approveSuperToken",
      "outputs": [],
      "stateMutability": "nonpayable",
      "type": "function"
    },
    {
      "inputs": [],
      "name": "automate",
      "outputs": [
        {
          "internalType": "contract IAutomate",
          "name": "",
          "type": "address"
        }
      ],
      "stateMutability": "view",
      "type": "function"
    },
    {
      "inputs": [
        {
          "internalType": "contract ISuperToken",
          "name": "",
          "type": "address"
        },
        {
          "internalType": "address",
          "name": "",
          "type": "address"
        },
        {
          "internalType": "bytes32",
          "name": "",
          "type": "bytes32"
        },
        {
          "internalType": "bytes",
          "name": "",
          "type": "bytes"
        },
        {
          "internalType": "bytes",
          "name": "",
          "type": "bytes"
        }
      ],
      "name": "beforeAgreementCreated",
      "outputs": [
        {
          "internalType": "bytes",
          "name": "",
          "type": "bytes"
        }
      ],
      "stateMutability": "view",
      "type": "function"
    },
    {
      "inputs": [
        {
          "internalType": "contract ISuperToken",
          "name": "",
          "type": "address"
        },
        {
          "internalType": "address",
          "name": "",
          "type": "address"
        },
        {
          "internalType": "bytes32",
          "name": "",
          "type": "bytes32"
        },
        {
          "internalType": "bytes",
          "name": "",
          "type": "bytes"
        },
        {
          "internalType": "bytes",
          "name": "",
          "type": "bytes"
        }
      ],
      "name": "beforeAgreementTerminated",
      "outputs": [
        {
          "internalType": "bytes",
          "name": "",
          "type": "bytes"
        }
      ],
      "stateMutability": "view",
      "type": "function"
    },
    {
      "inputs": [
        {
          "internalType": "contract ISuperToken",
          "name": "",
          "type": "address"
        },
        {
          "internalType": "address",
          "name": "",
          "type": "address"
        },
        {
          "internalType": "bytes32",
          "name": "",
          "type": "bytes32"
        },
        {
          "internalType": "bytes",
          "name": "",
          "type": "bytes"
        },
        {
          "internalType": "bytes",
          "name": "",
          "type": "bytes"
        }
      ],
      "name": "beforeAgreementUpdated",
      "outputs": [
        {
          "internalType": "bytes",
          "name": "",
          "type": "bytes"
        }
      ],
      "stateMutability": "view",
      "type": "function"
    },
    {
      "inputs": [],
      "name": "cfa",
      "outputs": [
        {
          "internalType": "contract IConstantFlowAgreementV1",
          "name": "",
          "type": "address"
        }
      ],
      "stateMutability": "view",
      "type": "function"
    },
    {
      "inputs": [],
      "name": "connext",
      "outputs": [
        {
          "internalType": "contract IConnext",
          "name": "",
          "type": "address"
        }
      ],
      "stateMutability": "view",
      "type": "function"
    },
    {
      "inputs": [],
      "name": "dedicatedMsgSender",
      "outputs": [
        {
          "internalType": "address",
          "name": "",
          "type": "address"
        }
      ],
      "stateMutability": "view",
      "type": "function"
    },
    {
      "inputs": [
        {
          "internalType": "address",
          "name": "account",
          "type": "address"
        },
        {
          "internalType": "address",
          "name": "_superToken",
          "type": "address"
        }
      ],
      "name": "deleteStream",
      "outputs": [],
      "stateMutability": "nonpayable",
      "type": "function"
    },
    {
      "inputs": [],
      "name": "fundsOwner",
      "outputs": [
        {
          "internalType": "address",
          "name": "",
          "type": "address"
        }
      ],
      "stateMutability": "view",
      "type": "function"
    },
    {
      "inputs": [],
      "name": "gelato1Balance",
      "outputs": [
        {
          "internalType": "contract IGelato1Balance",
          "name": "",
          "type": "address"
        }
      ],
      "stateMutability": "view",
      "type": "function"
    },
    {
      "inputs": [],
      "name": "host",
      "outputs": [
        {
          "internalType": "contract ISuperfluid",
          "name": "",
          "type": "address"
        }
      ],
      "stateMutability": "view",
      "type": "function"
    },
    {
      "inputs": [
        {
          "internalType": "address payable",
          "name": "_ops",
          "type": "address"
        },
        {
          "internalType": "address",
          "name": "_host",
          "type": "address"
        },
        {
          "internalType": "address",
          "name": "_cfa",
          "type": "address"
        },
        {
          "internalType": "address",
          "name": "_connext",
          "type": "address"
        }
      ],
      "name": "initialize",
      "outputs": [],
      "stateMutability": "nonpayable",
      "type": "function"
    },
    {
      "inputs": [],
      "name": "owner",
      "outputs": [
        {
          "internalType": "address",
          "name": "",
          "type": "address"
        }
      ],
      "stateMutability": "view",
      "type": "function"
    },
    {
      "inputs": [],
      "name": "proxiableUUID",
      "outputs": [
        {
          "internalType": "bytes32",
          "name": "",
          "type": "bytes32"
        }
      ],
      "stateMutability": "view",
      "type": "function"
    },
    {
      "inputs": [],
      "name": "renounceOwnership",
      "outputs": [],
      "stateMutability": "nonpayable",
      "type": "function"
    },
    {
      "inputs": [
        {
          "internalType": "address",
          "name": "_fromToken",
          "type": "address"
        },
        {
          "internalType": "address",
          "name": "_toToken",
          "type": "address"
        },
        {
          "internalType": "uint256",
          "name": "amountIn",
          "type": "uint256"
        }
      ],
      "name": "swapExactInputSingle",
      "outputs": [
        {
          "internalType": "uint256",
          "name": "amountOut",
          "type": "uint256"
        }
      ],
      "stateMutability": "nonpayable",
      "type": "function"
    },
    {
      "inputs": [],
      "name": "swapRouter",
      "outputs": [
        {
          "internalType": "contract ISwapRouter",
          "name": "",
          "type": "address"
        }
      ],
      "stateMutability": "view",
      "type": "function"
    },
    {
      "inputs": [
        {
          "internalType": "address",
          "name": "newOwner",
          "type": "address"
        }
      ],
      "name": "transferOwnership",
      "outputs": [],
      "stateMutability": "nonpayable",
      "type": "function"
    },
    {
      "inputs": [],
      "name": "treasury",
      "outputs": [
        {
          "internalType": "contract ITreasury",
          "name": "",
          "type": "address"
        }
      ],
      "stateMutability": "view",
      "type": "function"
    },
    {
      "inputs": [
        {
          "internalType": "address",
          "name": "_treasury",
          "type": "address"
        }
      ],
      "name": "updateTreasury",
      "outputs": [],
      "stateMutability": "nonpayable",
      "type": "function"
    },
    {
      "inputs": [
        {
          "internalType": "enum XStreamPool.StreamOptions[]",
          "name": "_types",
          "type": "uint8[]"
        },
        {
          "internalType": "string[]",
          "name": "_hashes",
          "type": "string[]"
        }
      ],
      "name": "updateWeb3functionHashes",
      "outputs": [],
      "stateMutability": "nonpayable",
      "type": "function"
    },
    {
      "inputs": [
        {
          "internalType": "address",
          "name": "newImplementation",
          "type": "address"
        }
      ],
      "name": "upgradeTo",
      "outputs": [],
      "stateMutability": "nonpayable",
      "type": "function"
    },
    {
      "inputs": [
        {
          "internalType": "address",
          "name": "newImplementation",
          "type": "address"
        },
        {
          "internalType": "bytes",
          "name": "data",
          "type": "bytes"
        }
      ],
      "name": "upgradeToAndCall",
      "outputs": [],
      "stateMutability": "payable",
      "type": "function"
    },
    {
      "inputs": [
        {
          "internalType": "bytes32",
          "name": "_transferId",
          "type": "bytes32"
        },
        {
          "internalType": "uint256",
          "name": "_amount",
          "type": "uint256"
        },
        {
          "internalType": "address",
          "name": "_asset",
          "type": "address"
        },
        {
          "internalType": "address",
          "name": "_originSender",
          "type": "address"
        },
        {
          "internalType": "uint32",
          "name": "_origin",
          "type": "uint32"
        },
        {
          "internalType": "bytes",
          "name": "_callData",
          "type": "bytes"
        }
      ],
      "name": "xReceive",
      "outputs": [
        {
          "internalType": "bytes",
          "name": "",
          "type": "bytes"
        }
      ],
      "stateMutability": "nonpayable",
      "type": "function"
    },
    {
      "inputs": [
        {
          "internalType": "bytes32",
          "name": "_xStreamId",
          "type": "bytes32"
        },
        {
          "internalType": "address",
          "name": "_from",
          "type": "address"
        },
        {
          "internalType": "address",
          "name": "_receiver",
          "type": "address"
        },
        {
          "internalType": "address",
          "name": "_destinationContract",
          "type": "address"
        },
        {
          "internalType": "uint32",
          "name": "_destinationDomain",
          "type": "uint32"
        },
        {
          "internalType": "address",
          "name": "_bridgingToken",
          "type": "address"
        },
        {
          "internalType": "address",
          "name": "_destinationSuperToken",
          "type": "address"
        },
        {
          "internalType": "uint256",
          "name": "_amount",
          "type": "uint256"
        },
        {
          "internalType": "uint256",
          "name": "_slippage",
          "type": "uint256"
        },
        {
          "internalType": "uint256",
          "name": "_relayerFeeInTransactingAsset",
          "type": "uint256"
        },
        {
          "internalType": "uint256",
          "name": "_streamActionType",
          "type": "uint256"
        },
        {
          "internalType": "int96",
          "name": "_flowRate",
          "type": "int96"
        }
      ],
      "name": "xTransfer",
      "outputs": [],
      "stateMutability": "nonpayable",
      "type": "function"
    },
    {
      "stateMutability": "payable",
      "type": "receive"
    }
  ],
  "bytecode": "0x60a08060405234620000e157306080526000549060ff8260081c166200008f575060ff8082160362000053575b604051613eb39081620000e78239608051818181611a2801528181611b170152611e9e0152f35b60ff90811916176000557f7f26b83ff96e1f2b6a682f133852f6798a09c465da95921460cefb3847402498602060405160ff8152a1386200002c565b62461bcd60e51b815260206004820152602760248201527f496e697469616c697a61626c653a20636f6e747261637420697320696e697469604482015266616c697a696e6760c81b6064820152608490fd5b600080fdfe61010080604052600436101561001b575b50361561001957005b005b60003560e01c908163049aacfe146126e5575080631054df8c146126bc578063173738881461254e578063230dbd29146124dc57806324e752a11461219857806328f150eb1461216f57806330d9c915146120fe5780633659cfe614611e7a57806338446a5b14611e20578063432776cb14611dbe57806346ee3c5914611d95578063488ac00814611d565780634f1ef28614611ad957806352d1902d14611a1557806353c11f99146119a057806357fb1d67146119715780635f9e7d77146118fc57806361d027b3146118d357806369d13cd9146117f1578063715018a6146117945780637f51bb1f14611751578063884d1f40146116e05780638da5cb5b146116b7578063aa67a53e1461139c578063ad5c464814611373578063b1e7ed581461115a578063c31c9c0714611131578063caf9e19114610f19578063ceb9201214610ee2578063d6ecbb3d14610e6e578063d8524c6f14610c47578063d86ed3e514610bd5578063de4b054814610bac578063e971c45014610b30578063ef1f4d3f14610b02578063f2fde38b14610a75578063f437bc5914610a4c578063f8c8765e146106b75763fd614f41146101d55738610010565b346105845760c0366003190112610584576101ee61284c565b6101f6612836565b906101ff61288c565b9060a4356001600160401b0381116105845761021f903690600401612a28565b92610100848051810103126105845760208401519260408501519261024660608701613733565b9161025360808801613733565b9661026060a08201613747565b9460c08201519689897f49acb92ad3c4dfd84fc681ccd29e5bee6b9d093348a62791b62b772d1b5f920461010061029d8160e08901519801613733565b6040805163ffffffff8b1681526001600160a01b038c811660208301526024359282019290925260043560608201524260808201528c821660a082015295811660c0870152600b8d900b60e087015290961693a36103076001600160a01b03831660243587613cdd565b61032860018060a01b038316828a8d8b6024359160018060a01b0316613789565b600181036103c4575050505050506040519360018060a01b03168452600b0b602084015260408301527f08bbbe5fcdd14bca482eac62ee295b3d749a9ab30da441626e02b17bf76737f060603393a35b604051602081526060518060208301528160005b8281106103ad57508160006040809484010152601f80199101168101030190f35b60808101518482016040015283915060200161038c565b94989597969460020361041f57505050507f915da00d5900f1c1f8241d5f53fe1f22dc91548406bfab32f4c7d4824dc8f0df91604091825195600b0b8652602086015260018060a01b03169460018060a01b031693a4610378565b919350809294959650600060018060a01b0360d354168060018060a01b038816036106a2575b506001600160a01b0386166105f1575b106105d1576040516370a0823160e01b815230600482015290602090829060249082906001600160a01b03165afa9081156105905760009161059c575b50602092600063ffffffff936104c36104b061010495602435612dec565b60cd546001600160a01b03169290612dec565b6040516345560b5d60e11b81529390951660048401526001600160a01b038a81166024850152909616604483015233606483015260848201939093526101f460a482015260e060c482015260e4810183905293849283915af1801561059057610560575b506001600160a01b039081169216907fc982d56833d07816e64a71c4170831cee0163cf28431ca80cd51aab5d29d2f8f600080a4610378565b602090813d8311610589575b61057681836127a6565b810103126105845738610527565b600080fd5b503d61056c565b6040513d6000823e3d90fd5b9190506020823d6020116105c9575b816105b8602093836127a6565b810103126105845790516020610492565b3d91506105ab565b60405163c4225e5760e01b81526024803560048301528101839052604490fd5b60d35460cd54604051636eb1769f60e11b81523060048201526001600160a01b03918216602482018190529094509116602084604481845afa801561059057869460009161066d575b506106458585612dc9565b11610652575b5050610455565b610666916106608585612dc9565b91613027565b388061064b565b9450506020843d60201161069a575b81610689602093836127a6565b81010312610584578593513861063a565b3d915061067c565b6106b1915060243590876130eb565b38610445565b34610584576080366003190112610584576001600160a01b0360043581811690819003610584576106e6612820565b6106ee61284c565b906106f7612836565b906000549460ff8660081c161595868097610a3f575b8015610a28575b156109cc5760ff198116600117600055866109ba575b5060ff60005460081c169261073e84612d69565b61074784612d69565b6001600160601b0360a01b92868460c954161760c9556040519663573ea57560e01b88526020978881600481855afa91821561059057858a9260009461097d575b50602493168760cb54161760cb556040519283809263cd3d4fb960e01b8252600260048301525afa9081156105905784918991600091610946575b50600460405180948193632e8743fd60e21b8352165afa801561059057849160009161090c575b5060409060248251809481936337b6269f60e21b8352306004840152165afa908115610590576000916108b8575b50958380928161086299168760ca54161760ca55338760cc54161760cc55168560cf54161760cf55168360d054161760d055169060cd54161760cd5561085d81612d69565b612d69565b61086b33612b01565b6000549161087e60ff8460081c16612d69565b61088457005b7f7f26b83ff96e1f2b6a682f133852f6798a09c465da95921460cefb38474024989161ff00191660005560405160018152a1005b9690506040873d604011610904575b816108d4604093836127a6565b810103126105845783809281896108f88c6108f16108629d613733565b920161301a565b50939950509250610818565b3d91506108c7565b809250898092503d831161093f575b61092581836127a6565b810103126105845760406109398592613733565b906107ea565b503d61091b565b92505081813d8311610976575b61095d81836127a6565b8101031261058457876109708592613733565b8b6107c3565b503d610953565b92809294508391503d83116109b3575b61099781836127a6565b8101031261058457602491856109ad8b93613733565b93610788565b503d61098d565b61ffff1916610101176000558661072a565b60405162461bcd60e51b815260206004820152602e60248201527f496e697469616c697a61626c653a20636f6e747261637420697320616c72656160448201526d191e481a5b9a5d1a585b1a5e995960921b6064820152608490fd5b50303b1580156107145750600160ff821614610714565b50600160ff82161061070d565b346105845760003660031901126105845760cf546040516001600160a01b039091168152602090f35b3461058457602036600319011261058457610a8e61280a565b610a96612aa9565b6001600160a01b03811615610aae5761001990612b01565b60405162461bcd60e51b815260206004820152602660248201527f4f776e61626c653a206e6577206f776e657220697320746865207a65726f206160448201526564647265737360d01b6064820152608490fd5b3461058457606036600319011261058457610019610b1e61280a565b610b2661284c565b9060243590613cdd565b346105845760203660031901126105845760043560005260d460205260e06040600020805460018201549160028101549260018060a01b0393846003840154169160058660048601541694015494604051968116875260a01d600b0b602087015260408601526060850152608084015260a083015260c0820152f35b346105845760003660031901126105845760cd546040516001600160a01b039091168152602090f35b3461058457610be3366128cc565b505050505050505050608460405162461bcd60e51b815260206004820152602e60248201527f556e737570706f727465642063616c6c6261636b202d2041667465722041677260448201526d19595b595b9d0810dc99585d195960921b6064820152fd5b3461058457604036600319011261058457610c6061280a565b610c68612820565b90610c7e60ff60005460081c1661085d81612d69565b60c980546001600160a01b039283166001600160a01b0319918216811790925560405163573ea57560e01b8152909391906020908181600481865afa8015610590578591600091610e2f575b50928291602494168760cb54161760cb556040519384809263cd3d4fb960e01b8252600260048301525afa8015610590578492600091610df6575b508190600460405180958193632e8743fd60e21b8352165afa8015610590578492600091610dbc575b5060409060248251809581936337b6269f60e21b8352306004840152165afa908115610590578492600092610d79575b5050168360ca54161760ca55169060cc54161760cc55600080f35b915091506040813d604011610db4575b81610d96604093836127a6565b8101031261058457610dac84926108f183613733565b508580610d5e565b3d9150610d89565b809350828092503d8311610def575b610dd581836127a6565b81010312610584576040610de98593613733565b90610d2e565b503d610dcb565b809350828092503d8311610e28575b610e0f81836127a6565b810103126105845780610e228593613733565b90610d05565b503d610e05565b809250838092503d8311610e67575b610e4881836127a6565b810103126105845760249285610e5e8493613733565b91945091610cca565b503d610e3e565b346105845761018036600319011261058457610e88612820565b610e9061284c565b90610e99612836565b610ea161288c565b90610eaa612862565b93610eb36127c7565b93610164359485600b0b8603610584576100199661014435956101243595610104359560e43595600435612df9565b34610584576060366003190112610584576020610f11610f0061280a565b610f08612820565b604435916130eb565b604051908152f35b3461058457604036600319011261058457610f3261280a565b610f3a612820565b90610f4c60ff60005460081c16612d69565b60c980546001600160a01b039283166001600160a01b0319918216811790925560405163573ea57560e01b8152909360209290918381600481855afa918215610590578585926000946110f4575b50602493168760cb54161760cb556040519283809263cd3d4fb960e01b8252600260048301525afa90811561059057849184916000916110bd575b50600460405180948193632e8743fd60e21b8352165afa908115610590578490600092611080575b50604080516337b6269f60e21b815293821660048501529183916024918391165afa9182156105905760009261103f575b5050169060ca54161760ca55600080f35b9091506040823d604011611078575b8161105b604093836127a6565b8101031261058457611070906108f183613733565b50838061102e565b3d915061104e565b809250848092503d83116110b6575b61109981836127a6565b81010312610584578360246110af604093613733565b9250610ffd565b503d61108f565b92505081813d83116110ed575b6110d481836127a6565b8101031261058457826110e78592613733565b87610fd5565b503d6110ca565b92809294508391503d831161112a575b61110e81836127a6565b8101031261058457602491856111248693613733565b93610f9a565b503d611104565b346105845760003660031901126105845760ce546040516001600160a01b039091168152602090f35b34610584576040366003190112610584576004356001600160401b0381116105845761118a903690600401612709565b906024356001600160401b038111610584576111aa903690600401612709565b90916111b4612aa9565b6000935b8085106111c157005b8285101561135d578460051b84013594601e1985360301861215610584576001600160401b03868601351161058457858501353603602087870101136105845761120c8183856136f6565b3560038110156105845760005260d2602052604060002061122d8154612a6f565b601f8111611313575b50600096601f81880135116001146112935761127a9394959697600090828a0135611283575b508189013560011b91600019908a013560031b1c19161790556136e7565b939291906111b8565b60209150828a010101358961125c565b601f198188013516978260005260206000209060005b8a81106112f7575088998361127a9798999a0135116112d5575b5050600190880135811b0190556136e7565b602060001960f8858d013560031b161c1991848c0101013516905588806112c3565b90916020600181928286888f01010135815501930191016112a9565b816000526020600020601f898901350160051c810160208a8a013510611356575b601f830160051c8201811061134a575050611236565b60008155600101611334565b5080611334565b634e487b7160e01b600052603260045260246000fd5b346105845760003660031901126105845760d3546040516001600160a01b039091168152602090f35b34610584576040366003190112610584576113b561280a565b61144d6001600160a01b03806113c9612820565b16926000604051916113da83612754565b818352611400604051938492602098635a5999e360e11b8a860152309060248601613323565b0391611414601f19938481018352826127a6565b8360cf54168460d0541691836040519361142d85612754565b8185526040516339255d5b60e01b815298899586948593600485016133b6565b03925af192831561059057600493611694575b5060408260c95416815194858092635c08631b60e11b82525afa801561059057600093600091611654575b5082169073eeeeeeeeeeeeeeeeeeeeeeeeeeeeeeeeeeeeeeee820361150d5750506000808093819360cb54165af16114c1612c9c565b50156114c957005b6064906040519062461bcd60e51b82526004820152601e60248201527f5f7472616e736665723a20455448207472616e73666572206661696c656400006044820152fd5b60cb5460405163a9059cbb60e01b8782019081526001600160a01b039590921694909416602485015260448401949094526064908101835261154f90836127a6565b60405191604083018381106001600160401b0382111761163e576040528483527f5361666545524332303a206c6f772d6c6576656c2063616c6c206661696c656483860152516115b093600091829182855af16115aa612c9c565b91612ccc565b805182811591821561161f575b50509050156115c857005b6084906040519062461bcd60e51b82526004820152602a60248201527f5361666545524332303a204552433230206f7065726174696f6e20646964206e6044820152691bdd081cdd58d8d9595960b21b6064820152fd5b83809293500103126105845781611636910161301a565b8082846115bd565b634e487b7160e01b600052604160045260246000fd5b9350506040833d60401161168c575b81611670604093836127a6565b8101031261058457816116868585519501613733565b9061148b565b3d9150611663565b6116b0903d806000833e6116a881836127a6565b810190613358565b5084611460565b34610584576000366003190112610584576033546040516001600160a01b039091168152602090f35b34610584576116ee3661299f565b50505050505050608460405162461bcd60e51b815260206004820152602f60248201527f556e737570706f727465642063616c6c6261636b202d204265666f726520416760448201526e1c99595b595b9d081d5c19185d1959608a1b6064820152fd5b346105845760203660031901126105845761176a61280a565b611772612aa9565b60d180546001600160a01b0319166001600160a01b0392909216919091179055005b34610584576000366003190112610584576117ad612aa9565b603380546001600160a01b031981169091556000906001600160a01b03167f8be0079c531659141344cd1fd0a4f28419497f9722a3daafe3b4186f6b6457e08280a3005b34610584576020806003193601126105845760043560038110156105845760005260d2815260406000209060405191826000825461182e81612a6f565b938484526001918683821691826000146118b1575050600114611872575b505061185a925003836127a6565b61186e60405192828493845283019061297a565b0390f35b85925060005281600020906000915b85831061189957505061185a9350820101858061184c565b80548389018501528794508693909201918101611881565b925093505061185a94915060ff191682840152151560051b820101858061184c565b346105845760003660031901126105845760d1546040516001600160a01b039091168152602090f35b346105845761190a3661299f565b50505050505050608460405162461bcd60e51b815260206004820152603360248201527f556e737570706f727465642063616c6c6261636b202d20204265666f7265204160448201527219dc99595b595b9d0815195c9b5a5b985d1959606a1b6064820152fd5b34610584576000366003190112610584576020604051737506c12a824d73d9b08564d5afc22c949434755e8152f35b34610584576119ae366128cc565b505050505050505050608460405162461bcd60e51b815260206004820152603160248201527f556e737570706f727465642063616c6c6261636b202d2041667465722041677260448201527019595b595b9d0815195c9b5a5b985d1959607a1b6064820152fd5b34610584576000366003190112610584577f00000000000000000000000000000000000000000000000000000000000000006001600160a01b03163003611a6e576020604051600080516020613e5e8339815191528152f35b60405162461bcd60e51b815260206004820152603860248201527f555550535570677261646561626c653a206d757374206e6f742062652063616c60448201527f6c6564207468726f7567682064656c656761746563616c6c00000000000000006064820152608490fd5b604036600319011261058457611aed61280a565b6024356001600160401b03811161058457611b0c903690600401612a28565b906001600160a01b037f0000000000000000000000000000000000000000000000000000000000000000811690611b4530831415612b4a565b611b62600080516020613e5e833981519152928284541614612bab565b611b6a612aa9565b7f4910fdfa16fed3260ed0e7147f7cc6da11a60208b5b9406d12a635614ffd91435460ff1615611ba05750506100199150612c0c565b6040516352d1902d60e01b81526020939291831691908481600481865afa60009181611d27575b50611c285760405162461bcd60e51b815260048101869052602e60248201527f45524331393637557067726164653a206e657720696d706c656d656e7461746960448201526d6f6e206973206e6f74205555505360901b6064820152608490fd5b03611cd057611c3682612c0c565b7fbc7cd75a20ee27fd9adebab32041f755214dbc6bffa90cc0225b39da2e5c2d3b600080a2825115801590611cc8575b611c6c57005b6000806100199460405194611c8086612739565b602786527f416464726573733a206c6f772d6c6576656c2064656c65676174652063616c6c81870152660819985a5b195960ca1b604087015281519101845af46115aa612c9c565b506001611c66565b60405162461bcd60e51b815260048101849052602960248201527f45524331393637557067726164653a20756e737570706f727465642070726f786044820152681a58589b195555525160ba1b6064820152608490fd5b9091508581813d8311611d4f575b611d3f81836127a6565b8101031261058457519087611bc7565b503d611d35565b34610584576020366003190112610584576001600160a01b03611d7761280a565b1660005260d5602052602060ff604060002054166040519015158152f35b346105845760003660031901126105845760cc546040516001600160a01b039091168152602090f35b346105845761014036600319011261058457611dd8612820565b60443580600b0b81036105845761001991611df16127c7565b611df96127dd565b90611e026127f3565b92611e0b612878565b9460a4359160843591606435916004356133ec565b346105845761010036600319011261058457611e3a612820565b611e4261284c565b906064359182600b0b830361058457602092610f1192611e60612862565b90611e696127c7565b9260e4359460843592600435613e00565b346105845760208060031936011261058457611e9461280a565b6001600160a01b037f000000000000000000000000000000000000000000000000000000000000000081169290611ecd30851415612b4a565b611eea600080516020613e5e833981519152948286541614612bab565b611ef2612aa9565b60405193828501918583106001600160401b0384111761163e57826040526000865260ff7f4910fdfa16fed3260ed0e7147f7cc6da11a60208b5b9406d12a635614ffd91435416600014611f4e57505050506100199150612c0c565b84939416906040516352d1902d60e01b81528581600481865afa600091816120cf575b50611fd25760405162461bcd60e51b815260048101879052602e60248201527f45524331393637557067726164653a206e657720696d706c656d656e7461746960448201526d6f6e206973206e6f74205555505360901b6064820152608490fd5b0361207857611fe083612c0c565b7fbc7cd75a20ee27fd9adebab32041f755214dbc6bffa90cc0225b39da2e5c2d3b600080a2835115801590612070575b61201657005b60008091610019957f416464726573733a206c6f772d6c6576656c2064656c65676174652063616c6c6040519661204c88612739565b60278852870152660819985a5b195960ca1b60408701525190845af46115aa612c9c565b506000612010565b60405162461bcd60e51b815260048101859052602960248201527f45524331393637557067726164653a20756e737570706f727465642070726f786044820152681a58589b195555525160ba1b6064820152608490fd5b9091508681813d83116120f7575b6120e781836127a6565b8101031261058457519088611f71565b503d6120dd565b346105845761210c3661299f565b50505050505050608460405162461bcd60e51b815260206004820152602f60248201527f556e737570706f727465642063616c6c6261636b202d204265666f726520416760448201526e1c99595b595b9d0810dc99585d1959608a1b6064820152fd5b346105845760003660031901126105845760ca546040516001600160a01b039091168152602090f35b3461058457610160366003190112610584576121b261280a565b6121ba612820565b90604435916121c7612836565b91608435906001600160a01b039081831683036105845760c43563ffffffff81168103610584576121f66127dd565b9287886000997a184f03e93ff9f4daa797ed6e38ed64bf6a1f01000000000000000090818110156124cd575b5050600a906d04ee2d6d415b85acef8100000000808210156124c0575b50662386f26fc10000808210156124b3575b506305f5e100808210156124a6575b5061271080821015612499575b50606481101561248b575b1015612480575b600a602160018b019a6122918c612a0d565b9b61229f6040519d8e6127a6565b808d526122ae601f1991612a0d565b013660208e01378b01015b60001901916f181899199a1a9b1b9c1cb0b131b232b360811b8282061a8353049081156122e857600a906122b9565b5050602061230c612306612300612300600497613216565b99613216565b96613216565b9160cd54166040519485809263617d935360e11b82525afa9283156105905760009361244c575b5061233d30613216565b9361234790613216565b946040519889986101c0988960208c01526101e08b016123669161297a565b8a8103601f190160408c015261237b9161297a565b898103601f190160608b01526123909161297a565b888103601f190160808a01526123a59161297a565b878103601f190160a08901526123ba9161297a565b914660c088015260a43560e088015261010087015263ffffffff16610120860152601f19858203016101408601526123f19161297a565b838103601f19016101608501526124079161297a565b9061010435610180840152610124356101a0840152610144359083015203601f198101825261243690826127a6565b6040518091602082526020820161186e9161297a565b9092506020813d602011612478575b81612468602093836127a6565b8101031261058457519188612333565b3d915061245b565b60019098019761227f565b6064600291049a0199612278565b600491049a01998b61226d565b600891049a01998b612260565b601091049a01998b612251565b602091049a01998b61223f565b60409b50049050600a8b612222565b34610584576124ea366128cc565b505050505050505050608460405162461bcd60e51b815260206004820152602e60248201527f556e737570706f727465642063616c6c6261636b202d2041667465722041677260448201526d19595b595b9d08155c19185d195960921b6064820152fd5b3461058457610140366003190112610584576001600160401b0360043581811161058457612580903690600401612709565b9160243581811161058457612599903690600401612709565b604494919435838111610584573660238201121561058457806004013593841161163e578360051b90604051946125d360208401876127a6565b8552602460208601928201019036821161058457602401915b81831061269c575050506125fe6127c7565b6126066127dd565b9061260f6127f3565b92612618612878565b9460005b81811061262557005b61263081838b6136f6565b35906001600160a01b03821682036105845761264d81858d6136f6565b3580600b0b810361058457895182101561135d578888888861269796612692958f60206001600160601b03918a60051b010151169160a43591608435916064356133ec565b6136e7565b61261c565b82356001600160601b0381168103610584578152602092830192016125ec565b346105845760003660031901126105845760d0546040516001600160a01b039091168152602090f35b346105845760003660031901126105845760c9546001600160a01b03168152602090f35b9181601f84011215610584578235916001600160401b038311610584576020808501948460051b01011161058457565b606081019081106001600160401b0382111761163e57604052565b602081019081106001600160401b0382111761163e57604052565b61012081019081106001600160401b0382111761163e57604052565b608081019081106001600160401b0382111761163e57604052565b90601f801991011681019081106001600160401b0382111761163e57604052565b60c435906001600160a01b038216820361058457565b60e435906001600160a01b038216820361058457565b61010435906001600160a01b038216820361058457565b600435906001600160a01b038216820361058457565b602435906001600160a01b038216820361058457565b606435906001600160a01b038216820361058457565b604435906001600160a01b038216820361058457565b60a435906001600160a01b038216820361058457565b610124359063ffffffff8216820361058457565b6084359063ffffffff8216820361058457565b9181601f84011215610584578235916001600160401b038311610584576020838186019501011161058457565b60c0600319820112610584576001600160a01b03916004358381168103610584579260243590811681036105845791604435916001600160401b03606435818111610584578361291e9160040161289f565b9390939260843583811161058457826129399160040161289f565b9390939260a435918211610584576129539160040161289f565b9091565b60005b83811061296a5750506000910152565b818101518382015260200161295a565b9060209161299381518092818552858086019101612957565b601f01601f1916010190565b9060a0600319830112610584576001600160a01b03916004358381168103610584579260243590811681036105845791604435916001600160401b039160643583811161058457826129f39160040161289f565b93909392608435918211610584576129539160040161289f565b6001600160401b03811161163e57601f01601f191660200190565b81601f8201121561058457803590612a3f82612a0d565b92612a4d60405194856127a6565b8284526020838301011161058457816000926020809301838601378301015290565b90600182811c92168015612a9f575b6020831014612a8957565b634e487b7160e01b600052602260045260246000fd5b91607f1691612a7e565b6033546001600160a01b03163303612abd57565b606460405162461bcd60e51b815260206004820152602060248201527f4f776e61626c653a2063616c6c6572206973206e6f7420746865206f776e65726044820152fd5b603380546001600160a01b039283166001600160a01b0319821681179092559091167f8be0079c531659141344cd1fd0a4f28419497f9722a3daafe3b4186f6b6457e0600080a3565b15612b5157565b60405162461bcd60e51b815260206004820152602c60248201527f46756e6374696f6e206d7573742062652063616c6c6564207468726f7567682060448201526b19195b1959d85d1958d85b1b60a21b6064820152608490fd5b15612bb257565b60405162461bcd60e51b815260206004820152602c60248201527f46756e6374696f6e206d7573742062652063616c6c6564207468726f7567682060448201526b6163746976652070726f787960a01b6064820152608490fd5b803b15612c4157600080516020613e5e83398151915280546001600160a01b0319166001600160a01b03909216919091179055565b60405162461bcd60e51b815260206004820152602d60248201527f455243313936373a206e657720696d706c656d656e746174696f6e206973206e60448201526c1bdd08184818dbdb9d1c9858dd609a1b6064820152608490fd5b3d15612cc7573d90612cad82612a0d565b91612cbb60405193846127a6565b82523d6000602084013e565b606090565b91929015612d2e5750815115612ce0575090565b3b15612ce95790565b60405162461bcd60e51b815260206004820152601d60248201527f416464726573733a2063616c6c20746f206e6f6e2d636f6e74726163740000006044820152606490fd5b825190915015612d415750805190602001fd5b60405162461bcd60e51b815260206004820152908190612d6590602483019061297a565b0390fd5b15612d7057565b60405162461bcd60e51b815260206004820152602b60248201527f496e697469616c697a61626c653a20636f6e7472616374206973206e6f74206960448201526a6e697469616c697a696e6760a81b6064820152608490fd5b91908201809211612dd657565b634e487b7160e01b600052601160045260246000fd5b91908203918211612dd657565b9594929990879b9199979998949860e0988952600060018060a01b039d8e8060d3541690881697818903613008575b50505085612f4d575b895111612f2d579360009793612ea98e60209e9d9c9995818063ffffffff9e9b97612eee9b6040519b60208d015260408c015216948560608b0152166080890152600b0b60a08801524260c088015288518988015280610100961686880152858752612e9c8761276f565b60cd54169b885190612dec565b916040519e8f9d8e9c8d9b6393f18ac560e01b8d521660048c01521660248a015260448901526064880152608487015260a486015260c485015261010484019061297a565b905160e483015203925af1801561059057612f065750565b602090813d8111612f26575b612f1c81836127a6565b8101031261058457565b503d612f12565b60405163c4225e5760e01b8152600481018c905289516024820152604490fd5b8d8060d354169060cd541690604051636eb1769f60e11b815260208180612f9186306004840190602090939293604083019460018060a01b03809216845216910152565b0381855afa90811561059057600091612fd4575b50612fb18d5185612dc9565b11612fbe575b5050612e31565b612fcd916106608d5185612dc9565b3880612fb7565b906020823d8211613000575b81612fed602093836127a6565b81010312612ffd57505138612fa5565b80fd5b3d9150612fe0565b61301293506130eb565b8b3880612e28565b5190811515820361058457565b60405163095ea7b360e01b602082019081526001600160a01b0390931660248201526044810193909352600092839290839061307081606481015b03601f1981018352826127a6565b51925af161307c612c9c565b816130b4575b501561308a57565b60405162461bcd60e51b8152602060048201526002602482015261534160f01b6044820152606490fd5b80518015925082156130c9575b505038613082565b81925090602091810103126105845760206130e4910161301a565b38806130c1565b60ce546001600160a01b0393919290613108908390861685613027565b6040519061010082018281106001600160401b0382111761163e578594859160405216825283602083019116815283604083016101f481526060840194308652608085019042825260a0860190815260c08601916000998a9889855260e08901958a8752828060ce5416996040519d8e9c8d63414bf38960e01b9052511660048d0152511660248b01525162ffffff1660448a0152511660648801525160848701525160a48601525160c4850152511660e4830152815a9361010492602095f191821561320a5780926131da57505090565b9091506020823d8211613202575b816131f5602093836127a6565b81010312612ffd57505190565b3d91506131e8565b604051903d90823e3d90fd5b604051906001600160a01b031661322c82612739565b602a8252602090818301604036823783511561135d5760309053825160019081101561135d57607860218501536029905b8082116132b157505061326e575090565b6064906040519062461bcd60e51b825280600483015260248201527f537472696e67733a20686578206c656e67746820696e73756666696369656e746044820152fd5b9091600f8116601081101561330e57855184101561330e576f181899199a1a9b1b9c1cb0b131b232b360811b901a85840185015360041c9180156132f957600019019061325d565b60246000634e487b7160e01b81526011600452fd5b60246000634e487b7160e01b81526032600452fd5b6001600160a01b039182168152918116602083015290911660408201526080606082018190526133559291019061297a565b90565b602081830312610584578051906001600160401b038211610584570181601f8201121561058457805161338a81612a0d565b9261339860405194856127a6565b81845260208284010111610584576133559160208085019101612957565b6001600160a01b0390911681526060602082018190526133559391926133de9184019061297a565b91604081840391015261297a565b60a096875260c098909852604051636eb1769f60e11b808252336004830152306024830152965160209a6001600160a01b039a9399949890979596949594939290918c90829060449082908f165afa80156105905785916000916136b7575b50106136225750906000918a8a6064604051809681936323b872dd60e01b835233600484015230602484015289604484015260a051165af1801561059057889287916135e6575b6134c1945085878c8b6134ae8460a05185428c878d3390613e00565b8060805260a0519260c051913390612df9565b6040519460e08601918683106001600160401b0384111761163e5763ffffffff9660058b8b88956135849760405233855282850190600b0b988982526040860192428452606087016000815281608089019316835260a08801948260a05116865260d460c08a019760008952608051600052528260406000209951166001600160601b0360a01b80965160a01b1617895551600189015551600288015560038701915116828254161790558d600486019251169082541617905551910155612dec565b90604051978760a051168952880152604087015260016060870152426080870152600060a087015260c08601521660e0840152169033907fa5ebb8adea62ddf016b38a5587dd32eb4964491a814c0dbeec396bad11840daf61010060805192a4565b9250508a83813d831161361b575b6135fe81836127a6565b81010312610584578588926136156134c19561301a565b50613492565b503d6135f4565b60405190815233600482015230602482015283908b908b908281806044810103818560a051165afa92831561059057600093613681575b50506064926040519263059d9d6d60e31b84526004840152602483015260a051166044820152fd5b81819594953d83116136b0575b61369881836127a6565b810103126136ac5751919250606484613659565b8380fd5b503d61368e565b91508c82813d83116136e0575b6136ce81836127a6565b81010312612ffd57508490513861344b565b503d6136c4565b6000198114612dd65760010190565b919081101561135d5760051b0190565b80511561135d5760200190565b80516001101561135d5760400190565b80516002101561135d5760600190565b51906001600160a01b038216820361058457565b519081600b0b820361058457565b6001600160a01b03918216815291166020820152600b9190910b60408201526080606082018190526133559291019061297a565b949290919360018060a01b03809416918460d0541691604096875190631cd43d1160e31b8252600499868b84015260249230848201526080816064818d86169a8b60448301525afa908115613cd257600091613c96575b506060600195868114600014613c1357505088600b0b15613c0557600b0b613bc557906001600160601b038894939261383e8c5161381d81612754565b600081528d5197889360209c8d63317e182f60e11b90870152888601613755565b0394613852601f19968781018352826127a6565b9816908115613bb1570492895195635533d29f60e11b888801528287015281865261387c86612739565b8951936138888561278b565b60038552606036898701378a519561389f8761278b565b600387528860005b60608110613ba15750508b51958c87018781106001600160401b03821117613b8c5786916138df918f528089528b8901998a52613706565b5260026138ec8751613713565b5260036138f98751613723565b5261383f198201918211613b785788966139518e979596938e938451916fffffffffffffffffffffffffffffffff8092168c840152168482015283815261393f81612739565b82519061394b82613706565b52613706565b50613976825161396081612754565b6000815282519061397082613713565b52613713565b5061399b825161398581612754565b6000815282519061399582613723565b52613723565b508b60c95416956139c983519a8b99633323b46760e01b8b5230908b01526080838b015260848a019061297a565b8881036003190160448a0152955183875280519387018490526060870193908a01916000905b828210613b32575050505051938781830391015283519081815287810188808460051b8401019601946000925b848410613afd5750505050505050600083809273eeeeeeeeeeeeeeeeeeeeeeeeeeeeeeeeeeeeeeee606483015203925af18015613af257613ac9575b50506000915b8060cf54169060d0541683855196613a7588612754565b818852613a958751988996879586946339255d5b60e01b865285016133b6565b03925af1908115613abf5750613aa85750565b613abc903d806000833e6116a881836127a6565b50565b513d6000823e3d90fd5b813d8311613aeb575b613adc81836127a6565b81010312610584573880613a58565b503d613ad2565b85513d6000823e3d90fd5b9295985092959880613b1c8b8686899c9e999699030188528b5161297a565b9901940194019093899795928b99979495613a1c565b9297995092949799509286516005811015613b63578c8281928b94520197019201928a9896938c9a989593926139ef565b505060218f634e487b7160e01b600052526000fd5b8360118e634e487b7160e01b600052526000fd5b508460418f634e487b7160e01b600052526000fd5b606082828b0101520189906138a7565b8260128d634e487b7160e01b600052526000fd5b91935050613bff9350613062915060009695885191613be383612754565b88835289516328104d3160e11b60208201529687958601613755565b90613a5e565b505050505050505050505050565b9350939650509350600097969250600281148814613c42575050613bff929161306291885191613be383612754565b600391969593925014613c58575b505050613a5e565b613c8d9293945061306290875190613c6f82612754565b8782528851635a5999e360e11b602082015295869430918601613323565b90388080613c50565b906080823d8211613cca575b81613caf608093836127a6565b81010312612ffd57506020613cc49101613747565b386137e0565b3d9150613ca2565b8b513d6000823e3d90fd5b6040805163095ea7b360e01b81526001600160a01b038581166004830152602482018590529283169491926000929091602081604481878b5af18015613df657613dbe575b5016803b15613dba5781809160248551809581936345977d0360e01b83528960048401525af18015613dae57613d81575b50507fb851214951a7a588e613f4234bad7b815276a829e616f13d7a7cdc6db0e8dfe19160209151908152a2565b6001600160401b038211613d9a57508152816020613d53565b634e487b7160e01b81526041600452602490fd5b508251903d90823e3d90fd5b5080fd5b6020813d8211613dee575b81613dd6602093836127a6565b810103126136ac57613de79061301a565b5038613d22565b3d9150613dc9565b85513d86823e3d90fd5b9694909193959295604051966020880198895260018060a01b0380968180961660408b0152166060890152600b0b608088015260a08701521660c08501521660e083015261010090818301528152613e578161276f565b5190209056fe360894a13ba1a3210667c828492db98dca3e2076cc3735a920a3ca505d382bbca2646970667358221220434761acbc4f9568a5e5712adb135726afdd2acf31c6248ae840cf97551920fd64736f6c63430008110033",
  "linkReferences": {},
  "deployedLinkReferences": {}
}