{
  "_format": "hh-sol-artifact-1",
  "contractName": "XStreamPool",
  "sourceName": "contracts/XStreamPool.sol",
  "abi": [
    {
      "inputs": [],
      "stateMutability": "nonpayable",
      "type": "constructor"
    },
    {
      "inputs": [
        {
          "internalType": "uint256",
          "name": "allowance",
          "type": "uint256"
        },
        {
          "internalType": "uint256",
          "name": "amount",
          "type": "uint256"
        },
        {
          "internalType": "address",
          "name": "token",
          "type": "address"
        }
      ],
      "name": "Allowance",
      "type": "error"
    },
    {
      "inputs": [
        {
          "internalType": "uint256",
          "name": "_amount",
          "type": "uint256"
        },
        {
          "internalType": "uint256",
          "name": "_relayerFeeInTransactingAsset",
          "type": "uint256"
        }
      ],
      "name": "AmountLessThanRelayer",
      "type": "error"
    },
    {
      "anonymous": false,
      "inputs": [
        {
          "indexed": false,
          "internalType": "address",
          "name": "previousAdmin",
          "type": "address"
        },
        {
          "indexed": false,
          "internalType": "address",
          "name": "newAdmin",
          "type": "address"
        }
      ],
      "name": "AdminChanged",
      "type": "event"
    },
    {
      "anonymous": false,
      "inputs": [
        {
          "indexed": true,
          "internalType": "address",
          "name": "beacon",
          "type": "address"
        }
      ],
      "name": "BeaconUpgraded",
      "type": "event"
    },
    {
      "anonymous": false,
      "inputs": [
        {
          "indexed": true,
          "internalType": "bytes32",
          "name": "_xStreamId",
          "type": "bytes32"
        },
        {
          "indexed": true,
          "internalType": "address",
          "name": "sender",
          "type": "address"
        },
        {
          "indexed": true,
          "internalType": "address",
          "name": "receiver",
          "type": "address"
        },
        {
          "indexed": false,
          "internalType": "int96",
          "name": "flowRate",
          "type": "int96"
        }
      ],
      "name": "FlowEndMessage",
      "type": "event"
    },
    {
      "anonymous": false,
      "inputs": [
        {
          "indexed": true,
          "internalType": "bytes32",
          "name": "_xStreamId",
          "type": "bytes32"
        },
        {
          "indexed": true,
          "internalType": "address",
          "name": "sender",
          "type": "address"
        },
        {
          "indexed": true,
          "internalType": "address",
          "name": "receiver",
          "type": "address"
        },
        {
          "indexed": false,
          "internalType": "int96",
          "name": "flowRate",
          "type": "int96"
        },
        {
          "indexed": false,
          "internalType": "uint256",
          "name": "startTime",
          "type": "uint256"
        }
      ],
      "name": "FlowStartMessage",
      "type": "event"
    },
    {
      "anonymous": false,
      "inputs": [
        {
          "indexed": true,
          "internalType": "bytes32",
          "name": "_xStreamId",
          "type": "bytes32"
        },
        {
          "indexed": true,
          "internalType": "address",
          "name": "sender",
          "type": "address"
        },
        {
          "indexed": true,
          "internalType": "address",
          "name": "receiver",
          "type": "address"
        },
        {
          "indexed": false,
          "internalType": "int96",
          "name": "newFlowRate",
          "type": "int96"
        },
        {
          "indexed": false,
          "internalType": "uint256",
          "name": "topupTime",
          "type": "uint256"
        },
        {
          "indexed": false,
          "internalType": "uint256",
          "name": "endTime",
          "type": "uint256"
        }
      ],
      "name": "FlowTopupMessage",
      "type": "event"
    },
    {
      "anonymous": false,
      "inputs": [
        {
          "indexed": false,
          "internalType": "uint8",
          "name": "version",
          "type": "uint8"
        }
      ],
      "name": "Initialized",
      "type": "event"
    },
    {
      "anonymous": false,
      "inputs": [
        {
          "indexed": true,
          "internalType": "address",
          "name": "previousOwner",
          "type": "address"
        },
        {
          "indexed": true,
          "internalType": "address",
          "name": "newOwner",
          "type": "address"
        }
      ],
      "name": "OwnershipTransferred",
      "type": "event"
    },
    {
      "anonymous": false,
      "inputs": [
        {
          "indexed": true,
          "internalType": "bytes32",
          "name": "_xStreamId",
          "type": "bytes32"
        },
        {
          "indexed": true,
          "internalType": "address",
          "name": "sender",
          "type": "address"
        },
        {
          "indexed": true,
          "internalType": "address",
          "name": "receiver",
          "type": "address"
        }
      ],
      "name": "StreamDelete",
      "type": "event"
    },
    {
      "anonymous": false,
      "inputs": [
        {
          "indexed": true,
          "internalType": "bytes32",
          "name": "_xStreamId",
          "type": "bytes32"
        },
        {
          "indexed": true,
          "internalType": "address",
          "name": "sender",
          "type": "address"
        },
        {
          "indexed": false,
          "internalType": "address",
          "name": "receiver",
          "type": "address"
        },
        {
          "indexed": false,
          "internalType": "int96",
          "name": "flowRate",
          "type": "int96"
        },
        {
          "indexed": false,
          "internalType": "uint256",
          "name": "startTime",
          "type": "uint256"
        }
      ],
      "name": "StreamStart",
      "type": "event"
    },
    {
      "anonymous": false,
      "inputs": [
        {
          "indexed": true,
          "internalType": "bytes32",
          "name": "_xStreamId",
          "type": "bytes32"
        },
        {
          "indexed": true,
          "internalType": "address",
          "name": "sender",
          "type": "address"
        },
        {
          "indexed": true,
          "internalType": "address",
          "name": "receiver",
          "type": "address"
        },
        {
          "indexed": false,
          "internalType": "int96",
          "name": "flowRate",
          "type": "int96"
        },
        {
          "indexed": false,
          "internalType": "uint256",
          "name": "startTime",
          "type": "uint256"
        }
      ],
      "name": "StreamUpdate",
      "type": "event"
    },
    {
      "anonymous": false,
      "inputs": [
        {
          "indexed": true,
          "internalType": "address",
          "name": "baseToken",
          "type": "address"
        },
        {
          "indexed": false,
          "internalType": "uint256",
          "name": "amount",
          "type": "uint256"
        }
      ],
      "name": "UpgradeToken",
      "type": "event"
    },
    {
      "anonymous": false,
      "inputs": [
        {
          "indexed": true,
          "internalType": "address",
          "name": "implementation",
          "type": "address"
        }
      ],
      "name": "Upgraded",
      "type": "event"
    },
    {
      "anonymous": false,
      "inputs": [
        {
          "indexed": true,
          "internalType": "bytes32",
          "name": "_xStreamId",
          "type": "bytes32"
        },
        {
          "indexed": true,
          "internalType": "address",
          "name": "originSender",
          "type": "address"
        },
        {
          "indexed": false,
          "internalType": "uint32",
          "name": "origin",
          "type": "uint32"
        },
        {
          "indexed": false,
          "internalType": "address",
          "name": "asset",
          "type": "address"
        },
        {
          "indexed": false,
          "internalType": "uint256",
          "name": "amount",
          "type": "uint256"
        },
        {
          "indexed": false,
          "internalType": "bytes32",
          "name": "transferId",
          "type": "bytes32"
        },
        {
          "indexed": false,
          "internalType": "uint256",
          "name": "receiveTimestamp",
          "type": "uint256"
        },
        {
          "indexed": false,
          "internalType": "address",
          "name": "senderAccount",
          "type": "address"
        },
        {
          "indexed": false,
          "internalType": "address",
          "name": "receiverAccount",
          "type": "address"
        },
        {
          "indexed": false,
          "internalType": "int256",
          "name": "flowRate",
          "type": "int256"
        }
      ],
      "name": "XReceiveData",
      "type": "event"
    },
    {
      "anonymous": false,
      "inputs": [
        {
          "indexed": true,
          "internalType": "bytes32",
          "name": "_xStreamId",
          "type": "bytes32"
        },
        {
          "indexed": true,
          "internalType": "address",
          "name": "sender",
          "type": "address"
        },
        {
          "indexed": true,
          "internalType": "address",
          "name": "receiver",
          "type": "address"
        },
        {
          "indexed": false,
          "internalType": "address",
          "name": "selectedToken",
          "type": "address"
        },
        {
          "indexed": false,
          "internalType": "int96",
          "name": "flowRate",
          "type": "int96"
        },
        {
          "indexed": false,
          "internalType": "uint256",
          "name": "amount",
          "type": "uint256"
        },
        {
          "indexed": false,
          "internalType": "uint256",
          "name": "streamStatus",
          "type": "uint256"
        },
        {
          "indexed": false,
          "internalType": "uint256",
          "name": "startTime",
          "type": "uint256"
        },
        {
          "indexed": false,
          "internalType": "uint256",
          "name": "bufferFee",
          "type": "uint256"
        },
        {
          "indexed": false,
          "internalType": "uint256",
          "name": "networkFee",
          "type": "uint256"
        },
        {
          "indexed": false,
          "internalType": "uint32",
          "name": "destinationDomain",
          "type": "uint32"
        }
      ],
      "name": "XStreamFlowTrigger",
      "type": "event"
    },
    {
      "stateMutability": "payable",
      "type": "fallback"
    },
    {
      "inputs": [
        {
          "internalType": "address",
          "name": "_automate",
          "type": "address"
        },
        {
          "internalType": "address",
          "name": "_fundsOwner",
          "type": "address"
        }
      ],
      "name": "ATC__initialize",
      "outputs": [],
      "stateMutability": "nonpayable",
      "type": "function"
    },
    {
      "inputs": [],
      "name": "WETH",
      "outputs": [
        {
          "internalType": "address",
          "name": "",
          "type": "address"
        }
      ],
      "stateMutability": "view",
      "type": "function"
    },
    {
      "inputs": [
        {
          "internalType": "address",
          "name": "_automate",
          "type": "address"
        },
        {
          "internalType": "address",
          "name": "_taskCreator",
          "type": "address"
        }
      ],
      "name": "__initialize",
      "outputs": [],
      "stateMutability": "nonpayable",
      "type": "function"
    },
    {
      "inputs": [
        {
          "internalType": "address[]",
          "name": "_receivers",
          "type": "address[]"
        },
        {
          "internalType": "int96[]",
          "name": "_flowRates",
          "type": "int96[]"
        },
        {
          "internalType": "uint96[]",
          "name": "_amounts",
          "type": "uint96[]"
        },
        {
          "internalType": "uint256",
          "name": "_streamActionType",
          "type": "uint256"
        },
        {
          "internalType": "uint256",
          "name": "_relayerFee",
          "type": "uint256"
        },
        {
          "internalType": "uint256",
          "name": "_slippage",
          "type": "uint256"
        },
        {
          "internalType": "address",
          "name": "_bridgingToken",
          "type": "address"
        },
        {
          "internalType": "address",
          "name": "_destinationSuperToken",
          "type": "address"
        },
        {
          "internalType": "address",
          "name": "_destinationContract",
          "type": "address"
        },
        {
          "internalType": "uint32",
          "name": "_destinationDomain",
          "type": "uint32"
        }
      ],
      "name": "_createMultipleXStream",
      "outputs": [],
      "stateMutability": "nonpayable",
      "type": "function"
    },
    {
      "inputs": [
        {
          "internalType": "uint256",
          "name": "_streamActionType",
          "type": "uint256"
        },
        {
          "internalType": "address",
          "name": "_receiver",
          "type": "address"
        },
        {
          "internalType": "int96",
          "name": "_flowRate",
          "type": "int96"
        },
        {
          "internalType": "uint256",
          "name": "_relayerFeeInTransactingAsset",
          "type": "uint256"
        },
        {
          "internalType": "uint256",
          "name": "_slippage",
          "type": "uint256"
        },
        {
          "internalType": "uint256",
          "name": "_amount",
          "type": "uint256"
        },
        {
          "internalType": "address",
          "name": "_bridgingToken",
          "type": "address"
        },
        {
          "internalType": "address",
          "name": "_destinationSuperToken",
          "type": "address"
        },
        {
          "internalType": "address",
          "name": "_destinationContract",
          "type": "address"
        },
        {
          "internalType": "uint32",
          "name": "_destinationDomain",
          "type": "uint32"
        }
      ],
      "name": "_createXStream",
      "outputs": [],
      "stateMutability": "nonpayable",
      "type": "function"
    },
    {
      "inputs": [
        {
          "internalType": "bytes32",
          "name": "",
          "type": "bytes32"
        }
      ],
      "name": "_createdXStreams",
      "outputs": [
        {
          "internalType": "address",
          "name": "_user",
          "type": "address"
        },
        {
          "internalType": "int96",
          "name": "_flowRate",
          "type": "int96"
        },
        {
          "internalType": "uint256",
          "name": "_startTime",
          "type": "uint256"
        },
        {
          "internalType": "uint256",
          "name": "_endTime",
          "type": "uint256"
        },
        {
          "internalType": "address",
          "name": "_superToken",
          "type": "address"
        },
        {
          "internalType": "address",
          "name": "_token",
          "type": "address"
        },
        {
          "internalType": "bytes32",
          "name": "_gelatoTaskID",
          "type": "bytes32"
        }
      ],
      "stateMutability": "view",
      "type": "function"
    },
    {
      "inputs": [
        {
          "internalType": "address",
          "name": "_from",
          "type": "address"
        },
        {
          "internalType": "address",
          "name": "_to",
          "type": "address"
        },
        {
          "internalType": "uint256",
          "name": "_amount",
          "type": "uint256"
        },
        {
          "internalType": "address",
          "name": "_fromToken",
          "type": "address"
        },
        {
          "internalType": "address",
          "name": "_toToken",
          "type": "address"
        },
        {
          "internalType": "uint256",
          "name": "_toChain",
          "type": "uint256"
        },
        {
          "internalType": "uint32",
          "name": "_destinationDomain",
          "type": "uint32"
        },
        {
          "internalType": "address",
          "name": "_destinationContract",
          "type": "address"
        },
        {
          "internalType": "uint256",
          "name": "_cycles",
          "type": "uint256"
        },
        {
          "internalType": "uint256",
          "name": "_startTime",
          "type": "uint256"
        },
        {
          "internalType": "uint256",
          "name": "_interval",
          "type": "uint256"
        }
      ],
      "name": "_getWeb3FunctionHash",
      "outputs": [
        {
          "internalType": "bytes",
          "name": "",
          "type": "bytes"
        }
      ],
      "stateMutability": "view",
      "type": "function"
    },
    {
      "inputs": [
        {
          "internalType": "uint256",
          "name": "_streamActionType",
          "type": "uint256"
        },
        {
          "internalType": "address",
          "name": "_sender",
          "type": "address"
        },
        {
          "internalType": "address",
          "name": "_receiver",
          "type": "address"
        },
        {
          "internalType": "int96",
          "name": "_flowRate",
          "type": "int96"
        },
        {
          "internalType": "uint256",
          "name": "_startTime",
          "type": "uint256"
        },
        {
          "internalType": "address",
          "name": "_superToken",
          "type": "address"
        },
        {
          "internalType": "address",
          "name": "_asset",
          "type": "address"
        },
        {
          "internalType": "uint256",
          "name": "_amount",
          "type": "uint256"
        }
      ],
      "name": "_getXStreamJobId",
      "outputs": [
        {
          "internalType": "bytes32",
          "name": "",
          "type": "bytes32"
        }
      ],
      "stateMutability": "pure",
      "type": "function"
    },
    {
      "inputs": [
        {
          "internalType": "address",
          "name": "",
          "type": "address"
        }
      ],
      "name": "_isTokenAllowed",
      "outputs": [
        {
          "internalType": "bool",
          "name": "",
          "type": "bool"
        }
      ],
      "stateMutability": "view",
      "type": "function"
    },
    {
      "inputs": [
        {
          "internalType": "enum XStreamPool.StreamOptions",
          "name": "",
          "type": "uint8"
        }
      ],
      "name": "_web3functionHashes",
      "outputs": [
        {
          "internalType": "string",
          "name": "",
          "type": "string"
        }
      ],
      "stateMutability": "view",
      "type": "function"
    },
    {
      "inputs": [
        {
          "internalType": "contract ISuperToken",
          "name": "",
          "type": "address"
        },
        {
          "internalType": "address",
          "name": "",
          "type": "address"
        },
        {
          "internalType": "bytes32",
          "name": "",
          "type": "bytes32"
        },
        {
          "internalType": "bytes",
          "name": "",
          "type": "bytes"
        },
        {
          "internalType": "bytes",
          "name": "",
          "type": "bytes"
        },
        {
          "internalType": "bytes",
          "name": "",
          "type": "bytes"
        }
      ],
      "name": "afterAgreementCreated",
      "outputs": [
        {
          "internalType": "bytes",
          "name": "",
          "type": "bytes"
        }
      ],
      "stateMutability": "nonpayable",
      "type": "function"
    },
    {
      "inputs": [
        {
          "internalType": "contract ISuperToken",
          "name": "",
          "type": "address"
        },
        {
          "internalType": "address",
          "name": "",
          "type": "address"
        },
        {
          "internalType": "bytes32",
          "name": "",
          "type": "bytes32"
        },
        {
          "internalType": "bytes",
          "name": "",
          "type": "bytes"
        },
        {
          "internalType": "bytes",
          "name": "",
          "type": "bytes"
        },
        {
          "internalType": "bytes",
          "name": "",
          "type": "bytes"
        }
      ],
      "name": "afterAgreementTerminated",
      "outputs": [
        {
          "internalType": "bytes",
          "name": "",
          "type": "bytes"
        }
      ],
      "stateMutability": "nonpayable",
      "type": "function"
    },
    {
      "inputs": [
        {
          "internalType": "contract ISuperToken",
          "name": "",
          "type": "address"
        },
        {
          "internalType": "address",
          "name": "",
          "type": "address"
        },
        {
          "internalType": "bytes32",
          "name": "",
          "type": "bytes32"
        },
        {
          "internalType": "bytes",
          "name": "",
          "type": "bytes"
        },
        {
          "internalType": "bytes",
          "name": "",
          "type": "bytes"
        },
        {
          "internalType": "bytes",
          "name": "",
          "type": "bytes"
        }
      ],
      "name": "afterAgreementUpdated",
      "outputs": [
        {
          "internalType": "bytes",
          "name": "",
          "type": "bytes"
        }
      ],
      "stateMutability": "nonpayable",
      "type": "function"
    },
    {
      "inputs": [
        {
          "internalType": "address",
          "name": "_asset",
          "type": "address"
        },
        {
          "internalType": "uint256",
          "name": "_amount",
          "type": "uint256"
        },
        {
          "internalType": "address",
          "name": "_superToken",
          "type": "address"
        }
      ],
      "name": "approveSuperToken",
      "outputs": [],
      "stateMutability": "nonpayable",
      "type": "function"
    },
    {
      "inputs": [],
      "name": "automate",
      "outputs": [
        {
          "internalType": "contract IAutomate",
          "name": "",
          "type": "address"
        }
      ],
      "stateMutability": "view",
      "type": "function"
    },
    {
      "inputs": [
        {
          "internalType": "contract ISuperToken",
          "name": "",
          "type": "address"
        },
        {
          "internalType": "address",
          "name": "",
          "type": "address"
        },
        {
          "internalType": "bytes32",
          "name": "",
          "type": "bytes32"
        },
        {
          "internalType": "bytes",
          "name": "",
          "type": "bytes"
        },
        {
          "internalType": "bytes",
          "name": "",
          "type": "bytes"
        }
      ],
      "name": "beforeAgreementCreated",
      "outputs": [
        {
          "internalType": "bytes",
          "name": "",
          "type": "bytes"
        }
      ],
      "stateMutability": "view",
      "type": "function"
    },
    {
      "inputs": [
        {
          "internalType": "contract ISuperToken",
          "name": "",
          "type": "address"
        },
        {
          "internalType": "address",
          "name": "",
          "type": "address"
        },
        {
          "internalType": "bytes32",
          "name": "",
          "type": "bytes32"
        },
        {
          "internalType": "bytes",
          "name": "",
          "type": "bytes"
        },
        {
          "internalType": "bytes",
          "name": "",
          "type": "bytes"
        }
      ],
      "name": "beforeAgreementTerminated",
      "outputs": [
        {
          "internalType": "bytes",
          "name": "",
          "type": "bytes"
        }
      ],
      "stateMutability": "view",
      "type": "function"
    },
    {
      "inputs": [
        {
          "internalType": "contract ISuperToken",
          "name": "",
          "type": "address"
        },
        {
          "internalType": "address",
          "name": "",
          "type": "address"
        },
        {
          "internalType": "bytes32",
          "name": "",
          "type": "bytes32"
        },
        {
          "internalType": "bytes",
          "name": "",
          "type": "bytes"
        },
        {
          "internalType": "bytes",
          "name": "",
          "type": "bytes"
        }
      ],
      "name": "beforeAgreementUpdated",
      "outputs": [
        {
          "internalType": "bytes",
          "name": "",
          "type": "bytes"
        }
      ],
      "stateMutability": "view",
      "type": "function"
    },
    {
      "inputs": [],
      "name": "cfa",
      "outputs": [
        {
          "internalType": "contract IConstantFlowAgreementV1",
          "name": "",
          "type": "address"
        }
      ],
      "stateMutability": "view",
      "type": "function"
    },
    {
      "inputs": [],
      "name": "connext",
      "outputs": [
        {
          "internalType": "contract IConnext",
          "name": "",
          "type": "address"
        }
      ],
      "stateMutability": "view",
      "type": "function"
    },
    {
      "inputs": [],
      "name": "dedicatedMsgSender",
      "outputs": [
        {
          "internalType": "address",
          "name": "",
          "type": "address"
        }
      ],
      "stateMutability": "view",
      "type": "function"
    },
    {
      "inputs": [
        {
          "internalType": "address",
          "name": "account",
          "type": "address"
        },
        {
          "internalType": "address",
          "name": "_superToken",
          "type": "address"
        }
      ],
      "name": "deleteStream",
      "outputs": [],
      "stateMutability": "nonpayable",
      "type": "function"
    },
    {
      "inputs": [],
      "name": "fundsOwner",
      "outputs": [
        {
          "internalType": "address",
          "name": "",
          "type": "address"
        }
      ],
      "stateMutability": "view",
      "type": "function"
    },
    {
      "inputs": [],
      "name": "gelato1Balance",
      "outputs": [
        {
          "internalType": "contract IGelato1Balance",
          "name": "",
          "type": "address"
        }
      ],
      "stateMutability": "view",
      "type": "function"
    },
    {
      "inputs": [],
      "name": "host",
      "outputs": [
        {
          "internalType": "contract ISuperfluid",
          "name": "",
          "type": "address"
        }
      ],
      "stateMutability": "view",
      "type": "function"
    },
    {
      "inputs": [
        {
          "internalType": "address payable",
          "name": "_ops",
          "type": "address"
        },
        {
          "internalType": "address",
          "name": "_host",
          "type": "address"
        },
        {
          "internalType": "address",
          "name": "_cfa",
          "type": "address"
        },
        {
          "internalType": "address",
          "name": "_connext",
          "type": "address"
        }
      ],
      "name": "initialize",
      "outputs": [],
      "stateMutability": "nonpayable",
      "type": "function"
    },
    {
      "inputs": [],
      "name": "owner",
      "outputs": [
        {
          "internalType": "address",
          "name": "",
          "type": "address"
        }
      ],
      "stateMutability": "view",
      "type": "function"
    },
    {
      "inputs": [],
      "name": "proxiableUUID",
      "outputs": [
        {
          "internalType": "bytes32",
          "name": "",
          "type": "bytes32"
        }
      ],
      "stateMutability": "view",
      "type": "function"
    },
    {
      "inputs": [],
      "name": "renounceOwnership",
      "outputs": [],
      "stateMutability": "nonpayable",
      "type": "function"
    },
    {
      "inputs": [
        {
          "internalType": "address",
          "name": "_fromToken",
          "type": "address"
        },
        {
          "internalType": "address",
          "name": "_toToken",
          "type": "address"
        },
        {
          "internalType": "uint256",
          "name": "amountIn",
          "type": "uint256"
        }
      ],
      "name": "swapExactInputSingle",
      "outputs": [
        {
          "internalType": "uint256",
          "name": "amountOut",
          "type": "uint256"
        }
      ],
      "stateMutability": "nonpayable",
      "type": "function"
    },
    {
      "inputs": [],
      "name": "swapRouter",
      "outputs": [
        {
          "internalType": "contract ISwapRouter",
          "name": "",
          "type": "address"
        }
      ],
      "stateMutability": "view",
      "type": "function"
    },
    {
      "inputs": [
        {
          "internalType": "address",
          "name": "newOwner",
          "type": "address"
        }
      ],
      "name": "transferOwnership",
      "outputs": [],
      "stateMutability": "nonpayable",
      "type": "function"
    },
    {
      "inputs": [],
      "name": "treasury",
      "outputs": [
        {
          "internalType": "contract ITreasury",
          "name": "",
          "type": "address"
        }
      ],
      "stateMutability": "view",
      "type": "function"
    },
    {
      "inputs": [
        {
          "internalType": "address",
          "name": "_treasury",
          "type": "address"
        }
      ],
      "name": "updateTreasury",
      "outputs": [],
      "stateMutability": "nonpayable",
      "type": "function"
    },
    {
      "inputs": [
        {
          "internalType": "enum XStreamPool.StreamOptions[]",
          "name": "_types",
          "type": "uint8[]"
        },
        {
          "internalType": "string[]",
          "name": "_hashes",
          "type": "string[]"
        }
      ],
      "name": "updateWeb3functionHashes",
      "outputs": [],
      "stateMutability": "nonpayable",
      "type": "function"
    },
    {
      "inputs": [
        {
          "internalType": "address",
          "name": "newImplementation",
          "type": "address"
        }
      ],
      "name": "upgradeTo",
      "outputs": [],
      "stateMutability": "nonpayable",
      "type": "function"
    },
    {
      "inputs": [
        {
          "internalType": "address",
          "name": "newImplementation",
          "type": "address"
        },
        {
          "internalType": "bytes",
          "name": "data",
          "type": "bytes"
        }
      ],
      "name": "upgradeToAndCall",
      "outputs": [],
      "stateMutability": "payable",
      "type": "function"
    },
    {
      "inputs": [
        {
          "internalType": "bytes32",
          "name": "_transferId",
          "type": "bytes32"
        },
        {
          "internalType": "uint256",
          "name": "_amount",
          "type": "uint256"
        },
        {
          "internalType": "address",
          "name": "_asset",
          "type": "address"
        },
        {
          "internalType": "address",
          "name": "_originSender",
          "type": "address"
        },
        {
          "internalType": "uint32",
          "name": "_origin",
          "type": "uint32"
        },
        {
          "internalType": "bytes",
          "name": "_callData",
          "type": "bytes"
        }
      ],
      "name": "xReceive",
      "outputs": [
        {
          "internalType": "bytes",
          "name": "",
          "type": "bytes"
        }
      ],
      "stateMutability": "nonpayable",
      "type": "function"
    },
    {
      "inputs": [
        {
          "internalType": "bytes32",
          "name": "_xStreamId",
          "type": "bytes32"
        },
        {
          "internalType": "address",
          "name": "_from",
          "type": "address"
        },
        {
          "internalType": "address",
          "name": "_receiver",
          "type": "address"
        },
        {
          "internalType": "address",
          "name": "_destinationContract",
          "type": "address"
        },
        {
          "internalType": "uint32",
          "name": "_destinationDomain",
          "type": "uint32"
        },
        {
          "internalType": "address",
          "name": "_bridgingToken",
          "type": "address"
        },
        {
          "internalType": "address",
          "name": "_destinationSuperToken",
          "type": "address"
        },
        {
          "internalType": "uint256",
          "name": "_amount",
          "type": "uint256"
        },
        {
          "internalType": "uint256",
          "name": "_slippage",
          "type": "uint256"
        },
        {
          "internalType": "uint256",
          "name": "_relayerFeeInTransactingAsset",
          "type": "uint256"
        },
        {
          "internalType": "uint256",
          "name": "_streamActionType",
          "type": "uint256"
        },
        {
          "internalType": "int96",
          "name": "_flowRate",
          "type": "int96"
        }
      ],
      "name": "xTransfer",
      "outputs": [],
      "stateMutability": "nonpayable",
      "type": "function"
    },
    {
      "stateMutability": "payable",
      "type": "receive"
    }
  ],
  "bytecode": "0x60a08060405234620000e157306080526000549060ff8260081c166200008f575060ff8082161062000053575b604051613f9a9081620000e78239608051818181611a1701528181611b050152611ef20152f35b60ff90811916176000557f7f26b83ff96e1f2b6a682f133852f6798a09c465da95921460cefb3847402498602060405160ff8152a1386200002c565b62461bcd60e51b815260206004820152602760248201527f496e697469616c697a61626c653a20636f6e747261637420697320696e697469604482015266616c697a696e6760c81b6064820152608490fd5b600080fdfe61010080604052600436101561001b575b50361561001957005b005b60003560e01c908163049aacfe1461274e575080631054df8c1461272557806317373888146125b7578063230dbd291461254557806324e752a11461220157806328f150eb146121d857806330d9c915146121675780633659cfe614611ece57806338446a5b14611e74578063432776cb14611e1257806346ee3c5914611de9578063488ac00814611daa5780634f1ef28614611ac857806352d1902d14611a0457806353c11f991461198f57806357fb1d67146119605780635f9e7d77146118eb57806361d027b3146118c257806369d13cd9146117e0578063715018a6146117835780637f51bb1f14611740578063884d1f40146116cf5780638da5cb5b146116a6578063aa67a53e1461139c578063ad5c464814611373578063b1e7ed581461115a578063c31c9c0714611131578063caf9e19114610f19578063ceb9201214610ee2578063d6ecbb3d14610e6e578063d8524c6f14610c47578063d86ed3e514610bd5578063de4b054814610bac578063e971c45014610b30578063ef1f4d3f14610b02578063f2fde38b14610a75578063f437bc5914610a4c578063f8c8765e146106b75763fd614f41146101d55738610010565b346105845760c0366003190112610584576101ee6128b5565b6101f661289f565b906101ff6128f5565b9060a4356001600160401b0381116105845761021f903690600401612a91565b926101008480518101031261058457602084015192604085015192610246606087016137a4565b91610253608088016137a4565b9661026060a082016137b8565b9460c08201519689897f49acb92ad3c4dfd84fc681ccd29e5bee6b9d093348a62791b62b772d1b5f920461010061029d8160e089015198016137a4565b6040805163ffffffff8b1681526001600160a01b038c811660208301526024359282019290925260043560608201524260808201528c821660a082015295811660c0870152600b8d900b60e087015290961693a36103076001600160a01b03831660243587613d4e565b61032860018060a01b038316828a8d8b6024359160018060a01b03166137fa565b600181036103c4575050505050506040519360018060a01b03168452600b0b602084015260408301527f08bbbe5fcdd14bca482eac62ee295b3d749a9ab30da441626e02b17bf76737f060603393a35b604051602081526060518060208301528160005b8281106103ad57508160006040809484010152601f80199101168101030190f35b60808101518482016040015283915060200161038c565b94989597969460020361041f57505050507f915da00d5900f1c1f8241d5f53fe1f22dc91548406bfab32f4c7d4824dc8f0df91604091825195600b0b8652602086015260018060a01b03169460018060a01b031693a4610378565b919350809294959650600060018060a01b0360d354168060018060a01b038816036106a2575b506001600160a01b0386166105f1575b106105d1576040516370a0823160e01b815230600482015290602090829060249082906001600160a01b03165afa9081156105905760009161059c575b50602092600063ffffffff936104c36104b061010495602435612e0f565b60cd546001600160a01b03169290612e0f565b6040516345560b5d60e11b81529390951660048401526001600160a01b038a81166024850152909616604483015233606483015260848201939093526101f460a482015260e060c482015260e4810183905293849283915af1801561059057610560575b506001600160a01b039081169216907fc982d56833d07816e64a71c4170831cee0163cf28431ca80cd51aab5d29d2f8f600080a4610378565b602090813d8311610589575b610576818361280f565b810103126105845738610527565b600080fd5b503d61056c565b6040513d6000823e3d90fd5b9190506020823d6020116105c9575b816105b86020938361280f565b810103126105845790516020610492565b3d91506105ab565b60405163c4225e5760e01b81526024803560048301528101839052604490fd5b60d35460cd54604051636eb1769f60e11b81523060048201526001600160a01b03918216602482018190529094509116602084604481845afa801561059057869460009161066d575b506106458585612dec565b11610652575b5050610455565b610666916106608585612dec565b9161304a565b388061064b565b9450506020843d60201161069a575b816106896020938361280f565b81010312610584578593513861063a565b3d915061067c565b6106b19150602435908761310e565b38610445565b34610584576080366003190112610584576001600160a01b0360043581811690819003610584576106e6612889565b6106ee6128b5565b906106f761289f565b906000549460ff8660081c161595868097610a3f575b8015610a28575b156109cc5760ff198116600117600055866109ba575b5060ff60005460081c169261073e84612d8c565b61074784612d8c565b6001600160601b0360a01b92868460c954161760c9556040519663573ea57560e01b88526020978881600481855afa91821561059057858a9260009461097d575b50602493168760cb54161760cb556040519283809263cd3d4fb960e01b8252600260048301525afa9081156105905784918991600091610946575b50600460405180948193632e8743fd60e21b8352165afa801561059057849160009161090c575b5060409060248251809481936337b6269f60e21b8352306004840152165afa908115610590576000916108b8575b50958380928161086299168760ca54161760ca55338760cc54161760cc55168560cf54161760cf55168360d054161760d055169060cd54161760cd5561085d81612d8c565b612d8c565b61086b33612b6a565b6000549161087e60ff8460081c16612d8c565b61088457005b7f7f26b83ff96e1f2b6a682f133852f6798a09c465da95921460cefb38474024989161ff00191660005560405160018152a1005b9690506040873d604011610904575b816108d46040938361280f565b810103126105845783809281896108f88c6108f16108629d6137a4565b920161303d565b50939950509250610818565b3d91506108c7565b809250898092503d831161093f575b610925818361280f565b8101031261058457604061093985926137a4565b906107ea565b503d61091b565b92505081813d8311610976575b61095d818361280f565b81010312610584578761097085926137a4565b8b6107c3565b503d610953565b92809294508391503d83116109b3575b610997818361280f565b8101031261058457602491856109ad8b936137a4565b93610788565b503d61098d565b61ffff1916610101176000558661072a565b60405162461bcd60e51b815260206004820152602e60248201527f496e697469616c697a61626c653a20636f6e747261637420697320616c72656160448201526d191e481a5b9a5d1a585b1a5e995960921b6064820152608490fd5b50303b1580156107145750600160ff821614610714565b50600160ff82161061070d565b346105845760003660031901126105845760cf546040516001600160a01b039091168152602090f35b3461058457602036600319011261058457610a8e612873565b610a96612b12565b6001600160a01b03811615610aae5761001990612b6a565b60405162461bcd60e51b815260206004820152602660248201527f4f776e61626c653a206e6577206f776e657220697320746865207a65726f206160448201526564647265737360d01b6064820152608490fd5b3461058457606036600319011261058457610019610b1e612873565b610b266128b5565b9060243590613d4e565b346105845760203660031901126105845760043560005260d460205260e06040600020805460018201549160028101549260018060a01b0393846003840154169160058660048601541694015494604051968116875260a01d600b0b602087015260408601526060850152608084015260a083015260c0820152f35b346105845760003660031901126105845760cd546040516001600160a01b039091168152602090f35b3461058457610be336612935565b505050505050505050608460405162461bcd60e51b815260206004820152602e60248201527f556e737570706f727465642063616c6c6261636b202d2041667465722041677260448201526d19595b595b9d0810dc99585d195960921b6064820152fd5b3461058457604036600319011261058457610c60612873565b610c68612889565b90610c7e60ff60005460081c1661085d81612d8c565b60c980546001600160a01b039283166001600160a01b0319918216811790925560405163573ea57560e01b8152909391906020908181600481865afa8015610590578591600091610e2f575b50928291602494168760cb54161760cb556040519384809263cd3d4fb960e01b8252600260048301525afa8015610590578492600091610df6575b508190600460405180958193632e8743fd60e21b8352165afa8015610590578492600091610dbc575b5060409060248251809581936337b6269f60e21b8352306004840152165afa908115610590578492600092610d79575b5050168360ca54161760ca55169060cc54161760cc55600080f35b915091506040813d604011610db4575b81610d966040938361280f565b8101031261058457610dac84926108f1836137a4565b508580610d5e565b3d9150610d89565b809350828092503d8311610def575b610dd5818361280f565b81010312610584576040610de985936137a4565b90610d2e565b503d610dcb565b809350828092503d8311610e28575b610e0f818361280f565b810103126105845780610e2285936137a4565b90610d05565b503d610e05565b809250838092503d8311610e67575b610e48818361280f565b810103126105845760249285610e5e84936137a4565b91945091610cca565b503d610e3e565b346105845761018036600319011261058457610e88612889565b610e906128b5565b90610e9961289f565b610ea16128f5565b90610eaa6128cb565b93610eb3612830565b93610164359485600b0b8603610584576100199661014435956101243595610104359560e43595600435612e1c565b34610584576060366003190112610584576020610f11610f00612873565b610f08612889565b6044359161310e565b604051908152f35b3461058457604036600319011261058457610f32612873565b610f3a612889565b90610f4c60ff60005460081c16612d8c565b60c980546001600160a01b039283166001600160a01b0319918216811790925560405163573ea57560e01b8152909360209290918381600481855afa918215610590578585926000946110f4575b50602493168760cb54161760cb556040519283809263cd3d4fb960e01b8252600260048301525afa90811561059057849184916000916110bd575b50600460405180948193632e8743fd60e21b8352165afa908115610590578490600092611080575b50604080516337b6269f60e21b815293821660048501529183916024918391165afa9182156105905760009261103f575b5050169060ca54161760ca55600080f35b9091506040823d604011611078575b8161105b6040938361280f565b8101031261058457611070906108f1836137a4565b50838061102e565b3d915061104e565b809250848092503d83116110b6575b611099818361280f565b81010312610584578360246110af6040936137a4565b9250610ffd565b503d61108f565b92505081813d83116110ed575b6110d4818361280f565b8101031261058457826110e785926137a4565b87610fd5565b503d6110ca565b92809294508391503d831161112a575b61110e818361280f565b81010312610584576024918561112486936137a4565b93610f9a565b503d611104565b346105845760003660031901126105845760ce546040516001600160a01b039091168152602090f35b34610584576040366003190112610584576004356001600160401b0381116105845761118a903690600401612772565b906024356001600160401b038111610584576111aa903690600401612772565b90916111b4612b12565b6000935b8085106111c157005b8285101561135d578460051b84013594601e1985360301861215610584576001600160401b03868601351161058457858501353603602087870101136105845761120c818385613767565b3560038110156105845760005260d2602052604060002061122d8154612ad8565b601f8111611313575b50600096601f81880135116001146112935761127a9394959697600090828a0135611283575b508189013560011b91600019908a013560031b1c1916179055613758565b939291906111b8565b60209150828a010101358961125c565b601f198188013516978260005260206000209060005b8a81106112f7575088998361127a9798999a0135116112d5575b5050600190880135811b019055613758565b602060001960f8858d013560031b161c1991848c0101013516905588806112c3565b90916020600181928286888f01010135815501930191016112a9565b816000526020600020601f898901350160051c810160208a8a013510611356575b601f830160051c8201811061134a575050611236565b60008155600101611334565b5080611334565b634e487b7160e01b600052603260045260246000fd5b346105845760003660031901126105845760d3546040516001600160a01b039091168152602090f35b34610584576040366003190112610584576113b5612873565b61144d6001600160a01b03806113c9612889565b16926000604051916113da836127bd565b818352611400604051938492602098635a5999e360e11b8a860152309060248601613346565b0391611414601f199384810183528261280f565b8360cf54168460d0541691836040519361142d856127bd565b8185526040516339255d5b60e01b815298899586948593600485016133d9565b03925af192831561059057600493611683575b5060408260c95416815194858092635c08631b60e11b82525afa801561059057600093600091611643575b5082169073eeeeeeeeeeeeeeeeeeeeeeeeeeeeeeeeeeeeeeee820361150d5750506000808093819360cb54165af16114c1612d05565b50156114c957005b6064906040519062461bcd60e51b82526004820152601e60248201527f5f7472616e736665723a20455448207472616e73666572206661696c656400006044820152fd5b60cb5460405163a9059cbb60e01b8782019081526001600160a01b039590921694909416602485015260448401949094526064908101835261154f908361280f565b60405191604083018381106001600160401b0382111761162d576040528483527f5361666545524332303a206c6f772d6c6576656c2063616c6c206661696c656483860152516115b093600091829182855af16115aa612d05565b91613ed2565b8051806115b957005b8183918101031261058457816115cf910161303d565b156115d657005b6084906040519062461bcd60e51b82526004820152602a60248201527f5361666545524332303a204552433230206f7065726174696f6e20646964206e6044820152691bdd081cdd58d8d9595960b21b6064820152fd5b634e487b7160e01b600052604160045260246000fd5b9350506040833d60401161167b575b8161165f6040938361280f565b81010312610584578161167585855195016137a4565b9061148b565b3d9150611652565b61169f903d806000833e611697818361280f565b81019061337b565b5084611460565b34610584576000366003190112610584576033546040516001600160a01b039091168152602090f35b34610584576116dd36612a08565b50505050505050608460405162461bcd60e51b815260206004820152602f60248201527f556e737570706f727465642063616c6c6261636b202d204265666f726520416760448201526e1c99595b595b9d081d5c19185d1959608a1b6064820152fd5b3461058457602036600319011261058457611759612873565b611761612b12565b60d180546001600160a01b0319166001600160a01b0392909216919091179055005b346105845760003660031901126105845761179c612b12565b603380546001600160a01b031981169091556000906001600160a01b03167f8be0079c531659141344cd1fd0a4f28419497f9722a3daafe3b4186f6b6457e08280a3005b34610584576020806003193601126105845760043560038110156105845760005260d2815260406000209060405191826000825461181d81612ad8565b938484526001918683821691826000146118a0575050600114611861575b50506118499250038361280f565b61185d6040519282849384528301906129e3565b0390f35b85925060005281600020906000915b8583106118885750506118499350820101858061183b565b80548389018501528794508693909201918101611870565b925093505061184994915060ff191682840152151560051b820101858061183b565b346105845760003660031901126105845760d1546040516001600160a01b039091168152602090f35b34610584576118f936612a08565b50505050505050608460405162461bcd60e51b815260206004820152603360248201527f556e737570706f727465642063616c6c6261636b202d20204265666f7265204160448201527219dc99595b595b9d0815195c9b5a5b985d1959606a1b6064820152fd5b34610584576000366003190112610584576020604051737506c12a824d73d9b08564d5afc22c949434755e8152f35b346105845761199d36612935565b505050505050505050608460405162461bcd60e51b815260206004820152603160248201527f556e737570706f727465642063616c6c6261636b202d2041667465722041677260448201527019595b595b9d0815195c9b5a5b985d1959607a1b6064820152fd5b34610584576000366003190112610584577f00000000000000000000000000000000000000000000000000000000000000006001600160a01b03163003611a5d576020604051600080516020613f458339815191528152f35b60405162461bcd60e51b815260206004820152603860248201527f555550535570677261646561626c653a206d757374206e6f742062652063616c60448201527f6c6564207468726f7567682064656c656761746563616c6c00000000000000006064820152608490fd5b604036600319011261058457611adc612873565b6024356001600160401b03811161058457611afb903690600401612a91565b6001600160a01b037f00000000000000000000000000000000000000000000000000000000000000008116929190611b3530851415612bb3565b611b52600080516020613f45833981519152948286541614612c14565b611b5a612b12565b7f4910fdfa16fed3260ed0e7147f7cc6da11a60208b5b9406d12a635614ffd91435460ff1615611b905750506100199150612c75565b82919216604051936352d1902d60e01b85526020948581600481865afa60009181611d7b575b50611c175760405162461bcd60e51b815260048101879052602e60248201527f45524331393637557067726164653a206e657720696d706c656d656e7461746960448201526d6f6e206973206e6f74205555505360901b6064820152608490fd5b03611d2457611c2582612c75565b604051907fbc7cd75a20ee27fd9adebab32041f755214dbc6bffa90cc0225b39da2e5c2d3b600080a2825115801590611d1c575b611c5f57005b813b15611ccb57506000828192856100199695519201905af4611c80612d05565b907f416464726573733a206c6f772d6c6576656c2064656c65676174652063616c6c60405193611caf856127a2565b60278552840152660819985a5b195960ca1b6040840152612d35565b62461bcd60e51b815260048101849052602660248201527f416464726573733a2064656c65676174652063616c6c20746f206e6f6e2d636f6044820152651b9d1c9858dd60d21b6064820152608490fd5b506001611c59565b60405162461bcd60e51b815260048101859052602960248201527f45524331393637557067726164653a20756e737570706f727465642070726f786044820152681a58589b195555525160ba1b6064820152608490fd5b9091508681813d8311611da3575b611d93818361280f565b8101031261058457519087611bb6565b503d611d89565b34610584576020366003190112610584576001600160a01b03611dcb612873565b1660005260d5602052602060ff604060002054166040519015158152f35b346105845760003660031901126105845760cc546040516001600160a01b039091168152602090f35b346105845761014036600319011261058457611e2c612889565b60443580600b0b81036105845761001991611e45612830565b611e4d612846565b90611e5661285c565b92611e5f6128e1565b9460a43591608435916064359160043561340f565b346105845761010036600319011261058457611e8e612889565b611e966128b5565b906064359182600b0b830361058457602092610f1192611eb46128cb565b90611ebd612830565b9260e4359460843592600435613e75565b346105845760208060031936011261058457611ee8612873565b6001600160a01b037f00000000000000000000000000000000000000000000000000000000000000008116611f1f30821415612bb3565b611f3c600080516020613f45833981519152918383541614612c14565b611f44612b12565b60405190848201928284106001600160401b0385111761162d57836040526000835260ff7f4910fdfa16fed3260ed0e7147f7cc6da11a60208b5b9406d12a635614ffd91435416600014611fa057505050506100199150612c75565b8416906040516352d1902d60e01b81528681600481865afa60009181612138575b506120225760405162461bcd60e51b815260048101889052602e60248201527f45524331393637557067726164653a206e657720696d706c656d656e7461746960448201526d6f6e206973206e6f74205555505360901b6064820152608490fd5b036120e15761203084612c75565b604051907fbc7cd75a20ee27fd9adebab32041f755214dbc6bffa90cc0225b39da2e5c2d3b600080a28151158015906120d9575b61206a57005b833b1561208857506100199392600092839251915af4611c80612d05565b62461bcd60e51b815260048101859052602660248201527f416464726573733a2064656c65676174652063616c6c20746f206e6f6e2d636f6044820152651b9d1c9858dd60d21b6064820152608490fd5b506000612064565b60405162461bcd60e51b815260048101869052602960248201527f45524331393637557067726164653a20756e737570706f727465642070726f786044820152681a58589b195555525160ba1b6064820152608490fd5b9091508781813d8311612160575b612150818361280f565b8101031261058457519088611fc1565b503d612146565b346105845761217536612a08565b50505050505050608460405162461bcd60e51b815260206004820152602f60248201527f556e737570706f727465642063616c6c6261636b202d204265666f726520416760448201526e1c99595b595b9d0810dc99585d1959608a1b6064820152fd5b346105845760003660031901126105845760ca546040516001600160a01b039091168152602090f35b34610584576101603660031901126105845761221b612873565b612223612889565b906044359161223061289f565b91608435906001600160a01b039081831683036105845760c43563ffffffff811681036105845761225f612846565b9287886000997a184f03e93ff9f4daa797ed6e38ed64bf6a1f0100000000000000009081811015612536575b5050600a906d04ee2d6d415b85acef810000000080821015612529575b50662386f26fc100008082101561251c575b506305f5e1008082101561250f575b5061271080821015612502575b5060648110156124f4575b10156124e9575b600a602160018b019a6122fa8c612a76565b9b6123086040519d8e61280f565b808d52612317601f1991612a76565b013660208e01378b01015b60001901916f181899199a1a9b1b9c1cb0b131b232b360811b8282061a83530490811561235157600a90612322565b5050602061237561236f612369612369600497613239565b99613239565b96613239565b9160cd54166040519485809263617d935360e11b82525afa928315610590576000936124b5575b506123a630613239565b936123b090613239565b946040519889986101c0988960208c01526101e08b016123cf916129e3565b8a8103601f190160408c01526123e4916129e3565b898103601f190160608b01526123f9916129e3565b888103601f190160808a015261240e916129e3565b878103601f190160a0890152612423916129e3565b914660c088015260a43560e088015261010087015263ffffffff16610120860152601f198582030161014086015261245a916129e3565b838103601f1901610160850152612470916129e3565b9061010435610180840152610124356101a0840152610144359083015203601f198101825261249f908261280f565b6040518091602082526020820161185d916129e3565b9092506020813d6020116124e1575b816124d16020938361280f565b810103126105845751918861239c565b3d91506124c4565b6001909801976122e8565b6064600291049a01996122e1565b600491049a01998b6122d6565b600891049a01998b6122c9565b601091049a01998b6122ba565b602091049a01998b6122a8565b60409b50049050600a8b61228b565b346105845761255336612935565b505050505050505050608460405162461bcd60e51b815260206004820152602e60248201527f556e737570706f727465642063616c6c6261636b202d2041667465722041677260448201526d19595b595b9d08155c19185d195960921b6064820152fd5b3461058457610140366003190112610584576001600160401b03600435818111610584576125e9903690600401612772565b9160243581811161058457612602903690600401612772565b604494919435838111610584573660238201121561058457806004013593841161162d578360051b906040519461263c602084018761280f565b8552602460208601928201019036821161058457602401915b81831061270557505050612667612830565b61266f612846565b9061267861285c565b926126816128e1565b9460005b81811061268e57005b61269981838b613767565b35906001600160a01b0382168203610584576126b681858d613767565b3580600b0b810361058457895182101561135d5788888888612700966126fb958f60206001600160601b03918a60051b010151169160a435916084359160643561340f565b613758565b612685565b82356001600160601b038116810361058457815260209283019201612655565b346105845760003660031901126105845760d0546040516001600160a01b039091168152602090f35b346105845760003660031901126105845760c9546001600160a01b03168152602090f35b9181601f84011215610584578235916001600160401b038311610584576020808501948460051b01011161058457565b606081019081106001600160401b0382111761162d57604052565b602081019081106001600160401b0382111761162d57604052565b61012081019081106001600160401b0382111761162d57604052565b608081019081106001600160401b0382111761162d57604052565b90601f801991011681019081106001600160401b0382111761162d57604052565b60c435906001600160a01b038216820361058457565b60e435906001600160a01b038216820361058457565b61010435906001600160a01b038216820361058457565b600435906001600160a01b038216820361058457565b602435906001600160a01b038216820361058457565b606435906001600160a01b038216820361058457565b604435906001600160a01b038216820361058457565b60a435906001600160a01b038216820361058457565b610124359063ffffffff8216820361058457565b6084359063ffffffff8216820361058457565b9181601f84011215610584578235916001600160401b038311610584576020838186019501011161058457565b60c0600319820112610584576001600160a01b03916004358381168103610584579260243590811681036105845791604435916001600160401b03606435818111610584578361298791600401612908565b9390939260843583811161058457826129a291600401612908565b9390939260a435918211610584576129bc91600401612908565b9091565b60005b8381106129d35750506000910152565b81810151838201526020016129c3565b906020916129fc815180928185528580860191016129c0565b601f01601f1916010190565b9060a0600319830112610584576001600160a01b03916004358381168103610584579260243590811681036105845791604435916001600160401b03916064358381116105845782612a5c91600401612908565b93909392608435918211610584576129bc91600401612908565b6001600160401b03811161162d57601f01601f191660200190565b81601f8201121561058457803590612aa882612a76565b92612ab6604051948561280f565b8284526020838301011161058457816000926020809301838601378301015290565b90600182811c92168015612b08575b6020831014612af257565b634e487b7160e01b600052602260045260246000fd5b91607f1691612ae7565b6033546001600160a01b03163303612b2657565b606460405162461bcd60e51b815260206004820152602060248201527f4f776e61626c653a2063616c6c6572206973206e6f7420746865206f776e65726044820152fd5b603380546001600160a01b039283166001600160a01b0319821681179092559091167f8be0079c531659141344cd1fd0a4f28419497f9722a3daafe3b4186f6b6457e0600080a3565b15612bba57565b60405162461bcd60e51b815260206004820152602c60248201527f46756e6374696f6e206d7573742062652063616c6c6564207468726f7567682060448201526b19195b1959d85d1958d85b1b60a21b6064820152608490fd5b15612c1b57565b60405162461bcd60e51b815260206004820152602c60248201527f46756e6374696f6e206d7573742062652063616c6c6564207468726f7567682060448201526b6163746976652070726f787960a01b6064820152608490fd5b803b15612caa57600080516020613f4583398151915280546001600160a01b0319166001600160a01b03909216919091179055565b60405162461bcd60e51b815260206004820152602d60248201527f455243313936373a206e657720696d706c656d656e746174696f6e206973206e60448201526c1bdd08184818dbdb9d1c9858dd609a1b6064820152608490fd5b3d15612d30573d90612d1682612a76565b91612d24604051938461280f565b82523d6000602084013e565b606090565b909160609115612d4457505090565b612d4f919392612d51565b565b805190925015612d645750805190602001fd5b60405162461bcd60e51b815260206004820152908190612d889060248301906129e3565b0390fd5b15612d9357565b60405162461bcd60e51b815260206004820152602b60248201527f496e697469616c697a61626c653a20636f6e7472616374206973206e6f74206960448201526a6e697469616c697a696e6760a81b6064820152608490fd5b91908201809211612df957565b634e487b7160e01b600052601160045260246000fd5b91908203918211612df957565b9594929990879b9199979998949860e0988952600060018060a01b039d8e8060d354169088169781890361302b575b50505085612f70575b895111612f50579360009793612ecc8e60209e9d9c9995818063ffffffff9e9b97612f119b6040519b60208d015260408c015216948560608b0152166080890152600b0b60a08801524260c088015288518988015280610100961686880152858752612ebf876127d8565b60cd54169b885190612e0f565b916040519e8f9d8e9c8d9b6393f18ac560e01b8d521660048c01521660248a015260448901526064880152608487015260a486015260c48501526101048401906129e3565b905160e483015203925af1801561059057612f295750565b602090813d8111612f49575b612f3f818361280f565b8101031261058457565b503d612f35565b60405163c4225e5760e01b8152600481018c905289516024820152604490fd5b8d8060d354169060cd541690604051636eb1769f60e11b815260208180612fb486306004840190602090939293604083019460018060a01b03809216845216910152565b0381855afa90811561059057600091612ff7575b50612fd48d5185612dec565b11612fe1575b5050612e54565b612ff0916106608d5185612dec565b3880612fda565b906020823d8211613023575b816130106020938361280f565b8101031261302057505138612fc8565b80fd5b3d9150613003565b613035935061310e565b8b3880612e4b565b5190811515820361058457565b60405163095ea7b360e01b602082019081526001600160a01b0390931660248201526044810193909352600092839290839061309381606481015b03601f19810183528261280f565b51925af161309f612d05565b816130d7575b50156130ad57565b60405162461bcd60e51b8152602060048201526002602482015261534160f01b6044820152606490fd5b80518015925082156130ec575b5050386130a5565b8192509060209181010312610584576020613107910161303d565b38806130e4565b60ce546001600160a01b039391929061312b90839086168561304a565b6040519061010082018281106001600160401b0382111761162d578594859160405216825283602083019116815283604083016101f481526060840194308652608085019042825260a0860190815260c08601916000998a9889855260e08901958a8752828060ce5416996040519d8e9c8d63414bf38960e01b9052511660048d0152511660248b01525162ffffff1660448a0152511660648801525160848701525160a48601525160c4850152511660e4830152815a9361010492602095f191821561322d5780926131fd57505090565b9091506020823d8211613225575b816132186020938361280f565b8101031261302057505190565b3d915061320b565b604051903d90823e3d90fd5b604051906001600160a01b031661324f826127a2565b602a8252602090818301604036823783511561135d5760309053825160019081101561135d57607860218501536029905b8082116132d4575050613291575090565b6064906040519062461bcd60e51b825280600483015260248201527f537472696e67733a20686578206c656e67746820696e73756666696369656e746044820152fd5b9091600f81166010811015613331578551841015613331576f181899199a1a9b1b9c1cb0b131b232b360811b901a85840185015360041c91801561331c576000190190613280565b60246000634e487b7160e01b81526011600452fd5b60246000634e487b7160e01b81526032600452fd5b6001600160a01b03918216815291811660208301529091166040820152608060608201819052613378929101906129e3565b90565b602081830312610584578051906001600160401b038211610584570181601f820112156105845780516133ad81612a76565b926133bb604051948561280f565b818452602082840101116105845761337891602080850191016129c0565b6001600160a01b039091168152606060208201819052613378939192613401918401906129e3565b9160408184039101526129e3565b608096875260c098909852604051636eb1769f60e11b815233600482015230602482015295519698909791969095929493919290602090829060449082906001600160a01b03165afa8015610590578491600091613723575b501061367957604051916323b872dd60e01b8352336004840152306024840152836044840152602083606481600060018060a01b03608051165af180156105905787928691613638575b6134e19450858b8b8a6134ce8460805185428c878d3390613e75565b8060a0526080519260c051913390612e1c565b6040519360e08501918583106001600160401b0384111761162d5763ffffffff95600585936135c8956040523383526020830190600b0b9a8b82526040840191428352606085019160008352608086019060018060a01b0316815260a086019260018060a01b0360805116845260c08701946000865260a05160005260d460205260406000209760018060a01b039051166001600160601b0360a01b80955160a01b16178855516001880155516002870155600386019060018060a01b0390511682825416179055600485019160018060a01b039051169082541617905551910155612e0f565b6040519560018060a01b036080511687526020870152604086015260016060860152426080860152600060a086015260c08501521660e083015260018060a01b03169033907fa5ebb8adea62ddf016b38a5587dd32eb4964491a814c0dbeec396bad11840daf61010060a05192a4565b9250506020833d602011613671575b816136546020938361280f565b810103126105845784879261366b6134e19561303d565b506134b2565b3d9150613647565b604051636eb1769f60e11b81523360048201523060248201526080518490602090839060449082906001600160a01b03165afa918215610590576000926136ec575b60405163059d9d6d60e31b815260048101849052602481018390526080516001600160a01b03166044820152606490fd5b6020813d60201161371b575b816137056020938361280f565b810103126137175751915060646136bb565b8280fd5b3d91506136f8565b91506020823d602011613750575b8161373e6020938361280f565b81010312613020575083905138613468565b3d9150613731565b6000198114612df95760010190565b919081101561135d5760051b0190565b80511561135d5760200190565b80516001101561135d5760400190565b80516002101561135d5760600190565b51906001600160a01b038216820361058457565b519081600b0b820361058457565b6001600160a01b03918216815291166020820152600b9190910b6040820152608060608201819052613378929101906129e3565b949290919360018060a01b03809416918460d0541691604096875190631cd43d1160e31b8252600499868b84015260249230848201526080816064818d86169a8b60448301525afa908115613d4357600091613d07575b506060600195868114600014613c8457505088600b0b15613c7657600b0b613c3657906001600160601b03889493926138af8c5161388e816127bd565b600081528d5197889360209c8d63317e182f60e11b908701528886016137c6565b03946138c3601f199687810183528261280f565b9816908115613c22570492895195635533d29f60e11b88880152828701528186526138ed866127a2565b8951936138f9856127f4565b60038552606036898701378a5195613910876127f4565b600387528860005b60608110613c125750508b51958c87018781106001600160401b03821117613bfd578691613950918f528089528b8901998a52613777565b52600261395d8751613784565b52600361396a8751613794565b5261383f198201918211613be95788966139c28e979596938e938451916fffffffffffffffffffffffffffffffff8092168c84015216848201528381526139b0816127a2565b8251906139bc82613777565b52613777565b506139e782516139d1816127bd565b600081528251906139e182613784565b52613784565b50613a0c82516139f6816127bd565b60008152825190613a0682613794565b52613794565b508b60c9541695613a3a83519a8b99633323b46760e01b8b5230908b01526080838b015260848a01906129e3565b8881036003190160448a0152955183875280519387018490526060870193908a01916000905b828210613ba3575050505051938781830391015283519081815287810188808460051b8401019601946000925b848410613b6e5750505050505050600083809273eeeeeeeeeeeeeeeeeeeeeeeeeeeeeeeeeeeeeeee606483015203925af18015613b6357613b3a575b50506000915b8060cf54169060d0541683855196613ae6886127bd565b818852613b068751988996879586946339255d5b60e01b865285016133d9565b03925af1908115613b305750613b195750565b613b2d903d806000833e611697818361280f565b50565b513d6000823e3d90fd5b813d8311613b5c575b613b4d818361280f565b81010312610584573880613ac9565b503d613b43565b85513d6000823e3d90fd5b9295985092959880613b8d8b8686899c9e999699030188528b516129e3565b9901940194019093899795928b99979495613a8d565b9297995092949799509286516005811015613bd4578c8281928b94520197019201928a9896938c9a98959392613a60565b505060218f634e487b7160e01b600052526000fd5b8360118e634e487b7160e01b600052526000fd5b508460418f634e487b7160e01b600052526000fd5b606082828b010152018990613918565b8260128d634e487b7160e01b600052526000fd5b91935050613c709350613085915060009695885191613c54836127bd565b88835289516328104d3160e11b602082015296879586016137c6565b90613acf565b505050505050505050505050565b9350939650509350600097969250600281148814613cb3575050613c70929161308591885191613c54836127bd565b600391969593925014613cc9575b505050613acf565b613cfe9293945061308590875190613ce0826127bd565b8782528851635a5999e360e11b602082015295869430918601613346565b90388080613cc1565b906080823d8211613d3b575b81613d206080938361280f565b8101031261302057506020613d3591016137b8565b38613851565b3d9150613d13565b8b513d6000823e3d90fd5b6040805163095ea7b360e01b81526001600160a01b038581166004830152602482018590529283169491926000929091602081604481878b5af18015613e6b57613e2f575b5016803b15613e2b5781809160248551809581936345977d0360e01b83528960048401525af18015613e1f57613df2575b50507fb851214951a7a588e613f4234bad7b815276a829e616f13d7a7cdc6db0e8dfe19160209151908152a2565b6001600160401b038211613e0b57508152816020613dc4565b634e487b7160e01b81526041600452602490fd5b508251903d90823e3d90fd5b5080fd5b6020813d8211613e63575b81613e476020938361280f565b81010312613e5f57613e589061303d565b5038613d93565b8380fd5b3d9150613e3a565b85513d86823e3d90fd5b9694909193959295604051966020880198895260018060a01b0380968180961660408b0152166060890152600b0b608088015260a08701521660c08501521660e083015261010090818301528152613ecc816127d8565b51902090565b919260609115613f37575050815115613ee9575090565b3b15613ef25790565b60405162461bcd60e51b815260206004820152601d60248201527f416464726573733a2063616c6c20746f206e6f6e2d636f6e74726163740000006044820152606490fd5b909392612d4f9250612d5156fe360894a13ba1a3210667c828492db98dca3e2076cc3735a920a3ca505d382bbca2646970667358221220046d63324f28ae33f27b9c50b7e8fbb2f7e7d84beb71741eef78437e81a30f2064736f6c63430008110033",
  "linkReferences": {},
  "deployedLinkReferences": {}
}