{
  "_format": "hh-sol-artifact-1",
  "contractName": "Treasury",
  "sourceName": "contracts/Treasury.sol",
  "abi": [
    {
      "inputs": [],
      "stateMutability": "nonpayable",
      "type": "constructor"
    },
    {
      "anonymous": false,
      "inputs": [
        {
          "indexed": false,
          "internalType": "address",
          "name": "previousAdmin",
          "type": "address"
        },
        {
          "indexed": false,
          "internalType": "address",
          "name": "newAdmin",
          "type": "address"
        }
      ],
      "name": "AdminChanged",
      "type": "event"
    },
    {
      "anonymous": false,
      "inputs": [
        {
          "indexed": true,
          "internalType": "address",
          "name": "beacon",
          "type": "address"
        }
      ],
      "name": "BeaconUpgraded",
      "type": "event"
    },
    {
      "anonymous": false,
      "inputs": [
        {
          "indexed": true,
          "internalType": "address",
          "name": "sender",
          "type": "address"
        },
        {
          "indexed": true,
          "internalType": "address",
          "name": "token",
          "type": "address"
        },
        {
          "indexed": true,
          "internalType": "uint256",
          "name": "amount",
          "type": "uint256"
        }
      ],
      "name": "FundsDeposited",
      "type": "event"
    },
    {
      "anonymous": false,
      "inputs": [
        {
          "indexed": true,
          "internalType": "address",
          "name": "receiver",
          "type": "address"
        },
        {
          "indexed": true,
          "internalType": "address",
          "name": "initiator",
          "type": "address"
        },
        {
          "indexed": true,
          "internalType": "address",
          "name": "token",
          "type": "address"
        },
        {
          "indexed": false,
          "internalType": "uint256",
          "name": "amount",
          "type": "uint256"
        }
      ],
      "name": "FundsWithdrawn",
      "type": "event"
    },
    {
      "anonymous": false,
      "inputs": [
        {
          "indexed": false,
          "internalType": "uint8",
          "name": "version",
          "type": "uint8"
        }
      ],
      "name": "Initialized",
      "type": "event"
    },
    {
      "anonymous": false,
      "inputs": [
        {
          "indexed": true,
          "internalType": "address",
          "name": "previousOwner",
          "type": "address"
        },
        {
          "indexed": true,
          "internalType": "address",
          "name": "newOwner",
          "type": "address"
        }
      ],
      "name": "OwnershipTransferred",
      "type": "event"
    },
    {
      "anonymous": false,
      "inputs": [
        {
          "indexed": true,
          "internalType": "address",
          "name": "implementation",
          "type": "address"
        }
      ],
      "name": "Upgraded",
      "type": "event"
    },
    {
      "inputs": [
        {
          "internalType": "address",
          "name": "_service",
          "type": "address"
        }
      ],
      "name": "addWhitelistedService",
      "outputs": [],
      "stateMutability": "nonpayable",
      "type": "function"
    },
    {
      "inputs": [
        {
          "internalType": "address",
          "name": "_receiver",
          "type": "address"
        },
        {
          "internalType": "address",
          "name": "_token",
          "type": "address"
        },
        {
          "internalType": "uint256",
          "name": "_amount",
          "type": "uint256"
        }
      ],
      "name": "depositFunds",
      "outputs": [],
      "stateMutability": "payable",
      "type": "function"
    },
    {
      "inputs": [
        {
          "internalType": "address",
          "name": "_user",
          "type": "address"
        }
      ],
      "name": "getCreditTokensByUser",
      "outputs": [
        {
          "internalType": "address[]",
          "name": "",
          "type": "address[]"
        }
      ],
      "stateMutability": "view",
      "type": "function"
    },
    {
      "inputs": [],
      "name": "getWhitelistedServices",
      "outputs": [
        {
          "internalType": "address[]",
          "name": "",
          "type": "address[]"
        }
      ],
      "stateMutability": "view",
      "type": "function"
    },
    {
      "inputs": [],
      "name": "initialize",
      "outputs": [],
      "stateMutability": "nonpayable",
      "type": "function"
    },
    {
      "inputs": [],
      "name": "owner",
      "outputs": [
        {
          "internalType": "address",
          "name": "",
          "type": "address"
        }
      ],
      "stateMutability": "view",
      "type": "function"
    },
    {
      "inputs": [],
      "name": "proxiableUUID",
      "outputs": [
        {
          "internalType": "bytes32",
          "name": "",
          "type": "bytes32"
        }
      ],
      "stateMutability": "view",
      "type": "function"
    },
    {
      "inputs": [
        {
          "internalType": "address",
          "name": "_service",
          "type": "address"
        }
      ],
      "name": "removeWhitelistedService",
      "outputs": [],
      "stateMutability": "nonpayable",
      "type": "function"
    },
    {
      "inputs": [],
      "name": "renounceOwnership",
      "outputs": [],
      "stateMutability": "nonpayable",
      "type": "function"
    },
    {
      "inputs": [
        {
          "internalType": "address",
          "name": "newOwner",
          "type": "address"
        }
      ],
      "name": "transferOwnership",
      "outputs": [],
      "stateMutability": "nonpayable",
      "type": "function"
    },
    {
      "inputs": [
        {
          "internalType": "address",
          "name": "newImplementation",
          "type": "address"
        }
      ],
      "name": "upgradeTo",
      "outputs": [],
      "stateMutability": "nonpayable",
      "type": "function"
    },
    {
      "inputs": [
        {
          "internalType": "address",
          "name": "newImplementation",
          "type": "address"
        },
        {
          "internalType": "bytes",
          "name": "data",
          "type": "bytes"
        }
      ],
      "name": "upgradeToAndCall",
      "outputs": [],
      "stateMutability": "payable",
      "type": "function"
    },
    {
      "inputs": [
        {
          "internalType": "address",
          "name": "_token",
          "type": "address"
        },
        {
          "internalType": "uint256",
          "name": "_amount",
          "type": "uint256"
        },
        {
          "internalType": "address",
          "name": "_user",
          "type": "address"
        }
      ],
      "name": "useFunds",
      "outputs": [],
      "stateMutability": "nonpayable",
      "type": "function"
    },
    {
      "inputs": [
        {
          "internalType": "address",
          "name": "",
          "type": "address"
        },
        {
          "internalType": "address",
          "name": "",
          "type": "address"
        }
      ],
      "name": "userTokenBalance",
      "outputs": [
        {
          "internalType": "uint256",
          "name": "",
          "type": "uint256"
        }
      ],
      "stateMutability": "view",
      "type": "function"
    },
    {
      "inputs": [
        {
          "internalType": "address payable",
          "name": "_receiver",
          "type": "address"
        },
        {
          "internalType": "address",
          "name": "_token",
          "type": "address"
        },
        {
          "internalType": "uint256",
          "name": "_amount",
          "type": "uint256"
        }
      ],
      "name": "withdrawFunds",
      "outputs": [],
      "stateMutability": "nonpayable",
      "type": "function"
    }
  ],
  "bytecode": "0x60a080604052346100dc57306080526000549060ff8260081c1661008a575060ff8082161061004f575b604051611bca90816100e2823960805181818161090501528181610a2c0152610d0b0152f35b60ff90811916176000557f7f26b83ff96e1f2b6a682f133852f6798a09c465da95921460cefb3847402498602060405160ff8152a138610029565b62461bcd60e51b815260206004820152602760248201527f496e697469616c697a61626c653a20636f6e747261637420697320696e697469604482015266616c697a696e6760c81b6064820152608490fd5b600080fdfe6080604081815260048036101561001557600080fd5b600092833560e01c9081631c20fadd14611039575080632bf30a0e14610fb65780633659cfe614610ce55780634f1ef286146109b257806352d1902d146108f05780635dfad06a1461086a5780636f192acc146106f7578063715018a6146106975780638129fc1c14610540578063848f5f3d1461049a5780638da5cb5b14610471578063b47064c814610424578063c1461d5714610204578063c63aa0291461015c5763f2fde38b146100c857600080fd5b34610158576020366003190112610158576100e1611278565b916100ea611342565b6001600160a01b0383161561010657836101038461139a565b80f35b906020608492519162461bcd60e51b8352820152602660248201527f4f776e61626c653a206e6577206f776e657220697320746865207a65726f206160448201526564647265737360d01b6064820152fd5b8280fd5b503461015857602036600319011261015857610176611278565b61017e611342565b6001600160a01b031680845260fe602052828420549092906101a857836101a484611857565b5080f35b906020608492519162461bcd60e51b8352820152603060248201527f5461736b54726561737572793a2061646457686974656c69737465645365727660448201526f1a58d94e881dda1a5d195b1a5cdd195960821b6064820152fd5b50606036600319011261015857610219611278565b9161022261125d565b6001600160a01b039081169273eeeeeeeeeeeeeeeeeeeeeeeeeeeeeeeeeeeeeeee84036102ef575034935b16908185528260209160fb8352808720828852835261026f8682892054611676565b84885260fb845281882083895284528188205583875260fc83526102a58282892060019160005201602052604060002054151590565b156102d5575b5050507ff0d0e99cae184d0187b093b48894117462462379674a6e11d89c3fbb618e96b08480a480f35b60fc6102e6938589525286206118d6565b503882816102ab565b82516370a0823160e01b80825230838301529160209081836024818a5afa92831561041a5789936103e7575b5085516323b872dd60e01b8382015233602482015230604482015260443560648201526064815260a0810181811067ffffffffffffffff8211176103d45787526103659088611683565b855193845230908401528083602481895afa9081156103ca578891610396575b506103909250611653565b9361024d565b905082813d83116103c3575b6103ac8183611304565b810103126103bf57610390915138610385565b8680fd5b503d6103a2565b85513d8a823e3d90fd5b634e487b7160e01b8b526041835260248bfd5b9092508181813d8311610413575b6103ff8183611304565b8101031261040f5751913861031b565b8880fd5b503d6103f5565b86513d8b823e3d90fd5b50503461046d578060031936011261046d5780602092610442611278565b61044a61125d565b6001600160a01b03918216835260fb865283832091168252845220549051908152f35b5080fd5b50503461046d578160031936011261046d5760335490516001600160a01b039091168152602090f35b5034610158576020366003190112610158576104b4611278565b6104bc611342565b6001600160a01b031680845260fe60205282842054909290156104e357836101a48461192d565b906020608492519162461bcd60e51b8352820152603160248201527f5461736b54726561737572793a2061646457686974656c6973746564536572766044820152701a58d94e88085dda1a5d195b1a5cdd1959607a1b6064820152fd5b5034610158578260031936011261015857825460ff8160081c16159182809361068a575b8015610673575b15610619575060ff198116600117845581610608575b5061059b60ff845460081c16610596816115f3565b6115f3565b6105a43361139a565b8254906105c360ff8360081c166105ba816115f3565b610596816115f3565b600160c9556105d0578280f35b61ff001916825551600181527f7f26b83ff96e1f2b6a682f133852f6798a09c465da95921460cefb384740249890602090a138808280f35b61ffff191661010117835538610581565b608490602085519162461bcd60e51b8352820152602e60248201527f496e697469616c697a61626c653a20636f6e747261637420697320616c72656160448201526d191e481a5b9a5d1a585b1a5e995960921b6064820152fd5b50303b15801561056b5750600160ff83161461056b565b50600160ff831610610564565b83346106f457806003193601126106f4576106b0611342565b603380546001600160a01b0319811690915581906001600160a01b03167f8be0079c531659141344cd1fd0a4f28419497f9722a3daafe3b4186f6b6457e08280a380f35b80fd5b50903461015857606036600319011261015857610712611278565b906001600160a01b0360443581811691602435918390036103bf5733875260209560fe875284882054156108195781603354169184895260fb885285892096169586895287528488205483116107d6575082875260fb86528387208588528652838720610780838254611653565b9055865260fb8552828620848752855261079e838720918254611676565b905580855260fb8452818520838652845281852054156107bc578480f35b6107cd9360fc918652528320611a17565b50388080808480f35b845162461bcd60e51b8152908101879052601d60248201527f75736546756e64733a20455448207472616e73666572206661696c65640000006044820152606490fd5b845162461bcd60e51b8152908101879052602560248201527f5461736b54726561737572793a206f6e6c7957686974656c6973746564536572604482015264766963657360d81b6064820152608490fd5b8284346106f457806003193601126106f45760fd9182549261088b84611b1f565b92805b8581106108a6578351806108a2878261128e565b0390f35b8282527f9346ac6dd7de6b96975fec380d4d994c4c12e6a8897544f22915316cc6cca2808101546108eb91906001600160a01b03166108e58288611b60565b52611b51565b61088e565b5082346106f457806003193601126106f457507f00000000000000000000000000000000000000000000000000000000000000006001600160a01b0316300361094a5760208251600080516020611b758339815191528152f35b6020608492519162461bcd60e51b8352820152603860248201527f555550535570677261646561626c653a206d757374206e6f742062652063616c60448201527f6c6564207468726f7567682064656c656761746563616c6c00000000000000006064820152fd5b509080600319360112610158576109c7611278565b9160249182359067ffffffffffffffff8211610ce15736602383011215610ce157818301356109f581611326565b610a0183519182611304565b8181528760209485830193368982840101116101585780898893018637830101526001600160a01b037f0000000000000000000000000000000000000000000000000000000000000000811690610a5a308314156113e3565b610a77600080516020611b75833981519152928284541614611444565b610a7f611342565b7f4910fdfa16fed3260ed0e7147f7cc6da11a60208b5b9406d12a635614ffd91435460ff1615610aba575050505050505050610103906114a5565b88959799949698169086516352d1902d60e01b815288818b81865afa869181610cb2575b50610b3c57875162461bcd60e51b8152808b018a9052602e818d01527f45524331393637557067726164653a206e657720696d706c656d656e7461746960448201526d6f6e206973206e6f74205555505360901b6064820152608490fd5b999294989193959903610c6057610b52896114a5565b8551927fbc7cd75a20ee27fd9adebab32041f755214dbc6bffa90cc0225b39da2e5c2d3b8980a2835115801590610c58575b610b95575b50505050505050905080f35b883b15610c0a575050509380958192610bfc9651915af4660819985a5b195960ca1b610bbf611535565b927f416464726573733a206c6f772d6c6576656c2064656c65676174652063616c6c815195610bed876112d2565b60278752860152840152611565565b508038808080808080610b89565b62461bcd60e51b835282018690526026908201527f416464726573733a2064656c65676174652063616c6c20746f206e6f6e2d636f6044820152651b9d1c9858dd60d21b6064820152608490fd5b506001610b84565b60296084928888519362461bcd60e51b85528401528201527f45524331393637557067726164653a20756e737570706f727465642070726f786044820152681a58589b195555525160ba1b6064820152fd5b9091508981813d8311610cda575b610cca8183611304565b810103126103bf57519038610ade565b503d610cc0565b8580fd5b503461015857602080600319360112610fb257610d00611278565b926001600160a01b037f00000000000000000000000000000000000000000000000000000000000000008116610d38308214156113e3565b610d55600080516020611b75833981519152918383541614611444565b610d5d611342565b8251908482019282841067ffffffffffffffff851117610f9f578385528883527f4910fdfa16fed3260ed0e7147f7cc6da11a60208b5b9406d12a635614ffd91435460ff1615610db75750505050505050610103906114a5565b879894959697169085516352d1902d60e01b815287818a81865afa869181610f70575b50610e3957865162461bcd60e51b8152808a01899052602e60248201527f45524331393637557067726164653a206e657720696d706c656d656e7461746960448201526d6f6e206973206e6f74205555505360901b6064820152608490fd5b97919293949703610f1b57610e4d886114a5565b8451917fbc7cd75a20ee27fd9adebab32041f755214dbc6bffa90cc0225b39da2e5c2d3b8880a2825115801590610f14575b610e8f575b505050505050905080f35b873b15610ec55750509380958192610eb89651915af4660819985a5b195960ca1b610bbf611535565b5080388080808080610e84565b62461bcd60e51b82528101859052602660248201527f416464726573733a2064656c65676174652063616c6c20746f206e6f6e2d636f6044820152651b9d1c9858dd60d21b6064820152608490fd5b5086610e7f565b845162461bcd60e51b8152908101869052602960248201527f45524331393637557067726164653a20756e737570706f727465642070726f786044820152681a58589b195555525160ba1b6064820152608490fd5b9091508881813d8311610f98575b610f888183611304565b810103126103bf57519038610dda565b503d610f7e565b634e487b7160e01b895260418752602489fd5b8380fd5b8284346106f4576020918260031936011261046d576001600160a01b0380610fdc611278565b169283815260fc8086528382205495610ff487611b1f565b95835b88811061100b578651806108a28a8261128e565b6110349082865284845286611022828a892061183f565b90549060031b1c166108e5828b611b60565b610ff7565b92905034610fb2576060366003190112610fb2576001600160a01b0382358181169290839003610ce15761106b61125d565b9460443590600260c9541461121c5750600260c95533875260209260fb845282882096169586885283528187205490808210600014611216575080945b6110b28683611653565b33895260fb8552838920888a5285528389205573eeeeeeeeeeeeeeeeeeeeeeeeeeeeeeeeeeeeeeee870361118e578780808089895af16110f0611535565b501561114b5750907fc322efa58c9cb2c39cfffdac61d35c8643f5cbf13c6a7d0034de2cf18923aff392915b8514611132575b519384523393a4600160c95580f35b33875260fc825261114586828920611a17565b50611123565b825162461bcd60e51b8152908101849052601e60248201527f5f7472616e736665723a20455448207472616e73666572206661696c656400006044820152606490fd5b96959493929190815163a9059cbb60e01b84820152846024820152856044820152604481526080810181811067ffffffffffffffff821117611203577fc322efa58c9cb2c39cfffdac61d35c8643f5cbf13c6a7d0034de2cf18923aff3959697989950906111fe91845288611683565b61111c565b634e487b7160e01b895260418a52602489fd5b946110a8565b62461bcd60e51b8152602086820152601f60248201527f5265656e7472616e637947756172643a207265656e7472616e742063616c6c006044820152606490fd5b602435906001600160a01b038216820361127357565b600080fd5b600435906001600160a01b038216820361127357565b6020908160408183019282815285518094520193019160005b8281106112b5575050505090565b83516001600160a01b0316855293810193928101926001016112a7565b6060810190811067ffffffffffffffff8211176112ee57604052565b634e487b7160e01b600052604160045260246000fd5b90601f8019910116810190811067ffffffffffffffff8211176112ee57604052565b67ffffffffffffffff81116112ee57601f01601f191660200190565b6033546001600160a01b0316330361135657565b606460405162461bcd60e51b815260206004820152602060248201527f4f776e61626c653a2063616c6c6572206973206e6f7420746865206f776e65726044820152fd5b603380546001600160a01b039283166001600160a01b0319821681179092559091167f8be0079c531659141344cd1fd0a4f28419497f9722a3daafe3b4186f6b6457e0600080a3565b156113ea57565b60405162461bcd60e51b815260206004820152602c60248201527f46756e6374696f6e206d7573742062652063616c6c6564207468726f7567682060448201526b19195b1959d85d1958d85b1b60a21b6064820152608490fd5b1561144b57565b60405162461bcd60e51b815260206004820152602c60248201527f46756e6374696f6e206d7573742062652063616c6c6564207468726f7567682060448201526b6163746976652070726f787960a01b6064820152608490fd5b803b156114da57600080516020611b7583398151915280546001600160a01b0319166001600160a01b03909216919091179055565b60405162461bcd60e51b815260206004820152602d60248201527f455243313936373a206e657720696d706c656d656e746174696f6e206973206e60448201526c1bdd08184818dbdb9d1c9858dd609a1b6064820152608490fd5b3d15611560573d9061154682611326565b916115546040519384611304565b82523d6000602084013e565b606090565b90916060911561157457505090565b61157f919392611581565b565b8051909250156115945750805190602001fd5b6040519062461bcd60e51b82528160208060048301528251908160248401526000935b8285106115da575050604492506000838284010152601f80199101168101030190fd5b84810182015186860160440152938101938593506115b7565b156115fa57565b60405162461bcd60e51b815260206004820152602b60248201527f496e697469616c697a61626c653a20636f6e7472616374206973206e6f74206960448201526a6e697469616c697a696e6760a81b6064820152608490fd5b9190820391821161166057565b634e487b7160e01b600052601160045260246000fd5b9190820180921161166057565b60018060a01b031690604051604081019080821067ffffffffffffffff8311176112ee576116f5916040526020938482527f5361666545524332303a206c6f772d6c6576656c2063616c6c206661696c6564858301526000808587829751910182855af16116ef611535565b91611780565b805180611703575b50505050565b8184918101031261046d57820151908115918215036106f45750611729578080806116fd565b6084906040519062461bcd60e51b82526004820152602a60248201527f5361666545524332303a204552433230206f7065726174696f6e20646964206e6044820152691bdd081cdd58d8d9595960b21b6064820152fd5b9192606091156117e5575050815115611797575090565b3b156117a05790565b60405162461bcd60e51b815260206004820152601d60248201527f416464726573733a2063616c6c20746f206e6f6e2d636f6e74726163740000006044820152606490fd5b90939261157f9250611581565b60fd548110156118295760fd6000527f9346ac6dd7de6b96975fec380d4d994c4c12e6a8897544f22915316cc6cca2800190600090565b634e487b7160e01b600052603260045260246000fd5b80548210156118295760005260206000200190600090565b600081815260fe60205260408120546118d15760fd54600160401b8110156118bd5790826118a96118908460016040960160fd556117f2565b819391549060031b600019811b9283911b169119161790565b905560fd5492815260fe6020522055600190565b634e487b7160e01b82526041600452602482fd5b905090565b600082815260018201602052604090205461192657805490600160401b8210156112ee578261190f61189084600180960185558461183f565b905580549260005201602052604060002055600190565b5050600090565b600081815260fe60205260408120549091908015611a1257600019908082018181116119fe5760fd54908382019182116119ea578082036119b6575b50505060fd5480156119a257810190611981826117f2565b909182549160031b1b1916905560fd55815260fe6020526040812055600190565b634e487b7160e01b84526031600452602484fd5b6119d46119c5611890936117f2565b90549060031b1c9283926117f2565b9055845260fe6020526040842055388080611969565b634e487b7160e01b86526011600452602486fd5b634e487b7160e01b85526011600452602485fd5b505090565b90600182019060009281845282602052604084205490811515600014611b005760001991808301818111611aec57825490848201918211611ad857808203611aa3575b50505080548015611a8f57820191611a72838361183f565b909182549160031b1b191690555582526020526040812055600190565b634e487b7160e01b86526031600452602486fd5b611ac3611ab3611890938661183f565b90549060031b1c9283928661183f565b90558652846020526040862055388080611a5a565b634e487b7160e01b88526011600452602488fd5b634e487b7160e01b87526011600452602487fd5b5050505090565b67ffffffffffffffff81116112ee5760051b60200190565b90611b2982611b07565b611b366040519182611304565b8281528092611b47601f1991611b07565b0190602036910137565b60001981146116605760010190565b80518210156118295760209160051b01019056fe360894a13ba1a3210667c828492db98dca3e2076cc3735a920a3ca505d382bbca264697066735822122076d125d93d5e78deaf7abbd826afcc91c538b146f64992c9c978732bf385202c64736f6c63430008110033",
  "linkReferences": {},
  "deployedLinkReferences": {}
}