{
  "_format": "hh-sol-artifact-1",
  "contractName": "Treasury",
  "sourceName": "contracts/Treasury.sol",
  "abi": [
    {
      "inputs": [],
      "stateMutability": "nonpayable",
      "type": "constructor"
    },
    {
      "anonymous": false,
      "inputs": [
        {
          "indexed": false,
          "internalType": "address",
          "name": "previousAdmin",
          "type": "address"
        },
        {
          "indexed": false,
          "internalType": "address",
          "name": "newAdmin",
          "type": "address"
        }
      ],
      "name": "AdminChanged",
      "type": "event"
    },
    {
      "anonymous": false,
      "inputs": [
        {
          "indexed": true,
          "internalType": "address",
          "name": "beacon",
          "type": "address"
        }
      ],
      "name": "BeaconUpgraded",
      "type": "event"
    },
    {
      "anonymous": false,
      "inputs": [
        {
          "indexed": true,
          "internalType": "address",
          "name": "sender",
          "type": "address"
        },
        {
          "indexed": true,
          "internalType": "address",
          "name": "token",
          "type": "address"
        },
        {
          "indexed": true,
          "internalType": "uint256",
          "name": "amount",
          "type": "uint256"
        }
      ],
      "name": "FundsDeposited",
      "type": "event"
    },
    {
      "anonymous": false,
      "inputs": [
        {
          "indexed": true,
          "internalType": "address",
          "name": "receiver",
          "type": "address"
        },
        {
          "indexed": true,
          "internalType": "address",
          "name": "initiator",
          "type": "address"
        },
        {
          "indexed": true,
          "internalType": "address",
          "name": "token",
          "type": "address"
        },
        {
          "indexed": false,
          "internalType": "uint256",
          "name": "amount",
          "type": "uint256"
        }
      ],
      "name": "FundsWithdrawn",
      "type": "event"
    },
    {
      "anonymous": false,
      "inputs": [
        {
          "indexed": false,
          "internalType": "uint8",
          "name": "version",
          "type": "uint8"
        }
      ],
      "name": "Initialized",
      "type": "event"
    },
    {
      "anonymous": false,
      "inputs": [
        {
          "indexed": true,
          "internalType": "address",
          "name": "previousOwner",
          "type": "address"
        },
        {
          "indexed": true,
          "internalType": "address",
          "name": "newOwner",
          "type": "address"
        }
      ],
      "name": "OwnershipTransferred",
      "type": "event"
    },
    {
      "anonymous": false,
      "inputs": [
        {
          "indexed": true,
          "internalType": "address",
          "name": "implementation",
          "type": "address"
        }
      ],
      "name": "Upgraded",
      "type": "event"
    },
    {
      "inputs": [
        {
          "internalType": "address",
          "name": "_service",
          "type": "address"
        }
      ],
      "name": "addWhitelistedService",
      "outputs": [],
      "stateMutability": "nonpayable",
      "type": "function"
    },
    {
      "inputs": [
        {
          "internalType": "address",
          "name": "_receiver",
          "type": "address"
        },
        {
          "internalType": "address",
          "name": "_token",
          "type": "address"
        },
        {
          "internalType": "uint256",
          "name": "_amount",
          "type": "uint256"
        }
      ],
      "name": "depositFunds",
      "outputs": [],
      "stateMutability": "payable",
      "type": "function"
    },
    {
      "inputs": [
        {
          "internalType": "address",
          "name": "_user",
          "type": "address"
        }
      ],
      "name": "getCreditTokensByUser",
      "outputs": [
        {
          "internalType": "address[]",
          "name": "",
          "type": "address[]"
        }
      ],
      "stateMutability": "view",
      "type": "function"
    },
    {
      "inputs": [],
      "name": "getWhitelistedServices",
      "outputs": [
        {
          "internalType": "address[]",
          "name": "",
          "type": "address[]"
        }
      ],
      "stateMutability": "view",
      "type": "function"
    },
    {
      "inputs": [],
      "name": "initialize",
      "outputs": [],
      "stateMutability": "nonpayable",
      "type": "function"
    },
    {
      "inputs": [],
      "name": "owner",
      "outputs": [
        {
          "internalType": "address",
          "name": "",
          "type": "address"
        }
      ],
      "stateMutability": "view",
      "type": "function"
    },
    {
      "inputs": [],
      "name": "proxiableUUID",
      "outputs": [
        {
          "internalType": "bytes32",
          "name": "",
          "type": "bytes32"
        }
      ],
      "stateMutability": "view",
      "type": "function"
    },
    {
      "inputs": [
        {
          "internalType": "address",
          "name": "_service",
          "type": "address"
        }
      ],
      "name": "removeWhitelistedService",
      "outputs": [],
      "stateMutability": "nonpayable",
      "type": "function"
    },
    {
      "inputs": [],
      "name": "renounceOwnership",
      "outputs": [],
      "stateMutability": "nonpayable",
      "type": "function"
    },
    {
      "inputs": [
        {
          "internalType": "address",
          "name": "newOwner",
          "type": "address"
        }
      ],
      "name": "transferOwnership",
      "outputs": [],
      "stateMutability": "nonpayable",
      "type": "function"
    },
    {
      "inputs": [
        {
          "internalType": "address",
          "name": "newImplementation",
          "type": "address"
        }
      ],
      "name": "upgradeTo",
      "outputs": [],
      "stateMutability": "nonpayable",
      "type": "function"
    },
    {
      "inputs": [
        {
          "internalType": "address",
          "name": "newImplementation",
          "type": "address"
        },
        {
          "internalType": "bytes",
          "name": "data",
          "type": "bytes"
        }
      ],
      "name": "upgradeToAndCall",
      "outputs": [],
      "stateMutability": "payable",
      "type": "function"
    },
    {
      "inputs": [
        {
          "internalType": "address",
          "name": "_token",
          "type": "address"
        },
        {
          "internalType": "uint256",
          "name": "_amount",
          "type": "uint256"
        },
        {
          "internalType": "address",
          "name": "_user",
          "type": "address"
        }
      ],
      "name": "useFunds",
      "outputs": [],
      "stateMutability": "nonpayable",
      "type": "function"
    },
    {
      "inputs": [
        {
          "internalType": "address",
          "name": "",
          "type": "address"
        },
        {
          "internalType": "address",
          "name": "",
          "type": "address"
        }
      ],
      "name": "userTokenBalance",
      "outputs": [
        {
          "internalType": "uint256",
          "name": "",
          "type": "uint256"
        }
      ],
      "stateMutability": "view",
      "type": "function"
    },
    {
      "inputs": [
        {
          "internalType": "address payable",
          "name": "_receiver",
          "type": "address"
        },
        {
          "internalType": "address",
          "name": "_token",
          "type": "address"
        },
        {
          "internalType": "uint256",
          "name": "_amount",
          "type": "uint256"
        }
      ],
      "name": "withdrawFunds",
      "outputs": [],
      "stateMutability": "nonpayable",
      "type": "function"
    }
  ],
  "bytecode": "0x60a080604052346100dc57306080526000549060ff8260081c1661008a575060ff8082161061004f575b604051611bef90816100e2823960805181818161093701528181610a5e0152610d3d0152f35b60ff90811916176000557f7f26b83ff96e1f2b6a682f133852f6798a09c465da95921460cefb3847402498602060405160ff8152a138610029565b62461bcd60e51b815260206004820152602760248201527f496e697469616c697a61626c653a20636f6e747261637420697320696e697469604482015266616c697a696e6760c81b6064820152608490fd5b600080fdfe6080604081815260048036101561001557600080fd5b600092833560e01c9081631c20fadd1461106b575080632bf30a0e14610fe85780633659cfe614610d175780634f1ef286146109e457806352d1902d146109225780635dfad06a1461089c5780636f192acc14610704578063715018a6146106a45780638129fc1c1461054d578063848f5f3d146104a75780638da5cb5b1461047e578063b47064c814610431578063c1461d5714610204578063c63aa0291461015c5763f2fde38b146100c857600080fd5b34610158576020366003190112610158576100e16112aa565b916100ea611374565b6001600160a01b038316156101065783610103846113cc565b80f35b906020608492519162461bcd60e51b8352820152602660248201527f4f776e61626c653a206e6577206f776e657220697320746865207a65726f206160448201526564647265737360d01b6064820152fd5b8280fd5b5034610158576020366003190112610158576101766112aa565b61017e611374565b6001600160a01b031680845260fe602052828420549092906101a857836101a48461187c565b5080f35b906020608492519162461bcd60e51b8352820152603060248201527f5461736b54726561737572793a2061646457686974656c69737465645365727660448201526f1a58d94e881dda1a5d195b1a5cdd195960821b6064820152fd5b506060366003190112610158576102196112aa565b9161022261128f565b6001600160a01b03908116929073eeeeeeeeeeeeeeeeeeeeeeeeeeeeeeeeeeeeeeee84036103075734945b169182865260209160fb8352818720858852835281872054908682018092116102f4575090849184885260fb845281882083895284528188205583875260fc83526102aa8282892060019160005201602052604060002054151590565b156102da575b5050507ff0d0e99cae184d0187b093b48894117462462379674a6e11d89c3fbb618e96b08480a480f35b60fc6102eb938589525286206118fb565b503882816102b0565b634e487b7160e01b885260119052602487fd5b82516370a0823160e01b808252308483015290602080826024818a5afa9182156103e15789926103fe575b5085516323b872dd60e01b8282015233602482015230604482015260443560648201526064815260a0810181811067ffffffffffffffff8211176103eb57875261037c90886116a8565b8551928352308584015280836024818a5afa9081156103e15789916103ad575b506103a79250611685565b9461024d565b905082813d83116103da575b6103c38183611336565b810103126103d6576103a791513861039c565b8780fd5b503d6103b9565b86513d8b823e3d90fd5b634e487b7160e01b8b526041875260248bfd5b9080925081813d831161042a575b6104168183611336565b8101031261042657519038610332565b8880fd5b503d61040c565b50503461047a578060031936011261047a578060209261044f6112aa565b61045761128f565b6001600160a01b03918216835260fb865283832091168252845220549051908152f35b5080fd5b50503461047a578160031936011261047a5760335490516001600160a01b039091168152602090f35b5034610158576020366003190112610158576104c16112aa565b6104c9611374565b6001600160a01b031680845260fe60205282842054909290156104f057836101a484611952565b906020608492519162461bcd60e51b8352820152603160248201527f5461736b54726561737572793a2061646457686974656c6973746564536572766044820152701a58d94e88085dda1a5d195b1a5cdd1959607a1b6064820152fd5b5034610158578260031936011261015857825460ff8160081c161591828093610697575b8015610680575b15610626575060ff198116600117845581610615575b506105a860ff845460081c166105a381611625565b611625565b6105b1336113cc565b8254906105d060ff8360081c166105c781611625565b6105a381611625565b600160c9556105dd578280f35b61ff001916825551600181527f7f26b83ff96e1f2b6a682f133852f6798a09c465da95921460cefb384740249890602090a138808280f35b61ffff19166101011783553861058e565b608490602085519162461bcd60e51b8352820152602e60248201527f496e697469616c697a61626c653a20636f6e747261637420697320616c72656160448201526d191e481a5b9a5d1a585b1a5e995960921b6064820152fd5b50303b1580156105785750600160ff831614610578565b50600160ff831610610571565b83346107015780600319360112610701576106bd611374565b603380546001600160a01b0319811690915581906001600160a01b03167f8be0079c531659141344cd1fd0a4f28419497f9722a3daafe3b4186f6b6457e08280a380f35b80fd5b5090346101585760603660031901126101585761071f6112aa565b602435929091906001600160a01b0360443581811692908390036108985733875260209560fe875284882054156108475782603354169182895260fb93848952868a20971696878a5288528589205482111561080457506107be90848952838852858920878a52885261079581878b2054611685565b858a52848952868a20888b528952868a2055828952838852858920878a52885285892054611685565b9087528186528387208588528652838720558186528452818520838652845281852054156107ea578480f35b6107fb9360fc918652528320611a3c565b50388080808480f35b855162461bcd60e51b8152908101889052601d60248201527f75736546756e64733a20455448207472616e73666572206661696c65640000006044820152606490fd5b845162461bcd60e51b8152808301889052602560248201527f5461736b54726561737572793a206f6e6c7957686974656c6973746564536572604482015264766963657360d81b6064820152608490fd5b8680fd5b82843461070157806003193601126107015760fd918254926108bd84611b44565b92805b8581106108d8578351806108d487826112c0565b0390f35b8282527f9346ac6dd7de6b96975fec380d4d994c4c12e6a8897544f22915316cc6cca28081015461091d91906001600160a01b03166109178288611b85565b52611b76565b6108c0565b508234610701578060031936011261070157507f00000000000000000000000000000000000000000000000000000000000000006001600160a01b0316300361097c5760208251600080516020611b9a8339815191528152f35b6020608492519162461bcd60e51b8352820152603860248201527f555550535570677261646561626c653a206d757374206e6f742062652063616c60448201527f6c6564207468726f7567682064656c656761746563616c6c00000000000000006064820152fd5b509080600319360112610158576109f96112aa565b9160249182359067ffffffffffffffff8211610d135736602383011215610d135781830135610a2781611358565b610a3383519182611336565b8181528760209485830193368982840101116101585780898893018637830101526001600160a01b037f0000000000000000000000000000000000000000000000000000000000000000811690610a8c30831415611415565b610aa9600080516020611b9a833981519152928284541614611476565b610ab1611374565b7f4910fdfa16fed3260ed0e7147f7cc6da11a60208b5b9406d12a635614ffd91435460ff1615610aec575050505050505050610103906114d7565b88959799949698169086516352d1902d60e01b815288818b81865afa869181610ce4575b50610b6e57875162461bcd60e51b8152808b018a9052602e818d01527f45524331393637557067726164653a206e657720696d706c656d656e7461746960448201526d6f6e206973206e6f74205555505360901b6064820152608490fd5b999294989193959903610c9257610b84896114d7565b8551927fbc7cd75a20ee27fd9adebab32041f755214dbc6bffa90cc0225b39da2e5c2d3b8980a2835115801590610c8a575b610bc7575b50505050505050905080f35b883b15610c3c575050509380958192610c2e9651915af4660819985a5b195960ca1b610bf1611567565b927f416464726573733a206c6f772d6c6576656c2064656c65676174652063616c6c815195610c1f87611304565b60278752860152840152611597565b508038808080808080610bbb565b62461bcd60e51b835282018690526026908201527f416464726573733a2064656c65676174652063616c6c20746f206e6f6e2d636f6044820152651b9d1c9858dd60d21b6064820152608490fd5b506001610bb6565b60296084928888519362461bcd60e51b85528401528201527f45524331393637557067726164653a20756e737570706f727465642070726f786044820152681a58589b195555525160ba1b6064820152fd5b9091508981813d8311610d0c575b610cfc8183611336565b8101031261089857519038610b10565b503d610cf2565b8580fd5b503461015857602080600319360112610fe457610d326112aa565b926001600160a01b037f00000000000000000000000000000000000000000000000000000000000000008116610d6a30821415611415565b610d87600080516020611b9a833981519152918383541614611476565b610d8f611374565b8251908482019282841067ffffffffffffffff851117610fd1578385528883527f4910fdfa16fed3260ed0e7147f7cc6da11a60208b5b9406d12a635614ffd91435460ff1615610de95750505050505050610103906114d7565b879894959697169085516352d1902d60e01b815287818a81865afa869181610fa2575b50610e6b57865162461bcd60e51b8152808a01899052602e60248201527f45524331393637557067726164653a206e657720696d706c656d656e7461746960448201526d6f6e206973206e6f74205555505360901b6064820152608490fd5b97919293949703610f4d57610e7f886114d7565b8451917fbc7cd75a20ee27fd9adebab32041f755214dbc6bffa90cc0225b39da2e5c2d3b8880a2825115801590610f46575b610ec1575b505050505050905080f35b873b15610ef75750509380958192610eea9651915af4660819985a5b195960ca1b610bf1611567565b5080388080808080610eb6565b62461bcd60e51b82528101859052602660248201527f416464726573733a2064656c65676174652063616c6c20746f206e6f6e2d636f6044820152651b9d1c9858dd60d21b6064820152608490fd5b5086610eb1565b845162461bcd60e51b8152908101869052602960248201527f45524331393637557067726164653a20756e737570706f727465642070726f786044820152681a58589b195555525160ba1b6064820152608490fd5b9091508881813d8311610fca575b610fba8183611336565b8101031261089857519038610e0c565b503d610fb0565b634e487b7160e01b895260418752602489fd5b8380fd5b828434610701576020918260031936011261047a576001600160a01b038061100e6112aa565b169283815260fc808652838220549561102687611b44565b95835b88811061103d578651806108d48a826112c0565b6110669082865284845286611054828a8920611864565b90549060031b1c16610917828b611b85565b611029565b92905034610fe4576060366003190112610fe4576001600160a01b0382358181169290839003610d135761109d61128f565b9460443590600260c9541461124e5750600260c95533875260209260fb845282882096169586885283528187205490808210600014611248575080945b6110e48683611685565b33895260fb8552838920888a5285528389205573eeeeeeeeeeeeeeeeeeeeeeeeeeeeeeeeeeeeeeee87036111c0578780808089895af1611122611567565b501561117d5750907fc322efa58c9cb2c39cfffdac61d35c8643f5cbf13c6a7d0034de2cf18923aff392915b8514611164575b519384523393a4600160c95580f35b33875260fc825261117786828920611a3c565b50611155565b825162461bcd60e51b8152908101849052601e60248201527f5f7472616e736665723a20455448207472616e73666572206661696c656400006044820152606490fd5b96959493929190815163a9059cbb60e01b84820152846024820152856044820152604481526080810181811067ffffffffffffffff821117611235577fc322efa58c9cb2c39cfffdac61d35c8643f5cbf13c6a7d0034de2cf18923aff395969798995090611230918452886116a8565b61114e565b634e487b7160e01b895260418a52602489fd5b946110da565b62461bcd60e51b8152602086820152601f60248201527f5265656e7472616e637947756172643a207265656e7472616e742063616c6c006044820152606490fd5b602435906001600160a01b03821682036112a557565b600080fd5b600435906001600160a01b03821682036112a557565b6020908160408183019282815285518094520193019160005b8281106112e7575050505090565b83516001600160a01b0316855293810193928101926001016112d9565b6060810190811067ffffffffffffffff82111761132057604052565b634e487b7160e01b600052604160045260246000fd5b90601f8019910116810190811067ffffffffffffffff82111761132057604052565b67ffffffffffffffff811161132057601f01601f191660200190565b6033546001600160a01b0316330361138857565b606460405162461bcd60e51b815260206004820152602060248201527f4f776e61626c653a2063616c6c6572206973206e6f7420746865206f776e65726044820152fd5b603380546001600160a01b039283166001600160a01b0319821681179092559091167f8be0079c531659141344cd1fd0a4f28419497f9722a3daafe3b4186f6b6457e0600080a3565b1561141c57565b60405162461bcd60e51b815260206004820152602c60248201527f46756e6374696f6e206d7573742062652063616c6c6564207468726f7567682060448201526b19195b1959d85d1958d85b1b60a21b6064820152608490fd5b1561147d57565b60405162461bcd60e51b815260206004820152602c60248201527f46756e6374696f6e206d7573742062652063616c6c6564207468726f7567682060448201526b6163746976652070726f787960a01b6064820152608490fd5b803b1561150c57600080516020611b9a83398151915280546001600160a01b0319166001600160a01b03909216919091179055565b60405162461bcd60e51b815260206004820152602d60248201527f455243313936373a206e657720696d706c656d656e746174696f6e206973206e60448201526c1bdd08184818dbdb9d1c9858dd609a1b6064820152608490fd5b3d15611592573d9061157882611358565b916115866040519384611336565b82523d6000602084013e565b606090565b9091606091156115a657505090565b6115b19193926115b3565b565b8051909250156115c65750805190602001fd5b6040519062461bcd60e51b82528160208060048301528251908160248401526000935b82851061160c575050604492506000838284010152601f80199101168101030190fd5b84810182015186860160440152938101938593506115e9565b1561162c57565b60405162461bcd60e51b815260206004820152602b60248201527f496e697469616c697a61626c653a20636f6e7472616374206973206e6f74206960448201526a6e697469616c697a696e6760a81b6064820152608490fd5b9190820391821161169257565b634e487b7160e01b600052601160045260246000fd5b60018060a01b031690604051604081019080821067ffffffffffffffff8311176113205761171a916040526020938482527f5361666545524332303a206c6f772d6c6576656c2063616c6c206661696c6564858301526000808587829751910182855af1611714611567565b916117a5565b805180611728575b50505050565b8184918101031261047a5782015190811591821503610701575061174e57808080611722565b6084906040519062461bcd60e51b82526004820152602a60248201527f5361666545524332303a204552433230206f7065726174696f6e20646964206e6044820152691bdd081cdd58d8d9595960b21b6064820152fd5b91926060911561180a5750508151156117bc575090565b3b156117c55790565b60405162461bcd60e51b815260206004820152601d60248201527f416464726573733a2063616c6c20746f206e6f6e2d636f6e74726163740000006044820152606490fd5b9093926115b192506115b3565b60fd5481101561184e5760fd6000527f9346ac6dd7de6b96975fec380d4d994c4c12e6a8897544f22915316cc6cca2800190600090565b634e487b7160e01b600052603260045260246000fd5b805482101561184e5760005260206000200190600090565b600081815260fe60205260408120546118f65760fd54600160401b8110156118e25790826118ce6118b58460016040960160fd55611817565b819391549060031b600019811b9283911b169119161790565b905560fd5492815260fe6020522055600190565b634e487b7160e01b82526041600452602482fd5b905090565b600082815260018201602052604090205461194b57805490600160401b82101561132057826119346118b5846001809601855584611864565b905580549260005201602052604060002055600190565b5050600090565b600081815260fe60205260408120549091908015611a375760001990808201818111611a235760fd5490838201918211611a0f578082036119db575b50505060fd5480156119c7578101906119a682611817565b909182549160031b1b1916905560fd55815260fe6020526040812055600190565b634e487b7160e01b84526031600452602484fd5b6119f96119ea6118b593611817565b90549060031b1c928392611817565b9055845260fe602052604084205538808061198e565b634e487b7160e01b86526011600452602486fd5b634e487b7160e01b85526011600452602485fd5b505090565b90600182019060009281845282602052604084205490811515600014611b255760001991808301818111611b1157825490848201918211611afd57808203611ac8575b50505080548015611ab457820191611a978383611864565b909182549160031b1b191690555582526020526040812055600190565b634e487b7160e01b86526031600452602486fd5b611ae8611ad86118b59386611864565b90549060031b1c92839286611864565b90558652846020526040862055388080611a7f565b634e487b7160e01b88526011600452602488fd5b634e487b7160e01b87526011600452602487fd5b5050505090565b67ffffffffffffffff81116113205760051b60200190565b90611b4e82611b2c565b611b5b6040519182611336565b8281528092611b6c601f1991611b2c565b0190602036910137565b60001981146116925760010190565b805182101561184e5760209160051b01019056fe360894a13ba1a3210667c828492db98dca3e2076cc3735a920a3ca505d382bbca2646970667358221220a5f4467e6186c55d4188439b38e555a5fd51992615bd82c7d8a7bd41532db87864736f6c63430008110033",
  "linkReferences": {},
  "deployedLinkReferences": {}
}