{
  "_format": "hh-sol-artifact-1",
  "contractName": "AutoPay",
  "sourceName": "contracts/AutoPay.sol",
  "abi": [
    {
      "inputs": [],
      "stateMutability": "nonpayable",
      "type": "constructor"
    },
    {
      "inputs": [
        {
          "internalType": "uint256",
          "name": "allowance",
          "type": "uint256"
        },
        {
          "internalType": "uint256",
          "name": "amount",
          "type": "uint256"
        },
        {
          "internalType": "address",
          "name": "token",
          "type": "address"
        }
      ],
      "name": "Allowance",
      "type": "error"
    },
    {
      "inputs": [
        {
          "internalType": "uint256",
          "name": "_amount",
          "type": "uint256"
        },
        {
          "internalType": "uint256",
          "name": "_relayerFeeInTransactingAsset",
          "type": "uint256"
        }
      ],
      "name": "AmountLessThanRelayer",
      "type": "error"
    },
    {
      "anonymous": false,
      "inputs": [
        {
          "indexed": false,
          "internalType": "address",
          "name": "previousAdmin",
          "type": "address"
        },
        {
          "indexed": false,
          "internalType": "address",
          "name": "newAdmin",
          "type": "address"
        }
      ],
      "name": "AdminChanged",
      "type": "event"
    },
    {
      "anonymous": false,
      "inputs": [
        {
          "indexed": true,
          "internalType": "address",
          "name": "beacon",
          "type": "address"
        }
      ],
      "name": "BeaconUpgraded",
      "type": "event"
    },
    {
      "anonymous": false,
      "inputs": [
        {
          "indexed": true,
          "internalType": "bytes32",
          "name": "_jobId",
          "type": "bytes32"
        },
        {
          "indexed": true,
          "internalType": "address",
          "name": "_from",
          "type": "address"
        },
        {
          "indexed": false,
          "internalType": "uint256",
          "name": "_timesExecuted",
          "type": "uint256"
        },
        {
          "indexed": false,
          "internalType": "uint256",
          "name": "_fundsUsed",
          "type": "uint256"
        },
        {
          "indexed": false,
          "internalType": "uint256",
          "name": "_amountOut",
          "type": "uint256"
        }
      ],
      "name": "ExecutedSourceChain",
      "type": "event"
    },
    {
      "anonymous": false,
      "inputs": [
        {
          "indexed": true,
          "internalType": "address",
          "name": "sender",
          "type": "address"
        },
        {
          "indexed": true,
          "internalType": "address",
          "name": "token",
          "type": "address"
        },
        {
          "indexed": true,
          "internalType": "uint256",
          "name": "amount",
          "type": "uint256"
        }
      ],
      "name": "FundsDeposited",
      "type": "event"
    },
    {
      "anonymous": false,
      "inputs": [
        {
          "indexed": true,
          "internalType": "address",
          "name": "receiver",
          "type": "address"
        },
        {
          "indexed": true,
          "internalType": "address",
          "name": "initiator",
          "type": "address"
        },
        {
          "indexed": true,
          "internalType": "address",
          "name": "token",
          "type": "address"
        },
        {
          "indexed": false,
          "internalType": "uint256",
          "name": "amount",
          "type": "uint256"
        }
      ],
      "name": "FundsWithdrawn",
      "type": "event"
    },
    {
      "anonymous": false,
      "inputs": [
        {
          "indexed": false,
          "internalType": "uint8",
          "name": "version",
          "type": "uint8"
        }
      ],
      "name": "Initialized",
      "type": "event"
    },
    {
      "anonymous": false,
      "inputs": [
        {
          "indexed": true,
          "internalType": "address",
          "name": "_taskCreator",
          "type": "address"
        },
        {
          "indexed": true,
          "internalType": "bytes32",
          "name": "_jobId",
          "type": "bytes32"
        },
        {
          "indexed": false,
          "internalType": "bytes32",
          "name": "_gelatoTaskId",
          "type": "bytes32"
        },
        {
          "indexed": true,
          "internalType": "address",
          "name": "_to",
          "type": "address"
        },
        {
          "indexed": false,
          "internalType": "uint256",
          "name": "_amount",
          "type": "uint256"
        },
        {
          "indexed": false,
          "internalType": "address",
          "name": "_fromToken",
          "type": "address"
        },
        {
          "indexed": false,
          "internalType": "address",
          "name": "_toToken",
          "type": "address"
        },
        {
          "indexed": false,
          "internalType": "uint256",
          "name": "_toChain",
          "type": "uint256"
        },
        {
          "indexed": false,
          "internalType": "uint32",
          "name": "_destinationDomain",
          "type": "uint32"
        },
        {
          "indexed": false,
          "internalType": "address",
          "name": "_destinationContract",
          "type": "address"
        },
        {
          "indexed": false,
          "internalType": "uint256",
          "name": "_cycles",
          "type": "uint256"
        },
        {
          "indexed": false,
          "internalType": "uint256",
          "name": "_startTime",
          "type": "uint256"
        },
        {
          "indexed": false,
          "internalType": "uint256",
          "name": "_interval",
          "type": "uint256"
        },
        {
          "indexed": false,
          "internalType": "enum AutoPay.Option",
          "name": "option",
          "type": "uint8"
        }
      ],
      "name": "JobCreated",
      "type": "event"
    },
    {
      "anonymous": false,
      "inputs": [
        {
          "indexed": true,
          "internalType": "address",
          "name": "_taskCreator",
          "type": "address"
        },
        {
          "indexed": true,
          "internalType": "bytes32",
          "name": "_jobId",
          "type": "bytes32"
        },
        {
          "indexed": false,
          "internalType": "bytes32",
          "name": "_gelatoTaskId",
          "type": "bytes32"
        },
        {
          "indexed": true,
          "internalType": "address",
          "name": "_to",
          "type": "address"
        },
        {
          "indexed": false,
          "internalType": "uint256",
          "name": "_amount",
          "type": "uint256"
        },
        {
          "indexed": false,
          "internalType": "uint256",
          "name": "_price",
          "type": "uint256"
        },
        {
          "indexed": false,
          "internalType": "address",
          "name": "_fromToken",
          "type": "address"
        },
        {
          "indexed": false,
          "internalType": "address",
          "name": "_toToken",
          "type": "address"
        },
        {
          "indexed": false,
          "internalType": "uint256",
          "name": "_toChain",
          "type": "uint256"
        },
        {
          "indexed": false,
          "internalType": "uint32",
          "name": "_destinationDomain",
          "type": "uint32"
        },
        {
          "indexed": false,
          "internalType": "address",
          "name": "_destinationContract",
          "type": "address"
        },
        {
          "indexed": false,
          "internalType": "uint256",
          "name": "_cycles",
          "type": "uint256"
        },
        {
          "indexed": false,
          "internalType": "uint256",
          "name": "_startTime",
          "type": "uint256"
        },
        {
          "indexed": false,
          "internalType": "uint256",
          "name": "_interval",
          "type": "uint256"
        },
        {
          "indexed": false,
          "internalType": "enum AutoPay.Option",
          "name": "option",
          "type": "uint8"
        }
      ],
      "name": "JobCreated",
      "type": "event"
    },
    {
      "anonymous": false,
      "inputs": [
        {
          "indexed": true,
          "internalType": "uint256",
          "name": "txFee",
          "type": "uint256"
        },
        {
          "indexed": true,
          "internalType": "address",
          "name": "feeToken",
          "type": "address"
        },
        {
          "indexed": true,
          "internalType": "address",
          "name": "execAddress",
          "type": "address"
        },
        {
          "indexed": false,
          "internalType": "bytes",
          "name": "execData",
          "type": "bytes"
        },
        {
          "indexed": false,
          "internalType": "bytes32",
          "name": "taskId",
          "type": "bytes32"
        },
        {
          "indexed": false,
          "internalType": "bool",
          "name": "callSuccess",
          "type": "bool"
        }
      ],
      "name": "JobSuccess",
      "type": "event"
    },
    {
      "anonymous": false,
      "inputs": [
        {
          "indexed": true,
          "internalType": "address",
          "name": "previousOwner",
          "type": "address"
        },
        {
          "indexed": true,
          "internalType": "address",
          "name": "newOwner",
          "type": "address"
        }
      ],
      "name": "OwnershipTransferred",
      "type": "event"
    },
    {
      "anonymous": false,
      "inputs": [
        {
          "indexed": true,
          "internalType": "address",
          "name": "implementation",
          "type": "address"
        }
      ],
      "name": "Upgraded",
      "type": "event"
    },
    {
      "anonymous": false,
      "inputs": [
        {
          "indexed": true,
          "internalType": "address",
          "name": "originSender",
          "type": "address"
        },
        {
          "indexed": false,
          "internalType": "uint32",
          "name": "origin",
          "type": "uint32"
        },
        {
          "indexed": false,
          "internalType": "address",
          "name": "asset",
          "type": "address"
        },
        {
          "indexed": false,
          "internalType": "uint256",
          "name": "amount",
          "type": "uint256"
        },
        {
          "indexed": false,
          "internalType": "bytes32",
          "name": "transferId",
          "type": "bytes32"
        },
        {
          "indexed": false,
          "internalType": "uint256",
          "name": "receiveTimestamp",
          "type": "uint256"
        },
        {
          "indexed": false,
          "internalType": "address",
          "name": "senderAccount",
          "type": "address"
        },
        {
          "indexed": false,
          "internalType": "address",
          "name": "receiverAccount",
          "type": "address"
        }
      ],
      "name": "XReceiveData",
      "type": "event"
    },
    {
      "anonymous": false,
      "inputs": [
        {
          "indexed": true,
          "internalType": "address",
          "name": "sender",
          "type": "address"
        },
        {
          "indexed": true,
          "internalType": "address",
          "name": "receiver",
          "type": "address"
        },
        {
          "indexed": true,
          "internalType": "address",
          "name": "fromToken",
          "type": "address"
        },
        {
          "indexed": false,
          "internalType": "address",
          "name": "toToken",
          "type": "address"
        },
        {
          "indexed": false,
          "internalType": "address",
          "name": "destinationContract",
          "type": "address"
        },
        {
          "indexed": false,
          "internalType": "uint256",
          "name": "amount",
          "type": "uint256"
        },
        {
          "indexed": false,
          "internalType": "uint256",
          "name": "startTime",
          "type": "uint256"
        },
        {
          "indexed": false,
          "internalType": "uint256",
          "name": "relayerFeeInTransactingAsset",
          "type": "uint256"
        },
        {
          "indexed": false,
          "internalType": "uint32",
          "name": "destinationDomain",
          "type": "uint32"
        }
      ],
      "name": "XTransferData",
      "type": "event"
    },
    {
      "stateMutability": "payable",
      "type": "fallback"
    },
    {
      "inputs": [
        {
          "internalType": "address",
          "name": "_automate",
          "type": "address"
        },
        {
          "internalType": "address",
          "name": "_fundsOwner",
          "type": "address"
        }
      ],
      "name": "ATC__initialize",
      "outputs": [],
      "stateMutability": "nonpayable",
      "type": "function"
    },
    {
      "inputs": [],
      "name": "FEES",
      "outputs": [
        {
          "internalType": "uint256",
          "name": "",
          "type": "uint256"
        }
      ],
      "stateMutability": "view",
      "type": "function"
    },
    {
      "inputs": [],
      "name": "WETH",
      "outputs": [
        {
          "internalType": "address",
          "name": "",
          "type": "address"
        }
      ],
      "stateMutability": "view",
      "type": "function"
    },
    {
      "inputs": [
        {
          "internalType": "address",
          "name": "_automate",
          "type": "address"
        },
        {
          "internalType": "address",
          "name": "_taskCreator",
          "type": "address"
        }
      ],
      "name": "__initialize",
      "outputs": [],
      "stateMutability": "nonpayable",
      "type": "function"
    },
    {
      "inputs": [
        {
          "internalType": "bytes32",
          "name": "_jobId",
          "type": "bytes32"
        }
      ],
      "name": "_cancelJob",
      "outputs": [],
      "stateMutability": "nonpayable",
      "type": "function"
    },
    {
      "inputs": [
        {
          "internalType": "address",
          "name": "_from",
          "type": "address"
        },
        {
          "internalType": "address",
          "name": "_to",
          "type": "address"
        },
        {
          "internalType": "uint256",
          "name": "_amount",
          "type": "uint256"
        },
        {
          "internalType": "uint256",
          "name": "_price",
          "type": "uint256"
        },
        {
          "internalType": "address",
          "name": "_fromToken",
          "type": "address"
        },
        {
          "internalType": "address",
          "name": "_toToken",
          "type": "address"
        },
        {
          "internalType": "uint256",
          "name": "_toChain",
          "type": "uint256"
        },
        {
          "internalType": "uint32",
          "name": "_destinationDomain",
          "type": "uint32"
        },
        {
          "internalType": "address",
          "name": "_destinationContract",
          "type": "address"
        },
        {
          "internalType": "uint256",
          "name": "_cycles",
          "type": "uint256"
        },
        {
          "internalType": "uint256",
          "name": "_startTime",
          "type": "uint256"
        },
        {
          "internalType": "uint256",
          "name": "_interval",
          "type": "uint256"
        },
        {
          "internalType": "uint256",
          "name": "_relayerFeeInTransactingAsset",
          "type": "uint256"
        },
        {
          "internalType": "address",
          "name": "_swapper",
          "type": "address"
        },
        {
          "internalType": "bytes",
          "name": "_swapData",
          "type": "bytes"
        }
      ],
      "name": "_conditionalAutomateCron",
      "outputs": [],
      "stateMutability": "nonpayable",
      "type": "function"
    },
    {
      "inputs": [
        {
          "internalType": "address",
          "name": "_to",
          "type": "address"
        },
        {
          "internalType": "uint256",
          "name": "_amount",
          "type": "uint256"
        },
        {
          "internalType": "uint256",
          "name": "_price",
          "type": "uint256"
        },
        {
          "internalType": "address",
          "name": "_fromToken",
          "type": "address"
        },
        {
          "internalType": "address",
          "name": "_toToken",
          "type": "address"
        },
        {
          "internalType": "address",
          "name": "_tokenA",
          "type": "address"
        },
        {
          "internalType": "address",
          "name": "_tokenB",
          "type": "address"
        },
        {
          "internalType": "uint256",
          "name": "_toChain",
          "type": "uint256"
        },
        {
          "internalType": "uint32",
          "name": "_destinationDomain",
          "type": "uint32"
        },
        {
          "internalType": "address",
          "name": "_destinationContract",
          "type": "address"
        },
        {
          "internalType": "uint256",
          "name": "_cycles",
          "type": "uint256"
        },
        {
          "internalType": "uint256",
          "name": "_startTime",
          "type": "uint256"
        },
        {
          "internalType": "uint256",
          "name": "_interval",
          "type": "uint256"
        },
        {
          "internalType": "string",
          "name": "_web3FunctionHash",
          "type": "string"
        }
      ],
      "name": "_createConditionalAutomate",
      "outputs": [],
      "stateMutability": "nonpayable",
      "type": "function"
    },
    {
      "inputs": [
        {
          "internalType": "address[]",
          "name": "_to",
          "type": "address[]"
        },
        {
          "internalType": "uint256[]",
          "name": "_amount",
          "type": "uint256[]"
        },
        {
          "internalType": "uint256[]",
          "name": "_price",
          "type": "uint256[]"
        },
        {
          "internalType": "address[]",
          "name": "_fromToken",
          "type": "address[]"
        },
        {
          "internalType": "address[]",
          "name": "_toToken",
          "type": "address[]"
        },
        {
          "internalType": "address[]",
          "name": "_tokenA",
          "type": "address[]"
        },
        {
          "internalType": "address[]",
          "name": "_tokenB",
          "type": "address[]"
        },
        {
          "internalType": "uint256[]",
          "name": "_toChain",
          "type": "uint256[]"
        },
        {
          "internalType": "uint32[]",
          "name": "_destinationDomain",
          "type": "uint32[]"
        },
        {
          "internalType": "address[]",
          "name": "_destinationContract",
          "type": "address[]"
        },
        {
          "internalType": "uint256[]",
          "name": "_cycles",
          "type": "uint256[]"
        },
        {
          "internalType": "uint256[]",
          "name": "_startTime",
          "type": "uint256[]"
        },
        {
          "internalType": "uint256[]",
          "name": "_interval",
          "type": "uint256[]"
        },
        {
          "internalType": "string",
          "name": "_web3FunctionHash",
          "type": "string"
        }
      ],
      "name": "_createMultipleConditionalAutomate",
      "outputs": [],
      "stateMutability": "nonpayable",
      "type": "function"
    },
    {
      "inputs": [
        {
          "internalType": "address[]",
          "name": "_to",
          "type": "address[]"
        },
        {
          "internalType": "uint256[]",
          "name": "_amount",
          "type": "uint256[]"
        },
        {
          "internalType": "address[]",
          "name": "_fromToken",
          "type": "address[]"
        },
        {
          "internalType": "address[]",
          "name": "_toToken",
          "type": "address[]"
        },
        {
          "internalType": "uint256[]",
          "name": "_toChain",
          "type": "uint256[]"
        },
        {
          "internalType": "uint32[]",
          "name": "_destinationDomain",
          "type": "uint32[]"
        },
        {
          "internalType": "address[]",
          "name": "_destinationContract",
          "type": "address[]"
        },
        {
          "internalType": "uint256[]",
          "name": "_cycles",
          "type": "uint256[]"
        },
        {
          "internalType": "uint256[]",
          "name": "_startTime",
          "type": "uint256[]"
        },
        {
          "internalType": "uint256[]",
          "name": "_interval",
          "type": "uint256[]"
        }
      ],
      "name": "_createMultipleTimeAutomate",
      "outputs": [],
      "stateMutability": "nonpayable",
      "type": "function"
    },
    {
      "inputs": [
        {
          "internalType": "address",
          "name": "_to",
          "type": "address"
        },
        {
          "internalType": "uint256",
          "name": "_amount",
          "type": "uint256"
        },
        {
          "internalType": "address",
          "name": "_fromToken",
          "type": "address"
        },
        {
          "internalType": "address",
          "name": "_toToken",
          "type": "address"
        },
        {
          "internalType": "uint256",
          "name": "_toChain",
          "type": "uint256"
        },
        {
          "internalType": "uint32",
          "name": "_destinationDomain",
          "type": "uint32"
        },
        {
          "internalType": "address",
          "name": "_destinationContract",
          "type": "address"
        },
        {
          "internalType": "uint256",
          "name": "_cycles",
          "type": "uint256"
        },
        {
          "internalType": "uint256",
          "name": "_startTime",
          "type": "uint256"
        },
        {
          "internalType": "uint256",
          "name": "_interval",
          "type": "uint256"
        }
      ],
      "name": "_createTimeAutomate",
      "outputs": [],
      "stateMutability": "nonpayable",
      "type": "function"
    },
    {
      "inputs": [
        {
          "internalType": "bytes32",
          "name": "",
          "type": "bytes32"
        }
      ],
      "name": "_createdJobs",
      "outputs": [
        {
          "internalType": "address",
          "name": "_user",
          "type": "address"
        },
        {
          "internalType": "uint256",
          "name": "_totalCycles",
          "type": "uint256"
        },
        {
          "internalType": "uint256",
          "name": "_executedCycles",
          "type": "uint256"
        },
        {
          "internalType": "bytes32",
          "name": "_gelatoTaskID",
          "type": "bytes32"
        }
      ],
      "stateMutability": "view",
      "type": "function"
    },
    {
      "inputs": [
        {
          "internalType": "address",
          "name": "_from",
          "type": "address"
        },
        {
          "internalType": "address",
          "name": "_to",
          "type": "address"
        },
        {
          "internalType": "uint256",
          "name": "_amount",
          "type": "uint256"
        },
        {
          "internalType": "address",
          "name": "_fromToken",
          "type": "address"
        },
        {
          "internalType": "address",
          "name": "_toToken",
          "type": "address"
        },
        {
          "internalType": "uint256",
          "name": "_toChain",
          "type": "uint256"
        },
        {
          "internalType": "uint32",
          "name": "_destinationDomain",
          "type": "uint32"
        },
        {
          "internalType": "address",
          "name": "_destinationContract",
          "type": "address"
        },
        {
          "internalType": "uint256",
          "name": "_cycles",
          "type": "uint256"
        },
        {
          "internalType": "uint256",
          "name": "_startTime",
          "type": "uint256"
        },
        {
          "internalType": "uint256",
          "name": "_interval",
          "type": "uint256"
        }
      ],
      "name": "_getAutomateJobId",
      "outputs": [
        {
          "internalType": "bytes32",
          "name": "",
          "type": "bytes32"
        }
      ],
      "stateMutability": "pure",
      "type": "function"
    },
    {
      "inputs": [
        {
          "internalType": "address",
          "name": "_from",
          "type": "address"
        },
        {
          "internalType": "address",
          "name": "_to",
          "type": "address"
        },
        {
          "internalType": "uint256",
          "name": "_amount",
          "type": "uint256"
        },
        {
          "internalType": "uint256",
          "name": "_price",
          "type": "uint256"
        },
        {
          "internalType": "address",
          "name": "_fromToken",
          "type": "address"
        },
        {
          "internalType": "address",
          "name": "_toToken",
          "type": "address"
        },
        {
          "internalType": "uint256",
          "name": "_toChain",
          "type": "uint256"
        },
        {
          "internalType": "uint32",
          "name": "_destinationDomain",
          "type": "uint32"
        },
        {
          "internalType": "address",
          "name": "_destinationContract",
          "type": "address"
        },
        {
          "internalType": "uint256",
          "name": "_cycles",
          "type": "uint256"
        },
        {
          "internalType": "uint256",
          "name": "_startTime",
          "type": "uint256"
        },
        {
          "internalType": "uint256",
          "name": "_interval",
          "type": "uint256"
        }
      ],
      "name": "_getConditionalJobId",
      "outputs": [
        {
          "internalType": "bytes32",
          "name": "",
          "type": "bytes32"
        }
      ],
      "stateMutability": "pure",
      "type": "function"
    },
    {
      "inputs": [
        {
          "internalType": "address",
          "name": "_from",
          "type": "address"
        },
        {
          "internalType": "address",
          "name": "_to",
          "type": "address"
        },
        {
          "internalType": "uint256",
          "name": "_amount",
          "type": "uint256"
        },
        {
          "internalType": "address",
          "name": "_fromToken",
          "type": "address"
        },
        {
          "internalType": "address",
          "name": "_toToken",
          "type": "address"
        },
        {
          "internalType": "uint256",
          "name": "_toChain",
          "type": "uint256"
        },
        {
          "internalType": "uint32",
          "name": "_destinationDomain",
          "type": "uint32"
        },
        {
          "internalType": "address",
          "name": "_destinationContract",
          "type": "address"
        },
        {
          "internalType": "uint256",
          "name": "_cycles",
          "type": "uint256"
        },
        {
          "internalType": "uint256",
          "name": "_startTime",
          "type": "uint256"
        },
        {
          "internalType": "uint256",
          "name": "_interval",
          "type": "uint256"
        }
      ],
      "name": "_getWeb3FunctionHash",
      "outputs": [
        {
          "internalType": "bytes",
          "name": "",
          "type": "bytes"
        }
      ],
      "stateMutability": "view",
      "type": "function"
    },
    {
      "inputs": [
        {
          "internalType": "address",
          "name": "_from",
          "type": "address"
        },
        {
          "internalType": "address",
          "name": "_to",
          "type": "address"
        },
        {
          "internalType": "uint256",
          "name": "_amount",
          "type": "uint256"
        },
        {
          "internalType": "uint256",
          "name": "_price",
          "type": "uint256"
        },
        {
          "internalType": "address",
          "name": "_fromToken",
          "type": "address"
        },
        {
          "internalType": "address",
          "name": "_toToken",
          "type": "address"
        },
        {
          "internalType": "address",
          "name": "_tokenA",
          "type": "address"
        },
        {
          "internalType": "address",
          "name": "_tokenB",
          "type": "address"
        },
        {
          "internalType": "uint256",
          "name": "_toChain",
          "type": "uint256"
        },
        {
          "internalType": "uint32",
          "name": "_destinationDomain",
          "type": "uint32"
        },
        {
          "internalType": "address",
          "name": "_destinationContract",
          "type": "address"
        },
        {
          "internalType": "uint256",
          "name": "_cycles",
          "type": "uint256"
        },
        {
          "internalType": "uint256",
          "name": "_startTime",
          "type": "uint256"
        },
        {
          "internalType": "uint256",
          "name": "_interval",
          "type": "uint256"
        }
      ],
      "name": "_getWeb3FunctionHash",
      "outputs": [
        {
          "internalType": "bytes",
          "name": "",
          "type": "bytes"
        }
      ],
      "stateMutability": "view",
      "type": "function"
    },
    {
      "inputs": [
        {
          "internalType": "address",
          "name": "_fromAsset",
          "type": "address"
        },
        {
          "internalType": "address",
          "name": "_toAsset",
          "type": "address"
        },
        {
          "internalType": "uint256",
          "name": "_amountIn",
          "type": "uint256"
        },
        {
          "internalType": "address",
          "name": "_swapper",
          "type": "address"
        },
        {
          "internalType": "bytes",
          "name": "_swapData",
          "type": "bytes"
        }
      ],
      "name": "_setupAndSwap",
      "outputs": [
        {
          "internalType": "uint256",
          "name": "amountOut",
          "type": "uint256"
        }
      ],
      "stateMutability": "nonpayable",
      "type": "function"
    },
    {
      "inputs": [
        {
          "internalType": "address",
          "name": "_from",
          "type": "address"
        },
        {
          "internalType": "address",
          "name": "_to",
          "type": "address"
        },
        {
          "internalType": "uint256",
          "name": "_amount",
          "type": "uint256"
        },
        {
          "internalType": "address",
          "name": "_fromToken",
          "type": "address"
        },
        {
          "internalType": "address",
          "name": "_toToken",
          "type": "address"
        },
        {
          "internalType": "uint256",
          "name": "_toChain",
          "type": "uint256"
        },
        {
          "internalType": "uint32",
          "name": "_destinationDomain",
          "type": "uint32"
        },
        {
          "internalType": "address",
          "name": "_destinationContract",
          "type": "address"
        },
        {
          "internalType": "uint256",
          "name": "_cycles",
          "type": "uint256"
        },
        {
          "internalType": "uint256",
          "name": "_startTime",
          "type": "uint256"
        },
        {
          "internalType": "uint256",
          "name": "_interval",
          "type": "uint256"
        },
        {
          "internalType": "uint256",
          "name": "_relayerFeeInTransactingAsset",
          "type": "uint256"
        },
        {
          "internalType": "address",
          "name": "_swapper",
          "type": "address"
        },
        {
          "internalType": "bytes",
          "name": "_swapData",
          "type": "bytes"
        }
      ],
      "name": "_timeAutomateCron",
      "outputs": [],
      "stateMutability": "nonpayable",
      "type": "function"
    },
    {
      "inputs": [],
      "name": "_transferGas",
      "outputs": [],
      "stateMutability": "payable",
      "type": "function"
    },
    {
      "inputs": [
        {
          "internalType": "enum AutoPay.Option",
          "name": "",
          "type": "uint8"
        }
      ],
      "name": "_web3functionHashes",
      "outputs": [
        {
          "internalType": "string",
          "name": "",
          "type": "string"
        }
      ],
      "stateMutability": "view",
      "type": "function"
    },
    {
      "inputs": [
        {
          "internalType": "uint8",
          "name": "",
          "type": "uint8"
        }
      ],
      "name": "_web3functionHashesNew",
      "outputs": [
        {
          "internalType": "string",
          "name": "",
          "type": "string"
        }
      ],
      "stateMutability": "view",
      "type": "function"
    },
    {
      "inputs": [],
      "name": "automate",
      "outputs": [
        {
          "internalType": "contract IAutomate",
          "name": "",
          "type": "address"
        }
      ],
      "stateMutability": "view",
      "type": "function"
    },
    {
      "inputs": [],
      "name": "checkBalance",
      "outputs": [
        {
          "internalType": "uint256",
          "name": "",
          "type": "uint256"
        }
      ],
      "stateMutability": "view",
      "type": "function"
    },
    {
      "inputs": [],
      "name": "connext",
      "outputs": [
        {
          "internalType": "contract IConnext",
          "name": "",
          "type": "address"
        }
      ],
      "stateMutability": "view",
      "type": "function"
    },
    {
      "inputs": [],
      "name": "dedicatedMsgSender",
      "outputs": [
        {
          "internalType": "address",
          "name": "",
          "type": "address"
        }
      ],
      "stateMutability": "view",
      "type": "function"
    },
    {
      "inputs": [
        {
          "internalType": "address",
          "name": "_swapper",
          "type": "address"
        },
        {
          "internalType": "bytes",
          "name": "swapData",
          "type": "bytes"
        }
      ],
      "name": "directSwapperCall",
      "outputs": [
        {
          "internalType": "uint256",
          "name": "amountOut",
          "type": "uint256"
        }
      ],
      "stateMutability": "payable",
      "type": "function"
    },
    {
      "inputs": [],
      "name": "fundsOwner",
      "outputs": [
        {
          "internalType": "address",
          "name": "",
          "type": "address"
        }
      ],
      "stateMutability": "view",
      "type": "function"
    },
    {
      "inputs": [],
      "name": "gelato1Balance",
      "outputs": [
        {
          "internalType": "contract IGelato1Balance",
          "name": "",
          "type": "address"
        }
      ],
      "stateMutability": "view",
      "type": "function"
    },
    {
      "inputs": [
        {
          "internalType": "address",
          "name": "_address",
          "type": "address"
        }
      ],
      "name": "getBalanceOfToken",
      "outputs": [
        {
          "internalType": "uint256",
          "name": "",
          "type": "uint256"
        }
      ],
      "stateMutability": "view",
      "type": "function"
    },
    {
      "inputs": [
        {
          "internalType": "contract IConnext",
          "name": "_connext",
          "type": "address"
        },
        {
          "internalType": "contract ISwapRouter",
          "name": "_swapRouter",
          "type": "address"
        },
        {
          "internalType": "address payable",
          "name": "_ops",
          "type": "address"
        }
      ],
      "name": "initialize",
      "outputs": [],
      "stateMutability": "nonpayable",
      "type": "function"
    },
    {
      "inputs": [],
      "name": "owner",
      "outputs": [
        {
          "internalType": "address",
          "name": "",
          "type": "address"
        }
      ],
      "stateMutability": "view",
      "type": "function"
    },
    {
      "inputs": [],
      "name": "proxiableUUID",
      "outputs": [
        {
          "internalType": "bytes32",
          "name": "",
          "type": "bytes32"
        }
      ],
      "stateMutability": "view",
      "type": "function"
    },
    {
      "inputs": [],
      "name": "renounceOwnership",
      "outputs": [],
      "stateMutability": "nonpayable",
      "type": "function"
    },
    {
      "inputs": [
        {
          "internalType": "address",
          "name": "_fromToken",
          "type": "address"
        },
        {
          "internalType": "address",
          "name": "_toToken",
          "type": "address"
        },
        {
          "internalType": "uint256",
          "name": "amountIn",
          "type": "uint256"
        }
      ],
      "name": "swapExactInputSingle",
      "outputs": [
        {
          "internalType": "uint256",
          "name": "amountOut",
          "type": "uint256"
        }
      ],
      "stateMutability": "nonpayable",
      "type": "function"
    },
    {
      "inputs": [],
      "name": "swapRouter",
      "outputs": [
        {
          "internalType": "contract ISwapRouter",
          "name": "",
          "type": "address"
        }
      ],
      "stateMutability": "view",
      "type": "function"
    },
    {
      "inputs": [
        {
          "internalType": "address",
          "name": "newOwner",
          "type": "address"
        }
      ],
      "name": "transferOwnership",
      "outputs": [],
      "stateMutability": "nonpayable",
      "type": "function"
    },
    {
      "inputs": [],
      "name": "treasury",
      "outputs": [
        {
          "internalType": "contract ITreasury",
          "name": "",
          "type": "address"
        }
      ],
      "stateMutability": "view",
      "type": "function"
    },
    {
      "inputs": [
        {
          "internalType": "address",
          "name": "_treasury",
          "type": "address"
        }
      ],
      "name": "updateTreasury",
      "outputs": [],
      "stateMutability": "nonpayable",
      "type": "function"
    },
    {
      "inputs": [
        {
          "internalType": "enum AutoPay.Option[]",
          "name": "_types",
          "type": "uint8[]"
        },
        {
          "internalType": "string[]",
          "name": "_hashes",
          "type": "string[]"
        }
      ],
      "name": "updateWeb3functionHashes",
      "outputs": [],
      "stateMutability": "nonpayable",
      "type": "function"
    },
    {
      "inputs": [
        {
          "internalType": "address",
          "name": "newImplementation",
          "type": "address"
        }
      ],
      "name": "upgradeTo",
      "outputs": [],
      "stateMutability": "nonpayable",
      "type": "function"
    },
    {
      "inputs": [
        {
          "internalType": "address",
          "name": "newImplementation",
          "type": "address"
        },
        {
          "internalType": "bytes",
          "name": "data",
          "type": "bytes"
        }
      ],
      "name": "upgradeToAndCall",
      "outputs": [],
      "stateMutability": "payable",
      "type": "function"
    },
    {
      "inputs": [
        {
          "internalType": "address",
          "name": "",
          "type": "address"
        },
        {
          "internalType": "address",
          "name": "",
          "type": "address"
        }
      ],
      "name": "userBalance",
      "outputs": [
        {
          "internalType": "uint256",
          "name": "",
          "type": "uint256"
        }
      ],
      "stateMutability": "view",
      "type": "function"
    },
    {
      "inputs": [
        {
          "internalType": "address",
          "name": "from",
          "type": "address"
        },
        {
          "internalType": "address",
          "name": "recipient",
          "type": "address"
        },
        {
          "internalType": "address",
          "name": "destinationContract",
          "type": "address"
        },
        {
          "internalType": "uint32",
          "name": "destinationDomain",
          "type": "uint32"
        },
        {
          "internalType": "address",
          "name": "fromToken",
          "type": "address"
        },
        {
          "internalType": "address",
          "name": "toToken",
          "type": "address"
        },
        {
          "internalType": "uint256",
          "name": "amount",
          "type": "uint256"
        },
        {
          "internalType": "uint256",
          "name": "slippage",
          "type": "uint256"
        },
        {
          "internalType": "uint256",
          "name": "relayerFeeInTransactingAsset",
          "type": "uint256"
        }
      ],
      "name": "xTransfer",
      "outputs": [],
      "stateMutability": "nonpayable",
      "type": "function"
    },
    {
      "stateMutability": "payable",
      "type": "receive"
    }
  ],
  "bytecode": "0x60a08060405234620000e157306080526000549060ff8260081c166200008f575060ff8082161062000053575b60405161562c9081620000e78239608051818181612465015281816125f801526129fa0152f35b60ff90811916176000557f7f26b83ff96e1f2b6a682f133852f6798a09c465da95921460cefb3847402498602060405160ff8152a1386200002c565b62461bcd60e51b815260206004820152602760248201527f496e697469616c697a61626c653a20636f6e747261637420697320696e697469604482015266616c697a696e6760c81b6064820152608490fd5b600080fdfe6107e080604052600436101561001b575b50361561001957005b005b60006105605260003560e01c908163049aacfe1461315c5750806307e47b2514612c5b5780630fe4a53a14612bf157806324e752a114612bcb57806328f150eb14612b9f5780633659cfe6146129d65780633935db63146128db57806346ee3c59146128af5780634f1ef286146125aa5780635183ef791461251657806352d1902d1461244f57806357fb1d671461241d57806361d027b3146123f157806362a4b0a91461239c57806369d13cd914612367578063715018a614612302578063717a8dd7146122dd5780637e2704cc146122c15780637f51bb1f1461227e57806383786f8c146122265780638a076aa0146121c25780638b7b23ee146121a15780638ba9bf4c146120fa5780638da5cb5b146120ce578063a0d701021461208f578063a8f383f514612035578063ad5c464814612003578063b1e7ed5814611dd6578063baee130a14611d83578063c0c53b8b146119f7578063c31c9c07146119cb578063c61c4362146115bf578063c71daccb146115a0578063c728b83d1461111c578063c736d03814610e19578063caf9e19114610bf4578063ceb9201214610ab6578063d8524c6f1461087c578063de4b05481461084d578063e475a844146102fb578063f19f1a9b146102975763f2fde38b146101fc5738610010565b3461029057602036600319011261029057610215613180565b61021d61359a565b6001600160a01b0381161561023c57610235906135f2565b6105605180f35b60405162461bcd60e51b815260206004820152602660248201527f4f776e61626c653a206e6577206f776e657220697320746865207a65726f206160448201526564647265737360d01b6064820152608490fd5b6105605180fd5b346102905760a0366003190112610290576102b0613180565b6102b8613196565b6102c06131ac565b91608435916001600160401b038311610290576020936102e76102f394369060040161325a565b93909260443591613d6f565b604051908152f35b34610290576101c0366003190112610290576004356001600160401b0381116102905761032c90369060040161356a565b6102a0526105c0526024356001600160401b0381116102905761035390369060040161356a565b610300526104a0526044356001600160401b0381116102905761037a90369060040161356a565b61010052610640526064356001600160401b038111610290576103a190369060040161356a565b610220526101a0526084356001600160401b038111610290576103c890369060040161356a565b610280526105e05260a4356001600160401b038111610290576103ef90369060040161356a565b610700526103605260c4356001600160401b0381116102905761041690369060040161356a565b610440526104005260e4356001600160401b0381116102905761043d90369060040161356a565b6106005261050052610104356001600160401b0381116102905761046590369060040161356a565b60e052610320526001600160401b0361012435116102905761048d366101243560040161356a565b6102e052610460526001600160401b036101443511610290576104b6366101443560040161356a565b6106e052610160526001600160401b036101643511610290576104df366101643560040161356a565b61012052610240526001600160401b03610184351161029057610508366101843560040161356a565b60a052610580526101a4356001600160401b0381116102905761052f90369060040161354c565b6103a0526105605160c0525b6102a05160c0519081101561023557610220516101a0516001600160a01b039261056d9261056892614b3e565b614b4e565b604051636eb1769f60e11b81523360048201523060248201529160209183916044918391165afa90811561080d57610560519161081b575b506105b960c051610300516104a051614b3e565b3511610713576107006105d861056860c0516102a0516105c051614b3e565b6105eb60c051610300516104a051614b3e565b356105ff60c0516101005161064051614b3e565b356106a05261061a61056860c051610220516101a051614b3e565b6105405261063461056860c051610280516105e051614b3e565b6101c05261064e61056860c0516107005161036051614b3e565b61066461056860c0516104405161040051614b3e565b61067760c0516106005161050051614b3e565b3561069261068d60c05160e05161032051614b3e565b614b62565b6106a861056860c0516102e05161046051614b3e565b916106bc60c0516106e05161016051614b3e565b35936106d160c0516101205161024051614b3e565b35956103a051986106ea60c05160a05161058051614b3e565b35986101c0519161054051916106a05191614da7565b61070b60c051614b2f565b60c05261053b565b60c051610220516101a0516001600160a01b03926107349261056892614b3e565b604051636eb1769f60e11b81523360048201523060248201529160209183916044918391165afa90811561080d5761056051916107d6575b5061078060c051610300516104a051614b3e565b35906107d261079b61056860c051610220516101a051614b3e565b60405163059d9d6d60e31b8152600481019390935260248301939093526001600160a01b0390921660448201529081906064820190565b0390fd5b90506020813d602011610805575b816107f1602093836133f9565b8101031261080057518161076c565b600080fd5b3d91506107e4565b6040513d61056051823e3d90fd5b90506020813d602011610845575b81610836602093836133f9565b810103126108005751816105a5565b3d9150610829565b346102905761056051806003193601126108795760ce546040516001600160a01b039091168152602090f35b80fd5b3461029057604036600319011261029057610895613180565b61089d613196565b906108ba60ff610560515460081c166108b58161380a565b61380a565b60c980546001600160a01b039283166001600160a01b0319918216811790925560405163573ea57560e01b8152909391906020908181600481865afa801561080d5785916105605191610a7c575b50928291602494168760cb54161760cb556040519384809263cd3d4fb960e01b8252600260048301525afa801561080d5784926105605191610a43575b508190600460405180958193632e8743fd60e21b8352165afa801561080d5784926105605191610a09575b5060409060248251809581936337b6269f60e21b8352306004840152165afa90811561080d57849261056051926109bf575b5050168360ca54161760ca55169060cc54161760cc556105605180f35b915091506040813d604011610a01575b816109dc604093836133f9565b81010312610290576109f984926109f28361552e565b9201613b04565b5085806109a2565b3d91506109cf565b809350828092503d8311610a3c575b610a2281836133f9565b81010312610290576040610a36859361552e565b90610970565b503d610a18565b809350828092503d8311610a75575b610a5c81836133f9565b810103126102905780610a6f859361552e565b90610945565b503d610a52565b809250838092503d8311610aaf575b610a9581836133f9565b810103126102905751848116810361029057849082610908565b503d610a8b565b3461029057606036600319011261029057610acf613180565b610ad7613196565b60cf546001600160a01b0392839260443592610af7908490861684613bdf565b8360405192610b0584613371565b1682526020948593818585019316835260408401906101f4825260608501903082526080860142815260a087019182528460c08801936000855260e089019560008752828060cf5416996040519d8e9c8d63414bf38960e01b9052511660048d0152511660248b01525162ffffff1660448a0152511660648801525160848701525160a48601525160c4850152511660e4830152815a61010492600091f1908115610be857600091610bbb575b50604051908152f35b90508181813d8311610be1575b610bd281836133f9565b81010312610800575182610bb2565b503d610bc8565b6040513d6000823e3d90fd5b3461029057604036600319011261029057610c0d613180565b610c15613196565b90610c2960ff610560515460081c1661380a565b60c980546001600160a01b039283166001600160a01b0319918216811790925560405163573ea57560e01b8152909360209290918381600481855afa91821561080d578585926105605194610ddb575b50602493168760cb54161760cb556040519283809263cd3d4fb960e01b8252600260048301525afa90811561080d57849184916105605191610da4575b50600460405180948193632e8743fd60e21b8352165afa90811561080d5784906105605192610d67575b50604080516337b6269f60e21b815293821660048501529183916024918391165afa91821561080d576105605192610d26575b5050169060ca54161760ca556105605180f35b9091506040823d604011610d5f575b81610d42604093836133f9565b8101031261029057610d57906109f28361552e565b508380610d13565b3d9150610d35565b809250848092503d8311610d9d575b610d8081836133f9565b8101031261029057836024610d9660409361552e565b9250610ce0565b503d610d76565b92505081813d8311610dd4575b610dbb81836133f9565b810103126102905782610dce859261552e565b87610cb6565b503d610db1565b92809294508391503d8311610e12575b610df581836133f9565b810103126102905751848116810361029057908390856024610c79565b503d610deb565b346102905761012036600319011261029057610e33613180565b610e3b613196565b90610e44613231565b6064359263ffffffff8416840361080057610e5d6131c2565b93610e666131ee565b6001600160a01b0386169590939060009073b4fbf271143f4fbf7b91a5ded31805e42b2208d5198801611108575b508661104a575b61010435811061102757604080516001600160a01b038881166020838101919091528782169383019390935287166060808301919091528152610f6d92610ee18261338d565b60ce546001600160a01b031690610efc90610104359061388d565b9460006040518096819582946393f18ac560e01b845263ffffffff8c16600485015260018060a01b0316998a602485015273b4fbf271143f4fbf7b91a5ded31805e42b2208d66044850152336064850152608484015260e43560a484015261010060c4840152610104830190613308565b6101043560e483015203925af18015610be857610ff8575b50604080516001600160a01b039586168152602081019290925260c4359082015242606082015261010435608082015263ffffffff9190911660a082015290821692909116907f5add7a884c3fcd9dacaee558d72ece5037a4682a29b4e07a9ead795c5f26e0549060c090a46105605180f35b602090819492943d8311611020575b61101181836133f9565b81010312610800579186610f85565b503d611007565b60405163c4225e5760e01b815260c4356004820152610104356024820152604490fd5b60ce54604051636eb1769f60e11b81523060048201526001600160a01b039091166024820181905260208260448173b4fbf271143f4fbf7b91a5ded31805e42b2208d65afa918215610be8576000926110d5575b5061010435916110ae838561386a565b116110bb575b5050610e9b565b6110c86110ce928461386a565b90613b11565b87806110b4565b9091506020813d8211611100575b816110f0602093836133f9565b810103126108005751908961109e565b3d91506110e3565b611116915060c43590613f07565b87610e94565b34610290576101e036600319011261029057611136613180565b61113e613196565b6111466131c2565b9061114f6131ee565b611157613247565b91611160613204565b916101a4356001600160a01b0381169003610800576101c4356001600160401b0381116102905761119590369060040161325a565b9590935a604051636eb1769f60e11b81526001600160a01b038a166004820152306024820152909590602081806044810103816001600160a01b0388165afa90811561080d57610560519161156e575b50604435116114ba576040516323b872dd60e01b602082019081526001600160a01b038b166024830152306044808401919091523560648301529061123781608481015b03601f1981018352826133f9565b61056051918291519082875af161124c61378d565b81611483575b5015611458576044354660c435148080611442575b156114085750506112b3959697611286916101a4356044358787613d6f565b96611292888686615354565b61016435946101443594610124359460c435928c606435916044359161540e565b9182610560515260d06020526112f86112f16040610560512093600285019460016112de8754614b2f565b918288550154146113fa575b5a9061388d565b3a90614545565b6019810290808204601914811517156113e057606461131892049061386a565b60d2546001600160a01b031694909290853b156102905760405190631bc64ab360e21b825273eeeeeeeeeeeeeeeeeeeeeeeeeeeeeeeeeeeeeeee600483015284602483015260018060a01b031695866044830152816064816105605180945af1801561080d576113ca575b5054604080519182526020820193909352918201527f0a75ac261583d233f582aa096ae742edd6c1bde7b993c8909f33e8e9c92ee4319080606081015b0390a36105605180f35b6113d390613348565b6105605180156113835780fd5b634e487b7160e01b61056051526011600452602461056051fd5b61140386614031565b6112ea565b9098506112b3969791501560001461143557611430610184358a868685878b6044359561389a565b611292565b6114306044358685615354565b506001600160a01b038581169087161415611267565b60405162461bcd60e51b815260206004820152600360248201526229aa2360e91b6044820152606490fd5b8051801592508215611498575b50508a611252565b81925090602091810103126102905760206114b39101613b04565b8a80611490565b604051636eb1769f60e11b81526001600160a01b038a1660048201523060248201528390602081806044810103816001600160a01b0386165afa90811561080d57610560519161153c575b5060405163059d9d6d60e31b815260048101919091526044803560248301526001600160a01b039290921691810191909152606490fd5b90506020813d602011611566575b81611557602093836133f9565b81010312610800575182611505565b3d915061154a565b90506020813d602011611598575b81611589602093836133f9565b8101031261080057518a6111e5565b3d915061157c565b3461029057610560518060031936011261087957602047604051908152f35b3461029057610140366003190112610290576004356001600160401b038111610290576115f090369060040161356a565b6103c052610620526024356001600160401b0381116102905761161790369060040161356a565b61048052610180526044356001600160401b0381116102905761163e90369060040161356a565b610420526080526064356001600160401b0381116102905761166490369060040161356a565b6102c052610340526084356001600160401b0381116102905761168b90369060040161356a565b61026052610680526001600160401b0360a43511610290576116b23660a43560040161356a565b610520526101e05260c4356001600160401b038111610290576116d990369060040161356a565b610140526104c05260e4356001600160401b0381116102905761170090369060040161356a565b6106c05261020052610104356001600160401b0381116102905761172890369060040161356a565b610380526105a052610124356001600160401b0381116102905761175090369060040161356a565b6103e05261066052610560516104e0525b6103c0516104e0519081101561023557610420516080516001600160a01b039261178e9261056892614b3e565b604051636eb1769f60e11b81523360048201523060248201529160209183916044918391165afa90811561080d576105605191611999575b506117db6104e0516104805161018051614b3e565b35116118de576118c96117fb6105686104e0516103c05161062051614b3e565b61180f6104e0516104805161018051614b3e565b356118266105686104e05161042051608051614b3e565b61183d6105686104e0516102c05161034051614b3e565b6118516104e0516102605161068051614b3e565b3561186961068d6104e051610520516101e051614b3e565b906118816105686104e051610140516104c051614b3e565b926118966104e0516106c05161020051614b3e565b35946118ac6104e051610380516105a051614b3e565b35966118c26104e0516103e05161066051614b3e565b3598614558565b6118d56104e051614b2f565b6104e052611761565b6104e051610420516080516001600160a01b03926118ff9261056892614b3e565b604051636eb1769f60e11b81523360048201523060248201529160209183916044918391165afa90811561080d576105605191611967575b5061194c6104e0516104805161018051614b3e565b35906107d261079b6105686104e05161042051608051614b3e565b90506020813d602011611991575b81611982602093836133f9565b81010312610800575181611937565b3d9150611975565b90506020813d6020116119c3575b816119b4602093836133f9565b810103126108005751816117c6565b3d91506119a7565b346102905761056051806003193601126108795760cf546040516001600160a01b039091168152602090f35b34610290576060366003190112610290576001600160a01b0360043581811690819003610290576024359180831680930361029057604435918183168093036102905761056051549360ff8560081c161594858096611d76575b8015611d5f575b15611d03576105605160ff198216600117815560ff9187611cf2575b505460081c1691611a848361380a565b611a8d8361380a565b6001600160601b0360a01b90858260c954161760c9556040519563573ea57560e01b87526020968781600481855afa91821561080d578789926105605194611cb4575b50602493168560cb54161760cb556040519283809263cd3d4fb960e01b8252600260048301525afa90811561080d57869188916105605191611c7d575b50600460405180948193632e8743fd60e21b8352165afa801561080d5786916105605191611c43575b5060409060248251809981936337b6269f60e21b8352306004840152165afa801561080d576105605190611c02575b611b9e9650168260ca54161760ca55338260cc54161760cc558160ce54161760ce5560cf54161760cf5561271060cd556108b58161380a565b611ba7336135f2565b610560515491611bbc60ff8460081c1661380a565b611bc7576105605180f35b7f7f26b83ff96e1f2b6a682f133852f6798a09c465da95921460cefb38474024989161ff001916610560515560405160018152a18080610235565b506040863d604011611c3b575b81611c1c604093836133f9565b810103126102905785611c35886109f2611b9e9961552e565b50611b65565b3d9150611c0f565b809250888092503d8311611c76575b611c5c81836133f9565b81010312610290576040611c70879261552e565b90611b36565b503d611c52565b92505081813d8311611cad575b611c9481836133f9565b810103126102905786611ca7879261552e565b8a611b0d565b503d611c8a565b92809294508391503d8311611ceb575b611cce81836133f9565b810103126102905751868116810361029057908790876024611ad0565b503d611cc4565b61ffff191661010117815587611a74565b60405162461bcd60e51b815260206004820152602e60248201527f496e697469616c697a61626c653a20636f6e747261637420697320616c72656160448201526d191e481a5b9a5d1a585b1a5e995960921b6064820152608490fd5b50303b158015611a585750600160ff821614611a58565b50600160ff821610611a51565b346102905760203660031901126102905760043560ff811680910361029057610560515260d4602052611dd2611dbe604061056051206134a6565b604051918291602083526020830190613308565b0390f35b34610290576040366003190112610290576004356001600160401b03811161029057611e0690369060040161356a565b906024356001600160401b03811161029057611e2690369060040161356a565b9091611e3061359a565b61056051935b808510611e44576105605180f35b82851015611fe9578460051b84013594601e1985360301861215610290576001600160401b038686013511610290578585013536036020878701011361029057611e8f818385614b3e565b3560048110156102905760005260d36020526040600020611eb0815461346c565b601f8111611f9b575b506105605196601f8188013511600114611f1a57611f0193949596976105605190828a0135611f0a575b508189013560011b91600019908a013560031b1c1916179055614b2f565b93929190611e36565b60209150828a0101013589611ee3565b818852610560516020812088830135601f19169990915b8a8110611f7f5750889983611f019798999a013511611f5d575b5050600190880135811b019055614b2f565b602060001960f8858d013560031b161c1991848c010101351690558880611f4b565b90916020600181928286888f0101013581550193019101611f31565b81610560515260206105605120601f898901350160051c810160208a8a013510611fe2575b601f830160051c82018110611fd6575050611eb9565b60008155600101611fc0565b5080611fc0565b634e487b7160e01b61056051526032600452602461056051fd5b3461029057610560518060031936011261087957602060405173b4fbf271143f4fbf7b91a5ded31805e42b2208d68152f35b3461029057602036600319011261029057600435610560515260d060205260806040610560512060018060a01b03815416906001810154906003600282015491015491604051938452602084015260408301526060820152f35b6040366003190112610290576120a3613180565b6024356001600160401b038111610290576020916120c86102f392369060040161325a565b91613c2a565b34610290576105605180600319360112610879576033546040516001600160a01b039091168152602090f35b34610290576101c036600319011261029057612114613180565b61211c6131ac565b6121246131c2565b61212c6131ee565b9061213561321b565b926101043563ffffffff811681036108005761012435906001600160a01b0382168203610800576101a435966001600160401b0388116102905761218061023598369060040161354c565b9661018435966101643596610144359660e435946044359060243590614da7565b3461029057610560518060031936011261087957602060cd54604051908152f35b3461029057610140366003190112610290576121dc613180565b6121e4613231565b906121ed6131ac565b60a4359263ffffffff84168403610800576102359361220a61321b565b906101243594610104359460e435946084359260243590614558565b3461029057602080600319360112610290576024816001600160a01b0361224b613180565b16604051928380926370a0823160e01b82523060048301525afa90811561080d576105605191610bbb5750604051908152f35b3461029057602036600319011261029057612297613180565b61229f61359a565b60018060a01b03166001600160601b0360a01b60d254161760d2556105605180f35b3461029057602036600319011261029057610235600435614031565b346102905760206102f36122f036613287565b999890989791979692969593956154a1565b346102905761056051806003193601126108795761231e61359a565b603380546001600160a01b031981169091556000906001600160a01b03167f8be0079c531659141344cd1fd0a4f28419497f9722a3daafe3b4186f6b6457e08280a36105605180f35b346102905760203660031901126102905760043560048110156102905760005260d3602052611dd2611dbe60406000206134a6565b34610290576040366003190112610290576123b5613180565b6123bd613196565b9060018060a01b03809116610560515260d16020526040610560512091166000526020526020604060002054604051908152f35b346102905761056051806003193601126108795760d2546040516001600160a01b039091168152602090f35b34610290576105605180600319360112610879576020604051737506c12a824d73d9b08564d5afc22c949434755e8152f35b34610290576105605180600319360112610879577f00000000000000000000000000000000000000000000000000000000000000006001600160a01b031630036124ab5760206040516000805160206155d78339815191528152f35b60405162461bcd60e51b815260206004820152603860248201527f555550535570677261646561626c653a206d757374206e6f742062652063616c60448201527f6c6564207468726f7567682064656c656761746563616c6c00000000000000006064820152608490fd5b34610290576101c036600319011261029057612530613180565b612538613196565b6125406131c2565b6125486131ee565b9061255161321b565b9261255a6131d8565b946101243563ffffffff811681036108005761014435916001600160a01b038316830361080057611dd297611dbe976101a435976101843597610164359761010435956064359160443591614b73565b6040366003190112610290576125be613180565b6024356001600160401b0381116102905736602382011215610290576125ee903690602481600401359101613435565b6001600160a01b037f000000000000000000000000000000000000000000000000000000000000000081169291906126283085141561363b565b6126456000805160206155d783398151915294828654161461369c565b61264d61359a565b7f4910fdfa16fed3260ed0e7147f7cc6da11a60208b5b9406d12a635614ffd91435460ff161561268357505061023591506136fd565b82919216604051936352d1902d60e01b85526020948581600481865afa60009181612880575b5061270a5760405162461bcd60e51b815260048101879052602e60248201527f45524331393637557067726164653a206e657720696d706c656d656e7461746960448201526d6f6e206973206e6f74205555505360901b6064820152608490fd5b0361282957612718826136fd565b604051907fbc7cd75a20ee27fd9adebab32041f755214dbc6bffa90cc0225b39da2e5c2d3b600080a2825115801590612821575b61275a575b50505050610235565b813b156127d057506000828192856127c69695519201905af461277b61378d565b907f416464726573733a206c6f772d6c6576656c2064656c65676174652063616c6c604051936127aa856133de565b60278552840152660819985a5b195960ca1b60408401526137bd565b5080808080612751565b62461bcd60e51b815260048101849052602660248201527f416464726573733a2064656c65676174652063616c6c20746f206e6f6e2d636f6044820152651b9d1c9858dd60d21b6064820152608490fd5b50600161274c565b60405162461bcd60e51b815260048101859052602960248201527f45524331393637557067726164653a20756e737570706f727465642070726f786044820152681a58589b195555525160ba1b6064820152608490fd5b9091508681813d83116128a8575b61289881836133f9565b81010312610800575190876126a9565b503d61288e565b346102905761056051806003193601126108795760cc546040516001600160a01b039091168152602090f35b61056051806003193601126108795760c95460408051635c08631b60e11b8152916001600160a01b0391908390600490829085165afa90811561080d5761056051928392612994575b5060d2541691823b156102905760405163c1461d5760e01b8152610560513360048301526001600160a01b039390931660248201526044810191909152918290606490829034905af1801561080d5761297e576105605180f35b61298790613348565b6105605180156102355780fd5b925090506040823d6040116129ce575b816129b1604093836133f9565b81010312610290576129c760208351930161552e565b9083612924565b3d91506129a4565b3461029057602080600319360112610290576129f0613180565b6001600160a01b037f00000000000000000000000000000000000000000000000000000000000000008116612a273082141561363b565b612a446000805160206155d783398151915291838354161461369c565b612a4c61359a565b60405191612a59836133c3565b6105605183527f4910fdfa16fed3260ed0e7147f7cc6da11a60208b5b9406d12a635614ffd91435460ff1615612a965750505061023591506136fd565b83929316906040516352d1902d60e01b81528581600481865afa60009181612b70575b50612b1a5760405162461bcd60e51b815260048101879052602e60248201527f45524331393637557067726164653a206e657720696d706c656d656e7461746960448201526d6f6e206973206e6f74205555505360901b6064820152608490fd5b0361282957612b28826136fd565b604051907fbc7cd75a20ee27fd9adebab32041f755214dbc6bffa90cc0225b39da2e5c2d3b600080a2825115801590612b685761275a5750505050610235565b50600061274c565b9091508681813d8311612b98575b612b8881836133f9565b8101031261080057519087612ab9565b503d612b7e565b346102905761056051806003193601126108795760ca546040516001600160a01b039091168152602090f35b3461029057611dd2611dbe612bdf36613287565b99989098979197969296959395614134565b34610290576101803660031901126102905760206102f3612c10613180565b612c18613196565b612c206131c2565b90612c296131ee565b92612c32613247565b612c3a613204565b9161016435956101443595610124359560c43593606435916044359161540e565b34610290576101c036600319011261029057612c75613180565b612c7d613196565b90612c866131ac565b90612c8f6131c2565b9163ffffffff60c4351660c4350361029057612ca96131d8565b90610184356001600160a01b0381169003610290576101a4356001600160401b03811161029057612cde90369060040161325a565b9590955a604051636eb1769f60e11b81526001600160a01b0387166004820152306024820152909790602081806044810103816001600160a01b0389165afa90811561080d57610560519161312a575b5060443511613077576040516323b872dd60e01b81526001600160a01b03878116600483015230602483015260448035908301526105605160209183916064918391908a165af1801561080d5761303e575b506044354660a435148080613028575b15612f7257505090612daa91610184356044358987613d6f565b60405163a9059cbb60e01b81526001600160a01b0383811660048301526024820183905261056051929791959192602091879160449183919087165af1801561080d57612f37575b612e1994505b61014435936101243593610104359360c4359260a43592604435908b6154a1565b9182610560515260d0602052612e566112f1604061056051209560028701966001612e448954614b2f565b91828a550154146113fa575a9061388d565b6019810290808204601914811517156113e0576064612e7692049061386a565b60d2546001600160a01b031694909190853b156102905760405193631bc64ab360e21b855273eeeeeeeeeeeeeeeeeeeeeeeeeeeeeeeeeeeeeeee600486015283602486015260018060a01b031695866044860152846064816105605180945af190811561080d577f0a75ac261583d233f582aa096ae742edd6c1bde7b993c8909f33e8e9c92ee431946113c092612f28575b505491604051938493846040919493926060820195825260208201520152565b612f3190613348565b87612f08565b6020853d602011612f6a575b81612f50602093836133f9565b8101031261029057612f64612e1995613b04565b50612df2565b3d9150612f43565b915096915015600014612f9f57612e1993612f9a61016435604435848760c43586898d61389a565b612df8565b60405163a9059cbb60e01b81526001600160a01b03838116600483015260448035602484015261056051929692602092889291839189165af1801561080d57612fed575b612e199450612df8565b6020853d602011613020575b81613006602093836133f9565b810103126102905761301a612e1995613b04565b50612fe3565b3d9150612ff9565b506001600160a01b03868116908a161415612d90565b6020813d60201161306f575b81613057602093836133f9565b810103126102905761306890613b04565b5088612d80565b3d915061304a565b604051636eb1769f60e11b81526001600160a01b03871660048201523060248201528490602081806044810103816001600160a01b0386165afa90811561080d5761056051916130f8575060405163059d9d6d60e31b815260048101919091526044803560248301526001600160a01b039290921691810191909152606490fd5b90506020813d602011613122575b81613113602093836133f9565b81010312610290575182611505565b3d9150613106565b90506020813d602011613154575b81613145602093836133f9565b81010312610290575189612d2e565b3d9150613138565b346108005760003660031901126108005760c9546001600160a01b03168152602090f35b600435906001600160a01b038216820361080057565b602435906001600160a01b038216820361080057565b606435906001600160a01b038216820361080057565b608435906001600160a01b038216820361080057565b60e435906001600160a01b038216820361080057565b60a435906001600160a01b038216820361080057565b61010435906001600160a01b038216820361080057565b60c435906001600160a01b038216820361080057565b604435906001600160a01b038216820361080057565b60e4359063ffffffff8216820361080057565b9181601f84011215610800578235916001600160401b038311610800576020838186019501011161080057565b610160906003190112610800576001600160a01b0390600435828116810361080057916024358181168103610800579160443591606435818116810361080057916084358281168103610800579160a4359160c43563ffffffff81168103610800579160e43590811681036108005790610104359061012435906101443590565b919082519283825260005b848110613334575050826000602080949584010152601f8019910116010190565b602081830181015184830182015201613313565b6001600160401b03811161335b57604052565b634e487b7160e01b600052604160045260246000fd5b61010081019081106001600160401b0382111761335b57604052565b608081019081106001600160401b0382111761335b57604052565b604081019081106001600160401b0382111761335b57604052565b602081019081106001600160401b0382111761335b57604052565b606081019081106001600160401b0382111761335b57604052565b90601f801991011681019081106001600160401b0382111761335b57604052565b6001600160401b03811161335b57601f01601f191660200190565b9291926134418261341a565b9161344f60405193846133f9565b829481845281830111610800578281602093846000960137010152565b90600182811c9216801561349c575b602083101461348657565b634e487b7160e01b600052602260045260246000fd5b91607f169161347b565b90604051918260008254926134ba8461346c565b90818452600194858116908160001461352957506001146134e6575b50506134e4925003836133f9565b565b9093915060005260209081600020936000915b8183106135115750506134e4935082010138806134d6565b855488840185015294850194879450918301916134f9565b9150506134e494506020925060ff191682840152151560051b82010138806134d6565b9080601f830112156108005781602061356793359101613435565b90565b9181601f84011215610800578235916001600160401b038311610800576020808501948460051b01011161080057565b6033546001600160a01b031633036135ae57565b606460405162461bcd60e51b815260206004820152602060248201527f4f776e61626c653a2063616c6c6572206973206e6f7420746865206f776e65726044820152fd5b603380546001600160a01b039283166001600160a01b0319821681179092559091167f8be0079c531659141344cd1fd0a4f28419497f9722a3daafe3b4186f6b6457e0600080a3565b1561364257565b60405162461bcd60e51b815260206004820152602c60248201527f46756e6374696f6e206d7573742062652063616c6c6564207468726f7567682060448201526b19195b1959d85d1958d85b1b60a21b6064820152608490fd5b156136a357565b60405162461bcd60e51b815260206004820152602c60248201527f46756e6374696f6e206d7573742062652063616c6c6564207468726f7567682060448201526b6163746976652070726f787960a01b6064820152608490fd5b803b15613732576000805160206155d783398151915280546001600160a01b0319166001600160a01b03909216919091179055565b60405162461bcd60e51b815260206004820152602d60248201527f455243313936373a206e657720696d706c656d656e746174696f6e206973206e60448201526c1bdd08184818dbdb9d1c9858dd609a1b6064820152608490fd5b3d156137b8573d9061379e8261341a565b916137ac60405193846133f9565b82523d6000602084013e565b606090565b9091606091156137cc57505090565b6134e49193925b8051909250156137e65750805190602001fd5b60405162461bcd60e51b8152602060048201529081906107d2906024830190613308565b1561381157565b60405162461bcd60e51b815260206004820152602b60248201527f496e697469616c697a61626c653a20636f6e7472616374206973206e6f74206960448201526a6e697469616c697a696e6760a81b6064820152608490fd5b9190820180921161387757565b634e487b7160e01b600052601160045260246000fd5b9190820391821161387757565b6001600160a01b0385811698969773b4fbf271143f4fbf7b91a5ded31805e42b2208d6966000969194919391929073b4fbf271143f4fbf7b91a5ded31805e42b2208d5198c01613af0575b508a613a53575b888710613a355790889493929160409381855193169a82808d94602097889687890152169e8f89880152169a8b60608701526060865261392b8661338d565b8160ce54169261393a9161388d565b928751958694859384936393f18ac560e01b855263ffffffff169d8e6004860152169e8f60248501526044840152336064840152608483015260a4820161012c905260c482016101009052610104820161399391613308565b8a60e483015203915a90600091f18015613a2a576139f5575b50907f5add7a884c3fcd9dacaee558d72ece5037a4682a29b4e07a9ead795c5f26e0549660c096959493928251968752860152840152426060840152608083015260a0820152a4565b9080969594939291813d8311613a23575b613a1081836133f9565b81010312610800579091929394386139ac565b503d613a06565b83513d6000823e3d90fd5b6044858a6040519163c4225e5760e01b835260048301526024820152fd5b60ce54604051636eb1769f60e11b81523060048201529082166001600160a01b0381166024830152906020816044818d5afa908115610be857600091613abf575b50613a9f8b8a61386a565b11613aab575b506138ec565b613ab9906110c88b8a61386a565b38613aa5565b906020823d8211613ae8575b81613ad8602093836133f9565b8101031261087957505138613a94565b3d9150613acb565b613afd9197508590613f07565b95386138e5565b5190811515820361080057565b60405163095ea7b360e01b602082019081526001600160a01b0390921660248201526044810192909252600091829190613b4e8160648101611229565b51908273b4fbf271143f4fbf7b91a5ded31805e42b2208d65af1613b7061378d565b81613ba8575b5015613b7e57565b60405162461bcd60e51b8152602060048201526002602482015261534160f01b6044820152606490fd5b8051801592508215613bbd575b505038613b76565b8192509060209181010312610800576020613bd89101613b04565b3880613bb5565b60405163095ea7b360e01b602082019081526001600160a01b03909316602482015260448101939093526000928392908390613c1e8160648101611229565b51925af1613b7061378d565b9190613c37913691613435565b9060405190613c45826133a8565b601882527f216469726563745377617070657243616c6c4661696c656400000000000000006020830152344710613ca957600080846020613c959651910134855af1613c8f61378d565b91613cfd565b602081805181010312610800576020015190565b60405162461bcd60e51b815260206004820152602660248201527f416464726573733a20696e73756666696369656e742062616c616e636520666f6044820152651c8818d85b1b60d21b6064820152608490fd5b919260609115613d62575050815115613d14575090565b3b15613d1d5790565b60405162461bcd60e51b815260206004820152601d60248201527f416464726573733a2063616c6c20746f206e6f6e2d636f6e74726163740000006044820152606490fd5b9093926134e492506137d3565b6001600160a01b038082169796959493919281168814613efe578316908115613ec357604051636eb1769f60e11b81523060048201526001600160a01b03851660248201526020988990829060449082905afa908115610be857600091613e96575b5010613de5575b5050613567939450613c2a565b6000918291826040518a81019263095ea7b360e01b845260248201528119604482015260448152613e158161338d565b51925af1613e2161378d565b81613e5e575b5015613e34578480613dd8565b60405162461bcd60e51b8152600481018690526002602482015261534160f01b6044820152606490fd5b80915051868115918215613e77575b5050905038613e27565b83809293500103126108005785613e8e9101613b04565b808638613e6d565b908982813d8311613ebc575b613eac81836133f9565b8101031261087957505138613dd1565b503d613ea2565b60405162461bcd60e51b8152602060048201526013602482015272537761703a207a65726f20737761707065722160681b6044820152606490fd5b50955050505050565b60cf546001600160a01b039283929091613f25908390851683613bdf565b8260405191613f3383613371565b1681526020810173b4fbf271143f4fbf7b91a5ded31805e42b2208d6815283604083016101f481526060840194308652608085019042825260a0860190815260c08601916000998a9889855260e08901958a8752828060cf5416996040519d8e9c8d63414bf38960e01b9052511660048d0152511660248b01525162ffffff1660448a0152511660648801525160848701525160a48601525160c4850152511660e4830152815a9361010492602095f1918215614025578092613ff557505090565b9091506020823d821161401d575b81614010602093836133f9565b8101031261087957505190565b3d9150614003565b604051903d90823e3d90fd5b60009080825260d0602052604090818320825161404d8161338d565b60018060a01b039160606003848354169283855260018101546020860152600281015488860152015492019182521561410157519060c9541690813b156140fd578491602483928651948593849263ee8ca3b560e01b845260048401525af180156140f0579160039391600095936140dd575b50825260d060205281209081558260018201558260028201550155565b6140e990939193613348565b91386140c0565b50505051903d90823e3d90fd5b8480fd5b835162461bcd60e51b815260206004820152600c60248201526b139bc81293d088119bdd5b9960a21b6044820152606490fd5b99959097969298949161416661416061415a61415a6141546004956142ba565b9e614422565b9b614422565b95614422565b60ce5460405163617d935360e11b81529260209184919082906001600160a01b03165afa918215610be857600092614287575b506141a330614422565b946141ad90614422565b956040519c8d9b60208d016101c090526101e08d016141cb91613308565b8c601f199e8f92838382030160408401526141e591613308565b918183030190606001526141f891613308565b8c8c82030160808d015261420b91613308565b8b8b82030160a08c015261421e91613308565b924660c08b015260e08a015261010089015263ffffffff16610120880152878782030161014088015261425091613308565b868682030161016087015261426491613308565b926101808501526101a08401526101c083015203908101825261356790826133f9565b90916020823d82116142b2575b816142a1602093836133f9565b810103126108795750519038614199565b3d9150614294565b806000917a184f03e93ff9f4daa797ed6e38ed64bf6a1f01000000000000000080821015614414575b506d04ee2d6d415b85acef810000000080831015614405575b50662386f26fc10000808310156143f6575b506305f5e100808310156143e7575b50612710808310156143d8575b5060648210156143c8575b600a809210156143be575b600190816021818601956143538761341a565b9661436160405198896133f9565b808852614370601f199161341a565b01366020890137860101905b614388575b5050505090565b600019019083906f181899199a1a9b1b9c1cb0b131b232b360811b8282061a8353049182156143b95791908261437c565b614381565b9160010191614340565b9190606460029104910191614335565b6004919392049101913861432a565b6008919392049101913861431d565b6010919392049101913861430e565b602091939204910191386142fc565b6040935081049150386142e3565b604051906001600160a01b0316614438826133de565b602a8252602090818301604036823783511561452f5760309053825160019081101561452f57607860218501536029905b8082116144bd57505061447a575090565b6064906040519062461bcd60e51b825280600483015260248201527f537472696e67733a20686578206c656e67746820696e73756666696369656e746044820152fd5b9091600f8116601081101561451a57855184101561451a576f181899199a1a9b1b9c1cb0b131b232b360811b901a85840185015360041c918015614505576000190190614469565b60246000634e487b7160e01b81526011600452fd5b60246000634e487b7160e01b81526032600452fd5b634e487b7160e01b600052603260045260246000fd5b8181029291811591840414171561387757565b6107a091909152604051636eb1769f60e11b8082523360048301523060248301529399929891979296919592949193906020816044816001600160a01b038e165afa908115610be857600091614a99575b506107a051116149fa5750876145ce87878787878f88908f89906107a0519033614134565b614690896146828d604051906145e3826133c3565b60008083526040516307e47b2560e01b60208201523360248201526001600160a01b0395861660448201526107a0516064820152978516608489015290841660a488015260c4870188905263ffffffff891660e488015292891661010487015261012486018a905261014486018b905261016486018c905261018486018390526101a48601929092526101c06101c486015284916101e4830190613308565b03601f1981018452836133f9565b6000805260d360205261478b6147766146c87f938258ec6d8d468a3507d140e1c026dc2afa285c097847a088da7b50946fb91b6134a6565b92604051936146d68561338d565b600385526060366020870137600161470a6146ef614acb565b96604051976146fd896133a8565b8189526020890152614b02565b5260026147178651614b0f565b5260046147248651614b1f565b526147476147328d8d615565565b60208701519061474182614b02565b52614b02565b50614770604051614757816133c3565b6000815260208701519061476a82614b0f565b52614b0f565b50615595565b60208301519061478582614b1f565b52614b1f565b506147cd60018060a01b0360c95416926040518061078052633323b46760e01b9052306004610780510152608060246107805101526084610780510190613308565b9061078051604460031982850301910152604082019080519160408452825180915260206060850193019060005b8181106149db5750505060200151916020818303910152815180825260208201916020808360051b8301019401926000915b8383106149ae575050505050602091600091826064610780510152610780519283809203925af1988915610be857600099614974575b908161488488888888888f8f99899163ffffffff9c9b6107a05190336154a1565b996040516148918161338d565b33815260038d8d602084018b81526040850191600083526060860193845260005260d060205260406000209460018060a01b039051166001600160601b0360a01b865416178555516001850155516002840155519101556040519b8c526107a05160208d015260018060a01b031660408c015260018060a01b031660608b015260808a01521660a088015260018060a01b031660c087015260e0860152610100850152610120840152600061014084015260018060a01b0316917f65a03e0830b01d78daf919e861a7af45abacd89f015dec2962f6ec272c69c1be6101603392a4565b986020903d6020116149a6575b61498e82610780516133f9565b60206107805180938101031261087957505198614863565b3d9150614981565b90919293946020806149cc600193601f198682030187528951613308565b9701930193019193929061482d565b909193602080826149ef6001948951615542565b0195019291016147fb565b60405190815233600482015230602482015288906020816044816001600160a01b0386165afa908115610be857600091614a67575b5060405163059d9d6d60e31b81526107a051600482019290925260248101919091526001600160a01b03919091166044820152606490fd5b906020823d602011614a91575b81614a81602093836133f9565b8101031261087957505182614a2f565b3d9150614a74565b906020823d602011614ac3575b81614ab3602093836133f9565b81010312610879575051386145a9565b3d9150614aa6565b60405190614ad88261338d565b60038252819060005b606080821015614afb579060209182828701015201614ae1565b5050909150565b80511561452f5760200190565b80516001101561452f5760400190565b80516002101561452f5760600190565b60001981146138775760010190565b919081101561452f5760051b0190565b356001600160a01b03811681036108005790565b3563ffffffff811681036108005790565b9099989693949192614bb86141609c9e9d9c614160614160614bb2614bac614ba6614ba060049e9b6142ba565b976142ba565b97614422565b9f614422565b99614422565b60ce5460405163617d935360e11b8152989197916020918a919082906001600160a01b03165afa978815610be857600098614d74575b50614bf830614422565b9a614c0290614422565b9b604051806107a05260200161022090526107a05161024001614c2491613308565b6107a051601f19818303019060400152614c3d91613308565b6107a051601f19818303019060600152614c5691613308565b6107a051601f19818303019060800152614c6f91613308565b6107a051601f19818303019060a00152614c8891613308565b6107a051601f19818303019060c00152614ca191613308565b6107a051601f19818303019060e00152614cba91613308565b6107a051601f1981830301906101000152614cd491613308565b92466107a05161012001526107a05161014001526107a051610160015263ffffffff166107a05161018001526107a051601f1981830301906101a00152614d1a91613308565b6107a051601f1981830301906101c00152614d3491613308565b926107a0516101e001526107a05161020001526107a05161022001526107a05180910390601f19820190526107a05190614d6d916133f9565b6107a05190565b90976020823d8211614d9f575b81614d8e602093836133f9565b810103126108795750519638614bee565b3d9150614d81565b6107205261078052604051636eb1769f60e11b8152336004820152306024820152919b909a99989796959492939092916020818e81806044810103916001600160a01b03165afa908115610be857600091615322575b50610780511161527c57888888888f8f968f968a8c93610780519a610720519b339c614e289d614b73565b9060405191614e36836133c3565b600080845260405163c728b83d60e01b6020820152336024820152610720516001600160a01b039081166044830152610780516064830152608482018e90528e811660a483015286811660c483015260e4820188905263ffffffff8916610104830152891661012482015261014481018a905261016481018b905261018481018c90526101a481018290526101c48101919091526101e06101e4820152928390614ee590610204830190613308565b03601f1981018452614ef790846133f9565b604051614f038161338d565b600381526060366020830137614f17614acb565b6040518061076052614f28906133a8565b8161076051526107605160200152614f3f90614b02565b600190526107605151614f5190614b0f565b600290526107605151614f6390614b1f565b60049052614f718a8a615565565b610760516020015190614f8382614b02565b52614f8d90614b02565b50604051614f9a816133c3565b60008152610760516020015190614fb082614b0f565b52614fba90614b0f565b50614fc491615595565b610760516020015190614fd682614b1f565b52614fe090614b1f565b50600160a01b6001900360c95416906040516107406107c052806107c05152633323b46760e01b9052306107c05151600401526107c05151602401608090526107c0515160840161503091613308565b6107c051516003198183030190604401526040810161076051519060408352815180915260608301916020019060005b81811061525d575050506020610760510151916020818303910152815180825260208201916020808360051b8301019401926000915b8383106152305750505050506020916000918260646107c0515101526107c051519283809203925af1988915610be8576000996151ec575b90816150f289898989898f9988819a63ffffffff9d9c61078051610720513361540e565b996040516150ff8161338d565b33815260038d8d602084018c81526040850191600083526060860193845260005260d060205260406000209460018060a01b039051166001600160601b0360a01b865416178555516001850155516002840155519101556040519b8c526107805160208d015260408c015260018060a01b031660608b015260018060a01b031660808a015260a08901521660c087015260018060a01b031660e0860152610100850152610120840152610140830152600161016083015260018060a01b036107205116917f32f4f6a7671e85f9cbbc8150e33f27f39c69f205f8e9deda5a3127f49f6b0ff26101803392a4565b929190986020903d602011615228575b61520a826107c051516133f9565b60206107c051518093810103126108795750519891929091906150ce565b3d91506151fc565b909192939460208061524e600193601f198682030187528951613308565b97019301930191939290615096565b909192602080826152716001948851615542565b019401929101615060565b604051636eb1769f60e11b81523360048201523060248201528c906020816044816001600160a01b0386165afa908115610be8576000916152f0575b5060405163059d9d6d60e31b815261078051600482019290925260248101919091526001600160a01b03919091166044820152606490fd5b906020823d60201161531a575b8161530a602093836133f9565b81010312610879575051826152b8565b3d91506152fd565b906020823d60201161534c575b8161533c602093836133f9565b8101031261087957505138614dfd565b3d915061532f565b60405163a9059cbb60e01b602082019081526001600160a01b039093166024820152604481019390935260009283929083906153938160648101611229565b51925af161539f61378d565b816153d7575b50156153ad57565b60405162461bcd60e51b815260206004820152600260248201526114d560f21b6044820152606490fd5b80518015925082156153ec575b5050386153a5565b81925090602091810103126108005760206154079101613b04565b38806153e4565b9a9896939997949095929a6040519a60208c019c8d948d600160a01b60019003809b81988280981690521660408201526060015260808d01521660a08b01521660c089015260e088015263ffffffff1661010087015216610120850152610140840152610160830152610180908183015281526101a081018181106001600160401b0382111761335b5760405251902090565b9163ffffffff9399979460609b9997939692966040519b8c93602085019e8f9560018060a01b03809c819882809816905216604082015201521660808c01521660a08a015260c08901521660e0870152166101008501526101208401526101408301526101609081830152815261018081018181106001600160401b0382111761335b5760405251902090565b51906001600160a01b038216820361080057565b90600582101561554f5752565b634e487b7160e01b600052602160045260246000fd5b604051916fffffffffffffffffffffffffffffffff809216602084015216604082015260408152613567816133de565b6155b791613567916155ca604051948592604060208501526060840190613308565b601f199384848303016040850152613308565b039081018352826133f956fe360894a13ba1a3210667c828492db98dca3e2076cc3735a920a3ca505d382bbca2646970667358221220eb6f94aff07ef9a108bea1fb901ef89c832d9bb696514b23f00e5152b72dd49364736f6c63430008110033",
  "linkReferences": {},
  "deployedLinkReferences": {}
}