{
  "_format": "hh-sol-artifact-1",
  "contractName": "AutoPay",
  "sourceName": "contracts/AutoPay.sol",
  "abi": [
    {
      "inputs": [],
      "stateMutability": "nonpayable",
      "type": "constructor"
    },
    {
      "inputs": [
        {
          "internalType": "uint256",
          "name": "allowance",
          "type": "uint256"
        },
        {
          "internalType": "uint256",
          "name": "amount",
          "type": "uint256"
        },
        {
          "internalType": "address",
          "name": "token",
          "type": "address"
        }
      ],
      "name": "Allowance",
      "type": "error"
    },
    {
      "inputs": [
        {
          "internalType": "uint256",
          "name": "_amount",
          "type": "uint256"
        },
        {
          "internalType": "uint256",
          "name": "_relayerFeeInTransactingAsset",
          "type": "uint256"
        }
      ],
      "name": "AmountLessThanRelayer",
      "type": "error"
    },
    {
      "anonymous": false,
      "inputs": [
        {
          "indexed": false,
          "internalType": "address",
          "name": "previousAdmin",
          "type": "address"
        },
        {
          "indexed": false,
          "internalType": "address",
          "name": "newAdmin",
          "type": "address"
        }
      ],
      "name": "AdminChanged",
      "type": "event"
    },
    {
      "anonymous": false,
      "inputs": [
        {
          "indexed": true,
          "internalType": "address",
          "name": "beacon",
          "type": "address"
        }
      ],
      "name": "BeaconUpgraded",
      "type": "event"
    },
    {
      "anonymous": false,
      "inputs": [
        {
          "indexed": true,
          "internalType": "bytes32",
          "name": "_jobId",
          "type": "bytes32"
        },
        {
          "indexed": true,
          "internalType": "address",
          "name": "_from",
          "type": "address"
        },
        {
          "indexed": false,
          "internalType": "uint256",
          "name": "_timesExecuted",
          "type": "uint256"
        },
        {
          "indexed": false,
          "internalType": "uint256",
          "name": "_fundsUsed",
          "type": "uint256"
        },
        {
          "indexed": false,
          "internalType": "uint256",
          "name": "_amountOut",
          "type": "uint256"
        },
        {
          "indexed": false,
          "internalType": "bool",
          "name": "_isForwardPaying",
          "type": "bool"
        }
      ],
      "name": "ExecutedSourceChain",
      "type": "event"
    },
    {
      "anonymous": false,
      "inputs": [
        {
          "indexed": true,
          "internalType": "address",
          "name": "sender",
          "type": "address"
        },
        {
          "indexed": true,
          "internalType": "address",
          "name": "token",
          "type": "address"
        },
        {
          "indexed": true,
          "internalType": "uint256",
          "name": "amount",
          "type": "uint256"
        }
      ],
      "name": "FundsDeposited",
      "type": "event"
    },
    {
      "anonymous": false,
      "inputs": [
        {
          "indexed": true,
          "internalType": "address",
          "name": "receiver",
          "type": "address"
        },
        {
          "indexed": true,
          "internalType": "address",
          "name": "initiator",
          "type": "address"
        },
        {
          "indexed": true,
          "internalType": "address",
          "name": "token",
          "type": "address"
        },
        {
          "indexed": false,
          "internalType": "uint256",
          "name": "amount",
          "type": "uint256"
        }
      ],
      "name": "FundsWithdrawn",
      "type": "event"
    },
    {
      "anonymous": false,
      "inputs": [
        {
          "indexed": false,
          "internalType": "uint8",
          "name": "version",
          "type": "uint8"
        }
      ],
      "name": "Initialized",
      "type": "event"
    },
    {
      "anonymous": false,
      "inputs": [
        {
          "indexed": true,
          "internalType": "address",
          "name": "_taskCreator",
          "type": "address"
        },
        {
          "indexed": true,
          "internalType": "bytes32",
          "name": "_jobId",
          "type": "bytes32"
        },
        {
          "indexed": false,
          "internalType": "bytes32",
          "name": "_gelatoTaskId",
          "type": "bytes32"
        },
        {
          "indexed": true,
          "internalType": "address",
          "name": "_to",
          "type": "address"
        },
        {
          "indexed": false,
          "internalType": "uint256",
          "name": "_amount",
          "type": "uint256"
        },
        {
          "indexed": false,
          "internalType": "address",
          "name": "_fromToken",
          "type": "address"
        },
        {
          "indexed": false,
          "internalType": "address",
          "name": "_toToken",
          "type": "address"
        },
        {
          "indexed": false,
          "internalType": "uint256",
          "name": "_toChain",
          "type": "uint256"
        },
        {
          "indexed": false,
          "internalType": "uint32",
          "name": "_destinationDomain",
          "type": "uint32"
        },
        {
          "indexed": false,
          "internalType": "address",
          "name": "_destinationContract",
          "type": "address"
        },
        {
          "indexed": false,
          "internalType": "uint256",
          "name": "_cycles",
          "type": "uint256"
        },
        {
          "indexed": false,
          "internalType": "uint256",
          "name": "_startTime",
          "type": "uint256"
        },
        {
          "indexed": false,
          "internalType": "uint256",
          "name": "_interval",
          "type": "uint256"
        },
        {
          "indexed": false,
          "internalType": "bool",
          "name": "_isForwardPaying",
          "type": "bool"
        },
        {
          "indexed": false,
          "internalType": "enum AutoPay.Option",
          "name": "option",
          "type": "uint8"
        }
      ],
      "name": "JobCreated",
      "type": "event"
    },
    {
      "anonymous": false,
      "inputs": [
        {
          "indexed": true,
          "internalType": "uint256",
          "name": "txFee",
          "type": "uint256"
        },
        {
          "indexed": true,
          "internalType": "address",
          "name": "feeToken",
          "type": "address"
        },
        {
          "indexed": true,
          "internalType": "address",
          "name": "execAddress",
          "type": "address"
        },
        {
          "indexed": false,
          "internalType": "bytes",
          "name": "execData",
          "type": "bytes"
        },
        {
          "indexed": false,
          "internalType": "bytes32",
          "name": "taskId",
          "type": "bytes32"
        },
        {
          "indexed": false,
          "internalType": "bool",
          "name": "callSuccess",
          "type": "bool"
        }
      ],
      "name": "JobSuccess",
      "type": "event"
    },
    {
      "anonymous": false,
      "inputs": [
        {
          "indexed": true,
          "internalType": "address",
          "name": "previousOwner",
          "type": "address"
        },
        {
          "indexed": true,
          "internalType": "address",
          "name": "newOwner",
          "type": "address"
        }
      ],
      "name": "OwnershipTransferred",
      "type": "event"
    },
    {
      "anonymous": false,
      "inputs": [
        {
          "indexed": true,
          "internalType": "address",
          "name": "implementation",
          "type": "address"
        }
      ],
      "name": "Upgraded",
      "type": "event"
    },
    {
      "anonymous": false,
      "inputs": [
        {
          "indexed": true,
          "internalType": "address",
          "name": "originSender",
          "type": "address"
        },
        {
          "indexed": false,
          "internalType": "uint32",
          "name": "origin",
          "type": "uint32"
        },
        {
          "indexed": false,
          "internalType": "address",
          "name": "asset",
          "type": "address"
        },
        {
          "indexed": false,
          "internalType": "uint256",
          "name": "amount",
          "type": "uint256"
        },
        {
          "indexed": false,
          "internalType": "bytes32",
          "name": "transferId",
          "type": "bytes32"
        },
        {
          "indexed": false,
          "internalType": "uint256",
          "name": "receiveTimestamp",
          "type": "uint256"
        },
        {
          "indexed": false,
          "internalType": "address",
          "name": "senderAccount",
          "type": "address"
        },
        {
          "indexed": false,
          "internalType": "address",
          "name": "receiverAccount",
          "type": "address"
        }
      ],
      "name": "XReceiveData",
      "type": "event"
    },
    {
      "anonymous": false,
      "inputs": [
        {
          "indexed": true,
          "internalType": "address",
          "name": "sender",
          "type": "address"
        },
        {
          "indexed": true,
          "internalType": "address",
          "name": "receiver",
          "type": "address"
        },
        {
          "indexed": true,
          "internalType": "address",
          "name": "fromToken",
          "type": "address"
        },
        {
          "indexed": false,
          "internalType": "address",
          "name": "toToken",
          "type": "address"
        },
        {
          "indexed": false,
          "internalType": "address",
          "name": "destinationContract",
          "type": "address"
        },
        {
          "indexed": false,
          "internalType": "uint256",
          "name": "amount",
          "type": "uint256"
        },
        {
          "indexed": false,
          "internalType": "uint256",
          "name": "startTime",
          "type": "uint256"
        },
        {
          "indexed": false,
          "internalType": "uint256",
          "name": "relayerFeeInTransactingAsset",
          "type": "uint256"
        },
        {
          "indexed": false,
          "internalType": "uint32",
          "name": "destinationDomain",
          "type": "uint32"
        }
      ],
      "name": "XTransferData",
      "type": "event"
    },
    {
      "stateMutability": "payable",
      "type": "fallback"
    },
    {
      "inputs": [
        {
          "internalType": "address",
          "name": "_automate",
          "type": "address"
        },
        {
          "internalType": "address",
          "name": "_fundsOwner",
          "type": "address"
        }
      ],
      "name": "ATC__initialize",
      "outputs": [],
      "stateMutability": "nonpayable",
      "type": "function"
    },
    {
      "inputs": [],
      "name": "FEES",
      "outputs": [
        {
          "internalType": "uint256",
          "name": "",
          "type": "uint256"
        }
      ],
      "stateMutability": "view",
      "type": "function"
    },
    {
      "inputs": [],
      "name": "WETH",
      "outputs": [
        {
          "internalType": "address",
          "name": "",
          "type": "address"
        }
      ],
      "stateMutability": "view",
      "type": "function"
    },
    {
      "inputs": [
        {
          "internalType": "address",
          "name": "_automate",
          "type": "address"
        },
        {
          "internalType": "address",
          "name": "_taskCreator",
          "type": "address"
        }
      ],
      "name": "__initialize",
      "outputs": [],
      "stateMutability": "nonpayable",
      "type": "function"
    },
    {
      "inputs": [
        {
          "internalType": "bytes32",
          "name": "_jobId",
          "type": "bytes32"
        }
      ],
      "name": "_cancelJob",
      "outputs": [],
      "stateMutability": "nonpayable",
      "type": "function"
    },
    {
      "inputs": [
        {
          "internalType": "address[]",
          "name": "_to",
          "type": "address[]"
        },
        {
          "internalType": "uint256[]",
          "name": "_amount",
          "type": "uint256[]"
        },
        {
          "internalType": "address[]",
          "name": "_fromToken",
          "type": "address[]"
        },
        {
          "internalType": "address[]",
          "name": "_toToken",
          "type": "address[]"
        },
        {
          "internalType": "uint256[]",
          "name": "_toChain",
          "type": "uint256[]"
        },
        {
          "internalType": "uint32[]",
          "name": "_destinationDomain",
          "type": "uint32[]"
        },
        {
          "internalType": "address[]",
          "name": "_destinationContract",
          "type": "address[]"
        },
        {
          "internalType": "uint256[]",
          "name": "_cycles",
          "type": "uint256[]"
        },
        {
          "internalType": "uint256[]",
          "name": "_startTime",
          "type": "uint256[]"
        },
        {
          "internalType": "uint256[]",
          "name": "_interval",
          "type": "uint256[]"
        },
        {
          "internalType": "bool",
          "name": "_isForwardPaying",
          "type": "bool"
        }
      ],
      "name": "_createMultipleTimeAutomate",
      "outputs": [],
      "stateMutability": "nonpayable",
      "type": "function"
    },
    {
      "inputs": [
        {
          "internalType": "address",
          "name": "_to",
          "type": "address"
        },
        {
          "internalType": "uint256",
          "name": "_amount",
          "type": "uint256"
        },
        {
          "internalType": "address",
          "name": "_fromToken",
          "type": "address"
        },
        {
          "internalType": "address",
          "name": "_toToken",
          "type": "address"
        },
        {
          "internalType": "uint256",
          "name": "_toChain",
          "type": "uint256"
        },
        {
          "internalType": "uint32",
          "name": "_destinationDomain",
          "type": "uint32"
        },
        {
          "internalType": "address",
          "name": "_destinationContract",
          "type": "address"
        },
        {
          "internalType": "uint256",
          "name": "_cycles",
          "type": "uint256"
        },
        {
          "internalType": "uint256",
          "name": "_startTime",
          "type": "uint256"
        },
        {
          "internalType": "uint256",
          "name": "_interval",
          "type": "uint256"
        },
        {
          "internalType": "bool",
          "name": "_isForwardPaying",
          "type": "bool"
        }
      ],
      "name": "_createTimeAutomate",
      "outputs": [],
      "stateMutability": "nonpayable",
      "type": "function"
    },
    {
      "inputs": [
        {
          "internalType": "bytes32",
          "name": "",
          "type": "bytes32"
        }
      ],
      "name": "_createdJobs",
      "outputs": [
        {
          "internalType": "address",
          "name": "_user",
          "type": "address"
        },
        {
          "internalType": "uint256",
          "name": "_totalCycles",
          "type": "uint256"
        },
        {
          "internalType": "uint256",
          "name": "_executedCycles",
          "type": "uint256"
        },
        {
          "internalType": "bytes32",
          "name": "_gelatoTaskID",
          "type": "bytes32"
        }
      ],
      "stateMutability": "view",
      "type": "function"
    },
    {
      "inputs": [
        {
          "internalType": "bytes32",
          "name": "_gelatoTaskID",
          "type": "bytes32"
        }
      ],
      "name": "_forceCancelGelato",
      "outputs": [],
      "stateMutability": "nonpayable",
      "type": "function"
    },
    {
      "inputs": [
        {
          "internalType": "address",
          "name": "_from",
          "type": "address"
        },
        {
          "internalType": "address",
          "name": "_to",
          "type": "address"
        },
        {
          "internalType": "uint256",
          "name": "_amount",
          "type": "uint256"
        },
        {
          "internalType": "address",
          "name": "_fromToken",
          "type": "address"
        },
        {
          "internalType": "address",
          "name": "_toToken",
          "type": "address"
        },
        {
          "internalType": "uint256",
          "name": "_toChain",
          "type": "uint256"
        },
        {
          "internalType": "uint32",
          "name": "_destinationDomain",
          "type": "uint32"
        },
        {
          "internalType": "address",
          "name": "_destinationContract",
          "type": "address"
        },
        {
          "internalType": "uint256",
          "name": "_cycles",
          "type": "uint256"
        },
        {
          "internalType": "uint256",
          "name": "_startTime",
          "type": "uint256"
        },
        {
          "internalType": "uint256",
          "name": "_interval",
          "type": "uint256"
        }
      ],
      "name": "_getAutomateJobId",
      "outputs": [
        {
          "internalType": "bytes32",
          "name": "",
          "type": "bytes32"
        }
      ],
      "stateMutability": "pure",
      "type": "function"
    },
    {
      "inputs": [
        {
          "internalType": "address",
          "name": "_from",
          "type": "address"
        },
        {
          "internalType": "address",
          "name": "_to",
          "type": "address"
        },
        {
          "internalType": "uint256",
          "name": "_amount",
          "type": "uint256"
        },
        {
          "internalType": "address",
          "name": "_fromToken",
          "type": "address"
        },
        {
          "internalType": "address",
          "name": "_toToken",
          "type": "address"
        },
        {
          "internalType": "uint256",
          "name": "_toChain",
          "type": "uint256"
        },
        {
          "internalType": "uint32",
          "name": "_destinationDomain",
          "type": "uint32"
        },
        {
          "internalType": "address",
          "name": "_destinationContract",
          "type": "address"
        },
        {
          "internalType": "uint256",
          "name": "_cycles",
          "type": "uint256"
        },
        {
          "internalType": "uint256",
          "name": "_startTime",
          "type": "uint256"
        },
        {
          "internalType": "uint256",
          "name": "_interval",
          "type": "uint256"
        },
        {
          "internalType": "bool",
          "name": "_isForwardPaying",
          "type": "bool"
        }
      ],
      "name": "_getWeb3FunctionHash",
      "outputs": [
        {
          "internalType": "bytes",
          "name": "",
          "type": "bytes"
        }
      ],
      "stateMutability": "view",
      "type": "function"
    },
    {
      "inputs": [
        {
          "internalType": "address",
          "name": "_fromAsset",
          "type": "address"
        },
        {
          "internalType": "address",
          "name": "_toAsset",
          "type": "address"
        },
        {
          "internalType": "uint256",
          "name": "_amountIn",
          "type": "uint256"
        },
        {
          "internalType": "address",
          "name": "_swapper",
          "type": "address"
        },
        {
          "internalType": "bytes",
          "name": "_swapData",
          "type": "bytes"
        }
      ],
      "name": "_setupAndSwap",
      "outputs": [
        {
          "internalType": "uint256",
          "name": "amountOut",
          "type": "uint256"
        }
      ],
      "stateMutability": "nonpayable",
      "type": "function"
    },
    {
      "inputs": [
        {
          "internalType": "address",
          "name": "_from",
          "type": "address"
        },
        {
          "internalType": "address",
          "name": "_to",
          "type": "address"
        },
        {
          "internalType": "uint256",
          "name": "_amount",
          "type": "uint256"
        },
        {
          "internalType": "address",
          "name": "_fromToken",
          "type": "address"
        },
        {
          "internalType": "address",
          "name": "_toToken",
          "type": "address"
        },
        {
          "internalType": "uint256",
          "name": "_toChain",
          "type": "uint256"
        },
        {
          "internalType": "uint32",
          "name": "_destinationDomain",
          "type": "uint32"
        },
        {
          "internalType": "address",
          "name": "_destinationContract",
          "type": "address"
        },
        {
          "internalType": "uint256",
          "name": "_cycles",
          "type": "uint256"
        },
        {
          "internalType": "uint256",
          "name": "_startTime",
          "type": "uint256"
        },
        {
          "internalType": "uint256",
          "name": "_interval",
          "type": "uint256"
        },
        {
          "internalType": "uint256",
          "name": "_relayerFeeInTransactingAsset",
          "type": "uint256"
        },
        {
          "internalType": "bool",
          "name": "_isForwardPaying",
          "type": "bool"
        }
      ],
      "name": "_timeAutomateCron",
      "outputs": [],
      "stateMutability": "nonpayable",
      "type": "function"
    },
    {
      "inputs": [
        {
          "internalType": "enum AutoPay.Option",
          "name": "",
          "type": "uint8"
        }
      ],
      "name": "_web3functionHashes",
      "outputs": [
        {
          "internalType": "string",
          "name": "",
          "type": "string"
        }
      ],
      "stateMutability": "view",
      "type": "function"
    },
    {
      "inputs": [
        {
          "internalType": "uint8",
          "name": "",
          "type": "uint8"
        }
      ],
      "name": "_web3functionHashesNew",
      "outputs": [
        {
          "internalType": "string",
          "name": "",
          "type": "string"
        }
      ],
      "stateMutability": "view",
      "type": "function"
    },
    {
      "inputs": [],
      "name": "automate",
      "outputs": [
        {
          "internalType": "contract IAutomate",
          "name": "",
          "type": "address"
        }
      ],
      "stateMutability": "view",
      "type": "function"
    },
    {
      "inputs": [],
      "name": "checkBalance",
      "outputs": [
        {
          "internalType": "uint256",
          "name": "",
          "type": "uint256"
        }
      ],
      "stateMutability": "view",
      "type": "function"
    },
    {
      "inputs": [],
      "name": "connext",
      "outputs": [
        {
          "internalType": "contract IConnext",
          "name": "",
          "type": "address"
        }
      ],
      "stateMutability": "view",
      "type": "function"
    },
    {
      "inputs": [],
      "name": "dedicatedMsgSender",
      "outputs": [
        {
          "internalType": "address",
          "name": "",
          "type": "address"
        }
      ],
      "stateMutability": "view",
      "type": "function"
    },
    {
      "inputs": [
        {
          "internalType": "address",
          "name": "_swapper",
          "type": "address"
        },
        {
          "internalType": "bytes",
          "name": "swapData",
          "type": "bytes"
        }
      ],
      "name": "directSwapperCall",
      "outputs": [
        {
          "internalType": "uint256",
          "name": "amountOut",
          "type": "uint256"
        }
      ],
      "stateMutability": "payable",
      "type": "function"
    },
    {
      "inputs": [],
      "name": "fundsOwner",
      "outputs": [
        {
          "internalType": "address",
          "name": "",
          "type": "address"
        }
      ],
      "stateMutability": "view",
      "type": "function"
    },
    {
      "inputs": [],
      "name": "gelato1Balance",
      "outputs": [
        {
          "internalType": "contract IGelato1Balance",
          "name": "",
          "type": "address"
        }
      ],
      "stateMutability": "view",
      "type": "function"
    },
    {
      "inputs": [
        {
          "internalType": "address",
          "name": "_address",
          "type": "address"
        }
      ],
      "name": "getBalanceOfToken",
      "outputs": [
        {
          "internalType": "uint256",
          "name": "",
          "type": "uint256"
        }
      ],
      "stateMutability": "view",
      "type": "function"
    },
    {
      "inputs": [
        {
          "internalType": "contract IConnext",
          "name": "_connext",
          "type": "address"
        },
        {
          "internalType": "contract ISwapRouter",
          "name": "_swapRouter",
          "type": "address"
        },
        {
          "internalType": "address payable",
          "name": "_ops",
          "type": "address"
        }
      ],
      "name": "initialize",
      "outputs": [],
      "stateMutability": "nonpayable",
      "type": "function"
    },
    {
      "inputs": [],
      "name": "owner",
      "outputs": [
        {
          "internalType": "address",
          "name": "",
          "type": "address"
        }
      ],
      "stateMutability": "view",
      "type": "function"
    },
    {
      "inputs": [],
      "name": "proxiableUUID",
      "outputs": [
        {
          "internalType": "bytes32",
          "name": "",
          "type": "bytes32"
        }
      ],
      "stateMutability": "view",
      "type": "function"
    },
    {
      "inputs": [],
      "name": "renounceOwnership",
      "outputs": [],
      "stateMutability": "nonpayable",
      "type": "function"
    },
    {
      "inputs": [
        {
          "internalType": "address",
          "name": "_fromToken",
          "type": "address"
        },
        {
          "internalType": "address",
          "name": "_toToken",
          "type": "address"
        },
        {
          "internalType": "uint256",
          "name": "amountIn",
          "type": "uint256"
        }
      ],
      "name": "swapExactInputSingle",
      "outputs": [
        {
          "internalType": "uint256",
          "name": "amountOut",
          "type": "uint256"
        }
      ],
      "stateMutability": "nonpayable",
      "type": "function"
    },
    {
      "inputs": [],
      "name": "swapRouter",
      "outputs": [
        {
          "internalType": "contract ISwapRouter",
          "name": "",
          "type": "address"
        }
      ],
      "stateMutability": "view",
      "type": "function"
    },
    {
      "inputs": [
        {
          "internalType": "address",
          "name": "newOwner",
          "type": "address"
        }
      ],
      "name": "transferOwnership",
      "outputs": [],
      "stateMutability": "nonpayable",
      "type": "function"
    },
    {
      "inputs": [],
      "name": "treasury",
      "outputs": [
        {
          "internalType": "contract ITreasury",
          "name": "",
          "type": "address"
        }
      ],
      "stateMutability": "view",
      "type": "function"
    },
    {
      "inputs": [
        {
          "internalType": "address",
          "name": "_treasury",
          "type": "address"
        }
      ],
      "name": "updateTreasury",
      "outputs": [],
      "stateMutability": "nonpayable",
      "type": "function"
    },
    {
      "inputs": [
        {
          "internalType": "enum AutoPay.Option[]",
          "name": "_types",
          "type": "uint8[]"
        },
        {
          "internalType": "string[]",
          "name": "_hashes",
          "type": "string[]"
        }
      ],
      "name": "updateWeb3functionHashes",
      "outputs": [],
      "stateMutability": "nonpayable",
      "type": "function"
    },
    {
      "inputs": [
        {
          "internalType": "address",
          "name": "newImplementation",
          "type": "address"
        }
      ],
      "name": "upgradeTo",
      "outputs": [],
      "stateMutability": "nonpayable",
      "type": "function"
    },
    {
      "inputs": [
        {
          "internalType": "address",
          "name": "newImplementation",
          "type": "address"
        },
        {
          "internalType": "bytes",
          "name": "data",
          "type": "bytes"
        }
      ],
      "name": "upgradeToAndCall",
      "outputs": [],
      "stateMutability": "payable",
      "type": "function"
    },
    {
      "inputs": [
        {
          "internalType": "address",
          "name": "",
          "type": "address"
        },
        {
          "internalType": "address",
          "name": "",
          "type": "address"
        }
      ],
      "name": "userBalance",
      "outputs": [
        {
          "internalType": "uint256",
          "name": "",
          "type": "uint256"
        }
      ],
      "stateMutability": "view",
      "type": "function"
    },
    {
      "inputs": [
        {
          "internalType": "address",
          "name": "from",
          "type": "address"
        },
        {
          "internalType": "address",
          "name": "recipient",
          "type": "address"
        },
        {
          "internalType": "address",
          "name": "destinationContract",
          "type": "address"
        },
        {
          "internalType": "uint32",
          "name": "destinationDomain",
          "type": "uint32"
        },
        {
          "internalType": "address",
          "name": "fromToken",
          "type": "address"
        },
        {
          "internalType": "address",
          "name": "toToken",
          "type": "address"
        },
        {
          "internalType": "uint256",
          "name": "amount",
          "type": "uint256"
        },
        {
          "internalType": "uint256",
          "name": "slippage",
          "type": "uint256"
        },
        {
          "internalType": "uint256",
          "name": "relayerFeeInTransactingAsset",
          "type": "uint256"
        }
      ],
      "name": "xTransfer",
      "outputs": [],
      "stateMutability": "nonpayable",
      "type": "function"
    },
    {
      "stateMutability": "payable",
      "type": "receive"
    }
  ],
  "bytecode": "0x60a08060405234620000e157306080526000549060ff8260081c166200008f575060ff8082160362000053575b6040516140ea9081620000e782396080518181816123cf015281816124cf015261277d0152f35b60ff90811916176000557f7f26b83ff96e1f2b6a682f133852f6798a09c465da95921460cefb3847402498602060405160ff8152a1386200002c565b62461bcd60e51b815260206004820152602760248201527f496e697469616c697a61626c653a20636f6e747261637420697320696e697469604482015266616c697a696e6760c81b6064820152608490fd5b600080fdfe61036080604052600436101561001b575b50361561001957005b005b60006102005260003560e01c908163049aacfe146129765750806313a1169c1461295257806328f150eb146129265780633659cfe61461275857806346ee3c591461272c5780634f1ef2861461248057806352d1902d146123b957806357fb1d671461238757806361d027b31461235b57806362a4b0a91461230357806369d13cd9146122ca5780636c3f9a5b14611eab578063715018a614611e46578063717a8dd714611ddf5780637e2704cc14611dc35780637f51bb1f14611d8057806383786f8c14611cfa5780638b7b23ee14611cd95780638da5cb5b14611cad578063a0d7010214611c6e578063a8f383f514611c14578063ad5c464814611be2578063b166a31e14611383578063b1e7ed5814611156578063b6c8c5bd146110dd578063baee130a146110a2578063c0c53b8b14610d16578063c31c9c0714610cea578063c6fd398d14610c5b578063c71daccb14610c3c578063c736d03814610924578063caf9e191146106ff578063ceb92012146106d0578063d8524c6f14610496578063de4b054814610467578063f19f1a9b146102605763f2fde38b146101c55738610010565b34610259576020366003190112610259576101de61299a565b6101e6612cc7565b6001600160a01b03811615610205576101fe90612d1f565b6102005180f35b60405162461bcd60e51b815260206004820152602660248201527f4f776e61626c653a206e6577206f776e657220697320746865207a65726f206160448201526564647265737360d01b6064820152608490fd5b6102005180fd5b346102595760a03660031901126102595761027961299a565b6102816129b0565b6044359061028d6129c6565b906084356001600160401b038111610259576102ad903690600401612c9a565b9490936001600160a01b03808316938116841461045857841690811561041d57604051636eb1769f60e11b81523060048201526001600160a01b03861660248201526020948590829060449082905afa90811561040f5761020051916103e2575b501061032d575b5050509161032591602093613139565b604051908152f35b6000918291826040518681019263095ea7b360e01b84526024820152811960448201526044815261035d81612a63565b51925af1610369612eba565b816103a5575b501561037c578080610315565b6064906040519062461bcd60e51b825260048201526002602482015261534160f01b6044820152fd5b809150518281159182156103be575b505090508561036f565b83809293500103126103dd57816103d59101613013565b8082876103b4565b600080fd5b90508481813d8311610408575b6103f98183612ab4565b810103126103dd57518861030e565b503d6103ef565b6040513d61020051823e3d90fd5b60405162461bcd60e51b8152602060048201526013602482015272537761703a207a65726f20737761707065722160681b6044820152606490fd5b50935050505060209150610325565b346102595761020051806003193601126104935760ce546040516001600160a01b039091168152602090f35b80fd5b34610259576040366003190112610259576104af61299a565b6104b76129b0565b906104d460ff610200515460081c166104cf81612f83565b612f83565b60c980546001600160a01b039283166001600160a01b0319918216811790925560405163573ea57560e01b8152909391906020908181600481865afa801561040f5785916102005191610696575b50928291602494168760cb54161760cb556040519384809263cd3d4fb960e01b8252600260048301525afa801561040f578492610200519161065d575b508190600460405180958193632e8743fd60e21b8352165afa801561040f5784926102005191610623575b5060409060248251809581936337b6269f60e21b8352306004840152165afa90811561040f57849261020051926105d9575b5050168360ca54161760ca55169060cc54161760cc556102005180f35b915091506040813d60401161061b575b816105f660409383612ab4565b8101031261025957610613849261060c83613eef565b9201613013565b5085806105bc565b3d91506105e9565b809350828092503d8311610656575b61063c8183612ab4565b810103126102595760406106508593613eef565b9061058a565b503d610632565b809350828092503d831161068f575b6106768183612ab4565b8101031261025957806106898593613eef565b9061055f565b503d61066c565b809250838092503d83116106c9575b6106af8183612ab4565b810103126102595751848116810361025957849082610522565b503d6106a5565b346102595760603660031901126102595760206103256106ee61299a565b6106f66129b0565b60443591613340565b346102595760403660031901126102595761071861299a565b6107206129b0565b9061073460ff610200515460081c16612f83565b60c980546001600160a01b039283166001600160a01b0319918216811790925560405163573ea57560e01b8152909360209290918381600481855afa91821561040f5785859261020051946108e6575b50602493168760cb54161760cb556040519283809263cd3d4fb960e01b8252600260048301525afa90811561040f578491849161020051916108af575b50600460405180948193632e8743fd60e21b8352165afa90811561040f5784906102005192610872575b50604080516337b6269f60e21b815293821660048501529183916024918391165afa91821561040f576102005192610831575b5050169060ca54161760ca556102005180f35b9091506040823d60401161086a575b8161084d60409383612ab4565b81010312610259576108629061060c83613eef565b50838061081e565b3d9150610840565b809250848092503d83116108a8575b61088b8183612ab4565b81010312610259578360246108a1604093613eef565b92506107eb565b503d610881565b92505081813d83116108df575b6108c68183612ab4565b8101031261025957826108d98592613eef565b876107c1565b503d6108bc565b92809294508391503d831161091d575b6109008183612ab4565b810103126102595751848116810361025957908390856024610784565b503d6108f6565b34610259576101203660031901126102595761093e61299a565b6109466129b0565b9061094f612a08565b6064359263ffffffff841684036103dd576109686129dc565b9360a435926001600160a01b03841684036103dd576001600160a01b0386169560009073fd2ab41e083c75085807c4a65c0a14fdd93d55a8198801610c28575b5086610b6a575b610104358110610b4757604080516001600160a01b038881166020838101919091528782169383019390935287166060808301919091528152610a81926109f582612a63565b60ce546001600160a01b031690610a10906101043590613006565b9460006040518096819582946393f18ac560e01b845263ffffffff8c16600485015260018060a01b0316998a602485015273fd2ab41e083c75085807c4a65c0a14fdd93d55a96044850152336064850152608484015260e43560a484015261010060c4840152610104830190612c07565b6101043560e483015203925af18015610b3b57610b0c575b50604080516001600160a01b039586168152602081019290925260c4359082015242606082015261010435608082015263ffffffff9190911660a082015290821692909116907f5add7a884c3fcd9dacaee558d72ece5037a4682a29b4e07a9ead795c5f26e0549060c090a46102005180f35b602090819492943d8311610b34575b610b258183612ab4565b810103126103dd579186610a99565b503d610b1b565b6040513d6000823e3d90fd5b60405163c4225e5760e01b815260c4356004820152610104356024820152604490fd5b60ce54604051636eb1769f60e11b81523060048201526001600160a01b039091166024820181905260208260448173fd2ab41e083c75085807c4a65c0a14fdd93d55a95afa918215610b3b57600092610bf5575b506101043591610bce8385612fe3565b11610bdb575b50506109af565b610be8610bee9284612fe3565b90613020565b8780610bd4565b9091506020813d8211610c20575b81610c1060209383612ab4565b810103126103dd57519089610bbe565b3d9150610c03565b610c36915060c43590613216565b876109a8565b3461025957610200518060031936011261049357602047604051908152f35b346102595761018036600319011261025957610c7561299a565b610c7d6129b0565b610c856129c6565b91610c8e6129dc565b610c96612c87565b93610c9f6129f2565b92610164359384151585036103dd57610ce696610cd29661014435956101243595610104359560a43593604435916134c9565b604051918291602083526020830190612c07565b0390f35b346102595761020051806003193601126104935760cf546040516001600160a01b039091168152602090f35b34610259576060366003190112610259576001600160a01b0360043581811690819003610259576024359180831680930361025957604435918183168093036102595761020051549360ff8560081c161594858096611095575b801561107e575b15611022576102005160ff198216600117815560ff9187611011575b505460081c1691610da383612f83565b610dac83612f83565b6001600160601b0360a01b90858260c954161760c9556040519563573ea57560e01b87526020968781600481855afa91821561040f578789926102005194610fd3575b50602493168560cb54161760cb556040519283809263cd3d4fb960e01b8252600260048301525afa90811561040f57869188916102005191610f9c575b50600460405180948193632e8743fd60e21b8352165afa801561040f5786916102005191610f62575b5060409060248251809981936337b6269f60e21b8352306004840152165afa801561040f576102005190610f21575b610ebd9650168260ca54161760ca55338260cc54161760cc558160ce54161760ce5560cf54161760cf5561271060cd556104cf81612f83565b610ec633612d1f565b610200515491610edb60ff8460081c16612f83565b610ee6576102005180f35b7f7f26b83ff96e1f2b6a682f133852f6798a09c465da95921460cefb38474024989161ff001916610200515560405160018152a180806101fe565b506040863d604011610f5a575b81610f3b60409383612ab4565b810103126102595785610f548861060c610ebd99613eef565b50610e84565b3d9150610f2e565b809250888092503d8311610f95575b610f7b8183612ab4565b81010312610259576040610f8f8792613eef565b90610e55565b503d610f71565b92505081813d8311610fcc575b610fb38183612ab4565b810103126102595786610fc68792613eef565b8a610e2c565b503d610fa9565b92809294508391503d831161100a575b610fed8183612ab4565b810103126102595751868116810361025957908790876024610def565b503d610fe3565b61ffff191661010117815587610d93565b60405162461bcd60e51b815260206004820152602e60248201527f496e697469616c697a61626c653a20636f6e747261637420697320616c72656160448201526d191e481a5b9a5d1a585b1a5e995960921b6064820152608490fd5b50303b158015610d775750600160ff821614610d77565b50600160ff821610610d70565b346102595760203660031901126102595760043560ff811680910361025957610200515260d4602052610ce6610cd260406102005120612b61565b3461025957610160366003190112610259576110f761299a565b6110ff612a08565b906111086129c6565b9060a4359163ffffffff831683036103dd5760c435936001600160a01b03851685036103dd576101fe9461113a612c77565b946101243594610104359460e4359460843592602435906138e9565b34610259576040366003190112610259576004356001600160401b03811161025957611186903690600401612c47565b906024356001600160401b038111610259576111a6903690600401612c47565b90916111b0612cc7565b61020051935b8085106111c4576102005180f35b82851015611369578460051b84013594601e1985360301861215610259576001600160401b03868601351161025957858501353603602087870101136102595761120f818385613ecb565b3560048110156102595760005260d360205260406000206112308154612b27565b601f811161131b575b506102005196601f818801351160011461129a5761128193949596976102005190828a013561128a575b508189013560011b91600019908a013560031b1c1916179055613ebc565b939291906111b6565b60209150828a0101013589611263565b818852610200516020812088830135601f19169990915b8a81106112ff57508899836112819798999a0135116112dd575b5050600190880135811b019055613ebc565b602060001960f8858d013560031b161c1991848c0101013516905588806112cb565b90916020600181928286888f01010135815501930191016112b1565b81610200515260206102005120601f898901350160051c810160208a8a013510611362575b601f830160051c82018110611356575050611239565b60008155600101611340565b5080611340565b634e487b7160e01b61020051526032600452602461020051fd5b34610259576101a03660031901126102595761139d61299a565b6113a56129b0565b6113ad6129c6565b6113b56129dc565b916113be612c87565b916113c76129f2565b9261018435151561018435036102595760ca546001600160a01b03163303611b9d575a604051636eb1769f60e11b81526001600160a01b0388166004820152306024820152909390602081806044810103816001600160a01b0388165afa90811561040f576102005191611b6b575b5060443511611ab3576040516323b872dd60e01b602082019081526001600160a01b0389166024830152306044808401919091523560648301529061148881608481015b03601f198101835282612ab4565b61020051918291519082875af161149d612eba565b81611a7c575b5015611a5157604435954660a435148080611a3b575b1561176057506114fe93949596506114d46044358287613340565b966114e0888484613f03565b610144359361012435936101043593888c60a4359360443591613fbd565b9384610200515260d0602052604061020051209161154f61153a611533600286019661152a8854613ebc565b88555a90613006565b3a906138d6565b606461154860cd54836138d6565b0490612fe3565b60d254604051638da5cb5b60e01b8152919391906001600160a01b0316602082600481845afa91821561040f576102005192611724575b506101843515611680575060d2546001600160a01b031692833b156102595760405163c1461d5760e01b8152610200516001600160a01b0393841660048301529190921660248301526044820185905290928390606490829087905af191821561040f57879261165e575b5060807f7b9cedde1d63582cc62dddb84ed8661afec5ba349d66ad2553af2eff79a9331b916001965b549760405195898752602087015260408601526101843515156060860152868060a01b031693a301541461164f576102005180f35b6116589061341d565b806101fe565b61166c919394959250612a1e565b6102005180610493579186919493926115f1565b9195925050803b1561025957604051631bc64ab360e21b815273eeeeeeeeeeeeeeeeeeeeeeeeeeeeeeeeeeeeeeee6004820152602481018490526001600160a01b03861660448201526102005190918290606490829084905af1801561040f5760019588937f7b9cedde1d63582cc62dddb84ed8661afec5ba349d66ad2553af2eff79a9331b93608093611715575b5061161a565b61171e90612a1e565b8a61170f565b9091506020813d602011611758575b8161174060209383612ab4565b810103126102595761175190613eef565b9089611586565b3d9150611733565b94959394611a25576102005173fd2ab41e083c75085807c4a65c0a14fdd93d55a8196001600160a01b03871601611a13575b6001600160a01b038616611958575b61016435811061193657604080516001600160a01b038b81166020838101919091528682169383019390935284166060808301919091528152611874926117e782612a63565b60ce546001600160a01b031690611802906101643590613006565b6040516393f18ac560e01b815263ffffffff891660048201526001600160a01b038a16602482015273fd2ab41e083c75085807c4a65c0a14fdd93d55a96044820152336064820152608481019190915261012c60a482015261010060c482015293849283918291610104830190612c07565b6101643560e4830152039161020051905af1801561040f5761190b575b50604080516001600160a01b03838116825280871660208301526044359282019290925242606082015261016435608082015263ffffffff851660a08201526114fe959187811691858216918c16907f5add7a884c3fcd9dacaee558d72ece5037a4682a29b4e07a9ead795c5f26e0549060c090a46114e0565b602090813d831161192f575b6119218183612ab4565b810103126102595788611891565b503d611917565b60405163c4225e5760e01b815260448035600483015261016435602483015290fd5b60ce54604051636eb1769f60e11b81523060048201526001600160a01b039091166024820181905260208260448173fd2ab41e083c75085807c4a65c0a14fdd93d55a95afa91821561040f5761020051926119df575b5061016435916119be8385612fe3565b116119cb575b50506117a1565b610be86119d89284612fe3565b89806119c4565b9091506020813d602011611a0b575b816119fb60209383612ab4565b810103126102595751908b6119ae565b3d91506119ee565b50611a2060443586613216565b611792565b6114fe93611a366044358488613f03565b6114e0565b506001600160a01b0385811690831614156114b9565b60405162461bcd60e51b815260206004820152600360248201526229aa2360e91b6044820152606490fd5b8051801592508215611a91575b5050886114a3565b8192509060209181010312610259576020611aac9101613013565b8880611a89565b604051636eb1769f60e11b81526001600160a01b03881660048201523060248201528390602081806044810103816001600160a01b0386165afa90811561040f576102005191611b39575b5060405163059d9d6d60e31b815260048101919091526044803560248301526001600160a01b039290921691810191909152606490fd5b0390fd5b90506020813d602011611b63575b81611b5460209383612ab4565b81010312610259575182611afe565b3d9150611b47565b90506020813d602011611b95575b81611b8660209383612ab4565b81010312610259575188611436565b3d9150611b79565b60405162461bcd60e51b815260206004820152601960248201527f4f6e6c7920646564696361746564206d73672e73656e646572000000000000006044820152606490fd5b3461025957610200518060031936011261049357602060405173fd2ab41e083c75085807c4a65c0a14fdd93d55a98152f35b3461025957602036600319011261025957600435610200515260d060205260806040610200512060018060a01b03815416906001810154906003600282015491015491604051938452602084015260408301526060820152f35b604036600319011261025957611c8261299a565b6024356001600160401b03811161025957602091611ca7610325923690600401612c9a565b91613139565b34610259576102005180600319360112610493576033546040516001600160a01b039091168152602090f35b3461025957610200518060031936011261049357602060cd54604051908152f35b3461025957602080600319360112610259576024816001600160a01b03611d1f61299a565b16604051928380926370a0823160e01b82523060048301525afa90811561040f576102005191611d53575b50604051908152f35b90508181813d8311611d79575b611d6a8183612ab4565b81010312610259575182611d4a565b503d611d60565b3461025957602036600319011261025957611d9961299a565b611da1612cc7565b60018060a01b03166001600160601b0360a01b60d254161760d2556102005180f35b34610259576020366003190112610259576101fe60043561341d565b3461025957610160366003190112610259576020610325611dfe61299a565b611e066129b0565b90611e0f6129c6565b90611e186129dc565b92611e21612c87565b611e296129f2565b9161014435956101243595610104359560a4359360443591613fbd565b3461025957610200518060031936011261049357611e62612cc7565b603380546001600160a01b03198116909155610200519081906001600160a01b03167f8be0079c531659141344cd1fd0a4f28419497f9722a3daafe3b4186f6b6457e08280a380f35b3461025957610160366003190112610259576004356001600160401b03811161025957611edc903690600401612c47565b6080526024356001600160401b03811161025957611efe903690600401612c47565b61024052610100526044356001600160401b03811161025957611f25903690600401612c47565b61028052610120526064356001600160401b03811161025957611f4c903690600401612c47565b6102e052610300526084356001600160401b03811161025957611f73903690600401612c47565b6101c0526101805260a4356001600160401b03811161025957611f9a903690600401612c47565b60a0526101405260c4356001600160401b03811161025957611fc0903690600401612c47565b6102a0526102605260e4356001600160401b03811161025957611fe7903690600401612c47565b6102c05260c0526001600160401b0361010435116102595761200f3661010435600401612c47565b610220526101e0526001600160401b036101243511610259576120383661012435600401612c47565b6101a05260e052612047612c77565b61016052610200515b6080518110156101fe5760018060a01b0361207a612075836102805161012051613ecb565b613edb565b604051636eb1769f60e11b81523360048201523060248201529160209183916044918391165afa90811561040f576102005191612298575b506120c4826102405161010051613ecb565b35116121b2576120da6120758260805185613ecb565b906120ec816102405161010051613ecb565b3591612102612075836102805161012051613ecb565b92612117612075846102e05161030051613ecb565b91612129846101c05161018051613ecb565b359461213b8560a05161014051613ecb565b359363ffffffff85168503610259576121ad966121a895612166612075896102a05161026051613ecb565b91612177896102c05160c051613ecb565b359361218a8a610220516101e051613ecb565b359561016051986121a18c6101a05160e051613ecb565b35986138e9565b613ebc565b612050565b60018060a01b036121cd612075836102805161012051613ecb565b604051636eb1769f60e11b81523360048201523060248201529160209183916044918391165afa90811561040f576102005191612266575b50611b3561222f612075612220856102405161010051613ecb565b35946102805161012051613ecb565b60405163059d9d6d60e31b8152600481019390935260248301939093526001600160a01b0390921660448201529081906064820190565b90506020813d602011612290575b8161228160209383612ab4565b81010312610259575182612205565b3d9150612274565b90506020813d6020116122c2575b816122b360209383612ab4565b810103126102595751836120b2565b3d91506122a6565b3461025957602036600319011261025957600435600481101561025957610200515260d3602052610ce6610cd260406102005120612b61565b346102595760403660031901126102595761231c61299a565b6123246129b0565b9060018060a01b03809116610200515260d16020526102005190604082209216905260205260206040610200512054604051908152f35b346102595761020051806003193601126104935760d2546040516001600160a01b039091168152602090f35b34610259576102005180600319360112610493576020604051737506c12a824d73d9b08564d5afc22c949434755e8152f35b34610259576102005180600319360112610493577f00000000000000000000000000000000000000000000000000000000000000006001600160a01b031630036124155760206040516000805160206140958339815191528152f35b60405162461bcd60e51b815260206004820152603860248201527f555550535570677261646561626c653a206d757374206e6f742062652063616c60448201527f6c6564207468726f7567682064656c656761746563616c6c00000000000000006064820152608490fd5b60403660031901126102595761249461299a565b6024356001600160401b0381116102595736602382011215610259576124c4903690602481600401359101612af0565b906001600160a01b037f00000000000000000000000000000000000000000000000000000000000000008116906124fd30831415612d68565b61251a600080516020614095833981519152928284541614612dc9565b612522612cc7565b7f4910fdfa16fed3260ed0e7147f7cc6da11a60208b5b9406d12a635614ffd91435460ff16156125585750506101fe9150612e2a565b6040516352d1902d60e01b81526020939291831691908481600481865afa6102005191816126fd575b506125e25760405162461bcd60e51b815260048101869052602e60248201527f45524331393637557067726164653a206e657720696d706c656d656e7461746960448201526d6f6e206973206e6f74205555505360901b6064820152608490fd5b036126a6576125f082612e2a565b7fbc7cd75a20ee27fd9adebab32041f755214dbc6bffa90cc0225b39da2e5c2d3b6102005180a282511580159061269e575b61262f575b5050506101fe565b612695926040519261264084612a99565b602784527f416464726573733a206c6f772d6c6576656c2064656c65676174652063616c6c81850152660819985a5b195960ca1b60408501526102005191829181519101845af461268f612eba565b91612eea565b50808080612627565b506001612622565b60405162461bcd60e51b815260048101849052602960248201527f45524331393637557067726164653a20756e737570706f727465642070726f786044820152681a58589b195555525160ba1b6064820152608490fd5b9091508581813d8311612725575b6127158183612ab4565b8101031261025957519087612581565b503d61270b565b346102595761020051806003193601126104935760cc546040516001600160a01b039091168152602090f35b34610259576020806003193601126102595761277261299a565b6001600160a01b03917f000000000000000000000000000000000000000000000000000000000000000083166127aa30821415612d68565b6127c7600080516020614095833981519152918583541614612dc9565b6127cf612cc7565b604051936127dc85612a7e565b6102005185527f4910fdfa16fed3260ed0e7147f7cc6da11a60208b5b9406d12a635614ffd91435460ff1615612819575050506101fe9150612e2a565b83929316906040516352d1902d60e01b81528481600481865afa6102005191816128f7575b5061289f5760405162461bcd60e51b815260048101869052602e60248201527f45524331393637557067726164653a206e657720696d706c656d656e7461746960448201526d6f6e206973206e6f74205555505360901b6064820152608490fd5b036126a6576128ad82612e2a565b61020051907fbc7cd75a20ee27fd9adebab32041f755214dbc6bffa90cc0225b39da2e5c2d3b8280a2835115908115916128ef575b5061262f575050506101fe565b9050846128e2565b9091508581813d831161291f575b61290f8183612ab4565b810103126102595751908761283e565b503d612905565b346102595761020051806003193601126104935760ca546040516001600160a01b039091168152602090f35b346102595760203660031901126102595761296b612cc7565b6101fe60043561404a565b346103dd5760003660031901126103dd5760c9546001600160a01b03168152602090f35b600435906001600160a01b03821682036103dd57565b602435906001600160a01b03821682036103dd57565b606435906001600160a01b03821682036103dd57565b608435906001600160a01b03821682036103dd57565b60e435906001600160a01b03821682036103dd57565b604435906001600160a01b03821682036103dd57565b6001600160401b038111612a3157604052565b634e487b7160e01b600052604160045260246000fd5b61010081019081106001600160401b03821117612a3157604052565b608081019081106001600160401b03821117612a3157604052565b602081019081106001600160401b03821117612a3157604052565b606081019081106001600160401b03821117612a3157604052565b90601f801991011681019081106001600160401b03821117612a3157604052565b6001600160401b038111612a3157601f01601f191660200190565b929192612afc82612ad5565b91612b0a6040519384612ab4565b8294818452818301116103dd578281602093846000960137010152565b90600182811c92168015612b57575b6020831014612b4157565b634e487b7160e01b600052602260045260246000fd5b91607f1691612b36565b9060405191826000825492612b7584612b27565b908184526001948581169081600014612be45750600114612ba1575b5050612b9f92500383612ab4565b565b9093915060005260209081600020936000915b818310612bcc575050612b9f93508201013880612b91565b85548884018501529485019487945091830191612bb4565b915050612b9f94506020925060ff191682840152151560051b8201013880612b91565b919082519283825260005b848110612c33575050826000602080949584010152601f8019910116010190565b602081830181015184830182015201612c12565b9181601f840112156103dd578235916001600160401b0383116103dd576020808501948460051b0101116103dd57565b610144359081151582036103dd57565b60c4359063ffffffff821682036103dd57565b9181601f840112156103dd578235916001600160401b0383116103dd57602083818601950101116103dd57565b6033546001600160a01b03163303612cdb57565b606460405162461bcd60e51b815260206004820152602060248201527f4f776e61626c653a2063616c6c6572206973206e6f7420746865206f776e65726044820152fd5b603380546001600160a01b039283166001600160a01b0319821681179092559091167f8be0079c531659141344cd1fd0a4f28419497f9722a3daafe3b4186f6b6457e0600080a3565b15612d6f57565b60405162461bcd60e51b815260206004820152602c60248201527f46756e6374696f6e206d7573742062652063616c6c6564207468726f7567682060448201526b19195b1959d85d1958d85b1b60a21b6064820152608490fd5b15612dd057565b60405162461bcd60e51b815260206004820152602c60248201527f46756e6374696f6e206d7573742062652063616c6c6564207468726f7567682060448201526b6163746976652070726f787960a01b6064820152608490fd5b803b15612e5f5760008051602061409583398151915280546001600160a01b0319166001600160a01b03909216919091179055565b60405162461bcd60e51b815260206004820152602d60248201527f455243313936373a206e657720696d706c656d656e746174696f6e206973206e60448201526c1bdd08184818dbdb9d1c9858dd609a1b6064820152608490fd5b3d15612ee5573d90612ecb82612ad5565b91612ed96040519384612ab4565b82523d6000602084013e565b606090565b91929015612f4c5750815115612efe575090565b3b15612f075790565b60405162461bcd60e51b815260206004820152601d60248201527f416464726573733a2063616c6c20746f206e6f6e2d636f6e74726163740000006044820152606490fd5b825190915015612f5f5750805190602001fd5b60405162461bcd60e51b815260206004820152908190611b35906024830190612c07565b15612f8a57565b60405162461bcd60e51b815260206004820152602b60248201527f496e697469616c697a61626c653a20636f6e7472616374206973206e6f74206960448201526a6e697469616c697a696e6760a81b6064820152608490fd5b91908201809211612ff057565b634e487b7160e01b600052601160045260246000fd5b91908203918211612ff057565b519081151582036103dd57565b60405163095ea7b360e01b602082019081526001600160a01b039092166024820152604481019290925260009182919061305d816064810161147a565b51908273fd2ab41e083c75085807c4a65c0a14fdd93d55a95af161307f612eba565b816130b7575b501561308d57565b60405162461bcd60e51b8152602060048201526002602482015261534160f01b6044820152606490fd5b80518015925082156130cc575b505038613085565b81925090602091810103126103dd5760206130e79101613013565b38806130c4565b60405163095ea7b360e01b602082019081526001600160a01b0390931660248201526044810193909352600092839290839061312d816064810161147a565b51925af161307f612eba565b9190613146913691612af0565b9060405190604082018281106001600160401b03821117612a3157604052601882527f216469726563745377617070657243616c6c4661696c6564000000000000000060208301523447106131c2576000808460206131ae9651910134855af161268f612eba565b6020818051810103126103dd576020015190565b60405162461bcd60e51b815260206004820152602660248201527f416464726573733a20696e73756666696369656e742062616c616e636520666f6044820152651c8818d85b1b60d21b6064820152608490fd5b60cf546001600160a01b0392839290916132349083908516836130ee565b826040519161324283612a47565b1681526020810173fd2ab41e083c75085807c4a65c0a14fdd93d55a9815283604083016101f481526060840194308652608085019042825260a0860190815260c08601916000998a9889855260e08901958a8752828060cf5416996040519d8e9c8d63414bf38960e01b9052511660048d0152511660248b01525162ffffff1660448a0152511660648801525160848701525160a48601525160c4850152511660e4830152815a9361010492602095f191821561333457809261330457505090565b9091506020823d821161332c575b8161331f60209383612ab4565b8101031261049357505190565b3d9150613312565b604051903d90823e3d90fd5b60cf546001600160a01b0393849390929161335f9084908616846130ee565b836040519261336d84612a47565b16825283602083019116815283604083016101f481526060840194308652608085019042825260a0860190815260c08601916000998a9889855260e08901958a8752828060cf5416996040519d8e9c8d63414bf38960e01b9052511660048d0152511660248b01525162ffffff1660448a0152511660648801525160848701525160a48601525160c4850152511660e4830152815a9361010492602095f191821561333457809261330457505090565b60009080825260d0602052604082206040519061343982612a63565b6060600360018060a01b03835416928385526001810154602086015260028101546040860152015492019182521561349557613475905161404a565b815260d06020526003604082208281558260018201558260028201550155565b60405162461bcd60e51b815260206004820152600c60248201526b139bc81293d088119bdd5b9960a21b6044820152606490fd5b909996939a9798959194929a85866000977a184f03e93ff9f4daa797ed6e38ed64bf6a1f01000000000000000090818110156137a4575b5050600a906d04ee2d6d415b85acef810000000080821015613797575b50662386f26fc100008082101561378a575b506305f5e1008082101561377d575b5061271080821015613770575b506064811015613762575b1015613757575b600a602161356d60018a01612ad5565b9861357b6040519a8b612ab4565b60018101808b52601f199061358f90612ad5565b013660208c01378901015b60001901916f181899199a1a9b1b9c1cb0b131b232b360811b8282061a8353049081156135c957600a9061359a565b50506135eb6135e56135df6135df6004956137b3565b9d6137b3565b916137b3565b60ce5460405163617d935360e11b81529391929160209185919082906001600160a01b03165afa928315610b3b57600093613723575b5061362b306137b3565b95613635906137b3565b966040519d8e809e602082016101e09052610200820161365491612c07565b90601f1981830301906040015261366a91612c07565b8d8103601f190160608f015261367f91612c07565b8c8103601f190160808e015261369491612c07565b8b8103601f190160a08d01526136a991612c07565b924660c08c015260e08b01526101008a015263ffffffff16610120890152601f19888203016101408901526136dd91612c07565b868103601f19016101608801526136f391612c07565b936101808601526101a08501526101c084015215156101e083015203601f19810182526137209082612ab4565b90565b90926020823d60201161374f575b8161373e60209383612ab4565b810103126104935750519138613621565b3d9150613731565b60019096019561355d565b606460029104980197613556565b600491049801973861354b565b600891049801973861353e565b601091049801973861352f565b602091049801973861351d565b60409950049050600a38613500565b604051906001600160a01b03166137c982612a99565b602a825260209081830160403682378351156138c0576030905382516001908110156138c057607860218501536029905b80821161384e57505061380b575090565b6064906040519062461bcd60e51b825280600483015260248201527f537472696e67733a20686578206c656e67746820696e73756666696369656e746044820152fd5b9091600f811660108110156138ab5785518410156138ab576f181899199a1a9b1b9c1cb0b131b232b360811b901a85840185015360041c9180156138965760001901906137fa565b60246000634e487b7160e01b81526011600452fd5b60246000634e487b7160e01b81526032600452fd5b634e487b7160e01b600052603260045260246000fd5b81810292918115918404141715612ff057565b61034052604051636eb1769f60e11b8152336004820152306024820152949a999098909790969095909490939291906020816044816001600160a01b0386165afa8015610b3b578a91600091613e5a575b5010613db557613959888888888f89908f89898c9261034051336134c9565b60405190636074606160e11b6020830152600482528160408101106001600160401b03604084011117612a3157604082810190526000805260d36020526139bf7f938258ec6d8d468a3507d140e1c026dc2afa285c097847a088da7b50946fb91b612b61565b90604051906139cd82612a63565b6003825260603660208401376040516139e581612a63565b6003815260005b60608110613da45750604051938460408101106001600160401b03604087011117612a315761147a613adf93613a9e8f8f6001613a3e613b069a613af19960208e604081016040528381520152613e8f565b526002613a4b8b51613e9c565b526004613a588b51613eac565b52604051916fffffffffffffffffffffffffffffffff809216602084015216604082015260408152613a8981612a99565b602089015190613a9882613e8f565b52613e8f565b50613ac7604051613aae81612a7e565b60008152602089015190613ac182613e9c565b52613e9c565b50604051948593604060208601526060850190612c07565b838103601f1901604085015290612c07565b602083015190613b0082613eac565b52613eac565b5060ca5460c954604051610320818152633323b46760e01b90915280516001600160a01b039384166004909101528051608060249091015251911692613b4f9160840190612c07565b906103205160446003198285030191015260408201908051916040845282518091526020606085019301906000905b808210613d6b5750505060200151916020818303910152815180825260208201916020808360051b8301019401926000915b838310613d3e575050505050602091600091826064610320510152610320519283809203925af1988915610b3b57600099613d04575b9181838b613c0d60039d9e9f968b8b8b8f938c8a63ffffffff9e9c8e936103405133613fbd565b9c8d9160405192613c1d84612a63565b338452602084018c81526040850191600083526060860193845260005260d060205260406000209460018060a01b039051166001600160601b0360a01b865416178555516001850155516002840155519101556040519c8d5260208d015260018060a01b031660408c015260018060a01b031660608b015260808a01521660a088015260018060a01b031660c087015260e08601526101008501526101208401521515610140830152600061016083015260018060a01b036103405116917fe9947d23b8fb33fd310fb94d6fda5f001146548a36fc2f9897d6decb0fc215996101803392a4565b986020903d602011613d36575b613d1e8261032051612ab4565b60206103205180938101031261049357505198613be6565b3d9150613d11565b9091929394602080613d5c600193601f198682030187528951612c07565b97019301930191939290613bb0565b9091938451906005821015613d8e57602081600193829352019501920190613b7e565b634e487b7160e01b600052602160045260246000fd5b8060606020809385010152016139ec565b604051636eb1769f60e11b815233600482015230602482015289916020826044816001600160a01b0385165afa918215610b3b57600092613e24575b5060405163059d9d6d60e31b8152600481019290925260248201929092526001600160a01b039091166044820152606490fd5b90916020823d602011613e52575b81613e3f60209383612ab4565b8101031261049357505190611b35613df1565b3d9150613e32565b91506020823d602011613e87575b81613e7560209383612ab4565b8101031261049357508990513861393a565b3d9150613e68565b8051156138c05760200190565b8051600110156138c05760400190565b8051600210156138c05760600190565b6000198114612ff05760010190565b91908110156138c05760051b0190565b356001600160a01b03811681036103dd5790565b51906001600160a01b03821682036103dd57565b60405163a9059cbb60e01b602082019081526001600160a01b03909316602482015260448101939093526000928392908390613f42816064810161147a565b51925af1613f4e612eba565b81613f86575b5015613f5c57565b60405162461bcd60e51b815260206004820152600260248201526114d560f21b6044820152606490fd5b8051801592508215613f9b575b505038613f54565b81925090602091810103126103dd576020613fb69101613013565b3880613f93565b9163ffffffff9399979460609b9997939692966040519b8c93602085019e8f9560018060a01b03809c819882809816905216604082015201521660808c01521660a08a015260c08901521660e0870152166101008501526101208401526101408301526101609081830152815261018081018181106001600160401b03821117612a315760405251902090565b60c9546001600160a01b031690813b156103dd5760009160248392604051948593849263ee8ca3b560e01b845260048401525af18015610b3b5761408b5750565b612b9f90612a1e56fe360894a13ba1a3210667c828492db98dca3e2076cc3735a920a3ca505d382bbca264697066735822122091b7f0e3ee4e9f46cdab1d22680662609fea8c9d2b48f5f20165a4b283eacdb464736f6c63430008110033",
  "linkReferences": {},
  "deployedLinkReferences": {}
}