{
  "_format": "hh-sol-artifact-1",
  "contractName": "AutoPay",
  "sourceName": "contracts/AutoPay.sol",
  "abi": [
    {
      "inputs": [],
      "stateMutability": "nonpayable",
      "type": "constructor"
    },
    {
      "inputs": [
        {
          "internalType": "uint256",
          "name": "allowance",
          "type": "uint256"
        },
        {
          "internalType": "uint256",
          "name": "amount",
          "type": "uint256"
        },
        {
          "internalType": "address",
          "name": "token",
          "type": "address"
        }
      ],
      "name": "Allowance",
      "type": "error"
    },
    {
      "inputs": [
        {
          "internalType": "uint256",
          "name": "_amount",
          "type": "uint256"
        },
        {
          "internalType": "uint256",
          "name": "_relayerFeeInTransactingAsset",
          "type": "uint256"
        }
      ],
      "name": "AmountLessThanRelayer",
      "type": "error"
    },
    {
      "anonymous": false,
      "inputs": [
        {
          "indexed": false,
          "internalType": "address",
          "name": "previousAdmin",
          "type": "address"
        },
        {
          "indexed": false,
          "internalType": "address",
          "name": "newAdmin",
          "type": "address"
        }
      ],
      "name": "AdminChanged",
      "type": "event"
    },
    {
      "anonymous": false,
      "inputs": [
        {
          "indexed": true,
          "internalType": "address",
          "name": "beacon",
          "type": "address"
        }
      ],
      "name": "BeaconUpgraded",
      "type": "event"
    },
    {
      "anonymous": false,
      "inputs": [
        {
          "indexed": true,
          "internalType": "bytes32",
          "name": "_jobId",
          "type": "bytes32"
        },
        {
          "indexed": true,
          "internalType": "address",
          "name": "_from",
          "type": "address"
        },
        {
          "indexed": false,
          "internalType": "uint256",
          "name": "_timesExecuted",
          "type": "uint256"
        },
        {
          "indexed": false,
          "internalType": "uint256",
          "name": "_fundsUsed",
          "type": "uint256"
        },
        {
          "indexed": false,
          "internalType": "uint256",
          "name": "_amountOut",
          "type": "uint256"
        }
      ],
      "name": "ExecutedSourceChain",
      "type": "event"
    },
    {
      "anonymous": false,
      "inputs": [
        {
          "indexed": true,
          "internalType": "address",
          "name": "sender",
          "type": "address"
        },
        {
          "indexed": true,
          "internalType": "address",
          "name": "token",
          "type": "address"
        },
        {
          "indexed": true,
          "internalType": "uint256",
          "name": "amount",
          "type": "uint256"
        }
      ],
      "name": "FundsDeposited",
      "type": "event"
    },
    {
      "anonymous": false,
      "inputs": [
        {
          "indexed": true,
          "internalType": "address",
          "name": "receiver",
          "type": "address"
        },
        {
          "indexed": true,
          "internalType": "address",
          "name": "initiator",
          "type": "address"
        },
        {
          "indexed": true,
          "internalType": "address",
          "name": "token",
          "type": "address"
        },
        {
          "indexed": false,
          "internalType": "uint256",
          "name": "amount",
          "type": "uint256"
        }
      ],
      "name": "FundsWithdrawn",
      "type": "event"
    },
    {
      "anonymous": false,
      "inputs": [
        {
          "indexed": false,
          "internalType": "uint8",
          "name": "version",
          "type": "uint8"
        }
      ],
      "name": "Initialized",
      "type": "event"
    },
    {
      "anonymous": false,
      "inputs": [
        {
          "indexed": true,
          "internalType": "address",
          "name": "_taskCreator",
          "type": "address"
        },
        {
          "indexed": true,
          "internalType": "bytes32",
          "name": "_jobId",
          "type": "bytes32"
        },
        {
          "indexed": false,
          "internalType": "bytes32",
          "name": "_gelatoTaskId",
          "type": "bytes32"
        },
        {
          "indexed": true,
          "internalType": "address",
          "name": "_to",
          "type": "address"
        },
        {
          "indexed": false,
          "internalType": "uint256",
          "name": "_amount",
          "type": "uint256"
        },
        {
          "indexed": false,
          "internalType": "address",
          "name": "_fromToken",
          "type": "address"
        },
        {
          "indexed": false,
          "internalType": "address",
          "name": "_toToken",
          "type": "address"
        },
        {
          "indexed": false,
          "internalType": "uint256",
          "name": "_toChain",
          "type": "uint256"
        },
        {
          "indexed": false,
          "internalType": "uint32",
          "name": "_destinationDomain",
          "type": "uint32"
        },
        {
          "indexed": false,
          "internalType": "address",
          "name": "_destinationContract",
          "type": "address"
        },
        {
          "indexed": false,
          "internalType": "uint256",
          "name": "_cycles",
          "type": "uint256"
        },
        {
          "indexed": false,
          "internalType": "uint256",
          "name": "_startTime",
          "type": "uint256"
        },
        {
          "indexed": false,
          "internalType": "uint256",
          "name": "_interval",
          "type": "uint256"
        },
        {
          "indexed": false,
          "internalType": "enum AutoPay.Option",
          "name": "option",
          "type": "uint8"
        }
      ],
      "name": "JobCreated",
      "type": "event"
    },
    {
      "anonymous": false,
      "inputs": [
        {
          "indexed": true,
          "internalType": "address",
          "name": "_taskCreator",
          "type": "address"
        },
        {
          "indexed": true,
          "internalType": "bytes32",
          "name": "_jobId",
          "type": "bytes32"
        },
        {
          "indexed": false,
          "internalType": "bytes32",
          "name": "_gelatoTaskId",
          "type": "bytes32"
        },
        {
          "indexed": true,
          "internalType": "address",
          "name": "_to",
          "type": "address"
        },
        {
          "indexed": false,
          "internalType": "uint256",
          "name": "_amount",
          "type": "uint256"
        },
        {
          "indexed": false,
          "internalType": "uint256",
          "name": "_price",
          "type": "uint256"
        },
        {
          "indexed": false,
          "internalType": "address",
          "name": "_fromToken",
          "type": "address"
        },
        {
          "indexed": false,
          "internalType": "address",
          "name": "_toToken",
          "type": "address"
        },
        {
          "indexed": false,
          "internalType": "uint256",
          "name": "_toChain",
          "type": "uint256"
        },
        {
          "indexed": false,
          "internalType": "uint32",
          "name": "_destinationDomain",
          "type": "uint32"
        },
        {
          "indexed": false,
          "internalType": "address",
          "name": "_destinationContract",
          "type": "address"
        },
        {
          "indexed": false,
          "internalType": "uint256",
          "name": "_cycles",
          "type": "uint256"
        },
        {
          "indexed": false,
          "internalType": "uint256",
          "name": "_startTime",
          "type": "uint256"
        },
        {
          "indexed": false,
          "internalType": "uint256",
          "name": "_interval",
          "type": "uint256"
        },
        {
          "indexed": false,
          "internalType": "enum AutoPay.Option",
          "name": "option",
          "type": "uint8"
        }
      ],
      "name": "JobCreated",
      "type": "event"
    },
    {
      "anonymous": false,
      "inputs": [
        {
          "indexed": true,
          "internalType": "uint256",
          "name": "txFee",
          "type": "uint256"
        },
        {
          "indexed": true,
          "internalType": "address",
          "name": "feeToken",
          "type": "address"
        },
        {
          "indexed": true,
          "internalType": "address",
          "name": "execAddress",
          "type": "address"
        },
        {
          "indexed": false,
          "internalType": "bytes",
          "name": "execData",
          "type": "bytes"
        },
        {
          "indexed": false,
          "internalType": "bytes32",
          "name": "taskId",
          "type": "bytes32"
        },
        {
          "indexed": false,
          "internalType": "bool",
          "name": "callSuccess",
          "type": "bool"
        }
      ],
      "name": "JobSuccess",
      "type": "event"
    },
    {
      "anonymous": false,
      "inputs": [
        {
          "indexed": true,
          "internalType": "address",
          "name": "previousOwner",
          "type": "address"
        },
        {
          "indexed": true,
          "internalType": "address",
          "name": "newOwner",
          "type": "address"
        }
      ],
      "name": "OwnershipTransferred",
      "type": "event"
    },
    {
      "anonymous": false,
      "inputs": [
        {
          "indexed": true,
          "internalType": "address",
          "name": "implementation",
          "type": "address"
        }
      ],
      "name": "Upgraded",
      "type": "event"
    },
    {
      "anonymous": false,
      "inputs": [
        {
          "indexed": true,
          "internalType": "address",
          "name": "originSender",
          "type": "address"
        },
        {
          "indexed": false,
          "internalType": "uint32",
          "name": "origin",
          "type": "uint32"
        },
        {
          "indexed": false,
          "internalType": "address",
          "name": "asset",
          "type": "address"
        },
        {
          "indexed": false,
          "internalType": "uint256",
          "name": "amount",
          "type": "uint256"
        },
        {
          "indexed": false,
          "internalType": "bytes32",
          "name": "transferId",
          "type": "bytes32"
        },
        {
          "indexed": false,
          "internalType": "uint256",
          "name": "receiveTimestamp",
          "type": "uint256"
        },
        {
          "indexed": false,
          "internalType": "address",
          "name": "senderAccount",
          "type": "address"
        },
        {
          "indexed": false,
          "internalType": "address",
          "name": "receiverAccount",
          "type": "address"
        }
      ],
      "name": "XReceiveData",
      "type": "event"
    },
    {
      "anonymous": false,
      "inputs": [
        {
          "indexed": true,
          "internalType": "address",
          "name": "sender",
          "type": "address"
        },
        {
          "indexed": true,
          "internalType": "address",
          "name": "receiver",
          "type": "address"
        },
        {
          "indexed": true,
          "internalType": "address",
          "name": "fromToken",
          "type": "address"
        },
        {
          "indexed": false,
          "internalType": "address",
          "name": "toToken",
          "type": "address"
        },
        {
          "indexed": false,
          "internalType": "address",
          "name": "destinationContract",
          "type": "address"
        },
        {
          "indexed": false,
          "internalType": "uint256",
          "name": "amount",
          "type": "uint256"
        },
        {
          "indexed": false,
          "internalType": "uint256",
          "name": "startTime",
          "type": "uint256"
        },
        {
          "indexed": false,
          "internalType": "uint256",
          "name": "relayerFeeInTransactingAsset",
          "type": "uint256"
        },
        {
          "indexed": false,
          "internalType": "uint32",
          "name": "destinationDomain",
          "type": "uint32"
        }
      ],
      "name": "XTransferData",
      "type": "event"
    },
    {
      "stateMutability": "payable",
      "type": "fallback"
    },
    {
      "inputs": [
        {
          "internalType": "address",
          "name": "_automate",
          "type": "address"
        },
        {
          "internalType": "address",
          "name": "_fundsOwner",
          "type": "address"
        }
      ],
      "name": "ATC__initialize",
      "outputs": [],
      "stateMutability": "nonpayable",
      "type": "function"
    },
    {
      "inputs": [],
      "name": "FEES",
      "outputs": [
        {
          "internalType": "uint256",
          "name": "",
          "type": "uint256"
        }
      ],
      "stateMutability": "view",
      "type": "function"
    },
    {
      "inputs": [],
      "name": "WETH",
      "outputs": [
        {
          "internalType": "address",
          "name": "",
          "type": "address"
        }
      ],
      "stateMutability": "view",
      "type": "function"
    },
    {
      "inputs": [
        {
          "internalType": "address",
          "name": "_automate",
          "type": "address"
        },
        {
          "internalType": "address",
          "name": "_taskCreator",
          "type": "address"
        }
      ],
      "name": "__initialize",
      "outputs": [],
      "stateMutability": "nonpayable",
      "type": "function"
    },
    {
      "inputs": [
        {
          "internalType": "bytes32",
          "name": "_jobId",
          "type": "bytes32"
        }
      ],
      "name": "_cancelJob",
      "outputs": [],
      "stateMutability": "nonpayable",
      "type": "function"
    },
    {
      "inputs": [
        {
          "internalType": "address",
          "name": "_from",
          "type": "address"
        },
        {
          "internalType": "address",
          "name": "_to",
          "type": "address"
        },
        {
          "internalType": "uint256",
          "name": "_amount",
          "type": "uint256"
        },
        {
          "internalType": "uint256",
          "name": "_price",
          "type": "uint256"
        },
        {
          "internalType": "address",
          "name": "_fromToken",
          "type": "address"
        },
        {
          "internalType": "address",
          "name": "_toToken",
          "type": "address"
        },
        {
          "internalType": "uint256",
          "name": "_toChain",
          "type": "uint256"
        },
        {
          "internalType": "uint32",
          "name": "_destinationDomain",
          "type": "uint32"
        },
        {
          "internalType": "address",
          "name": "_destinationContract",
          "type": "address"
        },
        {
          "internalType": "uint256",
          "name": "_cycles",
          "type": "uint256"
        },
        {
          "internalType": "uint256",
          "name": "_startTime",
          "type": "uint256"
        },
        {
          "internalType": "uint256",
          "name": "_interval",
          "type": "uint256"
        },
        {
          "internalType": "uint256",
          "name": "_relayerFeeInTransactingAsset",
          "type": "uint256"
        },
        {
          "internalType": "address",
          "name": "_swapper",
          "type": "address"
        },
        {
          "internalType": "bytes",
          "name": "_swapData",
          "type": "bytes"
        }
      ],
      "name": "_conditionalAutomateCron",
      "outputs": [],
      "stateMutability": "nonpayable",
      "type": "function"
    },
    {
      "inputs": [
        {
          "internalType": "address",
          "name": "_to",
          "type": "address"
        },
        {
          "internalType": "uint256",
          "name": "_amount",
          "type": "uint256"
        },
        {
          "internalType": "uint256",
          "name": "_price",
          "type": "uint256"
        },
        {
          "internalType": "address",
          "name": "_fromToken",
          "type": "address"
        },
        {
          "internalType": "address",
          "name": "_toToken",
          "type": "address"
        },
        {
          "internalType": "address",
          "name": "_tokenA",
          "type": "address"
        },
        {
          "internalType": "address",
          "name": "_tokenB",
          "type": "address"
        },
        {
          "internalType": "uint256",
          "name": "_toChain",
          "type": "uint256"
        },
        {
          "internalType": "uint32",
          "name": "_destinationDomain",
          "type": "uint32"
        },
        {
          "internalType": "address",
          "name": "_destinationContract",
          "type": "address"
        },
        {
          "internalType": "uint256",
          "name": "_cycles",
          "type": "uint256"
        },
        {
          "internalType": "uint256",
          "name": "_startTime",
          "type": "uint256"
        },
        {
          "internalType": "uint256",
          "name": "_interval",
          "type": "uint256"
        },
        {
          "internalType": "string",
          "name": "_web3FunctionHash",
          "type": "string"
        }
      ],
      "name": "_createConditionalAutomate",
      "outputs": [],
      "stateMutability": "nonpayable",
      "type": "function"
    },
    {
      "inputs": [
        {
          "internalType": "address[]",
          "name": "_to",
          "type": "address[]"
        },
        {
          "internalType": "uint256[]",
          "name": "_amount",
          "type": "uint256[]"
        },
        {
          "internalType": "uint256[]",
          "name": "_price",
          "type": "uint256[]"
        },
        {
          "internalType": "address[]",
          "name": "_fromToken",
          "type": "address[]"
        },
        {
          "internalType": "address[]",
          "name": "_toToken",
          "type": "address[]"
        },
        {
          "internalType": "address[]",
          "name": "_tokenA",
          "type": "address[]"
        },
        {
          "internalType": "address[]",
          "name": "_tokenB",
          "type": "address[]"
        },
        {
          "internalType": "uint256[]",
          "name": "_toChain",
          "type": "uint256[]"
        },
        {
          "internalType": "uint32[]",
          "name": "_destinationDomain",
          "type": "uint32[]"
        },
        {
          "internalType": "address[]",
          "name": "_destinationContract",
          "type": "address[]"
        },
        {
          "internalType": "uint256[]",
          "name": "_cycles",
          "type": "uint256[]"
        },
        {
          "internalType": "uint256[]",
          "name": "_startTime",
          "type": "uint256[]"
        },
        {
          "internalType": "uint256[]",
          "name": "_interval",
          "type": "uint256[]"
        },
        {
          "internalType": "string",
          "name": "_web3FunctionHash",
          "type": "string"
        }
      ],
      "name": "_createMultipleConditionalAutomate",
      "outputs": [],
      "stateMutability": "nonpayable",
      "type": "function"
    },
    {
      "inputs": [
        {
          "internalType": "address[]",
          "name": "_to",
          "type": "address[]"
        },
        {
          "internalType": "uint256[]",
          "name": "_amount",
          "type": "uint256[]"
        },
        {
          "internalType": "address[]",
          "name": "_fromToken",
          "type": "address[]"
        },
        {
          "internalType": "address[]",
          "name": "_toToken",
          "type": "address[]"
        },
        {
          "internalType": "uint256[]",
          "name": "_toChain",
          "type": "uint256[]"
        },
        {
          "internalType": "uint32[]",
          "name": "_destinationDomain",
          "type": "uint32[]"
        },
        {
          "internalType": "address[]",
          "name": "_destinationContract",
          "type": "address[]"
        },
        {
          "internalType": "uint256[]",
          "name": "_cycles",
          "type": "uint256[]"
        },
        {
          "internalType": "uint256[]",
          "name": "_startTime",
          "type": "uint256[]"
        },
        {
          "internalType": "uint256[]",
          "name": "_interval",
          "type": "uint256[]"
        }
      ],
      "name": "_createMultipleTimeAutomate",
      "outputs": [],
      "stateMutability": "nonpayable",
      "type": "function"
    },
    {
      "inputs": [
        {
          "internalType": "address",
          "name": "_to",
          "type": "address"
        },
        {
          "internalType": "uint256",
          "name": "_amount",
          "type": "uint256"
        },
        {
          "internalType": "address",
          "name": "_fromToken",
          "type": "address"
        },
        {
          "internalType": "address",
          "name": "_toToken",
          "type": "address"
        },
        {
          "internalType": "uint256",
          "name": "_toChain",
          "type": "uint256"
        },
        {
          "internalType": "uint32",
          "name": "_destinationDomain",
          "type": "uint32"
        },
        {
          "internalType": "address",
          "name": "_destinationContract",
          "type": "address"
        },
        {
          "internalType": "uint256",
          "name": "_cycles",
          "type": "uint256"
        },
        {
          "internalType": "uint256",
          "name": "_startTime",
          "type": "uint256"
        },
        {
          "internalType": "uint256",
          "name": "_interval",
          "type": "uint256"
        }
      ],
      "name": "_createTimeAutomate",
      "outputs": [],
      "stateMutability": "nonpayable",
      "type": "function"
    },
    {
      "inputs": [
        {
          "internalType": "bytes32",
          "name": "",
          "type": "bytes32"
        }
      ],
      "name": "_createdJobs",
      "outputs": [
        {
          "internalType": "address",
          "name": "_user",
          "type": "address"
        },
        {
          "internalType": "uint256",
          "name": "_totalCycles",
          "type": "uint256"
        },
        {
          "internalType": "uint256",
          "name": "_executedCycles",
          "type": "uint256"
        },
        {
          "internalType": "bytes32",
          "name": "_gelatoTaskID",
          "type": "bytes32"
        }
      ],
      "stateMutability": "view",
      "type": "function"
    },
    {
      "inputs": [
        {
          "internalType": "address",
          "name": "_from",
          "type": "address"
        },
        {
          "internalType": "address",
          "name": "_to",
          "type": "address"
        },
        {
          "internalType": "uint256",
          "name": "_amount",
          "type": "uint256"
        },
        {
          "internalType": "address",
          "name": "_fromToken",
          "type": "address"
        },
        {
          "internalType": "address",
          "name": "_toToken",
          "type": "address"
        },
        {
          "internalType": "uint256",
          "name": "_toChain",
          "type": "uint256"
        },
        {
          "internalType": "uint32",
          "name": "_destinationDomain",
          "type": "uint32"
        },
        {
          "internalType": "address",
          "name": "_destinationContract",
          "type": "address"
        },
        {
          "internalType": "uint256",
          "name": "_cycles",
          "type": "uint256"
        },
        {
          "internalType": "uint256",
          "name": "_startTime",
          "type": "uint256"
        },
        {
          "internalType": "uint256",
          "name": "_interval",
          "type": "uint256"
        }
      ],
      "name": "_getAutomateJobId",
      "outputs": [
        {
          "internalType": "bytes32",
          "name": "",
          "type": "bytes32"
        }
      ],
      "stateMutability": "pure",
      "type": "function"
    },
    {
      "inputs": [
        {
          "internalType": "address",
          "name": "_from",
          "type": "address"
        },
        {
          "internalType": "address",
          "name": "_to",
          "type": "address"
        },
        {
          "internalType": "uint256",
          "name": "_amount",
          "type": "uint256"
        },
        {
          "internalType": "uint256",
          "name": "_price",
          "type": "uint256"
        },
        {
          "internalType": "address",
          "name": "_fromToken",
          "type": "address"
        },
        {
          "internalType": "address",
          "name": "_toToken",
          "type": "address"
        },
        {
          "internalType": "uint256",
          "name": "_toChain",
          "type": "uint256"
        },
        {
          "internalType": "uint32",
          "name": "_destinationDomain",
          "type": "uint32"
        },
        {
          "internalType": "address",
          "name": "_destinationContract",
          "type": "address"
        },
        {
          "internalType": "uint256",
          "name": "_cycles",
          "type": "uint256"
        },
        {
          "internalType": "uint256",
          "name": "_startTime",
          "type": "uint256"
        },
        {
          "internalType": "uint256",
          "name": "_interval",
          "type": "uint256"
        }
      ],
      "name": "_getConditionalJobId",
      "outputs": [
        {
          "internalType": "bytes32",
          "name": "",
          "type": "bytes32"
        }
      ],
      "stateMutability": "pure",
      "type": "function"
    },
    {
      "inputs": [
        {
          "internalType": "address",
          "name": "_from",
          "type": "address"
        },
        {
          "internalType": "address",
          "name": "_to",
          "type": "address"
        },
        {
          "internalType": "uint256",
          "name": "_amount",
          "type": "uint256"
        },
        {
          "internalType": "address",
          "name": "_fromToken",
          "type": "address"
        },
        {
          "internalType": "address",
          "name": "_toToken",
          "type": "address"
        },
        {
          "internalType": "uint256",
          "name": "_toChain",
          "type": "uint256"
        },
        {
          "internalType": "uint32",
          "name": "_destinationDomain",
          "type": "uint32"
        },
        {
          "internalType": "address",
          "name": "_destinationContract",
          "type": "address"
        },
        {
          "internalType": "uint256",
          "name": "_cycles",
          "type": "uint256"
        },
        {
          "internalType": "uint256",
          "name": "_startTime",
          "type": "uint256"
        },
        {
          "internalType": "uint256",
          "name": "_interval",
          "type": "uint256"
        }
      ],
      "name": "_getWeb3FunctionHash",
      "outputs": [
        {
          "internalType": "bytes",
          "name": "",
          "type": "bytes"
        }
      ],
      "stateMutability": "view",
      "type": "function"
    },
    {
      "inputs": [
        {
          "internalType": "address",
          "name": "_from",
          "type": "address"
        },
        {
          "internalType": "address",
          "name": "_to",
          "type": "address"
        },
        {
          "internalType": "uint256",
          "name": "_amount",
          "type": "uint256"
        },
        {
          "internalType": "uint256",
          "name": "_price",
          "type": "uint256"
        },
        {
          "internalType": "address",
          "name": "_fromToken",
          "type": "address"
        },
        {
          "internalType": "address",
          "name": "_toToken",
          "type": "address"
        },
        {
          "internalType": "address",
          "name": "_tokenA",
          "type": "address"
        },
        {
          "internalType": "address",
          "name": "_tokenB",
          "type": "address"
        },
        {
          "internalType": "uint256",
          "name": "_toChain",
          "type": "uint256"
        },
        {
          "internalType": "uint32",
          "name": "_destinationDomain",
          "type": "uint32"
        },
        {
          "internalType": "address",
          "name": "_destinationContract",
          "type": "address"
        },
        {
          "internalType": "uint256",
          "name": "_cycles",
          "type": "uint256"
        },
        {
          "internalType": "uint256",
          "name": "_startTime",
          "type": "uint256"
        },
        {
          "internalType": "uint256",
          "name": "_interval",
          "type": "uint256"
        }
      ],
      "name": "_getWeb3FunctionHash",
      "outputs": [
        {
          "internalType": "bytes",
          "name": "",
          "type": "bytes"
        }
      ],
      "stateMutability": "view",
      "type": "function"
    },
    {
      "inputs": [
        {
          "internalType": "address",
          "name": "_fromAsset",
          "type": "address"
        },
        {
          "internalType": "address",
          "name": "_toAsset",
          "type": "address"
        },
        {
          "internalType": "uint256",
          "name": "_amountIn",
          "type": "uint256"
        },
        {
          "internalType": "address",
          "name": "_swapper",
          "type": "address"
        },
        {
          "internalType": "bytes",
          "name": "_swapData",
          "type": "bytes"
        }
      ],
      "name": "_setupAndSwap",
      "outputs": [
        {
          "internalType": "uint256",
          "name": "amountOut",
          "type": "uint256"
        }
      ],
      "stateMutability": "nonpayable",
      "type": "function"
    },
    {
      "inputs": [
        {
          "internalType": "address",
          "name": "_from",
          "type": "address"
        },
        {
          "internalType": "address",
          "name": "_to",
          "type": "address"
        },
        {
          "internalType": "uint256",
          "name": "_amount",
          "type": "uint256"
        },
        {
          "internalType": "address",
          "name": "_fromToken",
          "type": "address"
        },
        {
          "internalType": "address",
          "name": "_toToken",
          "type": "address"
        },
        {
          "internalType": "uint256",
          "name": "_toChain",
          "type": "uint256"
        },
        {
          "internalType": "uint32",
          "name": "_destinationDomain",
          "type": "uint32"
        },
        {
          "internalType": "address",
          "name": "_destinationContract",
          "type": "address"
        },
        {
          "internalType": "uint256",
          "name": "_cycles",
          "type": "uint256"
        },
        {
          "internalType": "uint256",
          "name": "_startTime",
          "type": "uint256"
        },
        {
          "internalType": "uint256",
          "name": "_interval",
          "type": "uint256"
        },
        {
          "internalType": "uint256",
          "name": "_relayerFeeInTransactingAsset",
          "type": "uint256"
        },
        {
          "internalType": "address",
          "name": "_swapper",
          "type": "address"
        },
        {
          "internalType": "bytes",
          "name": "_swapData",
          "type": "bytes"
        }
      ],
      "name": "_timeAutomateCron",
      "outputs": [],
      "stateMutability": "nonpayable",
      "type": "function"
    },
    {
      "inputs": [],
      "name": "_transferGas",
      "outputs": [],
      "stateMutability": "payable",
      "type": "function"
    },
    {
      "inputs": [
        {
          "internalType": "enum AutoPay.Option",
          "name": "",
          "type": "uint8"
        }
      ],
      "name": "_web3functionHashes",
      "outputs": [
        {
          "internalType": "string",
          "name": "",
          "type": "string"
        }
      ],
      "stateMutability": "view",
      "type": "function"
    },
    {
      "inputs": [
        {
          "internalType": "uint8",
          "name": "",
          "type": "uint8"
        }
      ],
      "name": "_web3functionHashesNew",
      "outputs": [
        {
          "internalType": "string",
          "name": "",
          "type": "string"
        }
      ],
      "stateMutability": "view",
      "type": "function"
    },
    {
      "inputs": [],
      "name": "automate",
      "outputs": [
        {
          "internalType": "contract IAutomate",
          "name": "",
          "type": "address"
        }
      ],
      "stateMutability": "view",
      "type": "function"
    },
    {
      "inputs": [],
      "name": "checkBalance",
      "outputs": [
        {
          "internalType": "uint256",
          "name": "",
          "type": "uint256"
        }
      ],
      "stateMutability": "view",
      "type": "function"
    },
    {
      "inputs": [],
      "name": "connext",
      "outputs": [
        {
          "internalType": "contract IConnext",
          "name": "",
          "type": "address"
        }
      ],
      "stateMutability": "view",
      "type": "function"
    },
    {
      "inputs": [],
      "name": "dedicatedMsgSender",
      "outputs": [
        {
          "internalType": "address",
          "name": "",
          "type": "address"
        }
      ],
      "stateMutability": "view",
      "type": "function"
    },
    {
      "inputs": [
        {
          "internalType": "address",
          "name": "_swapper",
          "type": "address"
        },
        {
          "internalType": "bytes",
          "name": "swapData",
          "type": "bytes"
        }
      ],
      "name": "directSwapperCall",
      "outputs": [
        {
          "internalType": "uint256",
          "name": "amountOut",
          "type": "uint256"
        }
      ],
      "stateMutability": "payable",
      "type": "function"
    },
    {
      "inputs": [],
      "name": "fundsOwner",
      "outputs": [
        {
          "internalType": "address",
          "name": "",
          "type": "address"
        }
      ],
      "stateMutability": "view",
      "type": "function"
    },
    {
      "inputs": [],
      "name": "gelato1Balance",
      "outputs": [
        {
          "internalType": "contract IGelato1Balance",
          "name": "",
          "type": "address"
        }
      ],
      "stateMutability": "view",
      "type": "function"
    },
    {
      "inputs": [
        {
          "internalType": "address",
          "name": "_address",
          "type": "address"
        }
      ],
      "name": "getBalanceOfToken",
      "outputs": [
        {
          "internalType": "uint256",
          "name": "",
          "type": "uint256"
        }
      ],
      "stateMutability": "view",
      "type": "function"
    },
    {
      "inputs": [
        {
          "internalType": "contract IConnext",
          "name": "_connext",
          "type": "address"
        },
        {
          "internalType": "contract ISwapRouter",
          "name": "_swapRouter",
          "type": "address"
        },
        {
          "internalType": "address payable",
          "name": "_ops",
          "type": "address"
        }
      ],
      "name": "initialize",
      "outputs": [],
      "stateMutability": "nonpayable",
      "type": "function"
    },
    {
      "inputs": [],
      "name": "owner",
      "outputs": [
        {
          "internalType": "address",
          "name": "",
          "type": "address"
        }
      ],
      "stateMutability": "view",
      "type": "function"
    },
    {
      "inputs": [],
      "name": "proxiableUUID",
      "outputs": [
        {
          "internalType": "bytes32",
          "name": "",
          "type": "bytes32"
        }
      ],
      "stateMutability": "view",
      "type": "function"
    },
    {
      "inputs": [],
      "name": "renounceOwnership",
      "outputs": [],
      "stateMutability": "nonpayable",
      "type": "function"
    },
    {
      "inputs": [
        {
          "internalType": "address",
          "name": "_fromToken",
          "type": "address"
        },
        {
          "internalType": "address",
          "name": "_toToken",
          "type": "address"
        },
        {
          "internalType": "uint256",
          "name": "amountIn",
          "type": "uint256"
        }
      ],
      "name": "swapExactInputSingle",
      "outputs": [
        {
          "internalType": "uint256",
          "name": "amountOut",
          "type": "uint256"
        }
      ],
      "stateMutability": "nonpayable",
      "type": "function"
    },
    {
      "inputs": [],
      "name": "swapRouter",
      "outputs": [
        {
          "internalType": "contract ISwapRouter",
          "name": "",
          "type": "address"
        }
      ],
      "stateMutability": "view",
      "type": "function"
    },
    {
      "inputs": [
        {
          "internalType": "address",
          "name": "newOwner",
          "type": "address"
        }
      ],
      "name": "transferOwnership",
      "outputs": [],
      "stateMutability": "nonpayable",
      "type": "function"
    },
    {
      "inputs": [],
      "name": "treasury",
      "outputs": [
        {
          "internalType": "contract ITreasury",
          "name": "",
          "type": "address"
        }
      ],
      "stateMutability": "view",
      "type": "function"
    },
    {
      "inputs": [
        {
          "internalType": "address",
          "name": "_treasury",
          "type": "address"
        }
      ],
      "name": "updateTreasury",
      "outputs": [],
      "stateMutability": "nonpayable",
      "type": "function"
    },
    {
      "inputs": [
        {
          "internalType": "enum AutoPay.Option[]",
          "name": "_types",
          "type": "uint8[]"
        },
        {
          "internalType": "string[]",
          "name": "_hashes",
          "type": "string[]"
        }
      ],
      "name": "updateWeb3functionHashes",
      "outputs": [],
      "stateMutability": "nonpayable",
      "type": "function"
    },
    {
      "inputs": [
        {
          "internalType": "address",
          "name": "newImplementation",
          "type": "address"
        }
      ],
      "name": "upgradeTo",
      "outputs": [],
      "stateMutability": "nonpayable",
      "type": "function"
    },
    {
      "inputs": [
        {
          "internalType": "address",
          "name": "newImplementation",
          "type": "address"
        },
        {
          "internalType": "bytes",
          "name": "data",
          "type": "bytes"
        }
      ],
      "name": "upgradeToAndCall",
      "outputs": [],
      "stateMutability": "payable",
      "type": "function"
    },
    {
      "inputs": [
        {
          "internalType": "address",
          "name": "",
          "type": "address"
        },
        {
          "internalType": "address",
          "name": "",
          "type": "address"
        }
      ],
      "name": "userBalance",
      "outputs": [
        {
          "internalType": "uint256",
          "name": "",
          "type": "uint256"
        }
      ],
      "stateMutability": "view",
      "type": "function"
    },
    {
      "inputs": [
        {
          "internalType": "address",
          "name": "from",
          "type": "address"
        },
        {
          "internalType": "address",
          "name": "recipient",
          "type": "address"
        },
        {
          "internalType": "address",
          "name": "destinationContract",
          "type": "address"
        },
        {
          "internalType": "uint32",
          "name": "destinationDomain",
          "type": "uint32"
        },
        {
          "internalType": "address",
          "name": "fromToken",
          "type": "address"
        },
        {
          "internalType": "address",
          "name": "toToken",
          "type": "address"
        },
        {
          "internalType": "uint256",
          "name": "amount",
          "type": "uint256"
        },
        {
          "internalType": "uint256",
          "name": "slippage",
          "type": "uint256"
        },
        {
          "internalType": "uint256",
          "name": "relayerFeeInTransactingAsset",
          "type": "uint256"
        }
      ],
      "name": "xTransfer",
      "outputs": [],
      "stateMutability": "nonpayable",
      "type": "function"
    },
    {
      "stateMutability": "payable",
      "type": "receive"
    }
  ],
  "bytecode": "0x60a08060405234620000e157306080526000549060ff8260081c166200008f575060ff8082161062000053575b6040516156409081620000e782396080518181816124790152818161260c0152612a0e0152f35b60ff90811916176000557f7f26b83ff96e1f2b6a682f133852f6798a09c465da95921460cefb3847402498602060405160ff8152a1386200002c565b62461bcd60e51b815260206004820152602760248201527f496e697469616c697a61626c653a20636f6e747261637420697320696e697469604482015266616c697a696e6760c81b6064820152608490fd5b600080fdfe6107e080604052600436101561001b575b50361561001957005b005b60006105405260003560e01c908163049aacfe146131705750806307e47b2514612c6f5780630fe4a53a14612c0557806324e752a114612bdf57806328f150eb14612bb35780633659cfe6146129ea5780633935db63146128ef57806346ee3c59146128c35780634f1ef286146125be5780635183ef791461252a57806352d1902d1461246357806357fb1d671461243157806361d027b31461240557806362a4b0a9146123b057806369d13cd91461237b578063715018a614612316578063717a8dd7146122f15780637e2704cc146122d55780637f51bb1f1461229257806383786f8c1461223a5780638a076aa0146121d65780638b7b23ee146121b55780638ba9bf4c1461210e5780638da5cb5b146120e2578063a0d70102146120a3578063a8f383f514612049578063ad5c464814612017578063b1e7ed5814611dea578063baee130a14611d97578063c0c53b8b14611a0b578063c31c9c07146119df578063c61c4362146115d3578063c71daccb146115b4578063c728b83d14611130578063c736d03814610e2d578063caf9e19114610c08578063ceb9201214610aca578063d8524c6f14610890578063de4b054814610861578063e475a844146102fb578063f19f1a9b146102975763f2fde38b146101fc5738610010565b3461029057602036600319011261029057610215613194565b61021d6135ae565b6001600160a01b0381161561023c5761023590613606565b6105405180f35b60405162461bcd60e51b815260206004820152602660248201527f4f776e61626c653a206e6577206f776e657220697320746865207a65726f206160448201526564647265737360d01b6064820152608490fd5b6105405180fd5b346102905760a0366003190112610290576102b0613194565b6102b86131aa565b6102c06131c0565b91608435916001600160401b038311610290576020936102e76102f394369060040161326e565b93909260443591613d83565b604051908152f35b34610290576101c0366003190112610290576004356001600160401b0381116102905761032c90369060040161357e565b610260526105c0526024356001600160401b0381116102905761035390369060040161357e565b6102e052610480526044356001600160401b0381116102905761037a90369060040161357e565b60e052610640526064356001600160401b038111610290576103a090369060040161357e565b6101e052610180526084356001600160401b038111610290576103c790369060040161357e565b610240526105e0526001600160401b0360a43511610290576103ee3660a43560040161357e565b61070052610340526001600160401b0360c43511610290576104153660c43560040161357e565b610420526103e0526001600160401b0360e435116102905761043c3660e43560040161357e565b610600526104e0526001600160401b03610104351161029057610465366101043560040161357e565b60c052610300526001600160401b0361012435116102905761048d366101243560040161357e565b6102c052610440526001600160401b036101443511610290576104b6366101443560040161357e565b6106e052610140526001600160401b036101643511610290576104df366101643560040161357e565b61010052610200526001600160401b03610184351161029057610508366101843560040161357e565b60a052610580526101a4356001600160401b0381116102905761052f903690600401613560565b61038052610540516102a0525b610260516102a05190811015610235576101e051610180516001600160a01b039261056f9261056a92614b52565b614b62565b604051636eb1769f60e11b81523360048201523060248201529160209183916044918391165afa90811561082157610540519161082f575b506105bc6102a0516102e05161048051614b52565b35116107245761070f6105dc61056a6102a051610260516105c051614b52565b6105f06102a0516102e05161048051614b52565b356106046102a05160e05161064051614b52565b356106a05261062061056a6102a0516101e05161018051614b52565b6105605261063b61056a6102a051610240516105e051614b52565b6105005261065661056a6102a0516107005161034051614b52565b61066d61056a6102a051610420516103e051614b52565b6106816102a051610600516104e051614b52565b3561069d6106986102a05160c05161030051614b52565b614b76565b6106b461056a6102a0516102c05161044051614b52565b916106c96102a0516106e05161014051614b52565b35936106df6102a0516101005161020051614b52565b359561038051986106f96102a05160a05161058051614b52565b3598610500519161056051916106a05191614dbb565b61071b6102a051614b43565b6102a05261053c565b6102a0516101e051610180516001600160a01b03926107469261056a92614b52565b604051636eb1769f60e11b81523360048201523060248201529160209183916044918391165afa9081156108215761054051916107ea575b506107936102a0516102e05161048051614b52565b35906107e66107af61056a6102a0516101e05161018051614b52565b60405163059d9d6d60e31b8152600481019390935260248301939093526001600160a01b0390921660448201529081906064820190565b0390fd5b90506020813d602011610819575b816108056020938361340d565b8101031261081457518161077e565b600080fd5b3d91506107f8565b6040513d61054051823e3d90fd5b90506020813d602011610859575b8161084a6020938361340d565b810103126108145751816105a7565b3d915061083d565b3461029057610540518060031936011261088d5760ce546040516001600160a01b039091168152602090f35b80fd5b34610290576040366003190112610290576108a9613194565b6108b16131aa565b906108ce60ff610540515460081c166108c98161381e565b61381e565b60c980546001600160a01b039283166001600160a01b0319918216811790925560405163573ea57560e01b8152909391906020908181600481865afa80156108215785916105405191610a90575b50928291602494168760cb54161760cb556040519384809263cd3d4fb960e01b8252600260048301525afa80156108215784926105405191610a57575b508190600460405180958193632e8743fd60e21b8352165afa80156108215784926105405191610a1d575b5060409060248251809581936337b6269f60e21b8352306004840152165afa90811561082157849261054051926109d3575b5050168360ca54161760ca55169060cc54161760cc556105405180f35b915091506040813d604011610a15575b816109f06040938361340d565b8101031261029057610a0d8492610a0683615542565b9201613b18565b5085806109b6565b3d91506109e3565b809350828092503d8311610a50575b610a36818361340d565b81010312610290576040610a4a8593615542565b90610984565b503d610a2c565b809350828092503d8311610a89575b610a70818361340d565b810103126102905780610a838593615542565b90610959565b503d610a66565b809250838092503d8311610ac3575b610aa9818361340d565b81010312610290575184811681036102905784908261091c565b503d610a9f565b3461029057606036600319011261029057610ae3613194565b610aeb6131aa565b60cf546001600160a01b0392839260443592610b0b908490861684613bf3565b8360405192610b1984613385565b1682526020948593818585019316835260408401906101f4825260608501903082526080860142815260a087019182528460c08801936000855260e089019560008752828060cf5416996040519d8e9c8d63414bf38960e01b9052511660048d0152511660248b01525162ffffff1660448a0152511660648801525160848701525160a48601525160c4850152511660e4830152815a61010492600091f1908115610bfc57600091610bcf575b50604051908152f35b90508181813d8311610bf5575b610be6818361340d565b81010312610814575182610bc6565b503d610bdc565b6040513d6000823e3d90fd5b3461029057604036600319011261029057610c21613194565b610c296131aa565b90610c3d60ff610540515460081c1661381e565b60c980546001600160a01b039283166001600160a01b0319918216811790925560405163573ea57560e01b8152909360209290918381600481855afa918215610821578585926105405194610def575b50602493168760cb54161760cb556040519283809263cd3d4fb960e01b8252600260048301525afa90811561082157849184916105405191610db8575b50600460405180948193632e8743fd60e21b8352165afa9081156108215784906105405192610d7b575b50604080516337b6269f60e21b815293821660048501529183916024918391165afa918215610821576105405192610d3a575b5050169060ca54161760ca556105405180f35b9091506040823d604011610d73575b81610d566040938361340d565b8101031261029057610d6b90610a0683615542565b508380610d27565b3d9150610d49565b809250848092503d8311610db1575b610d94818361340d565b8101031261029057836024610daa604093615542565b9250610cf4565b503d610d8a565b92505081813d8311610de8575b610dcf818361340d565b810103126102905782610de28592615542565b87610cca565b503d610dc5565b92809294508391503d8311610e26575b610e09818361340d565b810103126102905751848116810361029057908390856024610c8d565b503d610dff565b346102905761012036600319011261029057610e47613194565b610e4f6131aa565b90610e58613245565b6064359263ffffffff8416840361081457610e716131d6565b93610e7a613202565b6001600160a01b0386169590939060009073b4fbf271143f4fbf7b91a5ded31805e42b2208d519880161111c575b508661105e575b61010435811061103b57604080516001600160a01b038881166020838101919091528782169383019390935287166060808301919091528152610f8192610ef5826133a1565b60ce546001600160a01b031690610f109061010435906138a1565b9460006040518096819582946393f18ac560e01b845263ffffffff8c16600485015260018060a01b0316998a602485015273b4fbf271143f4fbf7b91a5ded31805e42b2208d66044850152336064850152608484015260e43560a484015261010060c484015261010483019061331c565b6101043560e483015203925af18015610bfc5761100c575b50604080516001600160a01b039586168152602081019290925260c4359082015242606082015261010435608082015263ffffffff9190911660a082015290821692909116907f5add7a884c3fcd9dacaee558d72ece5037a4682a29b4e07a9ead795c5f26e0549060c090a46105405180f35b602090819492943d8311611034575b611025818361340d565b81010312610814579186610f99565b503d61101b565b60405163c4225e5760e01b815260c4356004820152610104356024820152604490fd5b60ce54604051636eb1769f60e11b81523060048201526001600160a01b039091166024820181905260208260448173b4fbf271143f4fbf7b91a5ded31805e42b2208d65afa918215610bfc576000926110e9575b5061010435916110c2838561387e565b116110cf575b5050610eaf565b6110dc6110e2928461387e565b90613b25565b87806110c8565b9091506020813d8211611114575b816111046020938361340d565b81010312610814575190896110b2565b3d91506110f7565b61112a915060c43590613f1b565b87610ea8565b34610290576101e03660031901126102905761114a613194565b6111526131aa565b61115a6131d6565b90611163613202565b61116b61325b565b91611174613218565b916101a4356001600160a01b0381169003610814576101c4356001600160401b038111610290576111a990369060040161326e565b9590935a604051636eb1769f60e11b81526001600160a01b038a166004820152306024820152909590602081806044810103816001600160a01b0388165afa908115610821576105405191611582575b50604435116114ce576040516323b872dd60e01b602082019081526001600160a01b038b166024830152306044808401919091523560648301529061124b81608481015b03601f19810183528261340d565b61054051918291519082875af16112606137a1565b81611497575b501561146c576044354660c435148080611456575b1561141c5750506112c795969761129a916101a4356044358787613d83565b966112a6888686615368565b61016435946101443594610124359460c435928c6064359160443591615422565b9182610540515260d060205261130c6113056040610540512093600285019460016112f28754614b43565b9182885501541461140e575b5a906138a1565b3a90614559565b6019810290808204601914811517156113f457606461132c92049061387e565b60d2546001600160a01b031694909290853b156102905760405190631bc64ab360e21b825273eeeeeeeeeeeeeeeeeeeeeeeeeeeeeeeeeeeeeeee600483015284602483015260018060a01b031695866044830152816064816105405180945af18015610821576113de575b5054604080519182526020820193909352918201527f0a75ac261583d233f582aa096ae742edd6c1bde7b993c8909f33e8e9c92ee4319080606081015b0390a36105405180f35b6113e79061335c565b6105405180156113975780fd5b634e487b7160e01b61054051526011600452602461054051fd5b61141786614045565b6112fe565b9098506112c7969791501560001461144957611444610184358a868685878b604435956138ae565b6112a6565b6114446044358685615368565b506001600160a01b03858116908716141561127b565b60405162461bcd60e51b815260206004820152600360248201526229aa2360e91b6044820152606490fd5b80518015925082156114ac575b50508a611266565b81925090602091810103126102905760206114c79101613b18565b8a806114a4565b604051636eb1769f60e11b81526001600160a01b038a1660048201523060248201528390602081806044810103816001600160a01b0386165afa908115610821576105405191611550575b5060405163059d9d6d60e31b815260048101919091526044803560248301526001600160a01b039290921691810191909152606490fd5b90506020813d60201161157a575b8161156b6020938361340d565b81010312610814575182611519565b3d915061155e565b90506020813d6020116115ac575b8161159d6020938361340d565b8101031261081457518a6111f9565b3d9150611590565b3461029057610540518060031936011261088d57602047604051908152f35b3461029057610140366003190112610290576004356001600160401b0381116102905761160490369060040161357e565b6103a052610620526024356001600160401b0381116102905761162b90369060040161357e565b61046052610160526044356001600160401b0381116102905761165290369060040161357e565b610400526080526064356001600160401b0381116102905761167890369060040161357e565b61028052610320526084356001600160401b0381116102905761169f90369060040161357e565b610220526106805260a4356001600160401b038111610290576116c690369060040161357e565b610520526101a05260c4356001600160401b038111610290576116ed90369060040161357e565b610120526104a05260e4356001600160401b0381116102905761171490369060040161357e565b6106c0526101c052610104356001600160401b0381116102905761173c90369060040161357e565b610360526105a052610124356001600160401b0381116102905761176490369060040161357e565b6103c05261066052610540516104c0525b6103a0516104c0519081101561023557610400516080516001600160a01b03926117a29261056a92614b52565b604051636eb1769f60e11b81523360048201523060248201529160209183916044918391165afa9081156108215761054051916119ad575b506117ef6104c0516104605161016051614b52565b35116118f2576118dd61180f61056a6104c0516103a05161062051614b52565b6118236104c0516104605161016051614b52565b3561183a61056a6104c05161040051608051614b52565b61185161056a6104c0516102805161032051614b52565b6118656104c0516102205161068051614b52565b3561187d6106986104c051610520516101a051614b52565b9061189561056a6104c051610120516104a051614b52565b926118aa6104c0516106c0516101c051614b52565b35946118c06104c051610360516105a051614b52565b35966118d66104c0516103c05161066051614b52565b359861456c565b6118e96104c051614b43565b6104c052611775565b6104c051610400516080516001600160a01b03926119139261056a92614b52565b604051636eb1769f60e11b81523360048201523060248201529160209183916044918391165afa90811561082157610540519161197b575b506119606104c0516104605161016051614b52565b35906107e66107af61056a6104c05161040051608051614b52565b90506020813d6020116119a5575b816119966020938361340d565b8101031261081457518161194b565b3d9150611989565b90506020813d6020116119d7575b816119c86020938361340d565b810103126108145751816117da565b3d91506119bb565b3461029057610540518060031936011261088d5760cf546040516001600160a01b039091168152602090f35b34610290576060366003190112610290576001600160a01b0360043581811690819003610290576024359180831680930361029057604435918183168093036102905761054051549360ff8560081c161594858096611d8a575b8015611d73575b15611d17576105405160ff198216600117815560ff9187611d06575b505460081c1691611a988361381e565b611aa18361381e565b6001600160601b0360a01b90858260c954161760c9556040519563573ea57560e01b87526020968781600481855afa918215610821578789926105405194611cc8575b50602493168560cb54161760cb556040519283809263cd3d4fb960e01b8252600260048301525afa90811561082157869188916105405191611c91575b50600460405180948193632e8743fd60e21b8352165afa80156108215786916105405191611c57575b5060409060248251809981936337b6269f60e21b8352306004840152165afa8015610821576105405190611c16575b611bb29650168260ca54161760ca55338260cc54161760cc558160ce54161760ce5560cf54161760cf5561271060cd556108c98161381e565b611bbb33613606565b610540515491611bd060ff8460081c1661381e565b611bdb576105405180f35b7f7f26b83ff96e1f2b6a682f133852f6798a09c465da95921460cefb38474024989161ff001916610540515560405160018152a18080610235565b506040863d604011611c4f575b81611c306040938361340d565b810103126102905785611c4988610a06611bb299615542565b50611b79565b3d9150611c23565b809250888092503d8311611c8a575b611c70818361340d565b81010312610290576040611c848792615542565b90611b4a565b503d611c66565b92505081813d8311611cc1575b611ca8818361340d565b810103126102905786611cbb8792615542565b8a611b21565b503d611c9e565b92809294508391503d8311611cff575b611ce2818361340d565b810103126102905751868116810361029057908790876024611ae4565b503d611cd8565b61ffff191661010117815587611a88565b60405162461bcd60e51b815260206004820152602e60248201527f496e697469616c697a61626c653a20636f6e747261637420697320616c72656160448201526d191e481a5b9a5d1a585b1a5e995960921b6064820152608490fd5b50303b158015611a6c5750600160ff821614611a6c565b50600160ff821610611a65565b346102905760203660031901126102905760043560ff811680910361029057610540515260d4602052611de6611dd2604061054051206134ba565b60405191829160208352602083019061331c565b0390f35b34610290576040366003190112610290576004356001600160401b03811161029057611e1a90369060040161357e565b906024356001600160401b03811161029057611e3a90369060040161357e565b9091611e446135ae565b61054051935b808510611e58576105405180f35b82851015611ffd578460051b84013594601e1985360301861215610290576001600160401b038686013511610290578585013536036020878701011361029057611ea3818385614b52565b3560048110156102905760005260d36020526040600020611ec48154613480565b601f8111611faf575b506105405196601f8188013511600114611f2e57611f1593949596976105405190828a0135611f1e575b508189013560011b91600019908a013560031b1c1916179055614b43565b93929190611e4a565b60209150828a0101013589611ef7565b818852610540516020812088830135601f19169990915b8a8110611f935750889983611f159798999a013511611f71575b5050600190880135811b019055614b43565b602060001960f8858d013560031b161c1991848c010101351690558880611f5f565b90916020600181928286888f0101013581550193019101611f45565b81610540515260206105405120601f898901350160051c810160208a8a013510611ff6575b601f830160051c82018110611fea575050611ecd565b60008155600101611fd4565b5080611fd4565b634e487b7160e01b61054051526032600452602461054051fd5b3461029057610540518060031936011261088d57602060405173b4fbf271143f4fbf7b91a5ded31805e42b2208d68152f35b3461029057602036600319011261029057600435610540515260d060205260806040610540512060018060a01b03815416906001810154906003600282015491015491604051938452602084015260408301526060820152f35b6040366003190112610290576120b7613194565b6024356001600160401b038111610290576020916120dc6102f392369060040161326e565b91613c3e565b3461029057610540518060031936011261088d576033546040516001600160a01b039091168152602090f35b34610290576101c036600319011261029057612128613194565b6121306131c0565b6121386131d6565b612140613202565b9061214961322f565b926101043563ffffffff811681036108145761012435906001600160a01b0382168203610814576101a435966001600160401b03881161029057612194610235983690600401613560565b9661018435966101643596610144359660e435946044359060243590614dbb565b3461029057610540518060031936011261088d57602060cd54604051908152f35b3461029057610140366003190112610290576121f0613194565b6121f8613245565b906122016131c0565b60a4359263ffffffff84168403610814576102359361221e61322f565b906101243594610104359460e43594608435926024359061456c565b3461029057602080600319360112610290576024816001600160a01b0361225f613194565b16604051928380926370a0823160e01b82523060048301525afa908115610821576105405191610bcf5750604051908152f35b34610290576020366003190112610290576122ab613194565b6122b36135ae565b60018060a01b03166001600160601b0360a01b60d254161760d2556105405180f35b3461029057602036600319011261029057610235600435614045565b346102905760206102f36123043661329b565b999890989791979692969593956154b5565b3461029057610540518060031936011261088d576123326135ae565b603380546001600160a01b031981169091556000906001600160a01b03167f8be0079c531659141344cd1fd0a4f28419497f9722a3daafe3b4186f6b6457e08280a36105405180f35b346102905760203660031901126102905760043560048110156102905760005260d3602052611de6611dd260406000206134ba565b34610290576040366003190112610290576123c9613194565b6123d16131aa565b9060018060a01b03809116610540515260d16020526040610540512091166000526020526020604060002054604051908152f35b3461029057610540518060031936011261088d5760d2546040516001600160a01b039091168152602090f35b3461029057610540518060031936011261088d576020604051737506c12a824d73d9b08564d5afc22c949434755e8152f35b3461029057610540518060031936011261088d577f00000000000000000000000000000000000000000000000000000000000000006001600160a01b031630036124bf5760206040516000805160206155eb8339815191528152f35b60405162461bcd60e51b815260206004820152603860248201527f555550535570677261646561626c653a206d757374206e6f742062652063616c60448201527f6c6564207468726f7567682064656c656761746563616c6c00000000000000006064820152608490fd5b34610290576101c036600319011261029057612544613194565b61254c6131aa565b6125546131d6565b61255c613202565b9061256561322f565b9261256e6131ec565b946101243563ffffffff811681036108145761014435916001600160a01b038316830361081457611de697611dd2976101a435976101843597610164359761010435956064359160443591614b87565b6040366003190112610290576125d2613194565b6024356001600160401b038111610290573660238201121561029057612602903690602481600401359101613449565b6001600160a01b037f0000000000000000000000000000000000000000000000000000000000000000811692919061263c3085141561364f565b6126596000805160206155eb8339815191529482865416146136b0565b6126616135ae565b7f4910fdfa16fed3260ed0e7147f7cc6da11a60208b5b9406d12a635614ffd91435460ff16156126975750506102359150613711565b82919216604051936352d1902d60e01b85526020948581600481865afa60009181612894575b5061271e5760405162461bcd60e51b815260048101879052602e60248201527f45524331393637557067726164653a206e657720696d706c656d656e7461746960448201526d6f6e206973206e6f74205555505360901b6064820152608490fd5b0361283d5761272c82613711565b604051907fbc7cd75a20ee27fd9adebab32041f755214dbc6bffa90cc0225b39da2e5c2d3b600080a2825115801590612835575b61276e575b50505050610235565b813b156127e457506000828192856127da9695519201905af461278f6137a1565b907f416464726573733a206c6f772d6c6576656c2064656c65676174652063616c6c604051936127be856133f2565b60278552840152660819985a5b195960ca1b60408401526137d1565b5080808080612765565b62461bcd60e51b815260048101849052602660248201527f416464726573733a2064656c65676174652063616c6c20746f206e6f6e2d636f6044820152651b9d1c9858dd60d21b6064820152608490fd5b506001612760565b60405162461bcd60e51b815260048101859052602960248201527f45524331393637557067726164653a20756e737570706f727465642070726f786044820152681a58589b195555525160ba1b6064820152608490fd5b9091508681813d83116128bc575b6128ac818361340d565b81010312610814575190876126bd565b503d6128a2565b3461029057610540518060031936011261088d5760cc546040516001600160a01b039091168152602090f35b610540518060031936011261088d5760c95460408051635c08631b60e11b8152916001600160a01b0391908390600490829085165afa90811561082157610540519283926129a8575b5060d2541691823b156102905760405163c1461d5760e01b8152610540513360048301526001600160a01b039390931660248201526044810191909152918290606490829034905af1801561082157612992576105405180f35b61299b9061335c565b6105405180156102355780fd5b925090506040823d6040116129e2575b816129c56040938361340d565b81010312610290576129db602083519301615542565b9083612938565b3d91506129b8565b346102905760208060031936011261029057612a04613194565b6001600160a01b037f00000000000000000000000000000000000000000000000000000000000000008116612a3b3082141561364f565b612a586000805160206155eb8339815191529183835416146136b0565b612a606135ae565b60405191612a6d836133d7565b6105405183527f4910fdfa16fed3260ed0e7147f7cc6da11a60208b5b9406d12a635614ffd91435460ff1615612aaa575050506102359150613711565b83929316906040516352d1902d60e01b81528581600481865afa60009181612b84575b50612b2e5760405162461bcd60e51b815260048101879052602e60248201527f45524331393637557067726164653a206e657720696d706c656d656e7461746960448201526d6f6e206973206e6f74205555505360901b6064820152608490fd5b0361283d57612b3c82613711565b604051907fbc7cd75a20ee27fd9adebab32041f755214dbc6bffa90cc0225b39da2e5c2d3b600080a2825115801590612b7c5761276e5750505050610235565b506000612760565b9091508681813d8311612bac575b612b9c818361340d565b8101031261081457519087612acd565b503d612b92565b3461029057610540518060031936011261088d5760ca546040516001600160a01b039091168152602090f35b3461029057611de6611dd2612bf33661329b565b99989098979197969296959395614148565b34610290576101803660031901126102905760206102f3612c24613194565b612c2c6131aa565b612c346131d6565b90612c3d613202565b92612c4661325b565b612c4e613218565b9161016435956101443595610124359560c435936064359160443591615422565b34610290576101c036600319011261029057612c89613194565b612c916131aa565b90612c9a6131c0565b90612ca36131d6565b9163ffffffff60c4351660c4350361029057612cbd6131ec565b90610184356001600160a01b0381169003610290576101a4356001600160401b03811161029057612cf290369060040161326e565b9590955a604051636eb1769f60e11b81526001600160a01b0387166004820152306024820152909790602081806044810103816001600160a01b0389165afa90811561082157610540519161313e575b506044351161308b576040516323b872dd60e01b81526001600160a01b03878116600483015230602483015260448035908301526105405160209183916064918391908a165af1801561082157613052575b506044354660a43514808061303c575b15612f8657505090612dbe91610184356044358987613d83565b60405163a9059cbb60e01b81526001600160a01b0383811660048301526024820183905261054051929791959192602091879160449183919087165af1801561082157612f4b575b612e2d94505b61014435936101243593610104359360c4359260a43592604435908b6154b5565b9182610540515260d0602052612e6a611305604061054051209560028701966001612e588954614b43565b91828a5501541461140e575a906138a1565b6019810290808204601914811517156113f4576064612e8a92049061387e565b60d2546001600160a01b031694909190853b156102905760405193631bc64ab360e21b855273eeeeeeeeeeeeeeeeeeeeeeeeeeeeeeeeeeeeeeee600486015283602486015260018060a01b031695866044860152846064816105405180945af1908115610821577f0a75ac261583d233f582aa096ae742edd6c1bde7b993c8909f33e8e9c92ee431946113d492612f3c575b505491604051938493846040919493926060820195825260208201520152565b612f459061335c565b87612f1c565b6020853d602011612f7e575b81612f646020938361340d565b8101031261029057612f78612e2d95613b18565b50612e06565b3d9150612f57565b915096915015600014612fb357612e2d93612fae61016435604435848760c43586898d6138ae565b612e0c565b60405163a9059cbb60e01b81526001600160a01b03838116600483015260448035602484015261054051929692602092889291839189165af1801561082157613001575b612e2d9450612e0c565b6020853d602011613034575b8161301a6020938361340d565b810103126102905761302e612e2d95613b18565b50612ff7565b3d915061300d565b506001600160a01b03868116908a161415612da4565b6020813d602011613083575b8161306b6020938361340d565b810103126102905761307c90613b18565b5088612d94565b3d915061305e565b604051636eb1769f60e11b81526001600160a01b03871660048201523060248201528490602081806044810103816001600160a01b0386165afa90811561082157610540519161310c575060405163059d9d6d60e31b815260048101919091526044803560248301526001600160a01b039290921691810191909152606490fd5b90506020813d602011613136575b816131276020938361340d565b81010312610290575182611519565b3d915061311a565b90506020813d602011613168575b816131596020938361340d565b81010312610290575189612d42565b3d915061314c565b346108145760003660031901126108145760c9546001600160a01b03168152602090f35b600435906001600160a01b038216820361081457565b602435906001600160a01b038216820361081457565b606435906001600160a01b038216820361081457565b608435906001600160a01b038216820361081457565b60e435906001600160a01b038216820361081457565b60a435906001600160a01b038216820361081457565b61010435906001600160a01b038216820361081457565b60c435906001600160a01b038216820361081457565b604435906001600160a01b038216820361081457565b60e4359063ffffffff8216820361081457565b9181601f84011215610814578235916001600160401b038311610814576020838186019501011161081457565b610160906003190112610814576001600160a01b0390600435828116810361081457916024358181168103610814579160443591606435818116810361081457916084358281168103610814579160a4359160c43563ffffffff81168103610814579160e43590811681036108145790610104359061012435906101443590565b919082519283825260005b848110613348575050826000602080949584010152601f8019910116010190565b602081830181015184830182015201613327565b6001600160401b03811161336f57604052565b634e487b7160e01b600052604160045260246000fd5b61010081019081106001600160401b0382111761336f57604052565b608081019081106001600160401b0382111761336f57604052565b604081019081106001600160401b0382111761336f57604052565b602081019081106001600160401b0382111761336f57604052565b606081019081106001600160401b0382111761336f57604052565b90601f801991011681019081106001600160401b0382111761336f57604052565b6001600160401b03811161336f57601f01601f191660200190565b9291926134558261342e565b91613463604051938461340d565b829481845281830111610814578281602093846000960137010152565b90600182811c921680156134b0575b602083101461349a57565b634e487b7160e01b600052602260045260246000fd5b91607f169161348f565b90604051918260008254926134ce84613480565b90818452600194858116908160001461353d57506001146134fa575b50506134f89250038361340d565b565b9093915060005260209081600020936000915b8183106135255750506134f8935082010138806134ea565b8554888401850152948501948794509183019161350d565b9150506134f894506020925060ff191682840152151560051b82010138806134ea565b9080601f830112156108145781602061357b93359101613449565b90565b9181601f84011215610814578235916001600160401b038311610814576020808501948460051b01011161081457565b6033546001600160a01b031633036135c257565b606460405162461bcd60e51b815260206004820152602060248201527f4f776e61626c653a2063616c6c6572206973206e6f7420746865206f776e65726044820152fd5b603380546001600160a01b039283166001600160a01b0319821681179092559091167f8be0079c531659141344cd1fd0a4f28419497f9722a3daafe3b4186f6b6457e0600080a3565b1561365657565b60405162461bcd60e51b815260206004820152602c60248201527f46756e6374696f6e206d7573742062652063616c6c6564207468726f7567682060448201526b19195b1959d85d1958d85b1b60a21b6064820152608490fd5b156136b757565b60405162461bcd60e51b815260206004820152602c60248201527f46756e6374696f6e206d7573742062652063616c6c6564207468726f7567682060448201526b6163746976652070726f787960a01b6064820152608490fd5b803b15613746576000805160206155eb83398151915280546001600160a01b0319166001600160a01b03909216919091179055565b60405162461bcd60e51b815260206004820152602d60248201527f455243313936373a206e657720696d706c656d656e746174696f6e206973206e60448201526c1bdd08184818dbdb9d1c9858dd609a1b6064820152608490fd5b3d156137cc573d906137b28261342e565b916137c0604051938461340d565b82523d6000602084013e565b606090565b9091606091156137e057505090565b6134f89193925b8051909250156137fa5750805190602001fd5b60405162461bcd60e51b8152602060048201529081906107e690602483019061331c565b1561382557565b60405162461bcd60e51b815260206004820152602b60248201527f496e697469616c697a61626c653a20636f6e7472616374206973206e6f74206960448201526a6e697469616c697a696e6760a81b6064820152608490fd5b9190820180921161388b57565b634e487b7160e01b600052601160045260246000fd5b9190820391821161388b57565b6001600160a01b0385811698969773b4fbf271143f4fbf7b91a5ded31805e42b2208d6966000969194919391929073b4fbf271143f4fbf7b91a5ded31805e42b2208d5198c01613b04575b508a613a67575b888710613a495790889493929160409381855193169a82808d94602097889687890152169e8f89880152169a8b60608701526060865261393f866133a1565b8160ce54169261394e916138a1565b928751958694859384936393f18ac560e01b855263ffffffff169d8e6004860152169e8f60248501526044840152336064840152608483015260a4820161012c905260c48201610100905261010482016139a79161331c565b8a60e483015203915a90600091f18015613a3e57613a09575b50907f5add7a884c3fcd9dacaee558d72ece5037a4682a29b4e07a9ead795c5f26e0549660c096959493928251968752860152840152426060840152608083015260a0820152a4565b9080969594939291813d8311613a37575b613a24818361340d565b81010312610814579091929394386139c0565b503d613a1a565b83513d6000823e3d90fd5b6044858a6040519163c4225e5760e01b835260048301526024820152fd5b60ce54604051636eb1769f60e11b81523060048201529082166001600160a01b0381166024830152906020816044818d5afa908115610bfc57600091613ad3575b50613ab38b8a61387e565b11613abf575b50613900565b613acd906110dc8b8a61387e565b38613ab9565b906020823d8211613afc575b81613aec6020938361340d565b8101031261088d57505138613aa8565b3d9150613adf565b613b119197508590613f1b565b95386138f9565b5190811515820361081457565b60405163095ea7b360e01b602082019081526001600160a01b0390921660248201526044810192909252600091829190613b62816064810161123d565b51908273b4fbf271143f4fbf7b91a5ded31805e42b2208d65af1613b846137a1565b81613bbc575b5015613b9257565b60405162461bcd60e51b8152602060048201526002602482015261534160f01b6044820152606490fd5b8051801592508215613bd1575b505038613b8a565b8192509060209181010312610814576020613bec9101613b18565b3880613bc9565b60405163095ea7b360e01b602082019081526001600160a01b03909316602482015260448101939093526000928392908390613c32816064810161123d565b51925af1613b846137a1565b9190613c4b913691613449565b9060405190613c59826133bc565b601882527f216469726563745377617070657243616c6c4661696c656400000000000000006020830152344710613cbd57600080846020613ca99651910134855af1613ca36137a1565b91613d11565b602081805181010312610814576020015190565b60405162461bcd60e51b815260206004820152602660248201527f416464726573733a20696e73756666696369656e742062616c616e636520666f6044820152651c8818d85b1b60d21b6064820152608490fd5b919260609115613d76575050815115613d28575090565b3b15613d315790565b60405162461bcd60e51b815260206004820152601d60248201527f416464726573733a2063616c6c20746f206e6f6e2d636f6e74726163740000006044820152606490fd5b9093926134f892506137e7565b6001600160a01b038082169796959493919281168814613f12578316908115613ed757604051636eb1769f60e11b81523060048201526001600160a01b03851660248201526020988990829060449082905afa908115610bfc57600091613eaa575b5010613df9575b505061357b939450613c3e565b6000918291826040518a81019263095ea7b360e01b845260248201528119604482015260448152613e29816133a1565b51925af1613e356137a1565b81613e72575b5015613e48578480613dec565b60405162461bcd60e51b8152600481018690526002602482015261534160f01b6044820152606490fd5b80915051868115918215613e8b575b5050905038613e3b565b83809293500103126108145785613ea29101613b18565b808638613e81565b908982813d8311613ed0575b613ec0818361340d565b8101031261088d57505138613de5565b503d613eb6565b60405162461bcd60e51b8152602060048201526013602482015272537761703a207a65726f20737761707065722160681b6044820152606490fd5b50955050505050565b60cf546001600160a01b039283929091613f39908390851683613bf3565b8260405191613f4783613385565b1681526020810173b4fbf271143f4fbf7b91a5ded31805e42b2208d6815283604083016101f481526060840194308652608085019042825260a0860190815260c08601916000998a9889855260e08901958a8752828060cf5416996040519d8e9c8d63414bf38960e01b9052511660048d0152511660248b01525162ffffff1660448a0152511660648801525160848701525160a48601525160c4850152511660e4830152815a9361010492602095f191821561403957809261400957505090565b9091506020823d8211614031575b816140246020938361340d565b8101031261088d57505190565b3d9150614017565b604051903d90823e3d90fd5b60009080825260d06020526040908183208251614061816133a1565b60018060a01b039160606003848354169283855260018101546020860152600281015488860152015492019182521561411557519060c9541690813b15614111578491602483928651948593849263ee8ca3b560e01b845260048401525af18015614104579160039391600095936140f1575b50825260d060205281209081558260018201558260028201550155565b6140fd9093919361335c565b91386140d4565b50505051903d90823e3d90fd5b8480fd5b835162461bcd60e51b815260206004820152600c60248201526b139bc81293d088119bdd5b9960a21b6044820152606490fd5b99959097969298949161417a61417461416e61416e6141686004956142ce565b9e614436565b9b614436565b95614436565b60ce5460405163617d935360e11b81529260209184919082906001600160a01b03165afa918215610bfc5760009261429b575b506141b730614436565b946141c190614436565b956040519c8d9b60208d016101c090526101e08d016141df9161331c565b8c601f199e8f92838382030160408401526141f99161331c565b9181830301906060015261420c9161331c565b8c8c82030160808d015261421f9161331c565b8b8b82030160a08c01526142329161331c565b924660c08b015260e08a015261010089015263ffffffff1661012088015287878203016101408801526142649161331c565b86868203016101608701526142789161331c565b926101808501526101a08401526101c083015203908101825261357b908261340d565b90916020823d82116142c6575b816142b56020938361340d565b8101031261088d57505190386141ad565b3d91506142a8565b806000917a184f03e93ff9f4daa797ed6e38ed64bf6a1f01000000000000000080821015614428575b506d04ee2d6d415b85acef810000000080831015614419575b50662386f26fc100008083101561440a575b506305f5e100808310156143fb575b50612710808310156143ec575b5060648210156143dc575b600a809210156143d2575b600190816021818601956143678761342e565b96614375604051988961340d565b808852614384601f199161342e565b01366020890137860101905b61439c575b5050505090565b600019019083906f181899199a1a9b1b9c1cb0b131b232b360811b8282061a8353049182156143cd57919082614390565b614395565b9160010191614354565b9190606460029104910191614349565b6004919392049101913861433e565b60089193920491019138614331565b60109193920491019138614322565b60209193920491019138614310565b6040935081049150386142f7565b604051906001600160a01b031661444c826133f2565b602a825260209081830160403682378351156145435760309053825160019081101561454357607860218501536029905b8082116144d157505061448e575090565b6064906040519062461bcd60e51b825280600483015260248201527f537472696e67733a20686578206c656e67746820696e73756666696369656e746044820152fd5b9091600f8116601081101561452e57855184101561452e576f181899199a1a9b1b9c1cb0b131b232b360811b901a85840185015360041c91801561451957600019019061447d565b60246000634e487b7160e01b81526011600452fd5b60246000634e487b7160e01b81526032600452fd5b634e487b7160e01b600052603260045260246000fd5b8181029291811591840414171561388b57565b6107a091909152604051636eb1769f60e11b8082523360048301523060248301529399929891979296919592949193906020816044816001600160a01b038e165afa908115610bfc57600091614aad575b506107a05111614a0e5750876145e287878787878f88908f89906107a0519033614148565b6146a4896146968d604051906145f7826133d7565b60008083526040516307e47b2560e01b60208201523360248201526001600160a01b0395861660448201526107a0516064820152978516608489015290841660a488015260c4870188905263ffffffff891660e488015292891661010487015261012486018a905261014486018b905261016486018c905261018486018390526101a48601929092526101c06101c486015284916101e483019061331c565b03601f19810184528361340d565b6000805260d360205261479f61478a6146dc7f938258ec6d8d468a3507d140e1c026dc2afa285c097847a088da7b50946fb91b6134ba565b92604051936146ea856133a1565b600385526060366020870137600161471e614703614adf565b9660405197614711896133bc565b8189526020890152614b16565b52600261472b8651614b23565b5260046147388651614b33565b5261475b6147468d8d615579565b60208701519061475582614b16565b52614b16565b5061478460405161476b816133d7565b6000815260208701519061477e82614b23565b52614b23565b506155a9565b60208301519061479982614b33565b52614b33565b506147e160018060a01b0360c95416926040518061078052633323b46760e01b905230600461078051015260806024610780510152608461078051019061331c565b9061078051604460031982850301910152604082019080519160408452825180915260206060850193019060005b8181106149ef5750505060200151916020818303910152815180825260208201916020808360051b8301019401926000915b8383106149c2575050505050602091600091826064610780510152610780519283809203925af1988915610bfc57600099614988575b908161489888888888888f8f99899163ffffffff9c9b6107a05190336154b5565b996040516148a5816133a1565b33815260038d8d602084018b81526040850191600083526060860193845260005260d060205260406000209460018060a01b039051166001600160601b0360a01b865416178555516001850155516002840155519101556040519b8c526107a05160208d015260018060a01b031660408c015260018060a01b031660608b015260808a01521660a088015260018060a01b031660c087015260e0860152610100850152610120840152600061014084015260018060a01b0316917f65a03e0830b01d78daf919e861a7af45abacd89f015dec2962f6ec272c69c1be6101603392a4565b986020903d6020116149ba575b6149a2826107805161340d565b60206107805180938101031261088d57505198614877565b3d9150614995565b90919293946020806149e0600193601f19868203018752895161331c565b97019301930191939290614841565b90919360208082614a036001948951615556565b01950192910161480f565b60405190815233600482015230602482015288906020816044816001600160a01b0386165afa908115610bfc57600091614a7b575b5060405163059d9d6d60e31b81526107a051600482019290925260248101919091526001600160a01b03919091166044820152606490fd5b906020823d602011614aa5575b81614a956020938361340d565b8101031261088d57505182614a43565b3d9150614a88565b906020823d602011614ad7575b81614ac76020938361340d565b8101031261088d575051386145bd565b3d9150614aba565b60405190614aec826133a1565b60038252819060005b606080821015614b0f579060209182828701015201614af5565b5050909150565b8051156145435760200190565b8051600110156145435760400190565b8051600210156145435760600190565b600019811461388b5760010190565b91908110156145435760051b0190565b356001600160a01b03811681036108145790565b3563ffffffff811681036108145790565b9099989693949192614bcc6141749c9e9d9c614174614174614bc6614bc0614bba614bb460049e9b6142ce565b976142ce565b97614436565b9f614436565b99614436565b60ce5460405163617d935360e11b8152989197916020918a919082906001600160a01b03165afa978815610bfc57600098614d88575b50614c0c30614436565b9a614c1690614436565b9b604051806107a05260200161022090526107a05161024001614c389161331c565b6107a051601f19818303019060400152614c519161331c565b6107a051601f19818303019060600152614c6a9161331c565b6107a051601f19818303019060800152614c839161331c565b6107a051601f19818303019060a00152614c9c9161331c565b6107a051601f19818303019060c00152614cb59161331c565b6107a051601f19818303019060e00152614cce9161331c565b6107a051601f1981830301906101000152614ce89161331c565b92466107a05161012001526107a05161014001526107a051610160015263ffffffff166107a05161018001526107a051601f1981830301906101a00152614d2e9161331c565b6107a051601f1981830301906101c00152614d489161331c565b926107a0516101e001526107a05161020001526107a05161022001526107a05180910390601f19820190526107a05190614d819161340d565b6107a05190565b90976020823d8211614db3575b81614da26020938361340d565b8101031261088d5750519638614c02565b3d9150614d95565b6107605261078052604051636eb1769f60e11b8152336004820152306024820152919b909a99989796959492939092916020818e81806044810103916001600160a01b03165afa908115610bfc57600091615336575b50610780511161529057888888888f8f968f968a8c93610780519a610760519b339c614e3c9d614b87565b9060405191614e4a836133d7565b600080845260405163c728b83d60e01b6020820152336024820152610760516001600160a01b039081166044830152610780516064830152608482018e90528e811660a483015286811660c483015260e4820188905263ffffffff8916610104830152891661012482015261014481018a905261016481018b905261018481018c90526101a481018290526101c48101919091526101e06101e4820152928390614ef99061020483019061331c565b03601f1981018452614f0b908461340d565b604051614f17816133a1565b600381526060366020830137614f2b614adf565b6040518061072052614f3c906133bc565b8161072051526107205160200152614f5390614b16565b600190526107205151614f6590614b23565b600290526107205151614f7790614b33565b60049052614f858a8a615579565b610720516020015190614f9782614b16565b52614fa190614b16565b50604051614fae816133d7565b60008152610720516020015190614fc482614b23565b52614fce90614b23565b50614fd8916155a9565b610720516020015190614fea82614b33565b52614ff490614b33565b50600160a01b6001900360c95416906040516107406107c052806107c05152633323b46760e01b9052306107c05151600401526107c05151602401608090526107c051516084016150449161331c565b6107c051516003198183030190604401526040810161072051519060408352815180915260608301916020019060005b818110615271575050506020610720510151916020818303910152815180825260208201916020808360051b8301019401926000915b8383106152445750505050506020916000918260646107c0515101526107c051519283809203925af1988915610bfc57600099615200575b908161510689898989898f9988819a63ffffffff9d9c610780516107605133615422565b99604051615113816133a1565b33815260038d8d602084018c81526040850191600083526060860193845260005260d060205260406000209460018060a01b039051166001600160601b0360a01b865416178555516001850155516002840155519101556040519b8c526107805160208d015260408c015260018060a01b031660608b015260018060a01b031660808a015260a08901521660c087015260018060a01b031660e0860152610100850152610120840152610140830152600161016083015260018060a01b036107605116917f32f4f6a7671e85f9cbbc8150e33f27f39c69f205f8e9deda5a3127f49f6b0ff26101803392a4565b929190986020903d60201161523c575b61521e826107c0515161340d565b60206107c0515180938101031261088d5750519891929091906150e2565b3d9150615210565b9091929394602080615262600193601f19868203018752895161331c565b970193019301919392906150aa565b909192602080826152856001948851615556565b019401929101615074565b604051636eb1769f60e11b81523360048201523060248201528c906020816044816001600160a01b0386165afa908115610bfc57600091615304575b5060405163059d9d6d60e31b815261078051600482019290925260248101919091526001600160a01b03919091166044820152606490fd5b906020823d60201161532e575b8161531e6020938361340d565b8101031261088d575051826152cc565b3d9150615311565b906020823d602011615360575b816153506020938361340d565b8101031261088d57505138614e11565b3d9150615343565b60405163a9059cbb60e01b602082019081526001600160a01b039093166024820152604481019390935260009283929083906153a7816064810161123d565b51925af16153b36137a1565b816153eb575b50156153c157565b60405162461bcd60e51b815260206004820152600260248201526114d560f21b6044820152606490fd5b8051801592508215615400575b5050386153b9565b819250906020918101031261081457602061541b9101613b18565b38806153f8565b9a9896939997949095929a6040519a60208c019c8d948d600160a01b60019003809b81988280981690521660408201526060015260808d01521660a08b01521660c089015260e088015263ffffffff1661010087015216610120850152610140840152610160830152610180908183015281526101a081018181106001600160401b0382111761336f5760405251902090565b9163ffffffff9399979460609b9997939692966040519b8c93602085019e8f9560018060a01b03809c819882809816905216604082015201521660808c01521660a08a015260c08901521660e0870152166101008501526101208401526101408301526101609081830152815261018081018181106001600160401b0382111761336f5760405251902090565b51906001600160a01b038216820361081457565b9060058210156155635752565b634e487b7160e01b600052602160045260246000fd5b604051916fffffffffffffffffffffffffffffffff80921660208401521660408201526040815261357b816133f2565b6155cb9161357b916155de60405194859260406020850152606084019061331c565b601f19938484830301604085015261331c565b0390810183528261340d56fe360894a13ba1a3210667c828492db98dca3e2076cc3735a920a3ca505d382bbca2646970667358221220c4913d5d657f0e3b45abad946658df78c7bb53985619de32c5c72432359c122f64736f6c63430008110033",
  "linkReferences": {},
  "deployedLinkReferences": {}
}