{
  "_format": "hh-sol-artifact-1",
  "contractName": "AutoPay",
  "sourceName": "contracts/AutoPay.sol",
  "abi": [
    {
      "inputs": [],
      "stateMutability": "nonpayable",
      "type": "constructor"
    },
    {
      "inputs": [
        {
          "internalType": "uint256",
          "name": "allowance",
          "type": "uint256"
        },
        {
          "internalType": "uint256",
          "name": "amount",
          "type": "uint256"
        },
        {
          "internalType": "address",
          "name": "token",
          "type": "address"
        }
      ],
      "name": "Allowance",
      "type": "error"
    },
    {
      "inputs": [
        {
          "internalType": "uint256",
          "name": "_amount",
          "type": "uint256"
        },
        {
          "internalType": "uint256",
          "name": "_relayerFeeInTransactingAsset",
          "type": "uint256"
        }
      ],
      "name": "AmountLessThanRelayer",
      "type": "error"
    },
    {
      "anonymous": false,
      "inputs": [
        {
          "indexed": false,
          "internalType": "address",
          "name": "previousAdmin",
          "type": "address"
        },
        {
          "indexed": false,
          "internalType": "address",
          "name": "newAdmin",
          "type": "address"
        }
      ],
      "name": "AdminChanged",
      "type": "event"
    },
    {
      "anonymous": false,
      "inputs": [
        {
          "indexed": true,
          "internalType": "address",
          "name": "beacon",
          "type": "address"
        }
      ],
      "name": "BeaconUpgraded",
      "type": "event"
    },
    {
      "anonymous": false,
      "inputs": [
        {
          "indexed": true,
          "internalType": "bytes32",
          "name": "_jobId",
          "type": "bytes32"
        },
        {
          "indexed": true,
          "internalType": "address",
          "name": "_from",
          "type": "address"
        },
        {
          "indexed": false,
          "internalType": "uint256",
          "name": "_timesExecuted",
          "type": "uint256"
        },
        {
          "indexed": false,
          "internalType": "uint256",
          "name": "_fundsUsed",
          "type": "uint256"
        },
        {
          "indexed": false,
          "internalType": "uint256",
          "name": "_amountOut",
          "type": "uint256"
        },
        {
          "indexed": false,
          "internalType": "bool",
          "name": "_isForwardPaying",
          "type": "bool"
        }
      ],
      "name": "ExecutedSourceChain",
      "type": "event"
    },
    {
      "anonymous": false,
      "inputs": [
        {
          "indexed": true,
          "internalType": "address",
          "name": "sender",
          "type": "address"
        },
        {
          "indexed": true,
          "internalType": "address",
          "name": "token",
          "type": "address"
        },
        {
          "indexed": true,
          "internalType": "uint256",
          "name": "amount",
          "type": "uint256"
        }
      ],
      "name": "FundsDeposited",
      "type": "event"
    },
    {
      "anonymous": false,
      "inputs": [
        {
          "indexed": true,
          "internalType": "address",
          "name": "receiver",
          "type": "address"
        },
        {
          "indexed": true,
          "internalType": "address",
          "name": "initiator",
          "type": "address"
        },
        {
          "indexed": true,
          "internalType": "address",
          "name": "token",
          "type": "address"
        },
        {
          "indexed": false,
          "internalType": "uint256",
          "name": "amount",
          "type": "uint256"
        }
      ],
      "name": "FundsWithdrawn",
      "type": "event"
    },
    {
      "anonymous": false,
      "inputs": [
        {
          "indexed": false,
          "internalType": "uint8",
          "name": "version",
          "type": "uint8"
        }
      ],
      "name": "Initialized",
      "type": "event"
    },
    {
      "anonymous": false,
      "inputs": [
        {
          "indexed": true,
          "internalType": "address",
          "name": "_taskCreator",
          "type": "address"
        },
        {
          "indexed": true,
          "internalType": "bytes32",
          "name": "_jobId",
          "type": "bytes32"
        },
        {
          "indexed": false,
          "internalType": "bytes32",
          "name": "_gelatoTaskId",
          "type": "bytes32"
        },
        {
          "indexed": true,
          "internalType": "address",
          "name": "_to",
          "type": "address"
        },
        {
          "indexed": false,
          "internalType": "uint256",
          "name": "_amount",
          "type": "uint256"
        },
        {
          "indexed": false,
          "internalType": "address",
          "name": "_fromToken",
          "type": "address"
        },
        {
          "indexed": false,
          "internalType": "address",
          "name": "_toToken",
          "type": "address"
        },
        {
          "indexed": false,
          "internalType": "uint256",
          "name": "_toChain",
          "type": "uint256"
        },
        {
          "indexed": false,
          "internalType": "uint32",
          "name": "_destinationDomain",
          "type": "uint32"
        },
        {
          "indexed": false,
          "internalType": "address",
          "name": "_destinationContract",
          "type": "address"
        },
        {
          "indexed": false,
          "internalType": "uint256",
          "name": "_cycles",
          "type": "uint256"
        },
        {
          "indexed": false,
          "internalType": "uint256",
          "name": "_startTime",
          "type": "uint256"
        },
        {
          "indexed": false,
          "internalType": "uint256",
          "name": "_interval",
          "type": "uint256"
        },
        {
          "indexed": false,
          "internalType": "bool",
          "name": "_isForwardPaying",
          "type": "bool"
        },
        {
          "indexed": false,
          "internalType": "enum AutoPay.Option",
          "name": "option",
          "type": "uint8"
        }
      ],
      "name": "JobCreated",
      "type": "event"
    },
    {
      "anonymous": false,
      "inputs": [
        {
          "indexed": true,
          "internalType": "uint256",
          "name": "txFee",
          "type": "uint256"
        },
        {
          "indexed": true,
          "internalType": "address",
          "name": "feeToken",
          "type": "address"
        },
        {
          "indexed": true,
          "internalType": "address",
          "name": "execAddress",
          "type": "address"
        },
        {
          "indexed": false,
          "internalType": "bytes",
          "name": "execData",
          "type": "bytes"
        },
        {
          "indexed": false,
          "internalType": "bytes32",
          "name": "taskId",
          "type": "bytes32"
        },
        {
          "indexed": false,
          "internalType": "bool",
          "name": "callSuccess",
          "type": "bool"
        }
      ],
      "name": "JobSuccess",
      "type": "event"
    },
    {
      "anonymous": false,
      "inputs": [
        {
          "indexed": true,
          "internalType": "address",
          "name": "previousOwner",
          "type": "address"
        },
        {
          "indexed": true,
          "internalType": "address",
          "name": "newOwner",
          "type": "address"
        }
      ],
      "name": "OwnershipTransferred",
      "type": "event"
    },
    {
      "anonymous": false,
      "inputs": [
        {
          "indexed": true,
          "internalType": "address",
          "name": "implementation",
          "type": "address"
        }
      ],
      "name": "Upgraded",
      "type": "event"
    },
    {
      "anonymous": false,
      "inputs": [
        {
          "indexed": true,
          "internalType": "address",
          "name": "originSender",
          "type": "address"
        },
        {
          "indexed": false,
          "internalType": "uint32",
          "name": "origin",
          "type": "uint32"
        },
        {
          "indexed": false,
          "internalType": "address",
          "name": "asset",
          "type": "address"
        },
        {
          "indexed": false,
          "internalType": "uint256",
          "name": "amount",
          "type": "uint256"
        },
        {
          "indexed": false,
          "internalType": "bytes32",
          "name": "transferId",
          "type": "bytes32"
        },
        {
          "indexed": false,
          "internalType": "uint256",
          "name": "receiveTimestamp",
          "type": "uint256"
        },
        {
          "indexed": false,
          "internalType": "address",
          "name": "senderAccount",
          "type": "address"
        },
        {
          "indexed": false,
          "internalType": "address",
          "name": "receiverAccount",
          "type": "address"
        }
      ],
      "name": "XReceiveData",
      "type": "event"
    },
    {
      "anonymous": false,
      "inputs": [
        {
          "indexed": true,
          "internalType": "address",
          "name": "sender",
          "type": "address"
        },
        {
          "indexed": true,
          "internalType": "address",
          "name": "receiver",
          "type": "address"
        },
        {
          "indexed": true,
          "internalType": "address",
          "name": "fromToken",
          "type": "address"
        },
        {
          "indexed": false,
          "internalType": "address",
          "name": "toToken",
          "type": "address"
        },
        {
          "indexed": false,
          "internalType": "address",
          "name": "destinationContract",
          "type": "address"
        },
        {
          "indexed": false,
          "internalType": "uint256",
          "name": "amount",
          "type": "uint256"
        },
        {
          "indexed": false,
          "internalType": "uint256",
          "name": "startTime",
          "type": "uint256"
        },
        {
          "indexed": false,
          "internalType": "uint256",
          "name": "relayerFeeInTransactingAsset",
          "type": "uint256"
        },
        {
          "indexed": false,
          "internalType": "uint32",
          "name": "destinationDomain",
          "type": "uint32"
        }
      ],
      "name": "XTransferData",
      "type": "event"
    },
    {
      "stateMutability": "payable",
      "type": "fallback"
    },
    {
      "inputs": [
        {
          "internalType": "address",
          "name": "_automate",
          "type": "address"
        },
        {
          "internalType": "address",
          "name": "_fundsOwner",
          "type": "address"
        }
      ],
      "name": "ATC__initialize",
      "outputs": [],
      "stateMutability": "nonpayable",
      "type": "function"
    },
    {
      "inputs": [],
      "name": "FEES",
      "outputs": [
        {
          "internalType": "uint256",
          "name": "",
          "type": "uint256"
        }
      ],
      "stateMutability": "view",
      "type": "function"
    },
    {
      "inputs": [],
      "name": "WETH",
      "outputs": [
        {
          "internalType": "address",
          "name": "",
          "type": "address"
        }
      ],
      "stateMutability": "view",
      "type": "function"
    },
    {
      "inputs": [
        {
          "internalType": "address",
          "name": "_automate",
          "type": "address"
        },
        {
          "internalType": "address",
          "name": "_taskCreator",
          "type": "address"
        }
      ],
      "name": "__initialize",
      "outputs": [],
      "stateMutability": "nonpayable",
      "type": "function"
    },
    {
      "inputs": [
        {
          "internalType": "bytes32",
          "name": "_jobId",
          "type": "bytes32"
        }
      ],
      "name": "_cancelJob",
      "outputs": [],
      "stateMutability": "nonpayable",
      "type": "function"
    },
    {
      "inputs": [
        {
          "internalType": "address[]",
          "name": "_to",
          "type": "address[]"
        },
        {
          "internalType": "uint256[]",
          "name": "_amount",
          "type": "uint256[]"
        },
        {
          "internalType": "address[]",
          "name": "_fromToken",
          "type": "address[]"
        },
        {
          "internalType": "address[]",
          "name": "_toToken",
          "type": "address[]"
        },
        {
          "internalType": "uint256[]",
          "name": "_toChain",
          "type": "uint256[]"
        },
        {
          "internalType": "uint32[]",
          "name": "_destinationDomain",
          "type": "uint32[]"
        },
        {
          "internalType": "address[]",
          "name": "_destinationContract",
          "type": "address[]"
        },
        {
          "internalType": "uint256[]",
          "name": "_cycles",
          "type": "uint256[]"
        },
        {
          "internalType": "uint256[]",
          "name": "_startTime",
          "type": "uint256[]"
        },
        {
          "internalType": "uint256[]",
          "name": "_interval",
          "type": "uint256[]"
        },
        {
          "internalType": "bool",
          "name": "_isForwardPaying",
          "type": "bool"
        }
      ],
      "name": "_createMultipleTimeAutomate",
      "outputs": [],
      "stateMutability": "nonpayable",
      "type": "function"
    },
    {
      "inputs": [
        {
          "internalType": "address",
          "name": "_to",
          "type": "address"
        },
        {
          "internalType": "uint256",
          "name": "_amount",
          "type": "uint256"
        },
        {
          "internalType": "address",
          "name": "_fromToken",
          "type": "address"
        },
        {
          "internalType": "address",
          "name": "_toToken",
          "type": "address"
        },
        {
          "internalType": "uint256",
          "name": "_toChain",
          "type": "uint256"
        },
        {
          "internalType": "uint32",
          "name": "_destinationDomain",
          "type": "uint32"
        },
        {
          "internalType": "address",
          "name": "_destinationContract",
          "type": "address"
        },
        {
          "internalType": "uint256",
          "name": "_cycles",
          "type": "uint256"
        },
        {
          "internalType": "uint256",
          "name": "_startTime",
          "type": "uint256"
        },
        {
          "internalType": "uint256",
          "name": "_interval",
          "type": "uint256"
        },
        {
          "internalType": "bool",
          "name": "_isForwardPaying",
          "type": "bool"
        }
      ],
      "name": "_createTimeAutomate",
      "outputs": [],
      "stateMutability": "nonpayable",
      "type": "function"
    },
    {
      "inputs": [
        {
          "internalType": "bytes32",
          "name": "",
          "type": "bytes32"
        }
      ],
      "name": "_createdJobs",
      "outputs": [
        {
          "internalType": "address",
          "name": "_user",
          "type": "address"
        },
        {
          "internalType": "uint256",
          "name": "_totalCycles",
          "type": "uint256"
        },
        {
          "internalType": "uint256",
          "name": "_executedCycles",
          "type": "uint256"
        },
        {
          "internalType": "bytes32",
          "name": "_gelatoTaskID",
          "type": "bytes32"
        }
      ],
      "stateMutability": "view",
      "type": "function"
    },
    {
      "inputs": [
        {
          "internalType": "bytes32",
          "name": "_gelatoTaskID",
          "type": "bytes32"
        }
      ],
      "name": "_forceCancelGelato",
      "outputs": [],
      "stateMutability": "nonpayable",
      "type": "function"
    },
    {
      "inputs": [
        {
          "internalType": "address",
          "name": "_from",
          "type": "address"
        },
        {
          "internalType": "address",
          "name": "_to",
          "type": "address"
        },
        {
          "internalType": "uint256",
          "name": "_amount",
          "type": "uint256"
        },
        {
          "internalType": "address",
          "name": "_fromToken",
          "type": "address"
        },
        {
          "internalType": "address",
          "name": "_toToken",
          "type": "address"
        },
        {
          "internalType": "uint256",
          "name": "_toChain",
          "type": "uint256"
        },
        {
          "internalType": "uint32",
          "name": "_destinationDomain",
          "type": "uint32"
        },
        {
          "internalType": "address",
          "name": "_destinationContract",
          "type": "address"
        },
        {
          "internalType": "uint256",
          "name": "_cycles",
          "type": "uint256"
        },
        {
          "internalType": "uint256",
          "name": "_startTime",
          "type": "uint256"
        },
        {
          "internalType": "uint256",
          "name": "_interval",
          "type": "uint256"
        }
      ],
      "name": "_getAutomateJobId",
      "outputs": [
        {
          "internalType": "bytes32",
          "name": "",
          "type": "bytes32"
        }
      ],
      "stateMutability": "pure",
      "type": "function"
    },
    {
      "inputs": [
        {
          "internalType": "address",
          "name": "_from",
          "type": "address"
        },
        {
          "internalType": "address",
          "name": "_to",
          "type": "address"
        },
        {
          "internalType": "uint256",
          "name": "_amount",
          "type": "uint256"
        },
        {
          "internalType": "address",
          "name": "_fromToken",
          "type": "address"
        },
        {
          "internalType": "address",
          "name": "_toToken",
          "type": "address"
        },
        {
          "internalType": "uint256",
          "name": "_toChain",
          "type": "uint256"
        },
        {
          "internalType": "uint32",
          "name": "_destinationDomain",
          "type": "uint32"
        },
        {
          "internalType": "address",
          "name": "_destinationContract",
          "type": "address"
        },
        {
          "internalType": "uint256",
          "name": "_cycles",
          "type": "uint256"
        },
        {
          "internalType": "uint256",
          "name": "_startTime",
          "type": "uint256"
        },
        {
          "internalType": "uint256",
          "name": "_interval",
          "type": "uint256"
        },
        {
          "internalType": "bool",
          "name": "_isForwardPaying",
          "type": "bool"
        }
      ],
      "name": "_getWeb3FunctionHash",
      "outputs": [
        {
          "internalType": "bytes",
          "name": "",
          "type": "bytes"
        }
      ],
      "stateMutability": "view",
      "type": "function"
    },
    {
      "inputs": [
        {
          "internalType": "address",
          "name": "_fromAsset",
          "type": "address"
        },
        {
          "internalType": "address",
          "name": "_toAsset",
          "type": "address"
        },
        {
          "internalType": "uint256",
          "name": "_amountIn",
          "type": "uint256"
        },
        {
          "internalType": "address",
          "name": "_swapper",
          "type": "address"
        },
        {
          "internalType": "bytes",
          "name": "_swapData",
          "type": "bytes"
        }
      ],
      "name": "_setupAndSwap",
      "outputs": [
        {
          "internalType": "uint256",
          "name": "amountOut",
          "type": "uint256"
        }
      ],
      "stateMutability": "nonpayable",
      "type": "function"
    },
    {
      "inputs": [
        {
          "internalType": "address",
          "name": "_from",
          "type": "address"
        },
        {
          "internalType": "address",
          "name": "_to",
          "type": "address"
        },
        {
          "internalType": "uint256",
          "name": "_amount",
          "type": "uint256"
        },
        {
          "internalType": "address",
          "name": "_fromToken",
          "type": "address"
        },
        {
          "internalType": "address",
          "name": "_toToken",
          "type": "address"
        },
        {
          "internalType": "uint256",
          "name": "_toChain",
          "type": "uint256"
        },
        {
          "internalType": "uint32",
          "name": "_destinationDomain",
          "type": "uint32"
        },
        {
          "internalType": "address",
          "name": "_destinationContract",
          "type": "address"
        },
        {
          "internalType": "uint256",
          "name": "_cycles",
          "type": "uint256"
        },
        {
          "internalType": "uint256",
          "name": "_startTime",
          "type": "uint256"
        },
        {
          "internalType": "uint256",
          "name": "_interval",
          "type": "uint256"
        },
        {
          "internalType": "uint256",
          "name": "_relayerFeeInTransactingAsset",
          "type": "uint256"
        },
        {
          "internalType": "bool",
          "name": "_isForwardPaying",
          "type": "bool"
        },
        {
          "internalType": "address",
          "name": "_swapper",
          "type": "address"
        },
        {
          "internalType": "bytes",
          "name": "_swapData",
          "type": "bytes"
        }
      ],
      "name": "_timeAutomateCron",
      "outputs": [],
      "stateMutability": "nonpayable",
      "type": "function"
    },
    {
      "inputs": [
        {
          "internalType": "enum AutoPay.Option",
          "name": "",
          "type": "uint8"
        }
      ],
      "name": "_web3functionHashes",
      "outputs": [
        {
          "internalType": "string",
          "name": "",
          "type": "string"
        }
      ],
      "stateMutability": "view",
      "type": "function"
    },
    {
      "inputs": [
        {
          "internalType": "uint8",
          "name": "",
          "type": "uint8"
        }
      ],
      "name": "_web3functionHashesNew",
      "outputs": [
        {
          "internalType": "string",
          "name": "",
          "type": "string"
        }
      ],
      "stateMutability": "view",
      "type": "function"
    },
    {
      "inputs": [],
      "name": "automate",
      "outputs": [
        {
          "internalType": "contract IAutomate",
          "name": "",
          "type": "address"
        }
      ],
      "stateMutability": "view",
      "type": "function"
    },
    {
      "inputs": [],
      "name": "checkBalance",
      "outputs": [
        {
          "internalType": "uint256",
          "name": "",
          "type": "uint256"
        }
      ],
      "stateMutability": "view",
      "type": "function"
    },
    {
      "inputs": [],
      "name": "connext",
      "outputs": [
        {
          "internalType": "contract IConnext",
          "name": "",
          "type": "address"
        }
      ],
      "stateMutability": "view",
      "type": "function"
    },
    {
      "inputs": [],
      "name": "dedicatedMsgSender",
      "outputs": [
        {
          "internalType": "address",
          "name": "",
          "type": "address"
        }
      ],
      "stateMutability": "view",
      "type": "function"
    },
    {
      "inputs": [
        {
          "internalType": "address",
          "name": "_swapper",
          "type": "address"
        },
        {
          "internalType": "bytes",
          "name": "swapData",
          "type": "bytes"
        }
      ],
      "name": "directSwapperCall",
      "outputs": [
        {
          "internalType": "uint256",
          "name": "amountOut",
          "type": "uint256"
        }
      ],
      "stateMutability": "payable",
      "type": "function"
    },
    {
      "inputs": [],
      "name": "fundsOwner",
      "outputs": [
        {
          "internalType": "address",
          "name": "",
          "type": "address"
        }
      ],
      "stateMutability": "view",
      "type": "function"
    },
    {
      "inputs": [],
      "name": "gelato1Balance",
      "outputs": [
        {
          "internalType": "contract IGelato1Balance",
          "name": "",
          "type": "address"
        }
      ],
      "stateMutability": "view",
      "type": "function"
    },
    {
      "inputs": [
        {
          "internalType": "address",
          "name": "_address",
          "type": "address"
        }
      ],
      "name": "getBalanceOfToken",
      "outputs": [
        {
          "internalType": "uint256",
          "name": "",
          "type": "uint256"
        }
      ],
      "stateMutability": "view",
      "type": "function"
    },
    {
      "inputs": [
        {
          "internalType": "contract IConnext",
          "name": "_connext",
          "type": "address"
        },
        {
          "internalType": "contract ISwapRouter",
          "name": "_swapRouter",
          "type": "address"
        },
        {
          "internalType": "address payable",
          "name": "_ops",
          "type": "address"
        }
      ],
      "name": "initialize",
      "outputs": [],
      "stateMutability": "nonpayable",
      "type": "function"
    },
    {
      "inputs": [],
      "name": "owner",
      "outputs": [
        {
          "internalType": "address",
          "name": "",
          "type": "address"
        }
      ],
      "stateMutability": "view",
      "type": "function"
    },
    {
      "inputs": [],
      "name": "proxiableUUID",
      "outputs": [
        {
          "internalType": "bytes32",
          "name": "",
          "type": "bytes32"
        }
      ],
      "stateMutability": "view",
      "type": "function"
    },
    {
      "inputs": [],
      "name": "renounceOwnership",
      "outputs": [],
      "stateMutability": "nonpayable",
      "type": "function"
    },
    {
      "inputs": [
        {
          "internalType": "address",
          "name": "_fromToken",
          "type": "address"
        },
        {
          "internalType": "address",
          "name": "_toToken",
          "type": "address"
        },
        {
          "internalType": "uint256",
          "name": "amountIn",
          "type": "uint256"
        }
      ],
      "name": "swapExactInputSingle",
      "outputs": [
        {
          "internalType": "uint256",
          "name": "amountOut",
          "type": "uint256"
        }
      ],
      "stateMutability": "nonpayable",
      "type": "function"
    },
    {
      "inputs": [],
      "name": "swapRouter",
      "outputs": [
        {
          "internalType": "contract ISwapRouter",
          "name": "",
          "type": "address"
        }
      ],
      "stateMutability": "view",
      "type": "function"
    },
    {
      "inputs": [
        {
          "internalType": "address",
          "name": "newOwner",
          "type": "address"
        }
      ],
      "name": "transferOwnership",
      "outputs": [],
      "stateMutability": "nonpayable",
      "type": "function"
    },
    {
      "inputs": [],
      "name": "treasury",
      "outputs": [
        {
          "internalType": "contract ITreasury",
          "name": "",
          "type": "address"
        }
      ],
      "stateMutability": "view",
      "type": "function"
    },
    {
      "inputs": [
        {
          "internalType": "address",
          "name": "_treasury",
          "type": "address"
        }
      ],
      "name": "updateTreasury",
      "outputs": [],
      "stateMutability": "nonpayable",
      "type": "function"
    },
    {
      "inputs": [
        {
          "internalType": "enum AutoPay.Option[]",
          "name": "_types",
          "type": "uint8[]"
        },
        {
          "internalType": "string[]",
          "name": "_hashes",
          "type": "string[]"
        }
      ],
      "name": "updateWeb3functionHashes",
      "outputs": [],
      "stateMutability": "nonpayable",
      "type": "function"
    },
    {
      "inputs": [
        {
          "internalType": "address",
          "name": "newImplementation",
          "type": "address"
        }
      ],
      "name": "upgradeTo",
      "outputs": [],
      "stateMutability": "nonpayable",
      "type": "function"
    },
    {
      "inputs": [
        {
          "internalType": "address",
          "name": "newImplementation",
          "type": "address"
        },
        {
          "internalType": "bytes",
          "name": "data",
          "type": "bytes"
        }
      ],
      "name": "upgradeToAndCall",
      "outputs": [],
      "stateMutability": "payable",
      "type": "function"
    },
    {
      "inputs": [
        {
          "internalType": "address",
          "name": "",
          "type": "address"
        },
        {
          "internalType": "address",
          "name": "",
          "type": "address"
        }
      ],
      "name": "userBalance",
      "outputs": [
        {
          "internalType": "uint256",
          "name": "",
          "type": "uint256"
        }
      ],
      "stateMutability": "view",
      "type": "function"
    },
    {
      "inputs": [
        {
          "internalType": "address",
          "name": "from",
          "type": "address"
        },
        {
          "internalType": "address",
          "name": "recipient",
          "type": "address"
        },
        {
          "internalType": "address",
          "name": "destinationContract",
          "type": "address"
        },
        {
          "internalType": "uint32",
          "name": "destinationDomain",
          "type": "uint32"
        },
        {
          "internalType": "address",
          "name": "fromToken",
          "type": "address"
        },
        {
          "internalType": "address",
          "name": "toToken",
          "type": "address"
        },
        {
          "internalType": "uint256",
          "name": "amount",
          "type": "uint256"
        },
        {
          "internalType": "uint256",
          "name": "slippage",
          "type": "uint256"
        },
        {
          "internalType": "uint256",
          "name": "relayerFeeInTransactingAsset",
          "type": "uint256"
        }
      ],
      "name": "xTransfer",
      "outputs": [],
      "stateMutability": "nonpayable",
      "type": "function"
    },
    {
      "stateMutability": "payable",
      "type": "receive"
    }
  ],
  "bytecode": "0x60a08060405234620000e157306080526000549060ff8260081c166200008f575060ff8082160362000053575b6040516141589081620000e782396080518181816123820152818161248201526127300152f35b60ff90811916176000557f7f26b83ff96e1f2b6a682f133852f6798a09c465da95921460cefb3847402498602060405160ff8152a1386200002c565b62461bcd60e51b815260206004820152602760248201527f496e697469616c697a61626c653a20636f6e747261637420697320696e697469604482015266616c697a696e6760c81b6064820152608490fd5b600080fdfe61036080604052600436101561001b575b50361561001957005b005b60006102605260003560e01c908163049aacfe146129295750806313a1169c1461290557806328f150eb146128d95780633659cfe61461270b57806346ee3c59146126df5780634f1ef2861461243357806352d1902d1461236c57806357fb1d671461233a57806361d027b31461230e57806362a4b0a9146122b657806369d13cd91461227d5780636c3f9a5b14611e5f578063715018a614611dfa578063717a8dd714611d935780637e2704cc14611d775780637f51bb1f14611d3457806383786f8c14611caf5780638b7b23ee14611c8e5780638da5cb5b14611c62578063a0d7010214611c23578063a45472b214611382578063a8f383f514611328578063ad5c4648146112f6578063b1e7ed58146110c9578063b6c8c5bd14611050578063baee130a14611015578063c0c53b8b14610c89578063c31c9c0714610c5d578063c6fd398d14610bce578063c71daccb14610baf578063c736d038146108a3578063caf9e1911461067e578063ceb920121461053b578063d8524c6f146102f3578063de4b0548146102c4578063f19f1a9b146102605763f2fde38b146101c55738610010565b34610259576020366003190112610259576101de61294d565b6101e6612c7a565b6001600160a01b03811615610205576101fe90612cd2565b6102605180f35b60405162461bcd60e51b815260206004820152602660248201527f4f776e61626c653a206e6577206f776e657220697320746865207a65726f206160448201526564647265737360d01b6064820152608490fd5b6102605180fd5b346102595760a03660031901126102595761027961294d565b610281612963565b610289612979565b91608435916001600160401b038311610259576020936102b06102bc943690600401612c4d565b939092604435916131c9565b604051908152f35b346102595761026051806003193601126102f05760ce546040516001600160a01b039091168152602090f35b80fd5b346102595760403660031901126102595761030c61294d565b610314612963565b9061033160ff610260515460081c1661032c81612f36565b612f36565b60c980546001600160a01b039283166001600160a01b0319918216811790925560405163573ea57560e01b8152909391906020908181600481865afa80156104805785916102605191610501575b50928291602494168760cb54161760cb556040519384809263cd3d4fb960e01b8252600260048301525afa801561048057849261026051916104c8575b508190600460405180958193632e8743fd60e21b8352165afa8015610480578492610260519161048e575b5060409060248251809581936337b6269f60e21b8352306004840152165afa9081156104805784926102605192610436575b5050168360ca54161760ca55169060cc54161760cc556102605180f35b915091506040813d604011610478575b8161045360409383612a67565b8101031261025957610470849261046983613f5d565b9201612fc6565b508580610419565b3d9150610446565b6040513d61026051823e3d90fd5b809350828092503d83116104c1575b6104a78183612a67565b810103126102595760406104bb8593613f5d565b906103e7565b503d61049d565b809350828092503d83116104fa575b6104e18183612a67565b8101031261025957806104f48593613f5d565b906103bc565b503d6104d7565b809250838092503d8311610534575b61051a8183612a67565b81010312610259575184811681036102595784908261037f565b503d610510565b346102595760603660031901126102595761055461294d565b61055c612963565b60cf546001600160a01b039283926044359261057c9084908616846130a1565b836040519261058a846129fa565b1682526020948593818585019316835260408401906101f4825260608501903082526080860142815260a087019182528460c08801936000855260e089019560008752828060cf5416996040519d8e9c8d63414bf38960e01b9052511660048d0152511660248b01525162ffffff1660448a0152511660648801525160848701525160a48601525160c4850152511660e4830152815a61010492600091f190811561067257600091610640575b50604051908152f35b90508181813d831161066b575b6106578183612a67565b81010312610666575182610637565b600080fd5b503d61064d565b6040513d6000823e3d90fd5b346102595760403660031901126102595761069761294d565b61069f612963565b906106b360ff610260515460081c16612f36565b60c980546001600160a01b039283166001600160a01b0319918216811790925560405163573ea57560e01b8152909360209290918381600481855afa918215610480578585926102605194610865575b50602493168760cb54161760cb556040519283809263cd3d4fb960e01b8252600260048301525afa9081156104805784918491610260519161082e575b50600460405180948193632e8743fd60e21b8352165afa90811561048057849061026051926107f1575b50604080516337b6269f60e21b815293821660048501529183916024918391165afa9182156104805761026051926107b0575b5050169060ca54161760ca556102605180f35b9091506040823d6040116107e9575b816107cc60409383612a67565b81010312610259576107e19061046983613f5d565b50838061079d565b3d91506107bf565b809250848092503d8311610827575b61080a8183612a67565b8101031261025957836024610820604093613f5d565b925061076a565b503d610800565b92505081813d831161085e575b6108458183612a67565b8101031261025957826108588592613f5d565b87610740565b503d61083b565b92809294508391503d831161089c575b61087f8183612a67565b810103126102595751848116810361025957908390856024610703565b503d610875565b3461025957610120366003190112610259576108bd61294d565b6108c5612963565b906108ce6129bb565b6064359263ffffffff84168403610666576108e761298f565b9360a435926001600160a01b0384168403610666576001600160a01b0386169560009073fd2ab41e083c75085807c4a65c0a14fdd93d55a8198801610b9b575b5086610add575b610104358110610aba57604080516001600160a01b038881166020838101919091528782169383019390935287166060808301919091528152610a009261097482612a16565b60ce546001600160a01b03169061098f906101043590612fb9565b9460006040518096819582946393f18ac560e01b845263ffffffff8c16600485015260018060a01b0316998a602485015273fd2ab41e083c75085807c4a65c0a14fdd93d55a96044850152336064850152608484015260e43560a484015261010060c4840152610104830190612bba565b6101043560e483015203925af1801561067257610a8b575b50604080516001600160a01b039586168152602081019290925260c4359082015242606082015261010435608082015263ffffffff9190911660a082015290821692909116907f5add7a884c3fcd9dacaee558d72ece5037a4682a29b4e07a9ead795c5f26e0549060c090a46102605180f35b602090819492943d8311610ab3575b610aa48183612a67565b81010312610666579186610a18565b503d610a9a565b60405163c4225e5760e01b815260c4356004820152610104356024820152604490fd5b60ce54604051636eb1769f60e11b81523060048201526001600160a01b039091166024820181905260208260448173fd2ab41e083c75085807c4a65c0a14fdd93d55a95afa91821561067257600092610b68575b506101043591610b418385612f96565b11610b4e575b505061092e565b610b5b610b619284612f96565b90612fd3565b8780610b47565b9091506020813d8211610b93575b81610b8360209383612a67565b8101031261066657519089610b31565b3d9150610b76565b610ba9915060c43590613364565b87610927565b346102595761026051806003193601126102f057602047604051908152f35b346102595761018036600319011261025957610be861294d565b610bf0612963565b610bf8612979565b91610c0161298f565b610c09612c3a565b93610c126129a5565b926101643593841515850361066657610c5996610c459661014435956101243595610104359560a435936044359161353a565b604051918291602083526020830190612bba565b0390f35b346102595761026051806003193601126102f05760cf546040516001600160a01b039091168152602090f35b34610259576060366003190112610259576001600160a01b0360043581811690819003610259576024359180831680930361025957604435918183168093036102595761026051549360ff8560081c161594858096611008575b8015610ff1575b15610f95576102605160ff198216600117815560ff9187610f84575b505460081c1691610d1683612f36565b610d1f83612f36565b6001600160601b0360a01b90858260c954161760c9556040519563573ea57560e01b87526020968781600481855afa918215610480578789926102605194610f46575b50602493168560cb54161760cb556040519283809263cd3d4fb960e01b8252600260048301525afa90811561048057869188916102605191610f0f575b50600460405180948193632e8743fd60e21b8352165afa80156104805786916102605191610ed5575b5060409060248251809981936337b6269f60e21b8352306004840152165afa8015610480576102605190610e94575b610e309650168260ca54161760ca55338260cc54161760cc558160ce54161760ce5560cf54161760cf5561271060cd5561032c81612f36565b610e3933612cd2565b610260515491610e4e60ff8460081c16612f36565b610e59576102605180f35b7f7f26b83ff96e1f2b6a682f133852f6798a09c465da95921460cefb38474024989161ff001916610260515560405160018152a180806101fe565b506040863d604011610ecd575b81610eae60409383612a67565b810103126102595785610ec788610469610e3099613f5d565b50610df7565b3d9150610ea1565b809250888092503d8311610f08575b610eee8183612a67565b81010312610259576040610f028792613f5d565b90610dc8565b503d610ee4565b92505081813d8311610f3f575b610f268183612a67565b810103126102595786610f398792613f5d565b8a610d9f565b503d610f1c565b92809294508391503d8311610f7d575b610f608183612a67565b810103126102595751868116810361025957908790876024610d62565b503d610f56565b61ffff191661010117815587610d06565b60405162461bcd60e51b815260206004820152602e60248201527f496e697469616c697a61626c653a20636f6e747261637420697320616c72656160448201526d191e481a5b9a5d1a585b1a5e995960921b6064820152608490fd5b50303b158015610cea5750600160ff821614610cea565b50600160ff821610610ce3565b346102595760203660031901126102595760043560ff811680910361025957610260515260d4602052610c59610c4560406102605120612b14565b34610259576101603660031901126102595761106a61294d565b6110726129bb565b9061107b612979565b9060a4359163ffffffff831683036106665760c435936001600160a01b0385168503610666576101fe946110ad612c2a565b946101243594610104359460e435946084359260243590613957565b34610259576040366003190112610259576004356001600160401b038111610259576110f9903690600401612bfa565b906024356001600160401b03811161025957611119903690600401612bfa565b9091611123612c7a565b61026051935b808510611137576102605180f35b828510156112dc578460051b84013594601e1985360301861215610259576001600160401b038686013511610259578585013536036020878701011361025957611182818385613f39565b3560048110156102595760005260d360205260406000206111a38154612ada565b601f811161128e575b506102605196601f818801351160011461120d576111f493949596976102605190828a01356111fd575b508189013560011b91600019908a013560031b1c1916179055613f2a565b93929190611129565b60209150828a01010135896111d6565b818852610260516020812088830135601f19169990915b8a811061127257508899836111f49798999a013511611250575b5050600190880135811b019055613f2a565b602060001960f8858d013560031b161c1991848c01010135169055888061123e565b90916020600181928286888f0101013581550193019101611224565b81610260515260206102605120601f898901350160051c810160208a8a0135106112d5575b601f830160051c820181106112c95750506111ac565b600081556001016112b3565b50806112b3565b634e487b7160e01b61026051526032600452602461026051fd5b346102595761026051806003193601126102f057602060405173fd2ab41e083c75085807c4a65c0a14fdd93d55a98152f35b3461025957602036600319011261025957600435610260515260d060205260806040610260512060018060a01b03815416906001810154906003600282015491015491604051938452602084015260408301526060820152f35b34610259576101e03660031901126102595761139c61294d565b6113a4612963565b6113ac612979565b6113b461298f565b906113bd612c3a565b6113c56129a5565b936101843515156101843503610259576101a4356001600160a01b0381169003610259576101c4356001600160401b03811161025957611409903690600401612c4d565b60ca549195916001600160a01b03163303611bde575a604051636eb1769f60e11b81526001600160a01b038a166004820152306024820152909690602081806044810103816001600160a01b038b165afa908115610480576102605191611bac575b5060443511611af4576040516323b872dd60e01b602082019081526001600160a01b038b16602483015230604480840191909152356064830152906114bd81608481015b03601f198101835282612a67565b610260519182915190828a5af16114d2612e6d565b81611abd575b5015611a92576044354660a435148080611a7c575b156117995750506115379493929161150d916101a435604435858a6131c9565b96611519888484613f71565b610144359361012435936101043593888c60a435936044359161402b565b9384610260515260d0602052604061026051209161158861157361156c60028601966115638854613f2a565b88555a90612fb9565b3a90613944565b606461158160cd5483613944565b0490612f96565b60d254604051638da5cb5b60e01b8152919391906001600160a01b0316602082600481845afa91821561048057610260519261175d575b5061018435156116b9575060d2546001600160a01b031692833b156102595760405163c1461d5760e01b8152610260516001600160a01b0393841660048301529190921660248301526044820185905290928390606490829087905af1918215610480578792611697575b5060807f7b9cedde1d63582cc62dddb84ed8661afec5ba349d66ad2553af2eff79a9331b916001965b549760405195898752602087015260408601526101843515156060860152868060a01b031693a3015414611688576102605180f35b6116919061348e565b806101fe565b6116a59193949592506129d1565b61026051806102f05791869194939261162a565b9195925050803b1561025957604051631bc64ab360e21b815273eeeeeeeeeeeeeeeeeeeeeeeeeeeeeeeeeeeeeeee6004820152602481018490526001600160a01b03861660448201526102605190918290606490829084905af180156104805760019588937f7b9cedde1d63582cc62dddb84ed8661afec5ba349d66ad2553af2eff79a9331b9360809361174e575b50611653565b611757906129d1565b8a611748565b9091506020813d602011611791575b8161177960209383612a67565b810103126102595761178a90613f5d565b90896115bf565b3d915061176c565b915097949392915015600014611a66576102605173fd2ab41e083c75085807c4a65c0a14fdd93d55a8196001600160a01b03871601611a54575b6001600160a01b038616611999575b61016435811061197757604080516001600160a01b038b811660208381019190915286821693830193909352841660608083019190915281526118b59261182882612a16565b60ce546001600160a01b031690611843906101643590612fb9565b6040516393f18ac560e01b815263ffffffff891660048201526001600160a01b038a16602482015273fd2ab41e083c75085807c4a65c0a14fdd93d55a96044820152336064820152608481019190915261012c60a482015261010060c482015293849283918291610104830190612bba565b6101643560e4830152039161026051905af180156104805761194c575b50604080516001600160a01b03838116825280871660208301526044359282019290925242606082015261016435608082015263ffffffff851660a0820152611537959187811691858216918c16907f5add7a884c3fcd9dacaee558d72ece5037a4682a29b4e07a9ead795c5f26e0549060c090a4611519565b602090813d8311611970575b6119628183612a67565b8101031261025957886118d2565b503d611958565b60405163c4225e5760e01b815260448035600483015261016435602483015290fd5b60ce54604051636eb1769f60e11b81523060048201526001600160a01b039091166024820181905260208260448173fd2ab41e083c75085807c4a65c0a14fdd93d55a95afa918215610480576102605192611a20575b5061016435916119ff8385612f96565b11611a0c575b50506117e2565b610b5b611a199284612f96565b8980611a05565b9091506020813d602011611a4c575b81611a3c60209383612a67565b810103126102595751908b6119ef565b3d9150611a2f565b50611a6160443586613364565b6117d3565b61153793611a776044358488613f71565b611519565b506001600160a01b0388811690861614156114ed565b60405162461bcd60e51b815260206004820152600360248201526229aa2360e91b6044820152606490fd5b8051801592508215611ad2575b50508a6114d8565b8192509060209181010312610259576020611aed9101612fc6565b8a80611aca565b604051636eb1769f60e11b81526001600160a01b038a1660048201523060248201528690602081806044810103816001600160a01b0386165afa908115610480576102605191611b7a575b5060405163059d9d6d60e31b815260048101919091526044803560248301526001600160a01b039290921691810191909152606490fd5b0390fd5b90506020813d602011611ba4575b81611b9560209383612a67565b81010312610259575182611b3f565b3d9150611b88565b90506020813d602011611bd6575b81611bc760209383612a67565b8101031261025957518a61146b565b3d9150611bba565b60405162461bcd60e51b815260206004820152601960248201527f4f6e6c7920646564696361746564206d73672e73656e646572000000000000006044820152606490fd5b604036600319011261025957611c3761294d565b6024356001600160401b03811161025957602091611c5c6102bc923690600401612c4d565b916130ec565b346102595761026051806003193601126102f0576033546040516001600160a01b039091168152602090f35b346102595761026051806003193601126102f057602060cd54604051908152f35b3461025957602080600319360112610259576024816001600160a01b03611cd461294d565b16604051928380926370a0823160e01b82523060048301525afa908115610480576102605191611d075750604051908152f35b90508181813d8311611d2d575b611d1e8183612a67565b81010312610259575182610637565b503d611d14565b3461025957602036600319011261025957611d4d61294d565b611d55612c7a565b60018060a01b03166001600160601b0360a01b60d254161760d2556102605180f35b34610259576020366003190112610259576101fe60043561348e565b34610259576101603660031901126102595760206102bc611db261294d565b611dba612963565b90611dc3612979565b90611dcc61298f565b92611dd5612c3a565b611ddd6129a5565b9161014435956101243595610104359560a435936044359161402b565b346102595761026051806003193601126102f057611e16612c7a565b603380546001600160a01b03198116909155610260519081906001600160a01b03167f8be0079c531659141344cd1fd0a4f28419497f9722a3daafe3b4186f6b6457e08280a380f35b3461025957610160366003190112610259576004356001600160401b03811161025957611e90903690600401612bfa565b6101e0526024356001600160401b03811161025957611eb3903690600401612bfa565b610100526080526044356001600160401b03811161025957611ed9903690600401612bfa565b6102e052610300526064356001600160401b03811161025957611f00903690600401612bfa565b61022052610120526084356001600160401b03811161025957611f27903690600401612bfa565b6101805260a05260a4356001600160401b03811161025957611f4d903690600401612bfa565b6101c0526102c05260c4356001600160401b03811161025957611f74903690600401612bfa565b60c05260e05260e4356001600160401b03811161025957611f99903690600401612bfa565b61020052610140526001600160401b03610104351161025957611fc23661010435600401612bfa565b610160526101a0526001600160401b03610124351161025957611feb3661012435600401612bfa565b610240526102a052611ffb612c2a565b61028052610260515b6101e0518110156101fe5760018060a01b0361202f61202a836102e05161030051613f39565b613f49565b604051636eb1769f60e11b81523360048201523060248201529160209183916044918391165afa90811561048057610260519161224b575b506120788261010051608051613f39565b35116121665761208f61202a826101e05185613f39565b906120a08161010051608051613f39565b35916120b661202a836102e05161030051613f39565b926120cb61202a846102205161012051613f39565b916120dc846101805160a051613f39565b35946120ef856101c0516102c051613f39565b359363ffffffff85168503610259576121619661215c9561211861202a8960c05160e051613f39565b9161212a896102005161014051613f39565b359361213d8a610160516101a051613f39565b359561028051986121558c610240516102a051613f39565b3598613957565b613f2a565b612004565b60018060a01b0361218161202a836102e05161030051613f39565b604051636eb1769f60e11b81523360048201523060248201529160209183916044918391165afa908115610480576102605191612219575b50611b766121e261202a6121d38561010051608051613f39565b35946102e05161030051613f39565b60405163059d9d6d60e31b8152600481019390935260248301939093526001600160a01b0390921660448201529081906064820190565b90506020813d602011612243575b8161223460209383612a67565b810103126102595751826121b9565b3d9150612227565b90506020813d602011612275575b8161226660209383612a67565b81010312610259575183612067565b3d9150612259565b3461025957602036600319011261025957600435600481101561025957610260515260d3602052610c59610c4560406102605120612b14565b34610259576040366003190112610259576122cf61294d565b6122d7612963565b9060018060a01b03809116610260515260d16020526102605190604082209216905260205260206040610260512054604051908152f35b346102595761026051806003193601126102f05760d2546040516001600160a01b039091168152602090f35b346102595761026051806003193601126102f0576020604051737506c12a824d73d9b08564d5afc22c949434755e8152f35b346102595761026051806003193601126102f0577f00000000000000000000000000000000000000000000000000000000000000006001600160a01b031630036123c85760206040516000805160206141038339815191528152f35b60405162461bcd60e51b815260206004820152603860248201527f555550535570677261646561626c653a206d757374206e6f742062652063616c60448201527f6c6564207468726f7567682064656c656761746563616c6c00000000000000006064820152608490fd5b60403660031901126102595761244761294d565b6024356001600160401b038111610259573660238201121561025957612477903690602481600401359101612aa3565b906001600160a01b037f00000000000000000000000000000000000000000000000000000000000000008116906124b030831415612d1b565b6124cd600080516020614103833981519152928284541614612d7c565b6124d5612c7a565b7f4910fdfa16fed3260ed0e7147f7cc6da11a60208b5b9406d12a635614ffd91435460ff161561250b5750506101fe9150612ddd565b6040516352d1902d60e01b81526020939291831691908481600481865afa6102605191816126b0575b506125955760405162461bcd60e51b815260048101869052602e60248201527f45524331393637557067726164653a206e657720696d706c656d656e7461746960448201526d6f6e206973206e6f74205555505360901b6064820152608490fd5b03612659576125a382612ddd565b7fbc7cd75a20ee27fd9adebab32041f755214dbc6bffa90cc0225b39da2e5c2d3b6102605180a2825115801590612651575b6125e2575b5050506101fe565b61264892604051926125f384612a4c565b602784527f416464726573733a206c6f772d6c6576656c2064656c65676174652063616c6c81850152660819985a5b195960ca1b60408501526102605191829181519101845af4612642612e6d565b91612e9d565b508080806125da565b5060016125d5565b60405162461bcd60e51b815260048101849052602960248201527f45524331393637557067726164653a20756e737570706f727465642070726f786044820152681a58589b195555525160ba1b6064820152608490fd5b9091508581813d83116126d8575b6126c88183612a67565b8101031261025957519087612534565b503d6126be565b346102595761026051806003193601126102f05760cc546040516001600160a01b039091168152602090f35b34610259576020806003193601126102595761272561294d565b6001600160a01b03917f0000000000000000000000000000000000000000000000000000000000000000831661275d30821415612d1b565b61277a600080516020614103833981519152918583541614612d7c565b612782612c7a565b6040519361278f85612a31565b6102605185527f4910fdfa16fed3260ed0e7147f7cc6da11a60208b5b9406d12a635614ffd91435460ff16156127cc575050506101fe9150612ddd565b83929316906040516352d1902d60e01b81528481600481865afa6102605191816128aa575b506128525760405162461bcd60e51b815260048101869052602e60248201527f45524331393637557067726164653a206e657720696d706c656d656e7461746960448201526d6f6e206973206e6f74205555505360901b6064820152608490fd5b036126595761286082612ddd565b61026051907fbc7cd75a20ee27fd9adebab32041f755214dbc6bffa90cc0225b39da2e5c2d3b8280a2835115908115916128a2575b506125e2575050506101fe565b905084612895565b9091508581813d83116128d2575b6128c28183612a67565b81010312610259575190876127f1565b503d6128b8565b346102595761026051806003193601126102f05760ca546040516001600160a01b039091168152602090f35b346102595760203660031901126102595761291e612c7a565b6101fe6004356140b8565b346106665760003660031901126106665760c9546001600160a01b03168152602090f35b600435906001600160a01b038216820361066657565b602435906001600160a01b038216820361066657565b606435906001600160a01b038216820361066657565b608435906001600160a01b038216820361066657565b60e435906001600160a01b038216820361066657565b604435906001600160a01b038216820361066657565b6001600160401b0381116129e457604052565b634e487b7160e01b600052604160045260246000fd5b61010081019081106001600160401b038211176129e457604052565b608081019081106001600160401b038211176129e457604052565b602081019081106001600160401b038211176129e457604052565b606081019081106001600160401b038211176129e457604052565b90601f801991011681019081106001600160401b038211176129e457604052565b6001600160401b0381116129e457601f01601f191660200190565b929192612aaf82612a88565b91612abd6040519384612a67565b829481845281830111610666578281602093846000960137010152565b90600182811c92168015612b0a575b6020831014612af457565b634e487b7160e01b600052602260045260246000fd5b91607f1691612ae9565b9060405191826000825492612b2884612ada565b908184526001948581169081600014612b975750600114612b54575b5050612b5292500383612a67565b565b9093915060005260209081600020936000915b818310612b7f575050612b5293508201013880612b44565b85548884018501529485019487945091830191612b67565b915050612b5294506020925060ff191682840152151560051b8201013880612b44565b919082519283825260005b848110612be6575050826000602080949584010152601f8019910116010190565b602081830181015184830182015201612bc5565b9181601f84011215610666578235916001600160401b038311610666576020808501948460051b01011161066657565b6101443590811515820361066657565b60c4359063ffffffff8216820361066657565b9181601f84011215610666578235916001600160401b038311610666576020838186019501011161066657565b6033546001600160a01b03163303612c8e57565b606460405162461bcd60e51b815260206004820152602060248201527f4f776e61626c653a2063616c6c6572206973206e6f7420746865206f776e65726044820152fd5b603380546001600160a01b039283166001600160a01b0319821681179092559091167f8be0079c531659141344cd1fd0a4f28419497f9722a3daafe3b4186f6b6457e0600080a3565b15612d2257565b60405162461bcd60e51b815260206004820152602c60248201527f46756e6374696f6e206d7573742062652063616c6c6564207468726f7567682060448201526b19195b1959d85d1958d85b1b60a21b6064820152608490fd5b15612d8357565b60405162461bcd60e51b815260206004820152602c60248201527f46756e6374696f6e206d7573742062652063616c6c6564207468726f7567682060448201526b6163746976652070726f787960a01b6064820152608490fd5b803b15612e125760008051602061410383398151915280546001600160a01b0319166001600160a01b03909216919091179055565b60405162461bcd60e51b815260206004820152602d60248201527f455243313936373a206e657720696d706c656d656e746174696f6e206973206e60448201526c1bdd08184818dbdb9d1c9858dd609a1b6064820152608490fd5b3d15612e98573d90612e7e82612a88565b91612e8c6040519384612a67565b82523d6000602084013e565b606090565b91929015612eff5750815115612eb1575090565b3b15612eba5790565b60405162461bcd60e51b815260206004820152601d60248201527f416464726573733a2063616c6c20746f206e6f6e2d636f6e74726163740000006044820152606490fd5b825190915015612f125750805190602001fd5b60405162461bcd60e51b815260206004820152908190611b76906024830190612bba565b15612f3d57565b60405162461bcd60e51b815260206004820152602b60248201527f496e697469616c697a61626c653a20636f6e7472616374206973206e6f74206960448201526a6e697469616c697a696e6760a81b6064820152608490fd5b91908201809211612fa357565b634e487b7160e01b600052601160045260246000fd5b91908203918211612fa357565b5190811515820361066657565b60405163095ea7b360e01b602082019081526001600160a01b039092166024820152604481019290925260009182919061301081606481016114af565b51908273fd2ab41e083c75085807c4a65c0a14fdd93d55a95af1613032612e6d565b8161306a575b501561304057565b60405162461bcd60e51b8152602060048201526002602482015261534160f01b6044820152606490fd5b805180159250821561307f575b505038613038565b819250906020918101031261066657602061309a9101612fc6565b3880613077565b60405163095ea7b360e01b602082019081526001600160a01b039093166024820152604481019390935260009283929083906130e081606481016114af565b51925af1613032612e6d565b91906130f9913691612aa3565b9060405190604082018281106001600160401b038211176129e457604052601882527f216469726563745377617070657243616c6c4661696c656400000000000000006020830152344710613175576000808460206131619651910134855af1612642612e6d565b602081805181010312610666576020015190565b60405162461bcd60e51b815260206004820152602660248201527f416464726573733a20696e73756666696369656e742062616c616e636520666f6044820152651c8818d85b1b60d21b6064820152608490fd5b6001600160a01b03808216979695949391928116881461335b57831690811561332057604051636eb1769f60e11b81523060048201526001600160a01b03851660248201526020988990829060449082905afa908115610672576000916132f3575b5010613242575b505061323f9394506130ec565b90565b6000918291826040518a81019263095ea7b360e01b84526024820152811960448201526044815261327281612a16565b51925af161327e612e6d565b816132bb575b5015613291578480613232565b60405162461bcd60e51b8152600481018690526002602482015261534160f01b6044820152606490fd5b809150518681159182156132d4575b5050905038613284565b838092935001031261066657856132eb9101612fc6565b8086386132ca565b908982813d8311613319575b6133098183612a67565b810103126102f05750513861322b565b503d6132ff565b60405162461bcd60e51b8152602060048201526013602482015272537761703a207a65726f20737761707065722160681b6044820152606490fd5b50955050505050565b60cf546001600160a01b0392839290916133829083908516836130a1565b8260405191613390836129fa565b1681526020810173fd2ab41e083c75085807c4a65c0a14fdd93d55a9815283604083016101f481526060840194308652608085019042825260a0860190815260c08601916000998a9889855260e08901958a8752828060cf5416996040519d8e9c8d63414bf38960e01b9052511660048d0152511660248b01525162ffffff1660448a0152511660648801525160848701525160a48601525160c4850152511660e4830152815a9361010492602095f191821561348257809261345257505090565b9091506020823d821161347a575b8161346d60209383612a67565b810103126102f057505190565b3d9150613460565b604051903d90823e3d90fd5b60009080825260d060205260408220604051906134aa82612a16565b6060600360018060a01b038354169283855260018101546020860152600281015460408601520154920191825215613506576134e690516140b8565b815260d06020526003604082208281558260018201558260028201550155565b60405162461bcd60e51b815260206004820152600c60248201526b139bc81293d088119bdd5b9960a21b6044820152606490fd5b909996939a9798959194929a85866000977a184f03e93ff9f4daa797ed6e38ed64bf6a1f0100000000000000009081811015613812575b5050600a906d04ee2d6d415b85acef810000000080821015613805575b50662386f26fc10000808210156137f8575b506305f5e100808210156137eb575b50612710808210156137de575b5060648110156137d0575b10156137c5575b600a60216135de60018a01612a88565b986135ec6040519a8b612a67565b60018101808b52601f199061360090612a88565b013660208c01378901015b60001901916f181899199a1a9b1b9c1cb0b131b232b360811b8282061a83530490811561363a57600a9061360b565b505061365c613656613650613650600495613821565b9d613821565b91613821565b60ce5460405163617d935360e11b81529391929160209185919082906001600160a01b03165afa92831561067257600093613791575b5061369c30613821565b956136a690613821565b966040519d8e809e602082016101e0905261020082016136c591612bba565b90601f198183030190604001526136db91612bba565b8d8103601f190160608f01526136f091612bba565b8c8103601f190160808e015261370591612bba565b8b8103601f190160a08d015261371a91612bba565b924660c08c015260e08b01526101008a015263ffffffff16610120890152601f198882030161014089015261374e91612bba565b868103601f190161016088015261376491612bba565b936101808601526101a08501526101c084015215156101e083015203601f198101825261323f9082612a67565b90926020823d6020116137bd575b816137ac60209383612a67565b810103126102f05750519138613692565b3d915061379f565b6001909601956135ce565b6064600291049801976135c7565b60049104980197386135bc565b60089104980197386135af565b60109104980197386135a0565b602091049801973861358e565b60409950049050600a38613571565b604051906001600160a01b031661383782612a4c565b602a8252602090818301604036823783511561392e5760309053825160019081101561392e57607860218501536029905b8082116138bc575050613879575090565b6064906040519062461bcd60e51b825280600483015260248201527f537472696e67733a20686578206c656e67746820696e73756666696369656e746044820152fd5b9091600f81166010811015613919578551841015613919576f181899199a1a9b1b9c1cb0b131b232b360811b901a85840185015360041c918015613904576000190190613868565b60246000634e487b7160e01b81526011600452fd5b60246000634e487b7160e01b81526032600452fd5b634e487b7160e01b600052603260045260246000fd5b81810292918115918404141715612fa357565b61034052604051636eb1769f60e11b8152336004820152306024820152949a999098909790969095909490939291906020816044816001600160a01b0386165afa8015610672578a91600091613ec8575b5010613e23576139c7888888888f89908f89898c92610340513361353a565b60405190636074606160e11b6020830152600482528160408101106001600160401b036040840111176129e457604082810190526000805260d3602052613a2d7f938258ec6d8d468a3507d140e1c026dc2afa285c097847a088da7b50946fb91b612b14565b9060405190613a3b82612a16565b600382526060366020840137604051613a5381612a16565b6003815260005b60608110613e125750604051938460408101106001600160401b036040870111176129e4576114af613b4d93613b0c8f8f6001613aac613b749a613b5f9960208e604081016040528381520152613efd565b526002613ab98b51613f0a565b526004613ac68b51613f1a565b52604051916fffffffffffffffffffffffffffffffff809216602084015216604082015260408152613af781612a4c565b602089015190613b0682613efd565b52613efd565b50613b35604051613b1c81612a31565b60008152602089015190613b2f82613f0a565b52613f0a565b50604051948593604060208601526060850190612bba565b838103601f1901604085015290612bba565b602083015190613b6e82613f1a565b52613f1a565b5060ca5460c954604051610320818152633323b46760e01b90915280516001600160a01b039384166004909101528051608060249091015251911692613bbd9160840190612bba565b906103205160446003198285030191015260408201908051916040845282518091526020606085019301906000905b808210613dd95750505060200151916020818303910152815180825260208201916020808360051b8301019401926000915b838310613dac575050505050602091600091826064610320510152610320519283809203925af198891561067257600099613d72575b9181838b613c7b60039d9e9f968b8b8b8f938c8a63ffffffff9e9c8e93610340513361402b565b9c8d9160405192613c8b84612a16565b338452602084018c81526040850191600083526060860193845260005260d060205260406000209460018060a01b039051166001600160601b0360a01b865416178555516001850155516002840155519101556040519c8d5260208d015260018060a01b031660408c015260018060a01b031660608b015260808a01521660a088015260018060a01b031660c087015260e08601526101008501526101208401521515610140830152600061016083015260018060a01b036103405116917fe9947d23b8fb33fd310fb94d6fda5f001146548a36fc2f9897d6decb0fc215996101803392a4565b986020903d602011613da4575b613d8c8261032051612a67565b6020610320518093810103126102f057505198613c54565b3d9150613d7f565b9091929394602080613dca600193601f198682030187528951612bba565b97019301930191939290613c1e565b9091938451906005821015613dfc57602081600193829352019501920190613bec565b634e487b7160e01b600052602160045260246000fd5b806060602080938501015201613a5a565b604051636eb1769f60e11b815233600482015230602482015289916020826044816001600160a01b0385165afa91821561067257600092613e92575b5060405163059d9d6d60e31b8152600481019290925260248201929092526001600160a01b039091166044820152606490fd5b90916020823d602011613ec0575b81613ead60209383612a67565b810103126102f057505190611b76613e5f565b3d9150613ea0565b91506020823d602011613ef5575b81613ee360209383612a67565b810103126102f05750899051386139a8565b3d9150613ed6565b80511561392e5760200190565b80516001101561392e5760400190565b80516002101561392e5760600190565b6000198114612fa35760010190565b919081101561392e5760051b0190565b356001600160a01b03811681036106665790565b51906001600160a01b038216820361066657565b60405163a9059cbb60e01b602082019081526001600160a01b03909316602482015260448101939093526000928392908390613fb081606481016114af565b51925af1613fbc612e6d565b81613ff4575b5015613fca57565b60405162461bcd60e51b815260206004820152600260248201526114d560f21b6044820152606490fd5b8051801592508215614009575b505038613fc2565b81925090602091810103126106665760206140249101612fc6565b3880614001565b9163ffffffff9399979460609b9997939692966040519b8c93602085019e8f9560018060a01b03809c819882809816905216604082015201521660808c01521660a08a015260c08901521660e0870152166101008501526101208401526101408301526101609081830152815261018081018181106001600160401b038211176129e45760405251902090565b60c9546001600160a01b031690813b156106665760009160248392604051948593849263ee8ca3b560e01b845260048401525af18015610672576140f95750565b612b52906129d156fe360894a13ba1a3210667c828492db98dca3e2076cc3735a920a3ca505d382bbca26469706673582212207c5440b8a86f15378305e23533d0bb84f8caddebb2ba29a321e4e75c7dd1faed64736f6c63430008110033",
  "linkReferences": {},
  "deployedLinkReferences": {}
}