{
  "_format": "hh-sol-artifact-1",
  "contractName": "AutoPay",
  "sourceName": "contracts/AutoPay.sol",
  "abi": [
    {
      "inputs": [],
      "stateMutability": "nonpayable",
      "type": "constructor"
    },
    {
      "inputs": [
        {
          "internalType": "uint256",
          "name": "allowance",
          "type": "uint256"
        },
        {
          "internalType": "uint256",
          "name": "amount",
          "type": "uint256"
        },
        {
          "internalType": "address",
          "name": "token",
          "type": "address"
        }
      ],
      "name": "Allowance",
      "type": "error"
    },
    {
      "inputs": [
        {
          "internalType": "uint256",
          "name": "_amount",
          "type": "uint256"
        },
        {
          "internalType": "uint256",
          "name": "_relayerFeeInTransactingAsset",
          "type": "uint256"
        }
      ],
      "name": "AmountLessThanRelayer",
      "type": "error"
    },
    {
      "anonymous": false,
      "inputs": [
        {
          "indexed": false,
          "internalType": "address",
          "name": "previousAdmin",
          "type": "address"
        },
        {
          "indexed": false,
          "internalType": "address",
          "name": "newAdmin",
          "type": "address"
        }
      ],
      "name": "AdminChanged",
      "type": "event"
    },
    {
      "anonymous": false,
      "inputs": [
        {
          "indexed": true,
          "internalType": "address",
          "name": "beacon",
          "type": "address"
        }
      ],
      "name": "BeaconUpgraded",
      "type": "event"
    },
    {
      "anonymous": false,
      "inputs": [
        {
          "indexed": true,
          "internalType": "bytes32",
          "name": "_jobId",
          "type": "bytes32"
        },
        {
          "indexed": true,
          "internalType": "address",
          "name": "_from",
          "type": "address"
        },
        {
          "indexed": false,
          "internalType": "uint256",
          "name": "_timesExecuted",
          "type": "uint256"
        },
        {
          "indexed": false,
          "internalType": "uint256",
          "name": "_fundsUsed",
          "type": "uint256"
        },
        {
          "indexed": false,
          "internalType": "uint256",
          "name": "_amountOut",
          "type": "uint256"
        },
        {
          "indexed": false,
          "internalType": "bool",
          "name": "_isForwardPaying",
          "type": "bool"
        }
      ],
      "name": "ExecutedSourceChain",
      "type": "event"
    },
    {
      "anonymous": false,
      "inputs": [
        {
          "indexed": true,
          "internalType": "address",
          "name": "sender",
          "type": "address"
        },
        {
          "indexed": true,
          "internalType": "address",
          "name": "token",
          "type": "address"
        },
        {
          "indexed": true,
          "internalType": "uint256",
          "name": "amount",
          "type": "uint256"
        }
      ],
      "name": "FundsDeposited",
      "type": "event"
    },
    {
      "anonymous": false,
      "inputs": [
        {
          "indexed": true,
          "internalType": "address",
          "name": "receiver",
          "type": "address"
        },
        {
          "indexed": true,
          "internalType": "address",
          "name": "initiator",
          "type": "address"
        },
        {
          "indexed": true,
          "internalType": "address",
          "name": "token",
          "type": "address"
        },
        {
          "indexed": false,
          "internalType": "uint256",
          "name": "amount",
          "type": "uint256"
        }
      ],
      "name": "FundsWithdrawn",
      "type": "event"
    },
    {
      "anonymous": false,
      "inputs": [
        {
          "indexed": false,
          "internalType": "uint8",
          "name": "version",
          "type": "uint8"
        }
      ],
      "name": "Initialized",
      "type": "event"
    },
    {
      "anonymous": false,
      "inputs": [
        {
          "indexed": true,
          "internalType": "address",
          "name": "_taskCreator",
          "type": "address"
        },
        {
          "indexed": true,
          "internalType": "bytes32",
          "name": "_jobId",
          "type": "bytes32"
        },
        {
          "indexed": false,
          "internalType": "bytes32",
          "name": "_gelatoTaskId",
          "type": "bytes32"
        },
        {
          "indexed": true,
          "internalType": "address",
          "name": "_to",
          "type": "address"
        },
        {
          "indexed": false,
          "internalType": "uint256",
          "name": "_amount",
          "type": "uint256"
        },
        {
          "indexed": false,
          "internalType": "address",
          "name": "_fromToken",
          "type": "address"
        },
        {
          "indexed": false,
          "internalType": "address",
          "name": "_toToken",
          "type": "address"
        },
        {
          "indexed": false,
          "internalType": "uint256",
          "name": "_toChain",
          "type": "uint256"
        },
        {
          "indexed": false,
          "internalType": "uint32",
          "name": "_destinationDomain",
          "type": "uint32"
        },
        {
          "indexed": false,
          "internalType": "address",
          "name": "_destinationContract",
          "type": "address"
        },
        {
          "indexed": false,
          "internalType": "uint256",
          "name": "_cycles",
          "type": "uint256"
        },
        {
          "indexed": false,
          "internalType": "uint256",
          "name": "_startTime",
          "type": "uint256"
        },
        {
          "indexed": false,
          "internalType": "uint256",
          "name": "_interval",
          "type": "uint256"
        },
        {
          "indexed": false,
          "internalType": "bool",
          "name": "_isForwardPaying",
          "type": "bool"
        },
        {
          "indexed": false,
          "internalType": "enum AutoPay.Option",
          "name": "option",
          "type": "uint8"
        }
      ],
      "name": "JobCreated",
      "type": "event"
    },
    {
      "anonymous": false,
      "inputs": [
        {
          "indexed": true,
          "internalType": "uint256",
          "name": "txFee",
          "type": "uint256"
        },
        {
          "indexed": true,
          "internalType": "address",
          "name": "feeToken",
          "type": "address"
        },
        {
          "indexed": true,
          "internalType": "address",
          "name": "execAddress",
          "type": "address"
        },
        {
          "indexed": false,
          "internalType": "bytes",
          "name": "execData",
          "type": "bytes"
        },
        {
          "indexed": false,
          "internalType": "bytes32",
          "name": "taskId",
          "type": "bytes32"
        },
        {
          "indexed": false,
          "internalType": "bool",
          "name": "callSuccess",
          "type": "bool"
        }
      ],
      "name": "JobSuccess",
      "type": "event"
    },
    {
      "anonymous": false,
      "inputs": [
        {
          "indexed": true,
          "internalType": "address",
          "name": "previousOwner",
          "type": "address"
        },
        {
          "indexed": true,
          "internalType": "address",
          "name": "newOwner",
          "type": "address"
        }
      ],
      "name": "OwnershipTransferred",
      "type": "event"
    },
    {
      "anonymous": false,
      "inputs": [
        {
          "indexed": true,
          "internalType": "address",
          "name": "implementation",
          "type": "address"
        }
      ],
      "name": "Upgraded",
      "type": "event"
    },
    {
      "anonymous": false,
      "inputs": [
        {
          "indexed": true,
          "internalType": "address",
          "name": "originSender",
          "type": "address"
        },
        {
          "indexed": false,
          "internalType": "uint32",
          "name": "origin",
          "type": "uint32"
        },
        {
          "indexed": false,
          "internalType": "address",
          "name": "asset",
          "type": "address"
        },
        {
          "indexed": false,
          "internalType": "uint256",
          "name": "amount",
          "type": "uint256"
        },
        {
          "indexed": false,
          "internalType": "bytes32",
          "name": "transferId",
          "type": "bytes32"
        },
        {
          "indexed": false,
          "internalType": "uint256",
          "name": "receiveTimestamp",
          "type": "uint256"
        },
        {
          "indexed": false,
          "internalType": "address",
          "name": "senderAccount",
          "type": "address"
        },
        {
          "indexed": false,
          "internalType": "address",
          "name": "receiverAccount",
          "type": "address"
        }
      ],
      "name": "XReceiveData",
      "type": "event"
    },
    {
      "anonymous": false,
      "inputs": [
        {
          "indexed": true,
          "internalType": "address",
          "name": "sender",
          "type": "address"
        },
        {
          "indexed": true,
          "internalType": "address",
          "name": "receiver",
          "type": "address"
        },
        {
          "indexed": true,
          "internalType": "address",
          "name": "fromToken",
          "type": "address"
        },
        {
          "indexed": false,
          "internalType": "address",
          "name": "toToken",
          "type": "address"
        },
        {
          "indexed": false,
          "internalType": "address",
          "name": "destinationContract",
          "type": "address"
        },
        {
          "indexed": false,
          "internalType": "uint256",
          "name": "amount",
          "type": "uint256"
        },
        {
          "indexed": false,
          "internalType": "uint256",
          "name": "startTime",
          "type": "uint256"
        },
        {
          "indexed": false,
          "internalType": "uint256",
          "name": "relayerFeeInTransactingAsset",
          "type": "uint256"
        },
        {
          "indexed": false,
          "internalType": "uint32",
          "name": "destinationDomain",
          "type": "uint32"
        }
      ],
      "name": "XTransferData",
      "type": "event"
    },
    {
      "stateMutability": "payable",
      "type": "fallback"
    },
    {
      "inputs": [
        {
          "internalType": "address",
          "name": "_automate",
          "type": "address"
        },
        {
          "internalType": "address",
          "name": "_fundsOwner",
          "type": "address"
        }
      ],
      "name": "ATC__initialize",
      "outputs": [],
      "stateMutability": "nonpayable",
      "type": "function"
    },
    {
      "inputs": [],
      "name": "FEES",
      "outputs": [
        {
          "internalType": "uint256",
          "name": "",
          "type": "uint256"
        }
      ],
      "stateMutability": "view",
      "type": "function"
    },
    {
      "inputs": [],
      "name": "WETH",
      "outputs": [
        {
          "internalType": "address",
          "name": "",
          "type": "address"
        }
      ],
      "stateMutability": "view",
      "type": "function"
    },
    {
      "inputs": [
        {
          "internalType": "address",
          "name": "_automate",
          "type": "address"
        },
        {
          "internalType": "address",
          "name": "_taskCreator",
          "type": "address"
        }
      ],
      "name": "__initialize",
      "outputs": [],
      "stateMutability": "nonpayable",
      "type": "function"
    },
    {
      "inputs": [
        {
          "internalType": "bytes32",
          "name": "_jobId",
          "type": "bytes32"
        }
      ],
      "name": "_cancelJob",
      "outputs": [],
      "stateMutability": "nonpayable",
      "type": "function"
    },
    {
      "inputs": [
        {
          "internalType": "address[]",
          "name": "_to",
          "type": "address[]"
        },
        {
          "internalType": "uint256[]",
          "name": "_amount",
          "type": "uint256[]"
        },
        {
          "internalType": "address[]",
          "name": "_fromToken",
          "type": "address[]"
        },
        {
          "internalType": "address[]",
          "name": "_toToken",
          "type": "address[]"
        },
        {
          "internalType": "uint256[]",
          "name": "_toChain",
          "type": "uint256[]"
        },
        {
          "internalType": "uint32[]",
          "name": "_destinationDomain",
          "type": "uint32[]"
        },
        {
          "internalType": "address[]",
          "name": "_destinationContract",
          "type": "address[]"
        },
        {
          "internalType": "uint256[]",
          "name": "_cycles",
          "type": "uint256[]"
        },
        {
          "internalType": "uint256[]",
          "name": "_startTime",
          "type": "uint256[]"
        },
        {
          "internalType": "uint256[]",
          "name": "_interval",
          "type": "uint256[]"
        },
        {
          "internalType": "bool",
          "name": "_isForwardPaying",
          "type": "bool"
        }
      ],
      "name": "_createMultipleTimeAutomate",
      "outputs": [],
      "stateMutability": "nonpayable",
      "type": "function"
    },
    {
      "inputs": [
        {
          "internalType": "address",
          "name": "_to",
          "type": "address"
        },
        {
          "internalType": "uint256",
          "name": "_amount",
          "type": "uint256"
        },
        {
          "internalType": "address",
          "name": "_fromToken",
          "type": "address"
        },
        {
          "internalType": "address",
          "name": "_toToken",
          "type": "address"
        },
        {
          "internalType": "uint256",
          "name": "_toChain",
          "type": "uint256"
        },
        {
          "internalType": "uint32",
          "name": "_destinationDomain",
          "type": "uint32"
        },
        {
          "internalType": "address",
          "name": "_destinationContract",
          "type": "address"
        },
        {
          "internalType": "uint256",
          "name": "_cycles",
          "type": "uint256"
        },
        {
          "internalType": "uint256",
          "name": "_startTime",
          "type": "uint256"
        },
        {
          "internalType": "uint256",
          "name": "_interval",
          "type": "uint256"
        },
        {
          "internalType": "bool",
          "name": "_isForwardPaying",
          "type": "bool"
        }
      ],
      "name": "_createTimeAutomate",
      "outputs": [],
      "stateMutability": "nonpayable",
      "type": "function"
    },
    {
      "inputs": [
        {
          "internalType": "bytes32",
          "name": "",
          "type": "bytes32"
        }
      ],
      "name": "_createdJobs",
      "outputs": [
        {
          "internalType": "address",
          "name": "_user",
          "type": "address"
        },
        {
          "internalType": "uint256",
          "name": "_totalCycles",
          "type": "uint256"
        },
        {
          "internalType": "uint256",
          "name": "_executedCycles",
          "type": "uint256"
        },
        {
          "internalType": "bytes32",
          "name": "_gelatoTaskID",
          "type": "bytes32"
        }
      ],
      "stateMutability": "view",
      "type": "function"
    },
    {
      "inputs": [
        {
          "internalType": "bytes32",
          "name": "_gelatoTaskID",
          "type": "bytes32"
        }
      ],
      "name": "_forceCancelGelato",
      "outputs": [],
      "stateMutability": "nonpayable",
      "type": "function"
    },
    {
      "inputs": [
        {
          "internalType": "address",
          "name": "_from",
          "type": "address"
        },
        {
          "internalType": "address",
          "name": "_to",
          "type": "address"
        },
        {
          "internalType": "uint256",
          "name": "_amount",
          "type": "uint256"
        },
        {
          "internalType": "address",
          "name": "_fromToken",
          "type": "address"
        },
        {
          "internalType": "address",
          "name": "_toToken",
          "type": "address"
        },
        {
          "internalType": "uint256",
          "name": "_toChain",
          "type": "uint256"
        },
        {
          "internalType": "uint32",
          "name": "_destinationDomain",
          "type": "uint32"
        },
        {
          "internalType": "address",
          "name": "_destinationContract",
          "type": "address"
        },
        {
          "internalType": "uint256",
          "name": "_cycles",
          "type": "uint256"
        },
        {
          "internalType": "uint256",
          "name": "_startTime",
          "type": "uint256"
        },
        {
          "internalType": "uint256",
          "name": "_interval",
          "type": "uint256"
        }
      ],
      "name": "_getAutomateJobId",
      "outputs": [
        {
          "internalType": "bytes32",
          "name": "",
          "type": "bytes32"
        }
      ],
      "stateMutability": "pure",
      "type": "function"
    },
    {
      "inputs": [
        {
          "internalType": "address",
          "name": "_from",
          "type": "address"
        },
        {
          "internalType": "address",
          "name": "_to",
          "type": "address"
        },
        {
          "internalType": "uint256",
          "name": "_amount",
          "type": "uint256"
        },
        {
          "internalType": "address",
          "name": "_fromToken",
          "type": "address"
        },
        {
          "internalType": "address",
          "name": "_toToken",
          "type": "address"
        },
        {
          "internalType": "uint256",
          "name": "_toChain",
          "type": "uint256"
        },
        {
          "internalType": "uint32",
          "name": "_destinationDomain",
          "type": "uint32"
        },
        {
          "internalType": "address",
          "name": "_destinationContract",
          "type": "address"
        },
        {
          "internalType": "uint256",
          "name": "_cycles",
          "type": "uint256"
        },
        {
          "internalType": "uint256",
          "name": "_startTime",
          "type": "uint256"
        },
        {
          "internalType": "uint256",
          "name": "_interval",
          "type": "uint256"
        },
        {
          "internalType": "bool",
          "name": "_isForwardPaying",
          "type": "bool"
        }
      ],
      "name": "_getWeb3FunctionHash",
      "outputs": [
        {
          "internalType": "bytes",
          "name": "",
          "type": "bytes"
        }
      ],
      "stateMutability": "view",
      "type": "function"
    },
    {
      "inputs": [
        {
          "internalType": "address",
          "name": "_fromAsset",
          "type": "address"
        },
        {
          "internalType": "address",
          "name": "_toAsset",
          "type": "address"
        },
        {
          "internalType": "uint256",
          "name": "_amountIn",
          "type": "uint256"
        },
        {
          "internalType": "address",
          "name": "_swapper",
          "type": "address"
        },
        {
          "internalType": "bytes",
          "name": "_swapData",
          "type": "bytes"
        }
      ],
      "name": "_setupAndSwap",
      "outputs": [
        {
          "internalType": "uint256",
          "name": "amountOut",
          "type": "uint256"
        }
      ],
      "stateMutability": "nonpayable",
      "type": "function"
    },
    {
      "inputs": [
        {
          "internalType": "address",
          "name": "_from",
          "type": "address"
        },
        {
          "internalType": "address",
          "name": "_to",
          "type": "address"
        },
        {
          "internalType": "uint256",
          "name": "_amount",
          "type": "uint256"
        },
        {
          "internalType": "address",
          "name": "_fromToken",
          "type": "address"
        },
        {
          "internalType": "address",
          "name": "_toToken",
          "type": "address"
        },
        {
          "internalType": "uint256",
          "name": "_toChain",
          "type": "uint256"
        },
        {
          "internalType": "uint32",
          "name": "_destinationDomain",
          "type": "uint32"
        },
        {
          "internalType": "address",
          "name": "_destinationContract",
          "type": "address"
        },
        {
          "internalType": "uint256",
          "name": "_cycles",
          "type": "uint256"
        },
        {
          "internalType": "uint256",
          "name": "_startTime",
          "type": "uint256"
        },
        {
          "internalType": "uint256",
          "name": "_interval",
          "type": "uint256"
        },
        {
          "internalType": "uint256",
          "name": "_relayerFeeInTransactingAsset",
          "type": "uint256"
        },
        {
          "internalType": "bool",
          "name": "_isForwardPaying",
          "type": "bool"
        },
        {
          "internalType": "address",
          "name": "_swapper",
          "type": "address"
        },
        {
          "internalType": "bytes",
          "name": "_swapData",
          "type": "bytes"
        }
      ],
      "name": "_timeAutomateCron",
      "outputs": [],
      "stateMutability": "nonpayable",
      "type": "function"
    },
    {
      "inputs": [
        {
          "internalType": "enum AutoPay.Option",
          "name": "",
          "type": "uint8"
        }
      ],
      "name": "_web3functionHashes",
      "outputs": [
        {
          "internalType": "string",
          "name": "",
          "type": "string"
        }
      ],
      "stateMutability": "view",
      "type": "function"
    },
    {
      "inputs": [
        {
          "internalType": "uint8",
          "name": "",
          "type": "uint8"
        }
      ],
      "name": "_web3functionHashesNew",
      "outputs": [
        {
          "internalType": "string",
          "name": "",
          "type": "string"
        }
      ],
      "stateMutability": "view",
      "type": "function"
    },
    {
      "inputs": [],
      "name": "automate",
      "outputs": [
        {
          "internalType": "contract IAutomate",
          "name": "",
          "type": "address"
        }
      ],
      "stateMutability": "view",
      "type": "function"
    },
    {
      "inputs": [],
      "name": "checkBalance",
      "outputs": [
        {
          "internalType": "uint256",
          "name": "",
          "type": "uint256"
        }
      ],
      "stateMutability": "view",
      "type": "function"
    },
    {
      "inputs": [],
      "name": "connext",
      "outputs": [
        {
          "internalType": "contract IConnext",
          "name": "",
          "type": "address"
        }
      ],
      "stateMutability": "view",
      "type": "function"
    },
    {
      "inputs": [],
      "name": "dedicatedMsgSender",
      "outputs": [
        {
          "internalType": "address",
          "name": "",
          "type": "address"
        }
      ],
      "stateMutability": "view",
      "type": "function"
    },
    {
      "inputs": [
        {
          "internalType": "address",
          "name": "_swapper",
          "type": "address"
        },
        {
          "internalType": "bytes",
          "name": "swapData",
          "type": "bytes"
        }
      ],
      "name": "directSwapperCall",
      "outputs": [
        {
          "internalType": "uint256",
          "name": "amountOut",
          "type": "uint256"
        }
      ],
      "stateMutability": "payable",
      "type": "function"
    },
    {
      "inputs": [],
      "name": "fundsOwner",
      "outputs": [
        {
          "internalType": "address",
          "name": "",
          "type": "address"
        }
      ],
      "stateMutability": "view",
      "type": "function"
    },
    {
      "inputs": [],
      "name": "gelato1Balance",
      "outputs": [
        {
          "internalType": "contract IGelato1Balance",
          "name": "",
          "type": "address"
        }
      ],
      "stateMutability": "view",
      "type": "function"
    },
    {
      "inputs": [
        {
          "internalType": "address",
          "name": "_address",
          "type": "address"
        }
      ],
      "name": "getBalanceOfToken",
      "outputs": [
        {
          "internalType": "uint256",
          "name": "",
          "type": "uint256"
        }
      ],
      "stateMutability": "view",
      "type": "function"
    },
    {
      "inputs": [
        {
          "internalType": "contract IConnext",
          "name": "_connext",
          "type": "address"
        },
        {
          "internalType": "contract ISwapRouter",
          "name": "_swapRouter",
          "type": "address"
        },
        {
          "internalType": "address payable",
          "name": "_ops",
          "type": "address"
        }
      ],
      "name": "initialize",
      "outputs": [],
      "stateMutability": "nonpayable",
      "type": "function"
    },
    {
      "inputs": [],
      "name": "owner",
      "outputs": [
        {
          "internalType": "address",
          "name": "",
          "type": "address"
        }
      ],
      "stateMutability": "view",
      "type": "function"
    },
    {
      "inputs": [],
      "name": "proxiableUUID",
      "outputs": [
        {
          "internalType": "bytes32",
          "name": "",
          "type": "bytes32"
        }
      ],
      "stateMutability": "view",
      "type": "function"
    },
    {
      "inputs": [],
      "name": "renounceOwnership",
      "outputs": [],
      "stateMutability": "nonpayable",
      "type": "function"
    },
    {
      "inputs": [
        {
          "internalType": "address",
          "name": "_fromToken",
          "type": "address"
        },
        {
          "internalType": "address",
          "name": "_toToken",
          "type": "address"
        },
        {
          "internalType": "uint256",
          "name": "amountIn",
          "type": "uint256"
        }
      ],
      "name": "swapExactInputSingle",
      "outputs": [
        {
          "internalType": "uint256",
          "name": "amountOut",
          "type": "uint256"
        }
      ],
      "stateMutability": "nonpayable",
      "type": "function"
    },
    {
      "inputs": [],
      "name": "swapRouter",
      "outputs": [
        {
          "internalType": "contract ISwapRouter",
          "name": "",
          "type": "address"
        }
      ],
      "stateMutability": "view",
      "type": "function"
    },
    {
      "inputs": [
        {
          "internalType": "address",
          "name": "newOwner",
          "type": "address"
        }
      ],
      "name": "transferOwnership",
      "outputs": [],
      "stateMutability": "nonpayable",
      "type": "function"
    },
    {
      "inputs": [],
      "name": "treasury",
      "outputs": [
        {
          "internalType": "contract ITreasury",
          "name": "",
          "type": "address"
        }
      ],
      "stateMutability": "view",
      "type": "function"
    },
    {
      "inputs": [
        {
          "internalType": "address",
          "name": "_treasury",
          "type": "address"
        }
      ],
      "name": "updateTreasury",
      "outputs": [],
      "stateMutability": "nonpayable",
      "type": "function"
    },
    {
      "inputs": [
        {
          "internalType": "enum AutoPay.Option[]",
          "name": "_types",
          "type": "uint8[]"
        },
        {
          "internalType": "string[]",
          "name": "_hashes",
          "type": "string[]"
        }
      ],
      "name": "updateWeb3functionHashes",
      "outputs": [],
      "stateMutability": "nonpayable",
      "type": "function"
    },
    {
      "inputs": [
        {
          "internalType": "address",
          "name": "newImplementation",
          "type": "address"
        }
      ],
      "name": "upgradeTo",
      "outputs": [],
      "stateMutability": "nonpayable",
      "type": "function"
    },
    {
      "inputs": [
        {
          "internalType": "address",
          "name": "newImplementation",
          "type": "address"
        },
        {
          "internalType": "bytes",
          "name": "data",
          "type": "bytes"
        }
      ],
      "name": "upgradeToAndCall",
      "outputs": [],
      "stateMutability": "payable",
      "type": "function"
    },
    {
      "inputs": [
        {
          "internalType": "address",
          "name": "",
          "type": "address"
        },
        {
          "internalType": "address",
          "name": "",
          "type": "address"
        }
      ],
      "name": "userBalance",
      "outputs": [
        {
          "internalType": "uint256",
          "name": "",
          "type": "uint256"
        }
      ],
      "stateMutability": "view",
      "type": "function"
    },
    {
      "inputs": [
        {
          "internalType": "address",
          "name": "from",
          "type": "address"
        },
        {
          "internalType": "address",
          "name": "recipient",
          "type": "address"
        },
        {
          "internalType": "address",
          "name": "destinationContract",
          "type": "address"
        },
        {
          "internalType": "uint32",
          "name": "destinationDomain",
          "type": "uint32"
        },
        {
          "internalType": "address",
          "name": "fromToken",
          "type": "address"
        },
        {
          "internalType": "address",
          "name": "toToken",
          "type": "address"
        },
        {
          "internalType": "uint256",
          "name": "amount",
          "type": "uint256"
        },
        {
          "internalType": "uint256",
          "name": "slippage",
          "type": "uint256"
        },
        {
          "internalType": "uint256",
          "name": "relayerFeeInTransactingAsset",
          "type": "uint256"
        }
      ],
      "name": "xTransfer",
      "outputs": [],
      "stateMutability": "nonpayable",
      "type": "function"
    },
    {
      "stateMutability": "payable",
      "type": "receive"
    }
  ],
  "bytecode": "0x60a08060405234620000e157306080526000549060ff8260081c166200008f575060ff8082161062000053575b6040516141d99081620000e7823960805181818161237301528181612472015261277d0152f35b60ff90811916176000557f7f26b83ff96e1f2b6a682f133852f6798a09c465da95921460cefb3847402498602060405160ff8152a1386200002c565b62461bcd60e51b815260206004820152602760248201527f496e697469616c697a61626c653a20636f6e747261637420697320696e697469604482015266616c697a696e6760c81b6064820152608490fd5b600080fdfe61036080604052600436101561001b575b50361561001957005b005b60006102805260003560e01c908163049aacfe1461297e5750806313a1169c1461295a57806328f150eb1461292e5780633659cfe61461275957806346ee3c591461272d5780634f1ef2861461242457806352d1902d1461235d57806357fb1d671461232b57806361d027b3146122ff57806362a4b0a9146122a757806369d13cd91461226e5780636c3f9a5b14611e50578063715018a614611deb578063717a8dd714611d845780637e2704cc14611d685780637f51bb1f14611d2557806383786f8c14611ca05780638b7b23ee14611c7f5780638da5cb5b14611c53578063a0d7010214611c14578063a45472b214611382578063a8f383f514611328578063ad5c4648146112f6578063b1e7ed58146110c9578063b6c8c5bd14611050578063baee130a14611015578063c0c53b8b14610c89578063c31c9c0714610c5d578063c6fd398d14610bce578063c71daccb14610baf578063c736d038146108a3578063caf9e1911461067e578063ceb920121461053b578063d8524c6f146102f3578063de4b0548146102c4578063f19f1a9b146102605763f2fde38b146101c55738610010565b34610259576020366003190112610259576101de6129a2565b6101e6612ccf565b6001600160a01b03811615610205576101fe90612d27565b6102805180f35b60405162461bcd60e51b815260206004820152602660248201527f4f776e61626c653a206e6577206f776e657220697320746865207a65726f206160448201526564647265737360d01b6064820152608490fd5b6102805180fd5b346102595760a0366003190112610259576102796129a2565b6102816129b8565b6102896129ce565b91608435916001600160401b038311610259576020936102b06102bc943690600401612ca2565b9390926044359161324a565b604051908152f35b346102595761028051806003193601126102f05760ce546040516001600160a01b039091168152602090f35b80fd5b346102595760403660031901126102595761030c6129a2565b6103146129b8565b9061033160ff610280515460081c1661032c81612f3f565b612f3f565b60c980546001600160a01b039283166001600160a01b0319918216811790925560405163573ea57560e01b8152909391906020908181600481865afa80156104805785916102805191610501575b50928291602494168760cb54161760cb556040519384809263cd3d4fb960e01b8252600260048301525afa801561048057849261028051916104c8575b508190600460405180958193632e8743fd60e21b8352165afa8015610480578492610280519161048e575b5060409060248251809581936337b6269f60e21b8352306004840152165afa9081156104805784926102805192610436575b5050168360ca54161760ca55169060cc54161760cc556102805180f35b915091506040813d604011610478575b8161045360409383612abc565b8101031261025957610470849261046983613fde565b9201612fcf565b508580610419565b3d9150610446565b6040513d61028051823e3d90fd5b809350828092503d83116104c1575b6104a78183612abc565b810103126102595760406104bb8593613fde565b906103e7565b503d61049d565b809350828092503d83116104fa575b6104e18183612abc565b8101031261025957806104f48593613fde565b906103bc565b503d6104d7565b809250838092503d8311610534575b61051a8183612abc565b81010312610259575184811681036102595784908261037f565b503d610510565b34610259576060366003190112610259576105546129a2565b61055c6129b8565b60cf546001600160a01b039283926044359261057c9084908616846130aa565b836040519261058a84612a4f565b1682526020948593818585019316835260408401906101f4825260608501903082526080860142815260a087019182528460c08801936000855260e089019560008752828060cf5416996040519d8e9c8d63414bf38960e01b9052511660048d0152511660248b01525162ffffff1660448a0152511660648801525160848701525160a48601525160c4850152511660e4830152815a61010492600091f190811561067257600091610640575b50604051908152f35b90508181813d831161066b575b6106578183612abc565b81010312610666575182610637565b600080fd5b503d61064d565b6040513d6000823e3d90fd5b34610259576040366003190112610259576106976129a2565b61069f6129b8565b906106b360ff610280515460081c16612f3f565b60c980546001600160a01b039283166001600160a01b0319918216811790925560405163573ea57560e01b8152909360209290918381600481855afa918215610480578585926102805194610865575b50602493168760cb54161760cb556040519283809263cd3d4fb960e01b8252600260048301525afa9081156104805784918491610280519161082e575b50600460405180948193632e8743fd60e21b8352165afa90811561048057849061028051926107f1575b50604080516337b6269f60e21b815293821660048501529183916024918391165afa9182156104805761028051926107b0575b5050169060ca54161760ca556102805180f35b9091506040823d6040116107e9575b816107cc60409383612abc565b81010312610259576107e19061046983613fde565b50838061079d565b3d91506107bf565b809250848092503d8311610827575b61080a8183612abc565b8101031261025957836024610820604093613fde565b925061076a565b503d610800565b92505081813d831161085e575b6108458183612abc565b8101031261025957826108588592613fde565b87610740565b503d61083b565b92809294508391503d831161089c575b61087f8183612abc565b810103126102595751848116810361025957908390856024610703565b503d610875565b3461025957610120366003190112610259576108bd6129a2565b6108c56129b8565b906108ce612a10565b6064359263ffffffff84168403610666576108e76129e4565b9360a435926001600160a01b0384168403610666576001600160a01b0386169560009073fd2ab41e083c75085807c4a65c0a14fdd93d55a8198801610b9b575b5086610add575b610104358110610aba57604080516001600160a01b038881166020838101919091528782169383019390935287166060808301919091528152610a009261097482612a6b565b60ce546001600160a01b03169061098f906101043590612fc2565b9460006040518096819582946393f18ac560e01b845263ffffffff8c16600485015260018060a01b0316998a602485015273fd2ab41e083c75085807c4a65c0a14fdd93d55a96044850152336064850152608484015260e43560a484015261010060c4840152610104830190612c0f565b6101043560e483015203925af1801561067257610a8b575b50604080516001600160a01b039586168152602081019290925260c4359082015242606082015261010435608082015263ffffffff9190911660a082015290821692909116907f5add7a884c3fcd9dacaee558d72ece5037a4682a29b4e07a9ead795c5f26e0549060c090a46102805180f35b602090819492943d8311610ab3575b610aa48183612abc565b81010312610666579186610a18565b503d610a9a565b60405163c4225e5760e01b815260c4356004820152610104356024820152604490fd5b60ce54604051636eb1769f60e11b81523060048201526001600160a01b039091166024820181905260208260448173fd2ab41e083c75085807c4a65c0a14fdd93d55a95afa91821561067257600092610b68575b506101043591610b418385612f9f565b11610b4e575b505061092e565b610b5b610b619284612f9f565b90612fdc565b8780610b47565b9091506020813d8211610b93575b81610b8360209383612abc565b8101031261066657519089610b31565b3d9150610b76565b610ba9915060c435906133e5565b87610927565b346102595761028051806003193601126102f057602047604051908152f35b346102595761018036600319011261025957610be86129a2565b610bf06129b8565b610bf86129ce565b91610c016129e4565b610c09612c8f565b93610c126129fa565b926101643593841515850361066657610c5996610c459661014435956101243595610104359560a43593604435916135bb565b604051918291602083526020830190612c0f565b0390f35b346102595761028051806003193601126102f05760cf546040516001600160a01b039091168152602090f35b34610259576060366003190112610259576001600160a01b0360043581811690819003610259576024359180831680930361025957604435918183168093036102595761028051549360ff8560081c161594858096611008575b8015610ff1575b15610f95576102805160ff198216600117815560ff9187610f84575b505460081c1691610d1683612f3f565b610d1f83612f3f565b6001600160601b0360a01b90858260c954161760c9556040519563573ea57560e01b87526020968781600481855afa918215610480578789926102805194610f46575b50602493168560cb54161760cb556040519283809263cd3d4fb960e01b8252600260048301525afa90811561048057869188916102805191610f0f575b50600460405180948193632e8743fd60e21b8352165afa80156104805786916102805191610ed5575b5060409060248251809981936337b6269f60e21b8352306004840152165afa8015610480576102805190610e94575b610e309650168260ca54161760ca55338260cc54161760cc558160ce54161760ce5560cf54161760cf5561271060cd5561032c81612f3f565b610e3933612d27565b610280515491610e4e60ff8460081c16612f3f565b610e59576102805180f35b7f7f26b83ff96e1f2b6a682f133852f6798a09c465da95921460cefb38474024989161ff001916610280515560405160018152a180806101fe565b506040863d604011610ecd575b81610eae60409383612abc565b810103126102595785610ec788610469610e3099613fde565b50610df7565b3d9150610ea1565b809250888092503d8311610f08575b610eee8183612abc565b81010312610259576040610f028792613fde565b90610dc8565b503d610ee4565b92505081813d8311610f3f575b610f268183612abc565b810103126102595786610f398792613fde565b8a610d9f565b503d610f1c565b92809294508391503d8311610f7d575b610f608183612abc565b810103126102595751868116810361025957908790876024610d62565b503d610f56565b61ffff191661010117815587610d06565b60405162461bcd60e51b815260206004820152602e60248201527f496e697469616c697a61626c653a20636f6e747261637420697320616c72656160448201526d191e481a5b9a5d1a585b1a5e995960921b6064820152608490fd5b50303b158015610cea5750600160ff821614610cea565b50600160ff821610610ce3565b346102595760203660031901126102595760043560ff811680910361025957610280515260d4602052610c59610c4560406102805120612b69565b34610259576101603660031901126102595761106a6129a2565b611072612a10565b9061107b6129ce565b9060a4359163ffffffff831683036106665760c435936001600160a01b0385168503610666576101fe946110ad612c7f565b946101243594610104359460e4359460843592602435906139d8565b34610259576040366003190112610259576004356001600160401b038111610259576110f9903690600401612c4f565b906024356001600160401b03811161025957611119903690600401612c4f565b9091611123612ccf565b61028051935b808510611137576102805180f35b828510156112dc578460051b84013594601e1985360301861215610259576001600160401b038686013511610259578585013536036020878701011361025957611182818385613fba565b3560048110156102595760005260d360205260406000206111a38154612b2f565b601f811161128e575b506102805196601f818801351160011461120d576111f493949596976102805190828a01356111fd575b508189013560011b91600019908a013560031b1c1916179055613fab565b93929190611129565b60209150828a01010135896111d6565b818852610280516020812088830135601f19169990915b8a811061127257508899836111f49798999a013511611250575b5050600190880135811b019055613fab565b602060001960f8858d013560031b161c1991848c01010135169055888061123e565b90916020600181928286888f0101013581550193019101611224565b81610280515260206102805120601f898901350160051c810160208a8a0135106112d5575b601f830160051c820181106112c95750506111ac565b600081556001016112b3565b50806112b3565b634e487b7160e01b61028051526032600452602461028051fd5b346102595761028051806003193601126102f057602060405173fd2ab41e083c75085807c4a65c0a14fdd93d55a98152f35b3461025957602036600319011261025957600435610280515260d060205260806040610280512060018060a01b03815416906001810154906003600282015491015491604051938452602084015260408301526060820152f35b34610259576101e03660031901126102595761139c6129a2565b6113a46129b8565b6113ac6129ce565b916113b56129e4565b916113be612c8f565b6113c66129fa565b906101843515156101843503610259576101a4356001600160a01b0381169003610259576101c4356001600160401b0381116102595761140a903690600401612ca2565b60ca5491969094916001600160a01b03163303611bcf575a604051636eb1769f60e11b81526001600160a01b0388166004820152306024820152909790602081806044810103816001600160a01b038e165afa908115610480576102805191611b9d575b5060443511611ae5576040516323b872dd60e01b602082019081526001600160a01b038916602483015230604480840191909152356064830152906114c081608481015b03601f198101835282612abc565b610280519182915190828d5af16114d5612ec2565b81611aae575b5015611a83576044354660a435148080611a6d575b1561178e575050611538949561150e916101a435604435858d61324a565b9461151a868484613ff2565b6101443593610124359361010435938b60a43592604435908c6140ac565b9283610280515260d06020526115956115806115796040610280512093600285019460016115668754613fab565b91828855015414611780575b5a90612fc2565b3a906139c5565b606461158e60cd54836139c5565b0490612f9f565b60d254604051638da5cb5b60e01b8152919691906001600160a01b0316602082600481845afa918215610480576102805192611744575b5061018435156116a3575060d2546001600160a01b031691823b156102595760405163c1461d5760e01b8152610280516001600160a01b039384166004830152919092166024830152604482018890529091829060649082908a905af180156104805761168d575b50916080917f7b9cedde1d63582cc62dddb84ed8661afec5ba349d66ad2553af2eff79a9331b935b546040805191825260208201979097529586015261018435151560608601526001600160a01b031693a36102805180f35b61169690612a26565b6102805180156116345780fd5b949293915050833b1561025957604051631bc64ab360e21b815273eeeeeeeeeeeeeeeeeeeeeeeeeeeeeeeeeeeeeeee6004820152602481018790526001600160a01b03831660448201526102805190948590606490829084905af1928315610480577f7b9cedde1d63582cc62dddb84ed8661afec5ba349d66ad2553af2eff79a9331b94608094611735575b5061165c565b61173e90612a26565b8761172f565b9091506020813d602011611778575b8161176060209383612abc565b810103126102595761177190613fde565b90886115cc565b3d9150611753565b6117898861350f565b611572565b9150955015600014611a57576102805173fd2ab41e083c75085807c4a65c0a14fdd93d55a8196001600160a01b038a1601611a45575b6001600160a01b03891661198a575b61016435811061196857604080516001600160a01b0389811660208381019190915286821693830193909352841660608083019190915281526118a69261181982612a6b565b60ce546001600160a01b031690611834906101643590612fc2565b6040516393f18ac560e01b815263ffffffff891660048201526001600160a01b038a16602482015273fd2ab41e083c75085807c4a65c0a14fdd93d55a96044820152336064820152608481019190915261012c60a482015261010060c482015293849283918291610104830190612c0f565b6101643560e4830152039161028051905af180156104805761193d575b50604080516001600160a01b03838116825280871660208301526044359282019290925242606082015261016435608082015263ffffffff851660a082015261153895918a811691858216918a16907f5add7a884c3fcd9dacaee558d72ece5037a4682a29b4e07a9ead795c5f26e0549060c090a461151a565b602090813d8311611961575b6119538183612abc565b8101031261025957886118c3565b503d611949565b60405163c4225e5760e01b815260448035600483015261016435602483015290fd5b60ce54604051636eb1769f60e11b81523060048201526001600160a01b039091166024820181905260208260448173fd2ab41e083c75085807c4a65c0a14fdd93d55a95afa918215610480576102805192611a11575b5061016435916119f08385612f9f565b116119fd575b50506117d3565b610b5b611a0a9284612f9f565b89806119f6565b9091506020813d602011611a3d575b81611a2d60209383612abc565b810103126102595751908b6119e0565b3d9150611a20565b50611a52604435896133e5565b6117c4565b61153893611a68604435848b613ff2565b61151a565b506001600160a01b038b811690851614156114f0565b60405162461bcd60e51b815260206004820152600360248201526229aa2360e91b6044820152606490fd5b8051801592508215611ac3575b50508a6114db565b8192509060209181010312610259576020611ade9101612fcf565b8a80611abb565b604051636eb1769f60e11b81526001600160a01b03881660048201523060248201528990602081806044810103816001600160a01b0386165afa908115610480576102805191611b6b575b5060405163059d9d6d60e31b815260048101919091526044803560248301526001600160a01b039290921691810191909152606490fd5b0390fd5b90506020813d602011611b95575b81611b8660209383612abc565b81010312610259575182611b30565b3d9150611b79565b90506020813d602011611bc7575b81611bb860209383612abc565b8101031261025957518a61146e565b3d9150611bab565b60405162461bcd60e51b815260206004820152601960248201527f4f6e6c7920646564696361746564206d73672e73656e646572000000000000006044820152606490fd5b604036600319011261025957611c286129a2565b6024356001600160401b03811161025957602091611c4d6102bc923690600401612ca2565b916130f5565b346102595761028051806003193601126102f0576033546040516001600160a01b039091168152602090f35b346102595761028051806003193601126102f057602060cd54604051908152f35b3461025957602080600319360112610259576024816001600160a01b03611cc56129a2565b16604051928380926370a0823160e01b82523060048301525afa908115610480576102805191611cf85750604051908152f35b90508181813d8311611d1e575b611d0f8183612abc565b81010312610259575182610637565b503d611d05565b3461025957602036600319011261025957611d3e6129a2565b611d46612ccf565b60018060a01b03166001600160601b0360a01b60d254161760d2556102805180f35b34610259576020366003190112610259576101fe60043561350f565b34610259576101603660031901126102595760206102bc611da36129a2565b611dab6129b8565b90611db46129ce565b90611dbd6129e4565b92611dc6612c8f565b611dce6129fa565b9161014435956101243595610104359560a43593604435916140ac565b346102595761028051806003193601126102f057611e07612ccf565b603380546001600160a01b03198116909155610280519081906001600160a01b03167f8be0079c531659141344cd1fd0a4f28419497f9722a3daafe3b4186f6b6457e08280a380f35b3461025957610160366003190112610259576004356001600160401b03811161025957611e81903690600401612c4f565b6102a0526024356001600160401b03811161025957611ea4903690600401612c4f565b61018052610160526044356001600160401b03811161025957611ecb903690600401612c4f565b61010052610260526064356001600160401b03811161025957611ef2903690600401612c4f565b60c0526102c0526084356001600160401b03811161025957611f18903690600401612c4f565b610200526102205260a4356001600160401b03811161025957611f3f903690600401612c4f565b60a0526102e05260c4356001600160401b03811161025957611f65903690600401612c4f565b610120526101a05260e4356001600160401b03811161025957611f8c903690600401612c4f565b610300526101e052610104356001600160401b03811161025957611fb4903690600401612c4f565b6101c05261024052610124356001600160401b03811161025957611fdc903690600401612c4f565b60805261014052611feb612c7f565b60e052610280515b6102a0518110156101fe5760018060a01b0361201e612019836101005161026051613fba565b613fca565b604051636eb1769f60e11b81523360048201523060248201529160209183916044918391165afa90811561048057610280519161223c575b50612068826101805161016051613fba565b35116121565761207f612019826102a05185613fba565b90612091816101805161016051613fba565b35916120a7612019836101005161026051613fba565b926120bb6120198460c0516102c051613fba565b916120cd846102005161022051613fba565b35946120df8560a0516102e051613fba565b359363ffffffff85168503610259576121519661214c9561210a61201989610120516101a051613fba565b9161211c89610300516101e051613fba565b359361212f8a6101c05161024051613fba565b359560e051986121458c60805161014051613fba565b35986139d8565b613fab565b611ff3565b60018060a01b03612171612019836101005161026051613fba565b604051636eb1769f60e11b81523360048201523060248201529160209183916044918391165afa90811561048057610280519161220a575b50611b676121d36120196121c4856101805161016051613fba565b35946101005161026051613fba565b60405163059d9d6d60e31b8152600481019390935260248301939093526001600160a01b0390921660448201529081906064820190565b90506020813d602011612234575b8161222560209383612abc565b810103126102595751826121a9565b3d9150612218565b90506020813d602011612266575b8161225760209383612abc565b81010312610259575183612056565b3d915061224a565b3461025957602036600319011261025957600435600481101561025957610280515260d3602052610c59610c4560406102805120612b69565b34610259576040366003190112610259576122c06129a2565b6122c86129b8565b9060018060a01b03809116610280515260d16020526102805190604082209216905260205260206040610280512054604051908152f35b346102595761028051806003193601126102f05760d2546040516001600160a01b039091168152602090f35b346102595761028051806003193601126102f0576020604051737506c12a824d73d9b08564d5afc22c949434755e8152f35b346102595761028051806003193601126102f0577f00000000000000000000000000000000000000000000000000000000000000006001600160a01b031630036123b95760206040516000805160206141848339815191528152f35b60405162461bcd60e51b815260206004820152603860248201527f555550535570677261646561626c653a206d757374206e6f742062652063616c60448201527f6c6564207468726f7567682064656c656761746563616c6c00000000000000006064820152608490fd5b6040366003190112610259576124386129a2565b6024356001600160401b038111610259573660238201121561025957612468903690602481600401359101612af8565b6001600160a01b037f0000000000000000000000000000000000000000000000000000000000000000811691906124a130841415612d70565b6124be600080516020614184833981519152938285541614612dd1565b6124c6612ccf565b7f4910fdfa16fed3260ed0e7147f7cc6da11a60208b5b9406d12a635614ffd91435460ff16156124fc575050506101fe90612e32565b831692604051926352d1902d60e01b84526020938481600481895afa6102805191816126fe575b506125845760405162461bcd60e51b815260048101869052602e60248201527f45524331393637557067726164653a206e657720696d706c656d656e7461746960448201526d6f6e206973206e6f74205555505360901b6064820152608490fd5b036126a75761259281612e32565b604051937fbc7cd75a20ee27fd9adebab32041f755214dbc6bffa90cc0225b39da2e5c2d3b6102805180a281511580159061269f575b6125d6575b505050506101fe565b803b1561264e576126449350610280519182918482519201905af46125f9612ec2565b907f416464726573733a206c6f772d6c6576656c2064656c65676174652063616c6c6040519361262885612aa1565b60278552840152660819985a5b195960ca1b6040840152612ef2565b50808080806125cd565b62461bcd60e51b845260048401839052602660248501527f416464726573733a2064656c65676174652063616c6c20746f206e6f6e2d636f6044850152651b9d1c9858dd60d21b6064850152608484fd5b5060016125c8565b60405162461bcd60e51b815260048101849052602960248201527f45524331393637557067726164653a20756e737570706f727465642070726f786044820152681a58589b195555525160ba1b6064820152608490fd5b9091508581813d8311612726575b6127168183612abc565b8101031261025957519087612523565b503d61270c565b346102595761028051806003193601126102f05760cc546040516001600160a01b039091168152602090f35b3461025957602080600319360112610259576127736129a2565b6001600160a01b037f0000000000000000000000000000000000000000000000000000000000000000811692906127ac30851415612d70565b6127c9600080516020614184833981519152948286541614612dd1565b6127d1612ccf565b604051906127de82612a86565b6102805182527f4910fdfa16fed3260ed0e7147f7cc6da11a60208b5b9406d12a635614ffd91435460ff161561281b575050506101fe9150612e32565b8391929316936040516352d1902d60e01b81528481600481895afa6102805191816128ff575b506128a25760405162461bcd60e51b815260048101869052602e60248201527f45524331393637557067726164653a206e657720696d706c656d656e7461746960448201526d6f6e206973206e6f74205555505360901b6064820152608490fd5b036126a7576128b081612e32565b6040519361028051907fbc7cd75a20ee27fd9adebab32041f755214dbc6bffa90cc0225b39da2e5c2d3b8280a2825115908115916128f7575b506125d657505050506101fe565b9050856128e9565b9091508581813d8311612927575b6129178183612abc565b8101031261025957519087612841565b503d61290d565b346102595761028051806003193601126102f05760ca546040516001600160a01b039091168152602090f35b3461025957602036600319011261025957612973612ccf565b6101fe600435614139565b346106665760003660031901126106665760c9546001600160a01b03168152602090f35b600435906001600160a01b038216820361066657565b602435906001600160a01b038216820361066657565b606435906001600160a01b038216820361066657565b608435906001600160a01b038216820361066657565b60e435906001600160a01b038216820361066657565b604435906001600160a01b038216820361066657565b6001600160401b038111612a3957604052565b634e487b7160e01b600052604160045260246000fd5b61010081019081106001600160401b03821117612a3957604052565b608081019081106001600160401b03821117612a3957604052565b602081019081106001600160401b03821117612a3957604052565b606081019081106001600160401b03821117612a3957604052565b90601f801991011681019081106001600160401b03821117612a3957604052565b6001600160401b038111612a3957601f01601f191660200190565b929192612b0482612add565b91612b126040519384612abc565b829481845281830111610666578281602093846000960137010152565b90600182811c92168015612b5f575b6020831014612b4957565b634e487b7160e01b600052602260045260246000fd5b91607f1691612b3e565b9060405191826000825492612b7d84612b2f565b908184526001948581169081600014612bec5750600114612ba9575b5050612ba792500383612abc565b565b9093915060005260209081600020936000915b818310612bd4575050612ba793508201013880612b99565b85548884018501529485019487945091830191612bbc565b915050612ba794506020925060ff191682840152151560051b8201013880612b99565b919082519283825260005b848110612c3b575050826000602080949584010152601f8019910116010190565b602081830181015184830182015201612c1a565b9181601f84011215610666578235916001600160401b038311610666576020808501948460051b01011161066657565b6101443590811515820361066657565b60c4359063ffffffff8216820361066657565b9181601f84011215610666578235916001600160401b038311610666576020838186019501011161066657565b6033546001600160a01b03163303612ce357565b606460405162461bcd60e51b815260206004820152602060248201527f4f776e61626c653a2063616c6c6572206973206e6f7420746865206f776e65726044820152fd5b603380546001600160a01b039283166001600160a01b0319821681179092559091167f8be0079c531659141344cd1fd0a4f28419497f9722a3daafe3b4186f6b6457e0600080a3565b15612d7757565b60405162461bcd60e51b815260206004820152602c60248201527f46756e6374696f6e206d7573742062652063616c6c6564207468726f7567682060448201526b19195b1959d85d1958d85b1b60a21b6064820152608490fd5b15612dd857565b60405162461bcd60e51b815260206004820152602c60248201527f46756e6374696f6e206d7573742062652063616c6c6564207468726f7567682060448201526b6163746976652070726f787960a01b6064820152608490fd5b803b15612e675760008051602061418483398151915280546001600160a01b0319166001600160a01b03909216919091179055565b60405162461bcd60e51b815260206004820152602d60248201527f455243313936373a206e657720696d706c656d656e746174696f6e206973206e60448201526c1bdd08184818dbdb9d1c9858dd609a1b6064820152608490fd5b3d15612eed573d90612ed382612add565b91612ee16040519384612abc565b82523d6000602084013e565b606090565b909160609115612f0157505090565b612ba79193925b805190925015612f1b5750805190602001fd5b60405162461bcd60e51b815260206004820152908190611b67906024830190612c0f565b15612f4657565b60405162461bcd60e51b815260206004820152602b60248201527f496e697469616c697a61626c653a20636f6e7472616374206973206e6f74206960448201526a6e697469616c697a696e6760a81b6064820152608490fd5b91908201809211612fac57565b634e487b7160e01b600052601160045260246000fd5b91908203918211612fac57565b5190811515820361066657565b60405163095ea7b360e01b602082019081526001600160a01b039092166024820152604481019290925260009182919061301981606481016114b2565b51908273fd2ab41e083c75085807c4a65c0a14fdd93d55a95af161303b612ec2565b81613073575b501561304957565b60405162461bcd60e51b8152602060048201526002602482015261534160f01b6044820152606490fd5b8051801592508215613088575b505038613041565b81925090602091810103126106665760206130a39101612fcf565b3880613080565b60405163095ea7b360e01b602082019081526001600160a01b039093166024820152604481019390935260009283929083906130e981606481016114b2565b51925af161303b612ec2565b9190613102913691612af8565b9060405190604082018281106001600160401b03821117612a3957604052601882527f216469726563745377617070657243616c6c4661696c656400000000000000006020830152344710613184576000808460206131709651910134855af161316a612ec2565b916131d8565b602081805181010312610666576020015190565b60405162461bcd60e51b815260206004820152602660248201527f416464726573733a20696e73756666696369656e742062616c616e636520666f6044820152651c8818d85b1b60d21b6064820152608490fd5b91926060911561323d5750508151156131ef575090565b3b156131f85790565b60405162461bcd60e51b815260206004820152601d60248201527f416464726573733a2063616c6c20746f206e6f6e2d636f6e74726163740000006044820152606490fd5b909392612ba79250612f08565b6001600160a01b0380821697969594939192811688146133dc5783169081156133a157604051636eb1769f60e11b81523060048201526001600160a01b03851660248201526020988990829060449082905afa90811561067257600091613374575b50106132c3575b50506132c09394506130f5565b90565b6000918291826040518a81019263095ea7b360e01b8452602482015281196044820152604481526132f381612a6b565b51925af16132ff612ec2565b8161333c575b50156133125784806132b3565b60405162461bcd60e51b8152600481018690526002602482015261534160f01b6044820152606490fd5b80915051868115918215613355575b5050905038613305565b8380929350010312610666578561336c9101612fcf565b80863861334b565b908982813d831161339a575b61338a8183612abc565b810103126102f0575051386132ac565b503d613380565b60405162461bcd60e51b8152602060048201526013602482015272537761703a207a65726f20737761707065722160681b6044820152606490fd5b50955050505050565b60cf546001600160a01b0392839290916134039083908516836130aa565b826040519161341183612a4f565b1681526020810173fd2ab41e083c75085807c4a65c0a14fdd93d55a9815283604083016101f481526060840194308652608085019042825260a0860190815260c08601916000998a9889855260e08901958a8752828060cf5416996040519d8e9c8d63414bf38960e01b9052511660048d0152511660248b01525162ffffff1660448a0152511660648801525160848701525160a48601525160c4850152511660e4830152815a9361010492602095f19182156135035780926134d357505090565b9091506020823d82116134fb575b816134ee60209383612abc565b810103126102f057505190565b3d91506134e1565b604051903d90823e3d90fd5b60009080825260d0602052604082206040519061352b82612a6b565b6060600360018060a01b038354169283855260018101546020860152600281015460408601520154920191825215613587576135679051614139565b815260d06020526003604082208281558260018201558260028201550155565b60405162461bcd60e51b815260206004820152600c60248201526b139bc81293d088119bdd5b9960a21b6044820152606490fd5b909996939a9798959194929a85866000977a184f03e93ff9f4daa797ed6e38ed64bf6a1f0100000000000000009081811015613893575b5050600a906d04ee2d6d415b85acef810000000080821015613886575b50662386f26fc1000080821015613879575b506305f5e1008082101561386c575b506127108082101561385f575b506064811015613851575b1015613846575b600a602161365f60018a01612add565b9861366d6040519a8b612abc565b60018101808b52601f199061368190612add565b013660208c01378901015b60001901916f181899199a1a9b1b9c1cb0b131b232b360811b8282061a8353049081156136bb57600a9061368c565b50506136dd6136d76136d16136d16004956138a2565b9d6138a2565b916138a2565b60ce5460405163617d935360e11b81529391929160209185919082906001600160a01b03165afa92831561067257600093613812575b5061371d306138a2565b95613727906138a2565b966040519d8e809e602082016101e09052610200820161374691612c0f565b90601f1981830301906040015261375c91612c0f565b8d8103601f190160608f015261377191612c0f565b8c8103601f190160808e015261378691612c0f565b8b8103601f190160a08d015261379b91612c0f565b924660c08c015260e08b01526101008a015263ffffffff16610120890152601f19888203016101408901526137cf91612c0f565b868103601f19016101608801526137e591612c0f565b936101808601526101a08501526101c084015215156101e083015203601f19810182526132c09082612abc565b90926020823d60201161383e575b8161382d60209383612abc565b810103126102f05750519138613713565b3d9150613820565b60019096019561364f565b606460029104980197613648565b600491049801973861363d565b6008910498019738613630565b6010910498019738613621565b602091049801973861360f565b60409950049050600a386135f2565b604051906001600160a01b03166138b882612aa1565b602a825260209081830160403682378351156139af576030905382516001908110156139af57607860218501536029905b80821161393d5750506138fa575090565b6064906040519062461bcd60e51b825280600483015260248201527f537472696e67733a20686578206c656e67746820696e73756666696369656e746044820152fd5b9091600f8116601081101561399a57855184101561399a576f181899199a1a9b1b9c1cb0b131b232b360811b901a85840185015360041c9180156139855760001901906138e9565b60246000634e487b7160e01b81526011600452fd5b60246000634e487b7160e01b81526032600452fd5b634e487b7160e01b600052603260045260246000fd5b81810292918115918404141715612fac57565b61034052604051636eb1769f60e11b8152336004820152306024820152949a999098909790969095909490939291906020816044816001600160a01b0386165afa8015610672578a91600091613f49575b5010613ea457613a48888888888f89908f89898c9261034051336135bb565b60405190636074606160e11b6020830152600482528160408101106001600160401b03604084011117612a3957604082810190526000805260d3602052613aae7f938258ec6d8d468a3507d140e1c026dc2afa285c097847a088da7b50946fb91b612b69565b9060405190613abc82612a6b565b600382526060366020840137604051613ad481612a6b565b6003815260005b60608110613e935750604051938460408101106001600160401b03604087011117612a39576114b2613bce93613b8d8f8f6001613b2d613bf59a613be09960208e604081016040528381520152613f7e565b526002613b3a8b51613f8b565b526004613b478b51613f9b565b52604051916fffffffffffffffffffffffffffffffff809216602084015216604082015260408152613b7881612aa1565b602089015190613b8782613f7e565b52613f7e565b50613bb6604051613b9d81612a86565b60008152602089015190613bb082613f8b565b52613f8b565b50604051948593604060208601526060850190612c0f565b838103601f1901604085015290612c0f565b602083015190613bef82613f9b565b52613f9b565b5060ca5460c954604051610320818152633323b46760e01b90915280516001600160a01b039384166004909101528051608060249091015251911692613c3e9160840190612c0f565b906103205160446003198285030191015260408201908051916040845282518091526020606085019301906000905b808210613e5a5750505060200151916020818303910152815180825260208201916020808360051b8301019401926000915b838310613e2d575050505050602091600091826064610320510152610320519283809203925af198891561067257600099613df3575b9181838b613cfc60039d9e9f968b8b8b8f938c8a63ffffffff9e9c8e9361034051336140ac565b9c8d9160405192613d0c84612a6b565b338452602084018c81526040850191600083526060860193845260005260d060205260406000209460018060a01b039051166001600160601b0360a01b865416178555516001850155516002840155519101556040519c8d5260208d015260018060a01b031660408c015260018060a01b031660608b015260808a01521660a088015260018060a01b031660c087015260e08601526101008501526101208401521515610140830152600061016083015260018060a01b036103405116917fe9947d23b8fb33fd310fb94d6fda5f001146548a36fc2f9897d6decb0fc215996101803392a4565b986020903d602011613e25575b613e0d8261032051612abc565b6020610320518093810103126102f057505198613cd5565b3d9150613e00565b9091929394602080613e4b600193601f198682030187528951612c0f565b97019301930191939290613c9f565b9091938451906005821015613e7d57602081600193829352019501920190613c6d565b634e487b7160e01b600052602160045260246000fd5b806060602080938501015201613adb565b604051636eb1769f60e11b815233600482015230602482015289916020826044816001600160a01b0385165afa91821561067257600092613f13575b5060405163059d9d6d60e31b8152600481019290925260248201929092526001600160a01b039091166044820152606490fd5b90916020823d602011613f41575b81613f2e60209383612abc565b810103126102f057505190611b67613ee0565b3d9150613f21565b91506020823d602011613f76575b81613f6460209383612abc565b810103126102f0575089905138613a29565b3d9150613f57565b8051156139af5760200190565b8051600110156139af5760400190565b8051600210156139af5760600190565b6000198114612fac5760010190565b91908110156139af5760051b0190565b356001600160a01b03811681036106665790565b51906001600160a01b038216820361066657565b60405163a9059cbb60e01b602082019081526001600160a01b0390931660248201526044810193909352600092839290839061403181606481016114b2565b51925af161403d612ec2565b81614075575b501561404b57565b60405162461bcd60e51b815260206004820152600260248201526114d560f21b6044820152606490fd5b805180159250821561408a575b505038614043565b81925090602091810103126106665760206140a59101612fcf565b3880614082565b9163ffffffff9399979460609b9997939692966040519b8c93602085019e8f9560018060a01b03809c819882809816905216604082015201521660808c01521660a08a015260c08901521660e0870152166101008501526101208401526101408301526101609081830152815261018081018181106001600160401b03821117612a395760405251902090565b60c9546001600160a01b031690813b156106665760009160248392604051948593849263ee8ca3b560e01b845260048401525af180156106725761417a5750565b612ba790612a2656fe360894a13ba1a3210667c828492db98dca3e2076cc3735a920a3ca505d382bbca26469706673582212204aa202ccd6d34aeb905342b60349943d89f7be2274c71f79607617dd2113a1cd64736f6c63430008110033",
  "linkReferences": {},
  "deployedLinkReferences": {}
}